{
  "_format": "hh-sol-artifact-1",
  "contractName": "PADToken",
  "sourceName": "contracts/PADToken.sol",
  "abi": [
    {
      "inputs": [],
      "stateMutability": "nonpayable",
      "type": "constructor"
    },
    {
      "inputs": [],
      "name": "AccessControlBadConfirmation",
      "type": "error"
    },
    {
      "inputs": [
        {
          "internalType": "address",
          "name": "account",
          "type": "address"
        },
        {
          "internalType": "bytes32",
          "name": "neededRole",
          "type": "bytes32"
        }
      ],
      "name": "AccessControlUnauthorizedAccount",
      "type": "error"
    },
    {
      "inputs": [],
      "name": "ECDSAInvalidSignature",
      "type": "error"
    },
    {
      "inputs": [
        {
          "internalType": "uint256",
          "name": "length",
          "type": "uint256"
        }
      ],
      "name": "ECDSAInvalidSignatureLength",
      "type": "error"
    },
    {
      "inputs": [
        {
          "internalType": "bytes32",
          "name": "s",
          "type": "bytes32"
        }
      ],
      "name": "ECDSAInvalidSignatureS",
      "type": "error"
    },
    {
      "inputs": [
        {
          "internalType": "address",
          "name": "spender",
          "type": "address"
        },
        {
          "internalType": "uint256",
          "name": "allowance",
          "type": "uint256"
        },
        {
          "internalType": "uint256",
          "name": "needed",
          "type": "uint256"
        }
      ],
      "name": "ERC20InsufficientAllowance",
      "type": "error"
    },
    {
      "inputs": [
        {
          "internalType": "address",
          "name": "sender",
          "type": "address"
        },
        {
          "internalType": "uint256",
          "name": "balance",
          "type": "uint256"
        },
        {
          "internalType": "uint256",
          "name": "needed",
          "type": "uint256"
        }
      ],
      "name": "ERC20InsufficientBalance",
      "type": "error"
    },
    {
      "inputs": [
        {
          "internalType": "address",
          "name": "approver",
          "type": "address"
        }
      ],
      "name": "ERC20InvalidApprover",
      "type": "error"
    },
    {
      "inputs": [
        {
          "internalType": "address",
          "name": "receiver",
          "type": "address"
        }
      ],
      "name": "ERC20InvalidReceiver",
      "type": "error"
    },
    {
      "inputs": [
        {
          "internalType": "address",
          "name": "sender",
          "type": "address"
        }
      ],
      "name": "ERC20InvalidSender",
      "type": "error"
    },
    {
      "inputs": [
        {
          "internalType": "address",
          "name": "spender",
          "type": "address"
        }
      ],
      "name": "ERC20InvalidSpender",
      "type": "error"
    },
    {
      "inputs": [
        {
          "internalType": "uint256",
          "name": "deadline",
          "type": "uint256"
        }
      ],
      "name": "ERC2612ExpiredSignature",
      "type": "error"
    },
    {
      "inputs": [
        {
          "internalType": "address",
          "name": "signer",
          "type": "address"
        },
        {
          "internalType": "address",
          "name": "owner",
          "type": "address"
        }
      ],
      "name": "ERC2612InvalidSigner",
      "type": "error"
    },
    {
      "inputs": [],
      "name": "EnforcedPause",
      "type": "error"
    },
    {
      "inputs": [],
      "name": "ExpectedPause",
      "type": "error"
    },
    {
      "inputs": [
        {
          "internalType": "address",
          "name": "account",
          "type": "address"
        },
        {
          "internalType": "uint256",
          "name": "currentNonce",
          "type": "uint256"
        }
      ],
      "name": "InvalidAccountNonce",
      "type": "error"
    },
    {
      "inputs": [],
      "name": "InvalidShortString",
      "type": "error"
    },
    {
      "inputs": [
        {
          "internalType": "string",
          "name": "str",
          "type": "string"
        }
      ],
      "name": "StringTooLong",
      "type": "error"
    },
    {
      "anonymous": false,
      "inputs": [
        {
          "indexed": true,
          "internalType": "address",
          "name": "owner",
          "type": "address"
        },
        {
          "indexed": true,
          "internalType": "address",
          "name": "spender",
          "type": "address"
        },
        {
          "indexed": false,
          "internalType": "uint256",
          "name": "value",
          "type": "uint256"
        }
      ],
      "name": "Approval",
      "type": "event"
    },
    {
      "anonymous": false,
      "inputs": [
        {
          "indexed": false,
          "internalType": "uint256",
          "name": "newPeriod",
          "type": "uint256"
        }
      ],
      "name": "CooldownPeriodSet",
      "type": "event"
    },
    {
      "anonymous": false,
      "inputs": [
        {
          "indexed": true,
          "internalType": "address",
          "name": "account",
          "type": "address"
        },
        {
          "indexed": false,
          "internalType": "bool",
          "name": "status",
          "type": "bool"
        }
      ],
      "name": "CooldownSet",
      "type": "event"
    },
    {
      "anonymous": false,
      "inputs": [],
      "name": "EIP712DomainChanged",
      "type": "event"
    },
    {
      "anonymous": false,
      "inputs": [
        {
          "indexed": true,
          "internalType": "address",
          "name": "newGnosisSafe",
          "type": "address"
        }
      ],
      "name": "GnosisSafeSet",
      "type": "event"
    },
    {
      "anonymous": false,
      "inputs": [
        {
          "indexed": false,
          "internalType": "address",
          "name": "account",
          "type": "address"
        }
      ],
      "name": "Paused",
      "type": "event"
    },
    {
      "anonymous": false,
      "inputs": [
        {
          "indexed": true,
          "internalType": "bytes32",
          "name": "role",
          "type": "bytes32"
        },
        {
          "indexed": true,
          "internalType": "bytes32",
          "name": "previousAdminRole",
          "type": "bytes32"
        },
        {
          "indexed": true,
          "internalType": "bytes32",
          "name": "newAdminRole",
          "type": "bytes32"
        }
      ],
      "name": "RoleAdminChanged",
      "type": "event"
    },
    {
      "anonymous": false,
      "inputs": [
        {
          "indexed": true,
          "internalType": "bytes32",
          "name": "role",
          "type": "bytes32"
        },
        {
          "indexed": true,
          "internalType": "address",
          "name": "account",
          "type": "address"
        },
        {
          "indexed": true,
          "internalType": "address",
          "name": "sender",
          "type": "address"
        }
      ],
      "name": "RoleGranted",
      "type": "event"
    },
    {
      "anonymous": false,
      "inputs": [
        {
          "indexed": true,
          "internalType": "bytes32",
          "name": "role",
          "type": "bytes32"
        },
        {
          "indexed": true,
          "internalType": "address",
          "name": "account",
          "type": "address"
        },
        {
          "indexed": true,
          "internalType": "address",
          "name": "sender",
          "type": "address"
        }
      ],
      "name": "RoleRevoked",
      "type": "event"
    },
    {
      "anonymous": false,
      "inputs": [
        {
          "indexed": true,
          "internalType": "address",
          "name": "from",
          "type": "address"
        },
        {
          "indexed": true,
          "internalType": "address",
          "name": "to",
          "type": "address"
        },
        {
          "indexed": false,
          "internalType": "uint256",
          "name": "value",
          "type": "uint256"
        }
      ],
      "name": "Transfer",
      "type": "event"
    },
    {
      "anonymous": false,
      "inputs": [
        {
          "indexed": false,
          "internalType": "address",
          "name": "account",
          "type": "address"
        }
      ],
      "name": "Unpaused",
      "type": "event"
    },
    {
      "inputs": [],
      "name": "ADMIN_ROLE",
      "outputs": [
        {
          "internalType": "bytes32",
          "name": "",
          "type": "bytes32"
        }
      ],
      "stateMutability": "view",
      "type": "function"
    },
    {
      "inputs": [],
      "name": "DEFAULT_ADMIN_ROLE",
      "outputs": [
        {
          "internalType": "bytes32",
          "name": "",
          "type": "bytes32"
        }
      ],
      "stateMutability": "view",
      "type": "function"
    },
    {
      "inputs": [],
      "name": "DOMAIN_SEPARATOR",
      "outputs": [
        {
          "internalType": "bytes32",
          "name": "",
          "type": "bytes32"
        }
      ],
      "stateMutability": "view",
      "type": "function"
    },
    {
      "inputs": [],
      "name": "PAUSER_ROLE",
      "outputs": [
        {
          "internalType": "bytes32",
          "name": "",
          "type": "bytes32"
        }
      ],
      "stateMutability": "view",
      "type": "function"
    },
    {
      "inputs": [
        {
          "internalType": "address",
          "name": "owner",
          "type": "address"
        },
        {
          "internalType": "address",
          "name": "spender",
          "type": "address"
        }
      ],
      "name": "allowance",
      "outputs": [
        {
          "internalType": "uint256",
          "name": "",
          "type": "uint256"
        }
      ],
      "stateMutability": "view",
      "type": "function"
    },
    {
      "inputs": [
        {
          "internalType": "address",
          "name": "spender",
          "type": "address"
        },
        {
          "internalType": "uint256",
          "name": "value",
          "type": "uint256"
        }
      ],
      "name": "approve",
      "outputs": [
        {
          "internalType": "bool",
          "name": "",
          "type": "bool"
        }
      ],
      "stateMutability": "nonpayable",
      "type": "function"
    },
    {
      "inputs": [
        {
          "internalType": "address",
          "name": "account",
          "type": "address"
        }
      ],
      "name": "balanceOf",
      "outputs": [
        {
          "internalType": "uint256",
          "name": "",
          "type": "uint256"
        }
      ],
      "stateMutability": "view",
      "type": "function"
    },
    {
      "inputs": [
        {
          "internalType": "address[]",
          "name": "recipients",
          "type": "address[]"
        },
        {
          "internalType": "uint256[]",
          "name": "amounts",
          "type": "uint256[]"
        }
      ],
      "name": "batchTransfer",
      "outputs": [],
      "stateMutability": "nonpayable",
      "type": "function"
    },
    {
      "inputs": [],
      "name": "cooldownPeriod",
      "outputs": [
        {
          "internalType": "uint256",
          "name": "",
          "type": "uint256"
        }
      ],
      "stateMutability": "view",
      "type": "function"
    },
    {
      "inputs": [],
      "name": "decimals",
      "outputs": [
        {
          "internalType": "uint8",
          "name": "",
          "type": "uint8"
        }
      ],
      "stateMutability": "view",
      "type": "function"
    },
    {
      "inputs": [],
      "name": "eip712Domain",
      "outputs": [
        {
          "internalType": "bytes1",
          "name": "fields",
          "type": "bytes1"
        },
        {
          "internalType": "string",
          "name": "name",
          "type": "string"
        },
        {
          "internalType": "string",
          "name": "version",
          "type": "string"
        },
        {
          "internalType": "uint256",
          "name": "chainId",
          "type": "uint256"
        },
        {
          "internalType": "address",
          "name": "verifyingContract",
          "type": "address"
        },
        {
          "internalType": "bytes32",
          "name": "salt",
          "type": "bytes32"
        },
        {
          "internalType": "uint256[]",
          "name": "extensions",
          "type": "uint256[]"
        }
      ],
      "stateMutability": "view",
      "type": "function"
    },
    {
      "inputs": [
        {
          "internalType": "bytes32",
          "name": "role",
          "type": "bytes32"
        }
      ],
      "name": "getRoleAdmin",
      "outputs": [
        {
          "internalType": "bytes32",
          "name": "",
          "type": "bytes32"
        }
      ],
      "stateMutability": "view",
      "type": "function"
    },
    {
      "inputs": [],
      "name": "gnosisSafe",
      "outputs": [
        {
          "internalType": "address",
          "name": "",
          "type": "address"
        }
      ],
      "stateMutability": "view",
      "type": "function"
    },
    {
      "inputs": [
        {
          "internalType": "bytes32",
          "name": "role",
          "type": "bytes32"
        },
        {
          "internalType": "address",
          "name": "account",
          "type": "address"
        }
      ],
      "name": "grantRole",
      "outputs": [],
      "stateMutability": "nonpayable",
      "type": "function"
    },
    {
      "inputs": [
        {
          "internalType": "address",
          "name": "",
          "type": "address"
        }
      ],
      "name": "hasCooldown",
      "outputs": [
        {
          "internalType": "bool",
          "name": "",
          "type": "bool"
        }
      ],
      "stateMutability": "view",
      "type": "function"
    },
    {
      "inputs": [
        {
          "internalType": "bytes32",
          "name": "role",
          "type": "bytes32"
        },
        {
          "internalType": "address",
          "name": "account",
          "type": "address"
        }
      ],
      "name": "hasRole",
      "outputs": [
        {
          "internalType": "bool",
          "name": "",
          "type": "bool"
        }
      ],
      "stateMutability": "view",
      "type": "function"
    },
    {
      "inputs": [
        {
          "internalType": "address",
          "name": "",
          "type": "address"
        }
      ],
      "name": "lastTransferTimestamp",
      "outputs": [
        {
          "internalType": "uint256",
          "name": "",
          "type": "uint256"
        }
      ],
      "stateMutability": "view",
      "type": "function"
    },
    {
      "inputs": [],
      "name": "name",
      "outputs": [
        {
          "internalType": "string",
          "name": "",
          "type": "string"
        }
      ],
      "stateMutability": "view",
      "type": "function"
    },
    {
      "inputs": [
        {
          "internalType": "address",
          "name": "owner",
          "type": "address"
        }
      ],
      "name": "nonces",
      "outputs": [
        {
          "internalType": "uint256",
          "name": "",
          "type": "uint256"
        }
      ],
      "stateMutability": "view",
      "type": "function"
    },
    {
      "inputs": [],
      "name": "pause",
      "outputs": [],
      "stateMutability": "nonpayable",
      "type": "function"
    },
    {
      "inputs": [],
      "name": "paused",
      "outputs": [
        {
          "internalType": "bool",
          "name": "",
          "type": "bool"
        }
      ],
      "stateMutability": "view",
      "type": "function"
    },
    {
      "inputs": [
        {
          "internalType": "address",
          "name": "owner",
          "type": "address"
        },
        {
          "internalType": "address",
          "name": "spender",
          "type": "address"
        },
        {
          "internalType": "uint256",
          "name": "value",
          "type": "uint256"
        },
        {
          "internalType": "uint256",
          "name": "deadline",
          "type": "uint256"
        },
        {
          "internalType": "uint8",
          "name": "v",
          "type": "uint8"
        },
        {
          "internalType": "bytes32",
          "name": "r",
          "type": "bytes32"
        },
        {
          "internalType": "bytes32",
          "name": "s",
          "type": "bytes32"
        }
      ],
      "name": "permit",
      "outputs": [],
      "stateMutability": "nonpayable",
      "type": "function"
    },
    {
      "inputs": [
        {
          "internalType": "bytes32",
          "name": "role",
          "type": "bytes32"
        },
        {
          "internalType": "address",
          "name": "callerConfirmation",
          "type": "address"
        }
      ],
      "name": "renounceRole",
      "outputs": [],
      "stateMutability": "nonpayable",
      "type": "function"
    },
    {
      "inputs": [
        {
          "internalType": "bytes32",
          "name": "role",
          "type": "bytes32"
        },
        {
          "internalType": "address",
          "name": "account",
          "type": "address"
        }
      ],
      "name": "revokeRole",
      "outputs": [],
      "stateMutability": "nonpayable",
      "type": "function"
    },
    {
      "inputs": [
        {
          "internalType": "address",
          "name": "account",
          "type": "address"
        },
        {
          "internalType": "bool",
          "name": "status",
          "type": "bool"
        }
      ],
      "name": "setCooldown",
      "outputs": [],
      "stateMutability": "nonpayable",
      "type": "function"
    },
    {
      "inputs": [
        {
          "internalType": "uint256",
          "name": "_cooldownPeriod",
          "type": "uint256"
        }
      ],
      "name": "setCooldownPeriod",
      "outputs": [],
      "stateMutability": "nonpayable",
      "type": "function"
    },
    {
      "inputs": [
        {
          "internalType": "address",
          "name": "_gnosisSafe",
          "type": "address"
        }
      ],
      "name": "setGnosisSafe",
      "outputs": [],
      "stateMutability": "nonpayable",
      "type": "function"
    },
    {
      "inputs": [
        {
          "internalType": "bytes4",
          "name": "interfaceId",
          "type": "bytes4"
        }
      ],
      "name": "supportsInterface",
      "outputs": [
        {
          "internalType": "bool",
          "name": "",
          "type": "bool"
        }
      ],
      "stateMutability": "view",
      "type": "function"
    },
    {
      "inputs": [],
      "name": "symbol",
      "outputs": [
        {
          "internalType": "string",
          "name": "",
          "type": "string"
        }
      ],
      "stateMutability": "view",
      "type": "function"
    },
    {
      "inputs": [],
      "name": "totalSupply",
      "outputs": [
        {
          "internalType": "uint256",
          "name": "",
          "type": "uint256"
        }
      ],
      "stateMutability": "view",
      "type": "function"
    },
    {
      "inputs": [
        {
          "internalType": "address",
          "name": "to",
          "type": "address"
        },
        {
          "internalType": "uint256",
          "name": "value",
          "type": "uint256"
        }
      ],
      "name": "transfer",
      "outputs": [
        {
          "internalType": "bool",
          "name": "",
          "type": "bool"
        }
      ],
      "stateMutability": "nonpayable",
      "type": "function"
    },
    {
      "inputs": [
        {
          "internalType": "address",
          "name": "from",
          "type": "address"
        },
        {
          "internalType": "address",
          "name": "to",
          "type": "address"
        },
        {
          "internalType": "uint256",
          "name": "value",
          "type": "uint256"
        }
      ],
      "name": "transferFrom",
      "outputs": [
        {
          "internalType": "bool",
          "name": "",
          "type": "bool"
        }
      ],
      "stateMutability": "nonpayable",
      "type": "function"
    },
    {
      "inputs": [],
      "name": "unpause",
      "outputs": [],
      "stateMutability": "nonpayable",
      "type": "function"
    }
  ],
  "bytecode": "0x61016060405234801561001157600080fd5b50604051806040016040528060098152602001682820a2102a37b5b2b760b91b81525080604051806040016040528060018152602001603160f81b815250604051806040016040528060098152602001682820a2102a37b5b2b760b91b8152506040518060400160405280600381526020016214105160ea1b815250816003908161009c919061061a565b5060046100a9828261061a565b506100b9915083905060056101ef565b610120526100c88160066101ef565b61014052815160208084019190912060e052815190820120610100524660a05261015560e05161010051604080517f8b73c3c69bb8fe3d512ecc4cf759cc79239f7b179b0ffacaa9a75d522b39400f60208201529081019290925260608201524660808201523060a082015260009060c00160405160208183030381529060405280519060200120905090565b60805250503060c0525061016a600033610222565b506101957f65d7a28e3265b37a6474929f336521b332c1681b933f6cb9f3376673440d862a33610222565b506101c07fa49807205ce4d355092ef5a8a18f56e8913cf4a201fbe287825b095693c2177533610222565b506101e4336101d16012600a6107d5565b6101df906305f5e1006107eb565b6102d0565b610e10600b55610887565b600060208351101561020b576102048361030f565b905061021c565b81610216848261061a565b5060ff90505b92915050565b60008281526009602090815260408083206001600160a01b038516845290915281205460ff166102c85760008381526009602090815260408083206001600160a01b03861684529091529020805460ff191660011790556102803390565b6001600160a01b0316826001600160a01b0316847f2f8788117e7eff1d82e926ec794901d17c78024a50270940304540a733656f0d60405160405180910390a450600161021c565b50600061021c565b6001600160a01b0382166102ff5760405163ec442f0560e01b8152600060048201526024015b60405180910390fd5b61030b6000838361034d565b5050565b600080829050601f8151111561033a578260405163305a27a960e01b81526004016102f69190610802565b805161034582610850565b179392505050565b610355610417565b6001600160a01b0383166000908152600d602052604090205460ff161561040757600b546001600160a01b0384166000908152600c602052604090205461039c9190610874565b4210156103eb5760405162461bcd60e51b815260206004820152601b60248201527f436f6f6c646f776e20706572696f64206e6f7420656c6170736564000000000060448201526064016102f6565b6001600160a01b0383166000908152600c602052604090204290555b61041283838361043f565b505050565b61041f610569565b1561043d5760405163d93c066560e01b815260040160405180910390fd5b565b6001600160a01b03831661046a57806002600082825461045f9190610874565b909155506104dc9050565b6001600160a01b038316600090815260208190526040902054818110156104bd5760405163391434e360e21b81526001600160a01b038516600482015260248101829052604481018390526064016102f6565b6001600160a01b03841660009081526020819052604090209082900390555b6001600160a01b0382166104f857600280548290039055610517565b6001600160a01b03821660009081526020819052604090208054820190555b816001600160a01b0316836001600160a01b03167fddf252ad1be2c89b69c2b068fc378daa952ba7f163c4a11628f55a4df523b3ef8360405161055c91815260200190565b60405180910390a3505050565b600061057760085460ff1690565b905090565b634e487b7160e01b600052604160045260246000fd5b600181811c908216806105a657607f821691505b6020821081036105c657634e487b7160e01b600052602260045260246000fd5b50919050565b601f82111561041257806000526020600020601f840160051c810160208510156105f35750805b601f840160051c820191505b8181101561061357600081556001016105ff565b5050505050565b81516001600160401b038111156106335761063361057c565b610647816106418454610592565b846105cc565b6020601f82116001811461067b57600083156106635750848201515b600019600385901b1c1916600184901b178455610613565b600084815260208120601f198516915b828110156106ab578785015182556020948501946001909201910161068b565b50848210156106c95786840151600019600387901b60f8161c191681555b50505050600190811b01905550565b634e487b7160e01b600052601160045260246000fd5b6001815b60018411156107295780850481111561070d5761070d6106d8565b600184161561071b57908102905b60019390931c9280026106f2565b935093915050565b6000826107405750600161021c565b8161074d5750600061021c565b8160018114610763576002811461076d57610789565b600191505061021c565b60ff84111561077e5761077e6106d8565b50506001821b61021c565b5060208310610133831016604e8410600b84101617156107ac575081810a61021c565b6107b960001984846106ee565b80600019048211156107cd576107cd6106d8565b029392505050565b60006107e460ff841683610731565b9392505050565b808202811582820484141761021c5761021c6106d8565b602081526000825180602084015260005b818110156108305760208186018101516040868401015201610813565b506000604082850101526040601f19601f83011684010191505092915050565b805160208083015191908110156105c65760001960209190910360031b1b16919050565b8082018082111561021c5761021c6106d8565b60805160a05160c05160e051610100516101205161014051611b4a6108e160003960006110690152600061103c01526000610ee801526000610ec001526000610e1b01526000610e4501526000610e6f0152611b4a6000f3fe608060405234801561001057600080fd5b50600436106101fb5760003560e01c80637ecebe001161011a57806395d89b41116100ad578063c3085a3e1161007c578063c3085a3e14610445578063d505accf14610458578063d547741f1461046b578063dd62ed3e1461047e578063e63ab1e9146104b757600080fd5b806395d89b41146103f7578063a217fddf146103ff578063a84173ae14610407578063a9059cbb1461043257600080fd5b806388d695b2116100e957806388d695b21461039e5780638fc022a6146103b157806391d14854146103c457806391fc1f2c146103d757600080fd5b80637ecebe001461035557806380ea3de1146103685780638456cb591461037b57806384b0196e1461038357600080fd5b80632f2ff15d116101925780633f4ba83a116101615780633f4ba83a146103075780635c975abb1461030f57806370a082311461031757806375b238fc1461034057600080fd5b80632f2ff15d146102c8578063313ce567146102dd5780633644e515146102ec57806336568abe146102f457600080fd5b806318160ddd116101ce57806318160ddd1461026757806323b872dd1461026f578063248a9ca3146102825780632f206068146102a557600080fd5b806301ffc9a71461020057806304646a491461022857806306fdde031461023f578063095ea7b314610254575b600080fd5b61021361020e3660046116d2565b6104de565b60405190151581526020015b60405180910390f35b610231600b5481565b60405190815260200161021f565b6102476104ef565b60405161021f9190611749565b610213610262366004611778565b610581565b600254610231565b61021361027d3660046117a2565b610599565b6102316102903660046117df565b60009081526009602052604090206001015490565b6102136102b33660046117f8565b600d6020526000908152604090205460ff1681565b6102db6102d6366004611813565b6105bd565b005b6040516012815260200161021f565b6102316105e8565b6102db610302366004611813565b6105f7565b6102db61062f565b610213610664565b6102316103253660046117f8565b6001600160a01b031660009081526020819052604090205490565b610231600080516020611af583398151915281565b6102316103633660046117f8565b610672565b6102db6103763660046117df565b610690565b6102db610739565b61038b61076b565b60405161021f979695949392919061183f565b6102db6103ac366004611923565b6107b1565b6102db6103bf366004611994565b61098c565b6102136103d2366004611813565b610a04565b6102316103e53660046117f8565b600c6020526000908152604090205481565b610247610a2f565b610231600081565b600a5461041a906001600160a01b031681565b6040516001600160a01b03909116815260200161021f565b610213610440366004611778565b610a3e565b6102db6104533660046117f8565b610a4c565b6102db6104663660046119d0565b610af7565b6102db610479366004611813565b610c31565b61023161048c366004611a43565b6001600160a01b03918216600090815260016020908152604080832093909416825291909152205490565b6102317f65d7a28e3265b37a6474929f336521b332c1681b933f6cb9f3376673440d862a81565b60006104e982610c56565b92915050565b6060600380546104fe90611a6d565b80601f016020809104026020016040519081016040528092919081815260200182805461052a90611a6d565b80156105775780601f1061054c57610100808354040283529160200191610577565b820191906000526020600020905b81548152906001019060200180831161055a57829003601f168201915b5050505050905090565b60003361058f818585610c8b565b5060019392505050565b6000336105a7858285610c98565b6105b2858585610d11565b506001949350505050565b6000828152600960205260409020600101546105d881610d70565b6105e28383610d7a565b50505050565b60006105f2610e0e565b905090565b6001600160a01b03811633146106205760405163334bd91960e11b815260040160405180910390fd5b61062a8282610f39565b505050565b7f65d7a28e3265b37a6474929f336521b332c1681b933f6cb9f3376673440d862a61065981610d70565b610661610fa6565b50565b60006105f260085460ff1690565b6001600160a01b0381166000908152600760205260408120546104e9565b600080516020611af58339815191526106a881610d70565b600082116106fd5760405162461bcd60e51b815260206004820152601760248201527f496e76616c696420636f6f6c646f776e20706572696f6400000000000000000060448201526064015b60405180910390fd5b600b8290556040518281527f9f48766a1862aa51c434884dd5ccdd794719e403e0da740bb075991e6cde9d6e9060200160405180910390a15050565b7f65d7a28e3265b37a6474929f336521b332c1681b933f6cb9f3376673440d862a61076381610d70565b610661610ff8565b60006060806000806000606061077f611035565b610787611062565b60408051600080825260208201909252600f60f81b9b939a50919850469750309650945092509050565b6107b961108f565b8281146108015760405162461bcd60e51b8152602060048201526016602482015275082e4e4c2f2e640d8cadccee8d040dad2e6dac2e8c6d60531b60448201526064016106f4565b6000805b8281101561083b5783838281811061081f5761081f611aa7565b90506020020135826108319190611abd565b9150600101610805565b50336000908152602081905260409020548111156108925760405162461bcd60e51b8152602060048201526014602482015273496e73756666696369656e742062616c616e636560601b60448201526064016106f4565b336000908152600d602052604090205460ff161561091657600b54336000908152600c60205260409020546108c79190611abd565b4210156109165760405162461bcd60e51b815260206004820152601b60248201527f436f6f6c646f776e20706572696f64206e6f7420656c6170736564000000000060448201526064016106f4565b60005b848110156109725761096a3387878481811061093757610937611aa7565b905060200201602081019061094c91906117f8565b86868581811061095e5761095e611aa7565b90506020020135610d11565b600101610919565b5050336000908152600c6020526040902042905550505050565b600080516020611af58339815191526109a481610d70565b6001600160a01b0383166000818152600d6020908152604091829020805460ff191686151590811790915591519182527f88442d1f3abc99bf4a378fef853870decce17c14f3025385a762518e644012e1910160405180910390a2505050565b60009182526009602090815260408084206001600160a01b0393909316845291905290205460ff1690565b6060600480546104fe90611a6d565b60003361058f818585610d11565b600080516020611af5833981519152610a6481610d70565b6001600160a01b038216610aac5760405162461bcd60e51b815260206004820152600f60248201526e496e76616c6964206164647265737360881b60448201526064016106f4565b600a80546001600160a01b0319166001600160a01b0384169081179091556040517feb9531f1025dff97cad08fa04d87d1982f6da47ad87bc18822a3dd4e85996b7290600090a25050565b83421115610b1b5760405163313c898160e11b8152600481018590526024016106f4565b60007f6e71edae12b1b97f4d1f60370fef10105fa2faae0126114a169c64845d6126c9888888610b688c6001600160a01b0316600090815260076020526040902080546001810190915590565b6040805160208101969096526001600160a01b0394851690860152929091166060840152608083015260a082015260c0810186905260e0016040516020818303038152906040528051906020012090506000610bc3826110b7565b90506000610bd3828787876110e4565b9050896001600160a01b0316816001600160a01b031614610c1a576040516325c0072360e11b81526001600160a01b0380831660048301528b1660248201526044016106f4565b610c258a8a8a610c8b565b50505050505050505050565b600082815260096020526040902060010154610c4c81610d70565b6105e28383610f39565b60006001600160e01b03198216637965db0b60e01b14806104e957506301ffc9a760e01b6001600160e01b03198316146104e9565b61062a8383836001611112565b6001600160a01b038381166000908152600160209081526040808320938616835292905220546000198110156105e25781811015610d0257604051637dc7a0d960e11b81526001600160a01b038416600482015260248101829052604481018390526064016106f4565b6105e284848484036000611112565b6001600160a01b038316610d3b57604051634b637e8f60e11b8152600060048201526024016106f4565b6001600160a01b038216610d655760405163ec442f0560e01b8152600060048201526024016106f4565b61062a8383836111e7565b61066181336112ac565b6000610d868383610a04565b610e065760008381526009602090815260408083206001600160a01b03861684529091529020805460ff19166001179055610dbe3390565b6001600160a01b0316826001600160a01b0316847f2f8788117e7eff1d82e926ec794901d17c78024a50270940304540a733656f0d60405160405180910390a45060016104e9565b5060006104e9565b6000306001600160a01b037f000000000000000000000000000000000000000000000000000000000000000016148015610e6757507f000000000000000000000000000000000000000000000000000000000000000046145b15610e9157507f000000000000000000000000000000000000000000000000000000000000000090565b6105f2604080517f8b73c3c69bb8fe3d512ecc4cf759cc79239f7b179b0ffacaa9a75d522b39400f60208201527f0000000000000000000000000000000000000000000000000000000000000000918101919091527f000000000000000000000000000000000000000000000000000000000000000060608201524660808201523060a082015260009060c00160405160208183030381529060405280519060200120905090565b6000610f458383610a04565b15610e065760008381526009602090815260408083206001600160a01b0386168085529252808320805460ff1916905551339286917ff6391f5c32d9c69d2a47ea670b442974b53935d1edc7fd64eb21e047a839171b9190a45060016104e9565b610fae6112e9565b6008805460ff191690557f5db9ee0a495bf2e6ff9c91a7834c1ba4fdd244a5e8aa4e537bd38aeae4b073aa335b6040516001600160a01b03909116815260200160405180910390a1565b61100061108f565b6008805460ff191660011790557f62e78cea01bee320cd4e420270b5ea74000d11b0c9f74754ebdbfc544b05a258610fdb3390565b60606105f27f0000000000000000000000000000000000000000000000000000000000000000600561130e565b60606105f27f0000000000000000000000000000000000000000000000000000000000000000600661130e565b611097610664565b156110b55760405163d93c066560e01b815260040160405180910390fd5b565b60006104e96110c4610e0e565b8360405161190160f01b8152600281019290925260228201526042902090565b6000806000806110f6888888886113b9565b9250925092506111068282611488565b50909695505050505050565b6001600160a01b03841661113c5760405163e602df0560e01b8152600060048201526024016106f4565b6001600160a01b03831661116657604051634a1406b160e11b8152600060048201526024016106f4565b6001600160a01b03808516600090815260016020908152604080832093871683529290522082905580156105e257826001600160a01b0316846001600160a01b03167f8c5be1e5ebec7d5bd14f71427d1e84f3dd0314c0f7b2291e5b200ac8c7c3b925846040516111d991815260200190565b60405180910390a350505050565b6111ef61108f565b6001600160a01b0383166000908152600d602052604090205460ff16156112a157600b546001600160a01b0384166000908152600c60205260409020546112369190611abd565b4210156112855760405162461bcd60e51b815260206004820152601b60248201527f436f6f6c646f776e20706572696f64206e6f7420656c6170736564000000000060448201526064016106f4565b6001600160a01b0383166000908152600c602052604090204290555b61062a838383611541565b6112b68282610a04565b6112e55760405163e2517d3f60e01b81526001600160a01b0382166004820152602481018390526044016106f4565b5050565b6112f1610664565b6110b557604051638dfc202b60e01b815260040160405180910390fd5b606060ff8314611328576113218361166b565b90506104e9565b81805461133490611a6d565b80601f016020809104026020016040519081016040528092919081815260200182805461136090611a6d565b80156113ad5780601f10611382576101008083540402835291602001916113ad565b820191906000526020600020905b81548152906001019060200180831161139057829003601f168201915b505050505090506104e9565b600080807f7fffffffffffffffffffffffffffffff5d576e7357a4501ddfe92f46681b20a08411156113f4575060009150600390508261147e565b604080516000808252602082018084528a905260ff891692820192909252606081018790526080810186905260019060a0016020604051602081039080840390855afa158015611448573d6000803e3d6000fd5b5050604051601f1901519150506001600160a01b0381166114745750600092506001915082905061147e565b9250600091508190505b9450945094915050565b600082600381111561149c5761149c611ade565b036114a5575050565b60018260038111156114b9576114b9611ade565b036114d75760405163f645eedf60e01b815260040160405180910390fd5b60028260038111156114eb576114eb611ade565b0361150c5760405163fce698f760e01b8152600481018290526024016106f4565b600382600381111561152057611520611ade565b036112e5576040516335e2f38360e21b8152600481018290526024016106f4565b6001600160a01b03831661156c5780600260008282546115619190611abd565b909155506115de9050565b6001600160a01b038316600090815260208190526040902054818110156115bf5760405163391434e360e21b81526001600160a01b038516600482015260248101829052604481018390526064016106f4565b6001600160a01b03841660009081526020819052604090209082900390555b6001600160a01b0382166115fa57600280548290039055611619565b6001600160a01b03821660009081526020819052604090208054820190555b816001600160a01b0316836001600160a01b03167fddf252ad1be2c89b69c2b068fc378daa952ba7f163c4a11628f55a4df523b3ef8360405161165e91815260200190565b60405180910390a3505050565b60606000611678836116aa565b604080516020808252818301909252919250600091906020820181803683375050509182525060208101929092525090565b600060ff8216601f8111156104e957604051632cd44ac360e21b815260040160405180910390fd5b6000602082840312156116e457600080fd5b81356001600160e01b0319811681146116fc57600080fd5b9392505050565b6000815180845260005b818110156117295760208185018101518683018201520161170d565b506000602082860101526020601f19601f83011685010191505092915050565b6020815260006116fc6020830184611703565b80356001600160a01b038116811461177357600080fd5b919050565b6000806040838503121561178b57600080fd5b6117948361175c565b946020939093013593505050565b6000806000606084860312156117b757600080fd5b6117c08461175c565b92506117ce6020850161175c565b929592945050506040919091013590565b6000602082840312156117f157600080fd5b5035919050565b60006020828403121561180a57600080fd5b6116fc8261175c565b6000806040838503121561182657600080fd5b823591506118366020840161175c565b90509250929050565b60ff60f81b8816815260e06020820152600061185e60e0830189611703565b82810360408401526118708189611703565b606084018890526001600160a01b038716608085015260a0840186905283810360c08501528451808252602080870193509091019060005b818110156118c65783518352602093840193909201916001016118a8565b50909b9a5050505050505050505050565b60008083601f8401126118e957600080fd5b50813567ffffffffffffffff81111561190157600080fd5b6020830191508360208260051b850101111561191c57600080fd5b9250929050565b6000806000806040858703121561193957600080fd5b843567ffffffffffffffff81111561195057600080fd5b61195c878288016118d7565b909550935050602085013567ffffffffffffffff81111561197c57600080fd5b611988878288016118d7565b95989497509550505050565b600080604083850312156119a757600080fd5b6119b08361175c565b9150602083013580151581146119c557600080fd5b809150509250929050565b600080600080600080600060e0888a0312156119eb57600080fd5b6119f48861175c565b9650611a026020890161175c565b95506040880135945060608801359350608088013560ff81168114611a2657600080fd5b9699959850939692959460a0840135945060c09093013592915050565b60008060408385031215611a5657600080fd5b611a5f8361175c565b91506118366020840161175c565b600181811c90821680611a8157607f821691505b602082108103611aa157634e487b7160e01b600052602260045260246000fd5b50919050565b634e487b7160e01b600052603260045260246000fd5b808201808211156104e957634e487b7160e01b600052601160045260246000fd5b634e487b7160e01b600052602160045260246000fdfea49807205ce4d355092ef5a8a18f56e8913cf4a201fbe287825b095693c21775a26469706673582212207dbccc1b1d7f048a81da42cde78485fc9bdf80d11c873e3359a2c95f17fd60f064736f6c634300081c0033",
  "linkReferences": {},
  "deployedLinkReferences": {}
}