{
  "_format": "hh-sol-artifact-1",
  "contractName": "PADToken",
  "sourceName": "contracts/PADToken.sol",
  "abi": [
    {
      "inputs": [],
      "stateMutability": "nonpayable",
      "type": "constructor"
    },
    {
      "inputs": [],
      "name": "AccessControlBadConfirmation",
      "type": "error"
    },
    {
      "inputs": [
        {
          "internalType": "address",
          "name": "account",
          "type": "address"
        },
        {
          "internalType": "bytes32",
          "name": "neededRole",
          "type": "bytes32"
        }
      ],
      "name": "AccessControlUnauthorizedAccount",
      "type": "error"
    },
    {
      "inputs": [],
      "name": "ECDSAInvalidSignature",
      "type": "error"
    },
    {
      "inputs": [
        {
          "internalType": "uint256",
          "name": "length",
          "type": "uint256"
        }
      ],
      "name": "ECDSAInvalidSignatureLength",
      "type": "error"
    },
    {
      "inputs": [
        {
          "internalType": "bytes32",
          "name": "s",
          "type": "bytes32"
        }
      ],
      "name": "ECDSAInvalidSignatureS",
      "type": "error"
    },
    {
      "inputs": [
        {
          "internalType": "address",
          "name": "spender",
          "type": "address"
        },
        {
          "internalType": "uint256",
          "name": "allowance",
          "type": "uint256"
        },
        {
          "internalType": "uint256",
          "name": "needed",
          "type": "uint256"
        }
      ],
      "name": "ERC20InsufficientAllowance",
      "type": "error"
    },
    {
      "inputs": [
        {
          "internalType": "address",
          "name": "sender",
          "type": "address"
        },
        {
          "internalType": "uint256",
          "name": "balance",
          "type": "uint256"
        },
        {
          "internalType": "uint256",
          "name": "needed",
          "type": "uint256"
        }
      ],
      "name": "ERC20InsufficientBalance",
      "type": "error"
    },
    {
      "inputs": [
        {
          "internalType": "address",
          "name": "approver",
          "type": "address"
        }
      ],
      "name": "ERC20InvalidApprover",
      "type": "error"
    },
    {
      "inputs": [
        {
          "internalType": "address",
          "name": "receiver",
          "type": "address"
        }
      ],
      "name": "ERC20InvalidReceiver",
      "type": "error"
    },
    {
      "inputs": [
        {
          "internalType": "address",
          "name": "sender",
          "type": "address"
        }
      ],
      "name": "ERC20InvalidSender",
      "type": "error"
    },
    {
      "inputs": [
        {
          "internalType": "address",
          "name": "spender",
          "type": "address"
        }
      ],
      "name": "ERC20InvalidSpender",
      "type": "error"
    },
    {
      "inputs": [
        {
          "internalType": "uint256",
          "name": "deadline",
          "type": "uint256"
        }
      ],
      "name": "ERC2612ExpiredSignature",
      "type": "error"
    },
    {
      "inputs": [
        {
          "internalType": "address",
          "name": "signer",
          "type": "address"
        },
        {
          "internalType": "address",
          "name": "owner",
          "type": "address"
        }
      ],
      "name": "ERC2612InvalidSigner",
      "type": "error"
    },
    {
      "inputs": [],
      "name": "EnforcedPause",
      "type": "error"
    },
    {
      "inputs": [],
      "name": "ExpectedPause",
      "type": "error"
    },
    {
      "inputs": [
        {
          "internalType": "address",
          "name": "account",
          "type": "address"
        },
        {
          "internalType": "uint256",
          "name": "currentNonce",
          "type": "uint256"
        }
      ],
      "name": "InvalidAccountNonce",
      "type": "error"
    },
    {
      "inputs": [],
      "name": "InvalidShortString",
      "type": "error"
    },
    {
      "inputs": [
        {
          "internalType": "string",
          "name": "str",
          "type": "string"
        }
      ],
      "name": "StringTooLong",
      "type": "error"
    },
    {
      "anonymous": false,
      "inputs": [
        {
          "indexed": true,
          "internalType": "address",
          "name": "owner",
          "type": "address"
        },
        {
          "indexed": true,
          "internalType": "address",
          "name": "spender",
          "type": "address"
        },
        {
          "indexed": false,
          "internalType": "uint256",
          "name": "value",
          "type": "uint256"
        }
      ],
      "name": "Approval",
      "type": "event"
    },
    {
      "anonymous": false,
      "inputs": [
        {
          "indexed": false,
          "internalType": "uint256",
          "name": "newPeriod",
          "type": "uint256"
        }
      ],
      "name": "CooldownPeriodSet",
      "type": "event"
    },
    {
      "anonymous": false,
      "inputs": [
        {
          "indexed": true,
          "internalType": "address",
          "name": "account",
          "type": "address"
        },
        {
          "indexed": false,
          "internalType": "bool",
          "name": "status",
          "type": "bool"
        }
      ],
      "name": "CooldownSet",
      "type": "event"
    },
    {
      "anonymous": false,
      "inputs": [],
      "name": "EIP712DomainChanged",
      "type": "event"
    },
    {
      "anonymous": false,
      "inputs": [
        {
          "indexed": true,
          "internalType": "address",
          "name": "newGnosisSafe",
          "type": "address"
        }
      ],
      "name": "GnosisSafeSet",
      "type": "event"
    },
    {
      "anonymous": false,
      "inputs": [
        {
          "indexed": false,
          "internalType": "address",
          "name": "account",
          "type": "address"
        }
      ],
      "name": "Paused",
      "type": "event"
    },
    {
      "anonymous": false,
      "inputs": [
        {
          "indexed": true,
          "internalType": "bytes32",
          "name": "role",
          "type": "bytes32"
        },
        {
          "indexed": true,
          "internalType": "bytes32",
          "name": "previousAdminRole",
          "type": "bytes32"
        },
        {
          "indexed": true,
          "internalType": "bytes32",
          "name": "newAdminRole",
          "type": "bytes32"
        }
      ],
      "name": "RoleAdminChanged",
      "type": "event"
    },
    {
      "anonymous": false,
      "inputs": [
        {
          "indexed": true,
          "internalType": "bytes32",
          "name": "role",
          "type": "bytes32"
        },
        {
          "indexed": true,
          "internalType": "address",
          "name": "account",
          "type": "address"
        },
        {
          "indexed": true,
          "internalType": "address",
          "name": "sender",
          "type": "address"
        }
      ],
      "name": "RoleGranted",
      "type": "event"
    },
    {
      "anonymous": false,
      "inputs": [
        {
          "indexed": true,
          "internalType": "bytes32",
          "name": "role",
          "type": "bytes32"
        },
        {
          "indexed": true,
          "internalType": "address",
          "name": "account",
          "type": "address"
        },
        {
          "indexed": true,
          "internalType": "address",
          "name": "sender",
          "type": "address"
        }
      ],
      "name": "RoleRevoked",
      "type": "event"
    },
    {
      "anonymous": false,
      "inputs": [
        {
          "indexed": true,
          "internalType": "address",
          "name": "from",
          "type": "address"
        },
        {
          "indexed": true,
          "internalType": "address",
          "name": "to",
          "type": "address"
        },
        {
          "indexed": false,
          "internalType": "uint256",
          "name": "value",
          "type": "uint256"
        }
      ],
      "name": "Transfer",
      "type": "event"
    },
    {
      "anonymous": false,
      "inputs": [
        {
          "indexed": false,
          "internalType": "address",
          "name": "account",
          "type": "address"
        }
      ],
      "name": "Unpaused",
      "type": "event"
    },
    {
      "inputs": [],
      "name": "ADMIN_ROLE",
      "outputs": [
        {
          "internalType": "bytes32",
          "name": "",
          "type": "bytes32"
        }
      ],
      "stateMutability": "view",
      "type": "function"
    },
    {
      "inputs": [],
      "name": "DEFAULT_ADMIN_ROLE",
      "outputs": [
        {
          "internalType": "bytes32",
          "name": "",
          "type": "bytes32"
        }
      ],
      "stateMutability": "view",
      "type": "function"
    },
    {
      "inputs": [],
      "name": "DOMAIN_SEPARATOR",
      "outputs": [
        {
          "internalType": "bytes32",
          "name": "",
          "type": "bytes32"
        }
      ],
      "stateMutability": "view",
      "type": "function"
    },
    {
      "inputs": [],
      "name": "PAUSER_ROLE",
      "outputs": [
        {
          "internalType": "bytes32",
          "name": "",
          "type": "bytes32"
        }
      ],
      "stateMutability": "view",
      "type": "function"
    },
    {
      "inputs": [
        {
          "internalType": "address",
          "name": "owner",
          "type": "address"
        },
        {
          "internalType": "address",
          "name": "spender",
          "type": "address"
        }
      ],
      "name": "allowance",
      "outputs": [
        {
          "internalType": "uint256",
          "name": "",
          "type": "uint256"
        }
      ],
      "stateMutability": "view",
      "type": "function"
    },
    {
      "inputs": [
        {
          "internalType": "address",
          "name": "spender",
          "type": "address"
        },
        {
          "internalType": "uint256",
          "name": "value",
          "type": "uint256"
        }
      ],
      "name": "approve",
      "outputs": [
        {
          "internalType": "bool",
          "name": "",
          "type": "bool"
        }
      ],
      "stateMutability": "nonpayable",
      "type": "function"
    },
    {
      "inputs": [
        {
          "internalType": "address",
          "name": "account",
          "type": "address"
        }
      ],
      "name": "balanceOf",
      "outputs": [
        {
          "internalType": "uint256",
          "name": "",
          "type": "uint256"
        }
      ],
      "stateMutability": "view",
      "type": "function"
    },
    {
      "inputs": [
        {
          "internalType": "address[]",
          "name": "recipients",
          "type": "address[]"
        },
        {
          "internalType": "uint256[]",
          "name": "amounts",
          "type": "uint256[]"
        }
      ],
      "name": "batchTransfer",
      "outputs": [],
      "stateMutability": "nonpayable",
      "type": "function"
    },
    {
      "inputs": [],
      "name": "cooldownPeriod",
      "outputs": [
        {
          "internalType": "uint256",
          "name": "",
          "type": "uint256"
        }
      ],
      "stateMutability": "view",
      "type": "function"
    },
    {
      "inputs": [],
      "name": "decimals",
      "outputs": [
        {
          "internalType": "uint8",
          "name": "",
          "type": "uint8"
        }
      ],
      "stateMutability": "view",
      "type": "function"
    },
    {
      "inputs": [],
      "name": "eip712Domain",
      "outputs": [
        {
          "internalType": "bytes1",
          "name": "fields",
          "type": "bytes1"
        },
        {
          "internalType": "string",
          "name": "name",
          "type": "string"
        },
        {
          "internalType": "string",
          "name": "version",
          "type": "string"
        },
        {
          "internalType": "uint256",
          "name": "chainId",
          "type": "uint256"
        },
        {
          "internalType": "address",
          "name": "verifyingContract",
          "type": "address"
        },
        {
          "internalType": "bytes32",
          "name": "salt",
          "type": "bytes32"
        },
        {
          "internalType": "uint256[]",
          "name": "extensions",
          "type": "uint256[]"
        }
      ],
      "stateMutability": "view",
      "type": "function"
    },
    {
      "inputs": [
        {
          "internalType": "bytes32",
          "name": "role",
          "type": "bytes32"
        }
      ],
      "name": "getRoleAdmin",
      "outputs": [
        {
          "internalType": "bytes32",
          "name": "",
          "type": "bytes32"
        }
      ],
      "stateMutability": "view",
      "type": "function"
    },
    {
      "inputs": [],
      "name": "gnosisSafe",
      "outputs": [
        {
          "internalType": "address",
          "name": "",
          "type": "address"
        }
      ],
      "stateMutability": "view",
      "type": "function"
    },
    {
      "inputs": [
        {
          "internalType": "bytes32",
          "name": "role",
          "type": "bytes32"
        },
        {
          "internalType": "address",
          "name": "account",
          "type": "address"
        }
      ],
      "name": "grantRole",
      "outputs": [],
      "stateMutability": "nonpayable",
      "type": "function"
    },
    {
      "inputs": [
        {
          "internalType": "address",
          "name": "",
          "type": "address"
        }
      ],
      "name": "hasCooldown",
      "outputs": [
        {
          "internalType": "bool",
          "name": "",
          "type": "bool"
        }
      ],
      "stateMutability": "view",
      "type": "function"
    },
    {
      "inputs": [
        {
          "internalType": "bytes32",
          "name": "role",
          "type": "bytes32"
        },
        {
          "internalType": "address",
          "name": "account",
          "type": "address"
        }
      ],
      "name": "hasRole",
      "outputs": [
        {
          "internalType": "bool",
          "name": "",
          "type": "bool"
        }
      ],
      "stateMutability": "view",
      "type": "function"
    },
    {
      "inputs": [
        {
          "internalType": "address",
          "name": "",
          "type": "address"
        }
      ],
      "name": "lastTransferTimestamp",
      "outputs": [
        {
          "internalType": "uint256",
          "name": "",
          "type": "uint256"
        }
      ],
      "stateMutability": "view",
      "type": "function"
    },
    {
      "inputs": [],
      "name": "name",
      "outputs": [
        {
          "internalType": "string",
          "name": "",
          "type": "string"
        }
      ],
      "stateMutability": "view",
      "type": "function"
    },
    {
      "inputs": [
        {
          "internalType": "address",
          "name": "owner",
          "type": "address"
        }
      ],
      "name": "nonces",
      "outputs": [
        {
          "internalType": "uint256",
          "name": "",
          "type": "uint256"
        }
      ],
      "stateMutability": "view",
      "type": "function"
    },
    {
      "inputs": [],
      "name": "pause",
      "outputs": [],
      "stateMutability": "nonpayable",
      "type": "function"
    },
    {
      "inputs": [],
      "name": "paused",
      "outputs": [
        {
          "internalType": "bool",
          "name": "",
          "type": "bool"
        }
      ],
      "stateMutability": "view",
      "type": "function"
    },
    {
      "inputs": [
        {
          "internalType": "address",
          "name": "owner",
          "type": "address"
        },
        {
          "internalType": "address",
          "name": "spender",
          "type": "address"
        },
        {
          "internalType": "uint256",
          "name": "value",
          "type": "uint256"
        },
        {
          "internalType": "uint256",
          "name": "deadline",
          "type": "uint256"
        },
        {
          "internalType": "uint8",
          "name": "v",
          "type": "uint8"
        },
        {
          "internalType": "bytes32",
          "name": "r",
          "type": "bytes32"
        },
        {
          "internalType": "bytes32",
          "name": "s",
          "type": "bytes32"
        }
      ],
      "name": "permit",
      "outputs": [],
      "stateMutability": "nonpayable",
      "type": "function"
    },
    {
      "inputs": [
        {
          "internalType": "bytes32",
          "name": "role",
          "type": "bytes32"
        },
        {
          "internalType": "address",
          "name": "callerConfirmation",
          "type": "address"
        }
      ],
      "name": "renounceRole",
      "outputs": [],
      "stateMutability": "nonpayable",
      "type": "function"
    },
    {
      "inputs": [
        {
          "internalType": "bytes32",
          "name": "role",
          "type": "bytes32"
        },
        {
          "internalType": "address",
          "name": "account",
          "type": "address"
        }
      ],
      "name": "revokeRole",
      "outputs": [],
      "stateMutability": "nonpayable",
      "type": "function"
    },
    {
      "inputs": [
        {
          "internalType": "address",
          "name": "account",
          "type": "address"
        },
        {
          "internalType": "bool",
          "name": "status",
          "type": "bool"
        }
      ],
      "name": "setCooldown",
      "outputs": [],
      "stateMutability": "nonpayable",
      "type": "function"
    },
    {
      "inputs": [
        {
          "internalType": "uint256",
          "name": "_cooldownPeriod",
          "type": "uint256"
        }
      ],
      "name": "setCooldownPeriod",
      "outputs": [],
      "stateMutability": "nonpayable",
      "type": "function"
    },
    {
      "inputs": [
        {
          "internalType": "address",
          "name": "_gnosisSafe",
          "type": "address"
        }
      ],
      "name": "setGnosisSafe",
      "outputs": [],
      "stateMutability": "nonpayable",
      "type": "function"
    },
    {
      "inputs": [
        {
          "internalType": "bytes4",
          "name": "interfaceId",
          "type": "bytes4"
        }
      ],
      "name": "supportsInterface",
      "outputs": [
        {
          "internalType": "bool",
          "name": "",
          "type": "bool"
        }
      ],
      "stateMutability": "view",
      "type": "function"
    },
    {
      "inputs": [],
      "name": "symbol",
      "outputs": [
        {
          "internalType": "string",
          "name": "",
          "type": "string"
        }
      ],
      "stateMutability": "view",
      "type": "function"
    },
    {
      "inputs": [],
      "name": "totalSupply",
      "outputs": [
        {
          "internalType": "uint256",
          "name": "",
          "type": "uint256"
        }
      ],
      "stateMutability": "view",
      "type": "function"
    },
    {
      "inputs": [
        {
          "internalType": "address",
          "name": "to",
          "type": "address"
        },
        {
          "internalType": "uint256",
          "name": "value",
          "type": "uint256"
        }
      ],
      "name": "transfer",
      "outputs": [
        {
          "internalType": "bool",
          "name": "",
          "type": "bool"
        }
      ],
      "stateMutability": "nonpayable",
      "type": "function"
    },
    {
      "inputs": [
        {
          "internalType": "address",
          "name": "from",
          "type": "address"
        },
        {
          "internalType": "address",
          "name": "to",
          "type": "address"
        },
        {
          "internalType": "uint256",
          "name": "value",
          "type": "uint256"
        }
      ],
      "name": "transferFrom",
      "outputs": [
        {
          "internalType": "bool",
          "name": "",
          "type": "bool"
        }
      ],
      "stateMutability": "nonpayable",
      "type": "function"
    },
    {
      "inputs": [],
      "name": "unpause",
      "outputs": [],
      "stateMutability": "nonpayable",
      "type": "function"
    }
  ],
  "bytecode": "0x61016060405234801561001157600080fd5b50604051806040016040528060098152602001682820a2102a37b5b2b760b91b81525080604051806040016040528060018152602001603160f81b815250604051806040016040528060098152602001682820a2102a37b5b2b760b91b8152506040518060400160405280600381526020016214105160ea1b815250816003908161009c919061060f565b5060046100a9828261060f565b506100b9915083905060056101f9565b610120526100c88160066101f9565b61014052815160208084019190912060e052815190820120610100524660a05261015560e05161010051604080517f8b73c3c69bb8fe3d512ecc4cf759cc79239f7b179b0ffacaa9a75d522b39400f60208201529081019290925260608201524660808201523060a082015260009060c00160405160208183030381529060405280519060200120905090565b60805250503060c052506008805460ff1916905561017460003361022c565b5061019f7f65d7a28e3265b37a6474929f336521b332c1681b933f6cb9f3376673440d862a3361022c565b506101ca7fa49807205ce4d355092ef5a8a18f56e8913cf4a201fbe287825b095693c217753361022c565b506101ee336101db6012600a6107ca565b6101e9906305f5e1006107e0565b6102da565b610e10600b5561087c565b60006020835110156102155761020e83610319565b9050610226565b81610220848261060f565b5060ff90505b92915050565b60008281526009602090815260408083206001600160a01b038516845290915281205460ff166102d25760008381526009602090815260408083206001600160a01b03861684529091529020805460ff1916600117905561028a3390565b6001600160a01b0316826001600160a01b0316847f2f8788117e7eff1d82e926ec794901d17c78024a50270940304540a733656f0d60405160405180910390a4506001610226565b506000610226565b6001600160a01b0382166103095760405163ec442f0560e01b8152600060048201526024015b60405180910390fd5b61031560008383610357565b5050565b600080829050601f81511115610344578260405163305a27a960e01b815260040161030091906107f7565b805161034f82610845565b179392505050565b61035f610421565b6001600160a01b0383166000908152600d602052604090205460ff161561041157600b546001600160a01b0384166000908152600c60205260409020546103a69190610869565b4210156103f55760405162461bcd60e51b815260206004820152601b60248201527f436f6f6c646f776e20706572696f64206e6f7420656c617073656400000000006044820152606401610300565b6001600160a01b0383166000908152600c602052604090204290555b61041c838383610447565b505050565b60085460ff16156104455760405163d93c066560e01b815260040160405180910390fd5b565b6001600160a01b0383166104725780600260008282546104679190610869565b909155506104e49050565b6001600160a01b038316600090815260208190526040902054818110156104c55760405163391434e360e21b81526001600160a01b03851660048201526024810182905260448101839052606401610300565b6001600160a01b03841660009081526020819052604090209082900390555b6001600160a01b0382166105005760028054829003905561051f565b6001600160a01b03821660009081526020819052604090208054820190555b816001600160a01b0316836001600160a01b03167fddf252ad1be2c89b69c2b068fc378daa952ba7f163c4a11628f55a4df523b3ef8360405161056491815260200190565b60405180910390a3505050565b634e487b7160e01b600052604160045260246000fd5b600181811c9082168061059b57607f821691505b6020821081036105bb57634e487b7160e01b600052602260045260246000fd5b50919050565b601f82111561041c57806000526020600020601f840160051c810160208510156105e85750805b601f840160051c820191505b8181101561060857600081556001016105f4565b5050505050565b81516001600160401b0381111561062857610628610571565b61063c816106368454610587565b846105c1565b6020601f82116001811461067057600083156106585750848201515b600019600385901b1c1916600184901b178455610608565b600084815260208120601f198516915b828110156106a05787850151825560209485019460019092019101610680565b50848210156106be5786840151600019600387901b60f8161c191681555b50505050600190811b01905550565b634e487b7160e01b600052601160045260246000fd5b6001815b600184111561071e57808504811115610702576107026106cd565b600184161561071057908102905b60019390931c9280026106e7565b935093915050565b60008261073557506001610226565b8161074257506000610226565b816001811461075857600281146107625761077e565b6001915050610226565b60ff841115610773576107736106cd565b50506001821b610226565b5060208310610133831016604e8410600b84101617156107a1575081810a610226565b6107ae60001984846106e3565b80600019048211156107c2576107c26106cd565b029392505050565b60006107d960ff841683610726565b9392505050565b8082028115828204841417610226576102266106cd565b602081526000825180602084015260005b818110156108255760208186018101516040868401015201610808565b506000604082850101526040601f19601f83011684010191505092915050565b805160208083015191908110156105bb5760001960209190910360031b1b16919050565b80820180821115610226576102266106cd565b60805160a05160c05160e051610100516101205161014051611b3a6108d6600039600061105d0152600061103001526000610edc01526000610eb401526000610e0f01526000610e3901526000610e630152611b3a6000f3fe608060405234801561001057600080fd5b50600436106101fb5760003560e01c80637ecebe001161011a57806395d89b41116100ad578063c3085a3e1161007c578063c3085a3e14610448578063d505accf1461045b578063d547741f1461046e578063dd62ed3e14610481578063e63ab1e9146104ba57600080fd5b806395d89b41146103fa578063a217fddf14610402578063a84173ae1461040a578063a9059cbb1461043557600080fd5b806388d695b2116100e957806388d695b2146103a15780638fc022a6146103b457806391d14854146103c757806391fc1f2c146103da57600080fd5b80637ecebe001461035857806380ea3de11461036b5780638456cb591461037e57806384b0196e1461038657600080fd5b80632f2ff15d116101925780633f4ba83a116101615780633f4ba83a146103075780635c975abb1461030f57806370a082311461031a57806375b238fc1461034357600080fd5b80632f2ff15d146102c8578063313ce567146102dd5780633644e515146102ec57806336568abe146102f457600080fd5b806318160ddd116101ce57806318160ddd1461026757806323b872dd1461026f578063248a9ca3146102825780632f206068146102a557600080fd5b806301ffc9a71461020057806304646a491461022857806306fdde031461023f578063095ea7b314610254575b600080fd5b61021361020e3660046116c2565b6104e1565b60405190151581526020015b60405180910390f35b610231600b5481565b60405190815260200161021f565b6102476104f2565b60405161021f9190611739565b610213610262366004611768565b610584565b600254610231565b61021361027d366004611792565b61059c565b6102316102903660046117cf565b60009081526009602052604090206001015490565b6102136102b33660046117e8565b600d6020526000908152604090205460ff1681565b6102db6102d6366004611803565b6105c0565b005b6040516012815260200161021f565b6102316105eb565b6102db610302366004611803565b6105fa565b6102db610632565b60085460ff16610213565b6102316103283660046117e8565b6001600160a01b031660009081526020819052604090205490565b610231600080516020611ae583398151915281565b6102316103663660046117e8565b610667565b6102db6103793660046117cf565b610685565b6102db61072e565b61038e610760565b60405161021f979695949392919061182f565b6102db6103af366004611913565b6107a6565b6102db6103c2366004611984565b610981565b6102136103d5366004611803565b6109f9565b6102316103e83660046117e8565b600c6020526000908152604090205481565b610247610a24565b610231600081565b600a5461041d906001600160a01b031681565b6040516001600160a01b03909116815260200161021f565b610213610443366004611768565b610a33565b6102db6104563660046117e8565b610a41565b6102db6104693660046119c0565b610aec565b6102db61047c366004611803565b610c26565b61023161048f366004611a33565b6001600160a01b03918216600090815260016020908152604080832093909416825291909152205490565b6102317f65d7a28e3265b37a6474929f336521b332c1681b933f6cb9f3376673440d862a81565b60006104ec82610c4b565b92915050565b60606003805461050190611a5d565b80601f016020809104026020016040519081016040528092919081815260200182805461052d90611a5d565b801561057a5780601f1061054f5761010080835404028352916020019161057a565b820191906000526020600020905b81548152906001019060200180831161055d57829003601f168201915b5050505050905090565b600033610592818585610c80565b5060019392505050565b6000336105aa858285610c8d565b6105b5858585610d05565b506001949350505050565b6000828152600960205260409020600101546105db81610d64565b6105e58383610d6e565b50505050565b60006105f5610e02565b905090565b6001600160a01b03811633146106235760405163334bd91960e11b815260040160405180910390fd5b61062d8282610f2d565b505050565b7f65d7a28e3265b37a6474929f336521b332c1681b933f6cb9f3376673440d862a61065c81610d64565b610664610f9a565b50565b6001600160a01b0381166000908152600760205260408120546104ec565b600080516020611ae583398151915261069d81610d64565b600082116106f25760405162461bcd60e51b815260206004820152601760248201527f496e76616c696420636f6f6c646f776e20706572696f6400000000000000000060448201526064015b60405180910390fd5b600b8290556040518281527f9f48766a1862aa51c434884dd5ccdd794719e403e0da740bb075991e6cde9d6e9060200160405180910390a15050565b7f65d7a28e3265b37a6474929f336521b332c1681b933f6cb9f3376673440d862a61075881610d64565b610664610fec565b600060608060008060006060610774611029565b61077c611056565b60408051600080825260208201909252600f60f81b9b939a50919850469750309650945092509050565b6107ae611083565b8281146107f65760405162461bcd60e51b8152602060048201526016602482015275082e4e4c2f2e640d8cadccee8d040dad2e6dac2e8c6d60531b60448201526064016106e9565b6000805b828110156108305783838281811061081457610814611a97565b90506020020135826108269190611aad565b91506001016107fa565b50336000908152602081905260409020548111156108875760405162461bcd60e51b8152602060048201526014602482015273496e73756666696369656e742062616c616e636560601b60448201526064016106e9565b336000908152600d602052604090205460ff161561090b57600b54336000908152600c60205260409020546108bc9190611aad565b42101561090b5760405162461bcd60e51b815260206004820152601b60248201527f436f6f6c646f776e20706572696f64206e6f7420656c6170736564000000000060448201526064016106e9565b60005b848110156109675761095f3387878481811061092c5761092c611a97565b905060200201602081019061094191906117e8565b86868581811061095357610953611a97565b90506020020135610d05565b60010161090e565b5050336000908152600c6020526040902042905550505050565b600080516020611ae583398151915261099981610d64565b6001600160a01b0383166000818152600d6020908152604091829020805460ff191686151590811790915591519182527f88442d1f3abc99bf4a378fef853870decce17c14f3025385a762518e644012e1910160405180910390a2505050565b60009182526009602090815260408084206001600160a01b0393909316845291905290205460ff1690565b60606004805461050190611a5d565b600033610592818585610d05565b600080516020611ae5833981519152610a5981610d64565b6001600160a01b038216610aa15760405162461bcd60e51b815260206004820152600f60248201526e496e76616c6964206164647265737360881b60448201526064016106e9565b600a80546001600160a01b0319166001600160a01b0384169081179091556040517feb9531f1025dff97cad08fa04d87d1982f6da47ad87bc18822a3dd4e85996b7290600090a25050565b83421115610b105760405163313c898160e11b8152600481018590526024016106e9565b60007f6e71edae12b1b97f4d1f60370fef10105fa2faae0126114a169c64845d6126c9888888610b5d8c6001600160a01b0316600090815260076020526040902080546001810190915590565b6040805160208101969096526001600160a01b0394851690860152929091166060840152608083015260a082015260c0810186905260e0016040516020818303038152906040528051906020012090506000610bb8826110a9565b90506000610bc8828787876110d6565b9050896001600160a01b0316816001600160a01b031614610c0f576040516325c0072360e11b81526001600160a01b0380831660048301528b1660248201526044016106e9565b610c1a8a8a8a610c80565b50505050505050505050565b600082815260096020526040902060010154610c4181610d64565b6105e58383610f2d565b60006001600160e01b03198216637965db0b60e01b14806104ec57506301ffc9a760e01b6001600160e01b03198316146104ec565b61062d8383836001611104565b6001600160a01b0383811660009081526001602090815260408083209386168352929052205460001981146105e55781811015610cf657604051637dc7a0d960e11b81526001600160a01b038416600482015260248101829052604481018390526064016106e9565b6105e584848484036000611104565b6001600160a01b038316610d2f57604051634b637e8f60e11b8152600060048201526024016106e9565b6001600160a01b038216610d595760405163ec442f0560e01b8152600060048201526024016106e9565b61062d8383836111d9565b610664813361129e565b6000610d7a83836109f9565b610dfa5760008381526009602090815260408083206001600160a01b03861684529091529020805460ff19166001179055610db23390565b6001600160a01b0316826001600160a01b0316847f2f8788117e7eff1d82e926ec794901d17c78024a50270940304540a733656f0d60405160405180910390a45060016104ec565b5060006104ec565b6000306001600160a01b037f000000000000000000000000000000000000000000000000000000000000000016148015610e5b57507f000000000000000000000000000000000000000000000000000000000000000046145b15610e8557507f000000000000000000000000000000000000000000000000000000000000000090565b6105f5604080517f8b73c3c69bb8fe3d512ecc4cf759cc79239f7b179b0ffacaa9a75d522b39400f60208201527f0000000000000000000000000000000000000000000000000000000000000000918101919091527f000000000000000000000000000000000000000000000000000000000000000060608201524660808201523060a082015260009060c00160405160208183030381529060405280519060200120905090565b6000610f3983836109f9565b15610dfa5760008381526009602090815260408083206001600160a01b0386168085529252808320805460ff1916905551339286917ff6391f5c32d9c69d2a47ea670b442974b53935d1edc7fd64eb21e047a839171b9190a45060016104ec565b610fa26112db565b6008805460ff191690557f5db9ee0a495bf2e6ff9c91a7834c1ba4fdd244a5e8aa4e537bd38aeae4b073aa335b6040516001600160a01b03909116815260200160405180910390a1565b610ff4611083565b6008805460ff191660011790557f62e78cea01bee320cd4e420270b5ea74000d11b0c9f74754ebdbfc544b05a258610fcf3390565b60606105f57f000000000000000000000000000000000000000000000000000000000000000060056112fe565b60606105f57f000000000000000000000000000000000000000000000000000000000000000060066112fe565b60085460ff16156110a75760405163d93c066560e01b815260040160405180910390fd5b565b60006104ec6110b6610e02565b8360405161190160f01b8152600281019290925260228201526042902090565b6000806000806110e8888888886113a9565b9250925092506110f88282611478565b50909695505050505050565b6001600160a01b03841661112e5760405163e602df0560e01b8152600060048201526024016106e9565b6001600160a01b03831661115857604051634a1406b160e11b8152600060048201526024016106e9565b6001600160a01b03808516600090815260016020908152604080832093871683529290522082905580156105e557826001600160a01b0316846001600160a01b03167f8c5be1e5ebec7d5bd14f71427d1e84f3dd0314c0f7b2291e5b200ac8c7c3b925846040516111cb91815260200190565b60405180910390a350505050565b6111e1611083565b6001600160a01b0383166000908152600d602052604090205460ff161561129357600b546001600160a01b0384166000908152600c60205260409020546112289190611aad565b4210156112775760405162461bcd60e51b815260206004820152601b60248201527f436f6f6c646f776e20706572696f64206e6f7420656c6170736564000000000060448201526064016106e9565b6001600160a01b0383166000908152600c602052604090204290555b61062d838383611531565b6112a882826109f9565b6112d75760405163e2517d3f60e01b81526001600160a01b0382166004820152602481018390526044016106e9565b5050565b60085460ff166110a757604051638dfc202b60e01b815260040160405180910390fd5b606060ff8314611318576113118361165b565b90506104ec565b81805461132490611a5d565b80601f016020809104026020016040519081016040528092919081815260200182805461135090611a5d565b801561139d5780601f106113725761010080835404028352916020019161139d565b820191906000526020600020905b81548152906001019060200180831161138057829003601f168201915b505050505090506104ec565b600080807f7fffffffffffffffffffffffffffffff5d576e7357a4501ddfe92f46681b20a08411156113e4575060009150600390508261146e565b604080516000808252602082018084528a905260ff891692820192909252606081018790526080810186905260019060a0016020604051602081039080840390855afa158015611438573d6000803e3d6000fd5b5050604051601f1901519150506001600160a01b0381166114645750600092506001915082905061146e565b9250600091508190505b9450945094915050565b600082600381111561148c5761148c611ace565b03611495575050565b60018260038111156114a9576114a9611ace565b036114c75760405163f645eedf60e01b815260040160405180910390fd5b60028260038111156114db576114db611ace565b036114fc5760405163fce698f760e01b8152600481018290526024016106e9565b600382600381111561151057611510611ace565b036112d7576040516335e2f38360e21b8152600481018290526024016106e9565b6001600160a01b03831661155c5780600260008282546115519190611aad565b909155506115ce9050565b6001600160a01b038316600090815260208190526040902054818110156115af5760405163391434e360e21b81526001600160a01b038516600482015260248101829052604481018390526064016106e9565b6001600160a01b03841660009081526020819052604090209082900390555b6001600160a01b0382166115ea57600280548290039055611609565b6001600160a01b03821660009081526020819052604090208054820190555b816001600160a01b0316836001600160a01b03167fddf252ad1be2c89b69c2b068fc378daa952ba7f163c4a11628f55a4df523b3ef8360405161164e91815260200190565b60405180910390a3505050565b606060006116688361169a565b604080516020808252818301909252919250600091906020820181803683375050509182525060208101929092525090565b600060ff8216601f8111156104ec57604051632cd44ac360e21b815260040160405180910390fd5b6000602082840312156116d457600080fd5b81356001600160e01b0319811681146116ec57600080fd5b9392505050565b6000815180845260005b81811015611719576020818501810151868301820152016116fd565b506000602082860101526020601f19601f83011685010191505092915050565b6020815260006116ec60208301846116f3565b80356001600160a01b038116811461176357600080fd5b919050565b6000806040838503121561177b57600080fd5b6117848361174c565b946020939093013593505050565b6000806000606084860312156117a757600080fd5b6117b08461174c565b92506117be6020850161174c565b929592945050506040919091013590565b6000602082840312156117e157600080fd5b5035919050565b6000602082840312156117fa57600080fd5b6116ec8261174c565b6000806040838503121561181657600080fd5b823591506118266020840161174c565b90509250929050565b60ff60f81b8816815260e06020820152600061184e60e08301896116f3565b828103604084015261186081896116f3565b606084018890526001600160a01b038716608085015260a0840186905283810360c08501528451808252602080870193509091019060005b818110156118b6578351835260209384019390920191600101611898565b50909b9a5050505050505050505050565b60008083601f8401126118d957600080fd5b50813567ffffffffffffffff8111156118f157600080fd5b6020830191508360208260051b850101111561190c57600080fd5b9250929050565b6000806000806040858703121561192957600080fd5b843567ffffffffffffffff81111561194057600080fd5b61194c878288016118c7565b909550935050602085013567ffffffffffffffff81111561196c57600080fd5b611978878288016118c7565b95989497509550505050565b6000806040838503121561199757600080fd5b6119a08361174c565b9150602083013580151581146119b557600080fd5b809150509250929050565b600080600080600080600060e0888a0312156119db57600080fd5b6119e48861174c565b96506119f26020890161174c565b95506040880135945060608801359350608088013560ff81168114611a1657600080fd5b9699959850939692959460a0840135945060c09093013592915050565b60008060408385031215611a4657600080fd5b611a4f8361174c565b91506118266020840161174c565b600181811c90821680611a7157607f821691505b602082108103611a9157634e487b7160e01b600052602260045260246000fd5b50919050565b634e487b7160e01b600052603260045260246000fd5b808201808211156104ec57634e487b7160e01b600052601160045260246000fd5b634e487b7160e01b600052602160045260246000fdfea49807205ce4d355092ef5a8a18f56e8913cf4a201fbe287825b095693c21775a26469706673582212204ffb9d1c448cd2e19a46dd68e870a902abc33dd93ec76836682327407c283c3164736f6c634300081c0033",
  "linkReferences": {},
  "deployedLinkReferences": {}
}