{"contracts/MaliciousContract.sol":{"MaliciousContract":{"abi":[{"inputs":[{"internalType":"address","name":"_stakeManager","type":"address"}],"stateMutability":"nonpayable","type":"constructor"},{"inputs":[{"internalType":"uint256","name":"positionId","type":"uint256"}],"name":"callEmergencyWithdraw","outputs":[],"stateMutability":"nonpayable","type":"function"},{"inputs":[],"name":"stakeManager","outputs":[{"internalType":"contract MultiStakeManager","name":"","type":"address"}],"stateMutability":"view","type":"function"}],"evm":{"bytecode":{"linkReferences":{},"object":"60a0604052348015600f57600080fd5b506040516101e93803806101e9833981016040819052602c91603c565b6001600160a01b0316608052606a565b600060208284031215604d57600080fd5b81516001600160a01b0381168114606357600080fd5b9392505050565b60805161015f61008a600039600081816055015260a9015261015f6000f3fe608060405234801561001057600080fd5b50600436106100365760003560e01c806338c42dfc1461003b5780637542ff9514610050575b600080fd5b61004e610049366004610110565b610093565b005b6100777f000000000000000000000000000000000000000000000000000000000000000081565b6040516001600160a01b03909116815260200160405180910390f35b604051632989754760e11b8152600481018290527f00000000000000000000000000000000000000000000000000000000000000006001600160a01b031690635312ea8e90602401600060405180830381600087803b1580156100f557600080fd5b505af1158015610109573d6000803e3d6000fd5b5050505050565b60006020828403121561012257600080fd5b503591905056fea26469706673582212201ed396d485614ddb5dc9e3b17300454a588ab4f54b0ef14e6e27c066d9faf5f464736f6c634300081c0033","opcodes":"PUSH1 0xA0 PUSH1 0x40 MSTORE CALLVALUE DUP1 ISZERO PUSH1 0xF JUMPI PUSH1 0x0 DUP1 REVERT JUMPDEST POP PUSH1 0x40 MLOAD PUSH2 0x1E9 CODESIZE SUB DUP1 PUSH2 0x1E9 DUP4 CODECOPY DUP2 ADD PUSH1 0x40 DUP2 SWAP1 MSTORE PUSH1 0x2C SWAP2 PUSH1 0x3C JUMP JUMPDEST PUSH1 0x1 PUSH1 0x1 PUSH1 0xA0 SHL SUB AND PUSH1 0x80 MSTORE PUSH1 0x6A JUMP JUMPDEST PUSH1 0x0 PUSH1 0x20 DUP3 DUP5 SUB SLT ISZERO PUSH1 0x4D JUMPI PUSH1 0x0 DUP1 REVERT JUMPDEST DUP2 MLOAD PUSH1 0x1 PUSH1 0x1 PUSH1 0xA0 SHL SUB DUP2 AND DUP2 EQ PUSH1 0x63 JUMPI PUSH1 0x0 DUP1 REVERT JUMPDEST SWAP4 SWAP3 POP POP POP JUMP JUMPDEST PUSH1 0x80 MLOAD PUSH2 0x15F PUSH2 0x8A PUSH1 0x0 CODECOPY PUSH1 0x0 DUP2 DUP2 PUSH1 0x55 ADD MSTORE PUSH1 0xA9 ADD MSTORE PUSH2 0x15F PUSH1 0x0 RETURN INVALID PUSH1 0x80 PUSH1 0x40 MSTORE CALLVALUE DUP1 ISZERO PUSH2 0x10 JUMPI PUSH1 0x0 DUP1 REVERT JUMPDEST POP PUSH1 0x4 CALLDATASIZE LT PUSH2 0x36 JUMPI PUSH1 0x0 CALLDATALOAD PUSH1 0xE0 SHR DUP1 PUSH4 0x38C42DFC EQ PUSH2 0x3B JUMPI DUP1 PUSH4 0x7542FF95 EQ PUSH2 0x50 JUMPI JUMPDEST PUSH1 0x0 DUP1 REVERT JUMPDEST PUSH2 0x4E PUSH2 0x49 CALLDATASIZE PUSH1 0x4 PUSH2 0x110 JUMP JUMPDEST PUSH2 0x93 JUMP JUMPDEST STOP JUMPDEST PUSH2 0x77 PUSH32 0x0 DUP2 JUMP JUMPDEST PUSH1 0x40 MLOAD PUSH1 0x1 PUSH1 0x1 PUSH1 0xA0 SHL SUB SWAP1 SWAP2 AND DUP2 MSTORE PUSH1 0x20 ADD PUSH1 0x40 MLOAD DUP1 SWAP2 SUB SWAP1 RETURN JUMPDEST PUSH1 0x40 MLOAD PUSH4 0x29897547 PUSH1 0xE1 SHL DUP2 MSTORE PUSH1 0x4 DUP2 ADD DUP3 SWAP1 MSTORE PUSH32 0x0 PUSH1 0x1 PUSH1 0x1 PUSH1 0xA0 SHL SUB AND SWAP1 PUSH4 0x5312EA8E SWAP1 PUSH1 0x24 ADD PUSH1 0x0 PUSH1 0x40 MLOAD DUP1 DUP4 SUB DUP2 PUSH1 0x0 DUP8 DUP1 EXTCODESIZE ISZERO DUP1 ISZERO PUSH2 0xF5 JUMPI PUSH1 0x0 DUP1 REVERT JUMPDEST POP GAS CALL ISZERO DUP1 ISZERO PUSH2 0x109 JUMPI RETURNDATASIZE PUSH1 0x0 DUP1 RETURNDATACOPY RETURNDATASIZE PUSH1 0x0 REVERT JUMPDEST POP POP POP POP POP JUMP JUMPDEST PUSH1 0x0 PUSH1 0x20 DUP3 DUP5 SUB SLT ISZERO PUSH2 0x122 JUMPI PUSH1 0x0 DUP1 REVERT JUMPDEST POP CALLDATALOAD SWAP2 SWAP1 POP JUMP INVALID LOG2 PUSH5 0x6970667358 0x22 SLT KECCAK256 0x1E 0xD3 SWAP7 0xD4 DUP6 PUSH2 0x4DDB TSTORE 0xC9 0xE3 0xB1 PUSH20 0x454A588AB4F54B0EF14E6E27C066D9FAF5F464 PUSH20 0x6F6C634300081C00330000000000000000000000 "},"methodIdentifiers":{"callEmergencyWithdraw(uint256)":"38c42dfc","stakeManager()":"7542ff95"}}}}}