{"contracts/PADNFTFactory.sol":{"PADNFTFactory":{"abi":[{"inputs":[{"internalType":"address","name":"_stakeManager","type":"address"},{"internalType":"address","name":"_tierCalculator","type":"address"}],"stateMutability":"nonpayable","type":"constructor"},{"inputs":[],"name":"AccessControlBadConfirmation","type":"error"},{"inputs":[{"internalType":"address","name":"account","type":"address"},{"internalType":"bytes32","name":"neededRole","type":"bytes32"}],"name":"AccessControlUnauthorizedAccount","type":"error"},{"inputs":[],"name":"ApprovalCallerNotOwnerNorApproved","type":"error"},{"inputs":[],"name":"ApprovalQueryForNonexistentToken","type":"error"},{"inputs":[],"name":"BalanceQueryForZeroAddress","type":"error"},{"inputs":[],"name":"MintERC2309QuantityExceedsLimit","type":"error"},{"inputs":[],"name":"MintToZeroAddress","type":"error"},{"inputs":[],"name":"MintZeroQuantity","type":"error"},{"inputs":[],"name":"NotCompatibleWithSpotMints","type":"error"},{"inputs":[],"name":"OwnerQueryForNonexistentToken","type":"error"},{"inputs":[],"name":"OwnershipNotInitializedForExtraData","type":"error"},{"inputs":[],"name":"SequentialMintExceedsLimit","type":"error"},{"inputs":[],"name":"SequentialUpToTooSmall","type":"error"},{"inputs":[],"name":"SpotMintTokenIdTooSmall","type":"error"},{"inputs":[],"name":"TokenAlreadyExists","type":"error"},{"inputs":[],"name":"TransferCallerNotOwnerNorApproved","type":"error"},{"inputs":[],"name":"TransferFromIncorrectOwner","type":"error"},{"inputs":[],"name":"TransferToNonERC721ReceiverImplementer","type":"error"},{"inputs":[],"name":"TransferToZeroAddress","type":"error"},{"inputs":[],"name":"URIQueryForNonexistentToken","type":"error"},{"anonymous":false,"inputs":[{"indexed":true,"internalType":"address","name":"owner","type":"address"},{"indexed":true,"internalType":"address","name":"approved","type":"address"},{"indexed":true,"internalType":"uint256","name":"tokenId","type":"uint256"}],"name":"Approval","type":"event"},{"anonymous":false,"inputs":[{"indexed":true,"internalType":"address","name":"owner","type":"address"},{"indexed":true,"internalType":"address","name":"operator","type":"address"},{"indexed":false,"internalType":"bool","name":"approved","type":"bool"}],"name":"ApprovalForAll","type":"event"},{"anonymous":false,"inputs":[{"indexed":false,"internalType":"string","name":"newBaseURI","type":"string"}],"name":"BaseURISet","type":"event"},{"anonymous":false,"inputs":[{"indexed":true,"internalType":"uint256","name":"fromTokenId","type":"uint256"},{"indexed":false,"internalType":"uint256","name":"toTokenId","type":"uint256"},{"indexed":true,"internalType":"address","name":"from","type":"address"},{"indexed":true,"internalType":"address","name":"to","type":"address"}],"name":"ConsecutiveTransfer","type":"event"},{"anonymous":false,"inputs":[{"indexed":true,"internalType":"address","name":"to","type":"address"},{"indexed":true,"internalType":"uint256","name":"tokenId","type":"uint256"},{"components":[{"internalType":"uint256","name":"positionId","type":"uint256"},{"internalType":"uint256","name":"amountStaked","type":"uint256"},{"internalType":"uint256","name":"lockDurationHours","type":"uint256"},{"internalType":"uint256","name":"startTimestamp","type":"uint256"},{"internalType":"uint8","name":"tierLevel","type":"uint8"},{"internalType":"uint256","name":"hourIndex","type":"uint256"},{"internalType":"uint256","name":"nextMintOn","type":"uint256"},{"internalType":"bool","name":"isInitialStakingNFT","type":"bool"}],"indexed":false,"internalType":"struct PADNFTFactory.NFTMetadata","name":"meta","type":"tuple"}],"name":"NFTMinted","type":"event"},{"anonymous":false,"inputs":[{"indexed":true,"internalType":"bytes32","name":"role","type":"bytes32"},{"indexed":true,"internalType":"bytes32","name":"previousAdminRole","type":"bytes32"},{"indexed":true,"internalType":"bytes32","name":"newAdminRole","type":"bytes32"}],"name":"RoleAdminChanged","type":"event"},{"anonymous":false,"inputs":[{"indexed":true,"internalType":"bytes32","name":"role","type":"bytes32"},{"indexed":true,"internalType":"address","name":"account","type":"address"},{"indexed":true,"internalType":"address","name":"sender","type":"address"}],"name":"RoleGranted","type":"event"},{"anonymous":false,"inputs":[{"indexed":true,"internalType":"bytes32","name":"role","type":"bytes32"},{"indexed":true,"internalType":"address","name":"account","type":"address"},{"indexed":true,"internalType":"address","name":"sender","type":"address"}],"name":"RoleRevoked","type":"event"},{"anonymous":false,"inputs":[{"indexed":true,"internalType":"address","name":"from","type":"address"},{"indexed":true,"internalType":"address","name":"to","type":"address"},{"indexed":true,"internalType":"uint256","name":"tokenId","type":"uint256"}],"name":"Transfer","type":"event"},{"inputs":[],"name":"DEFAULT_ADMIN_ROLE","outputs":[{"internalType":"bytes32","name":"","type":"bytes32"}],"stateMutability":"view","type":"function"},{"inputs":[],"name":"MINTER_ROLE","outputs":[{"internalType":"bytes32","name":"","type":"bytes32"}],"stateMutability":"view","type":"function"},{"inputs":[],"name":"URI_SETTER_ROLE","outputs":[{"internalType":"bytes32","name":"","type":"bytes32"}],"stateMutability":"view","type":"function"},{"inputs":[{"internalType":"address","name":"to","type":"address"},{"internalType":"uint256","name":"tokenId","type":"uint256"}],"name":"approve","outputs":[],"stateMutability":"payable","type":"function"},{"inputs":[{"internalType":"address","name":"owner","type":"address"}],"name":"balanceOf","outputs":[{"internalType":"uint256","name":"","type":"uint256"}],"stateMutability":"view","type":"function"},{"inputs":[{"internalType":"uint256","name":"tokenId","type":"uint256"}],"name":"getApproved","outputs":[{"internalType":"address","name":"","type":"address"}],"stateMutability":"view","type":"function"},{"inputs":[{"internalType":"bytes32","name":"role","type":"bytes32"}],"name":"getRoleAdmin","outputs":[{"internalType":"bytes32","name":"","type":"bytes32"}],"stateMutability":"view","type":"function"},{"inputs":[{"internalType":"bytes32","name":"role","type":"bytes32"},{"internalType":"address","name":"account","type":"address"}],"name":"grantRole","outputs":[],"stateMutability":"nonpayable","type":"function"},{"inputs":[{"internalType":"bytes32","name":"role","type":"bytes32"},{"internalType":"address","name":"account","type":"address"}],"name":"hasRole","outputs":[{"internalType":"bool","name":"","type":"bool"}],"stateMutability":"view","type":"function"},{"inputs":[{"internalType":"address","name":"owner","type":"address"},{"internalType":"address","name":"operator","type":"address"}],"name":"isApprovedForAll","outputs":[{"internalType":"bool","name":"","type":"bool"}],"stateMutability":"view","type":"function"},{"inputs":[{"internalType":"address","name":"to","type":"address"},{"internalType":"uint256","name":"positionId","type":"uint256"},{"internalType":"uint256","name":"amountStaked","type":"uint256"},{"internalType":"uint256","name":"lockDurationMonths","type":"uint256"},{"internalType":"uint256","name":"startTimestamp","type":"uint256"},{"internalType":"uint256","name":"monthIndex","type":"uint256"},{"internalType":"uint256","name":"nextMintOn","type":"uint256"},{"internalType":"bool","name":"isInitialStakingNFT","type":"bool"}],"name":"mintNFT","outputs":[{"internalType":"uint256","name":"","type":"uint256"}],"stateMutability":"nonpayable","type":"function"},{"inputs":[],"name":"name","outputs":[{"internalType":"string","name":"","type":"string"}],"stateMutability":"view","type":"function"},{"inputs":[{"internalType":"uint256","name":"","type":"uint256"}],"name":"nftMetadata","outputs":[{"internalType":"uint256","name":"positionId","type":"uint256"},{"internalType":"uint256","name":"amountStaked","type":"uint256"},{"internalType":"uint256","name":"lockDurationHours","type":"uint256"},{"internalType":"uint256","name":"startTimestamp","type":"uint256"},{"internalType":"uint8","name":"tierLevel","type":"uint8"},{"internalType":"uint256","name":"hourIndex","type":"uint256"},{"internalType":"uint256","name":"nextMintOn","type":"uint256"},{"internalType":"bool","name":"isInitialStakingNFT","type":"bool"}],"stateMutability":"view","type":"function"},{"inputs":[{"internalType":"uint256","name":"tokenId","type":"uint256"}],"name":"ownerOf","outputs":[{"internalType":"address","name":"","type":"address"}],"stateMutability":"view","type":"function"},{"inputs":[{"internalType":"bytes32","name":"role","type":"bytes32"},{"internalType":"address","name":"callerConfirmation","type":"address"}],"name":"renounceRole","outputs":[],"stateMutability":"nonpayable","type":"function"},{"inputs":[{"internalType":"bytes32","name":"role","type":"bytes32"},{"internalType":"address","name":"account","type":"address"}],"name":"revokeRole","outputs":[],"stateMutability":"nonpayable","type":"function"},{"inputs":[{"internalType":"address","name":"from","type":"address"},{"internalType":"address","name":"to","type":"address"},{"internalType":"uint256","name":"tokenId","type":"uint256"}],"name":"safeTransferFrom","outputs":[],"stateMutability":"payable","type":"function"},{"inputs":[{"internalType":"address","name":"from","type":"address"},{"internalType":"address","name":"to","type":"address"},{"internalType":"uint256","name":"tokenId","type":"uint256"},{"internalType":"bytes","name":"_data","type":"bytes"}],"name":"safeTransferFrom","outputs":[],"stateMutability":"payable","type":"function"},{"inputs":[{"internalType":"address","name":"operator","type":"address"},{"internalType":"bool","name":"approved","type":"bool"}],"name":"setApprovalForAll","outputs":[],"stateMutability":"nonpayable","type":"function"},{"inputs":[{"internalType":"string","name":"newBaseURI","type":"string"}],"name":"setBaseURI","outputs":[],"stateMutability":"nonpayable","type":"function"},{"inputs":[],"name":"stakeManager","outputs":[{"internalType":"address","name":"","type":"address"}],"stateMutability":"view","type":"function"},{"inputs":[{"internalType":"bytes4","name":"interfaceId","type":"bytes4"}],"name":"supportsInterface","outputs":[{"internalType":"bool","name":"","type":"bool"}],"stateMutability":"view","type":"function"},{"inputs":[],"name":"symbol","outputs":[{"internalType":"string","name":"","type":"string"}],"stateMutability":"view","type":"function"},{"inputs":[],"name":"tierCalculator","outputs":[{"internalType":"address","name":"","type":"address"}],"stateMutability":"view","type":"function"},{"inputs":[{"internalType":"uint256","name":"tokenId","type":"uint256"}],"name":"tokenURI","outputs":[{"internalType":"string","name":"","type":"string"}],"stateMutability":"view","type":"function"},{"inputs":[],"name":"totalSupply","outputs":[{"internalType":"uint256","name":"result","type":"uint256"}],"stateMutability":"view","type":"function"},{"inputs":[{"internalType":"address","name":"from","type":"address"},{"internalType":"address","name":"to","type":"address"},{"internalType":"uint256","name":"tokenId","type":"uint256"}],"name":"transferFrom","outputs":[],"stateMutability":"payable","type":"function"}],"evm":{"bytecode":{"linkReferences":{},"object":"608060405234801561001057600080fd5b50604051611e67380380611e6783398101604081905261002f916101f7565b6040518060400160405280600c81526020016b504144204e4654202876322960a01b815250604051806040016040528060088152602001672820a227232a3b1960c11b815250816002908161008491906102c9565b50600361009182826102c9565b505060008080556100a391503361012b565b506100ce7f7804d923f43a17d325d77e781528e0793b2edd9890ab45fc64efd7b4b427744c3361012b565b506100f97f9f2df0fed2c77648de5860a4cc508cd0818c85b8b8a1ab4ceeef8d981c8956a63361012b565b50600b80546001600160a01b039384166001600160a01b031991821617909155600c8054929093169116179055610387565b60008281526009602090815260408083206001600160a01b038516845290915281205460ff166101d15760008381526009602090815260408083206001600160a01b03861684529091529020805460ff191660011790556101893390565b6001600160a01b0316826001600160a01b0316847f2f8788117e7eff1d82e926ec794901d17c78024a50270940304540a733656f0d60405160405180910390a45060016101d5565b5060005b92915050565b80516001600160a01b03811681146101f257600080fd5b919050565b6000806040838503121561020a57600080fd5b610213836101db565b9150610221602084016101db565b90509250929050565b634e487b7160e01b600052604160045260246000fd5b600181811c9082168061025457607f821691505b60208210810361027457634e487b7160e01b600052602260045260246000fd5b50919050565b601f8211156102c457806000526020600020601f840160051c810160208510156102a15750805b601f840160051c820191505b818110156102c157600081556001016102ad565b50505b505050565b81516001600160401b038111156102e2576102e261022a565b6102f6816102f08454610240565b8461027a565b6020601f82116001811461032a57600083156103125750848201515b600019600385901b1c1916600184901b1784556102c1565b600084815260208120601f198516915b8281101561035a578785015182556020948501946001909201910161033a565b50848210156103785786840151600019600387901b60f8161c191681555b50505050600190811b01905550565b611ad1806103966000396000f3fe60806040526004361061019c5760003560e01c806370a08231116100ec578063a22cb4651161008a578063c87b56dd11610064578063c87b56dd14610512578063d539139314610532578063d547741f14610566578063e985e9c51461058657600080fd5b8063a22cb465146104bf578063b88d4fde146104df578063be0f2b88146104f257600080fd5b80637f345710116100c65780637f3457101461044157806391d148541461047557806395d89b4114610495578063a217fddf146104aa57600080fd5b806370a08231146103e15780637542ff951461040157806378eebc681461042157600080fd5b8063248a9ca31161015957806342842e0e1161013357806342842e0e146102eb57806349541015146102fe57806355f804b3146103a15780636352211e146103c157600080fd5b8063248a9ca31461027b5780632f2ff15d146102ab57806336568abe146102cb57600080fd5b806301ffc9a7146101a157806306fdde03146101d6578063081812fc146101f8578063095ea7b31461023057806318160ddd1461024557806323b872dd14610268575b600080fd5b3480156101ad57600080fd5b506101c16101bc3660046114db565b6105cf565b60405190151581526020015b60405180910390f35b3480156101e257600080fd5b506101eb6105e0565b6040516101cd9190611548565b34801561020457600080fd5b5061021861021336600461155b565b610672565b6040516001600160a01b0390911681526020016101cd565b61024361023e36600461158b565b6106ad565b005b34801561025157600080fd5b50600154600054035b6040519081526020016101cd565b6102436102763660046115b5565b6106bd565b34801561028757600080fd5b5061025a61029636600461155b565b60009081526009602052604090206001015490565b3480156102b757600080fd5b506102436102c63660046115f2565b61082f565b3480156102d757600080fd5b506102436102e63660046115f2565b61085a565b6102436102f93660046115b5565b610892565b34801561030a57600080fd5b5061036161031936600461155b565b600d6020526000908152604090208054600182015460028301546003840154600485015460058601546006870154600790970154959694959394929360ff9283169391921688565b60408051988952602089019790975295870194909452606086019290925260ff16608085015260a084015260c0830152151560e0820152610100016101cd565b3480156103ad57600080fd5b506102436103bc3660046116ae565b6108ad565b3480156103cd57600080fd5b506102186103dc36600461155b565b61091f565b3480156103ed57600080fd5b5061025a6103fc3660046116f7565b61092a565b34801561040d57600080fd5b50600b54610218906001600160a01b031681565b34801561042d57600080fd5b5061025a61043c366004611722565b610970565b34801561044d57600080fd5b5061025a7f7804d923f43a17d325d77e781528e0793b2edd9890ab45fc64efd7b4b427744c81565b34801561048157600080fd5b506101c16104903660046115f2565b610b77565b3480156104a157600080fd5b506101eb610ba2565b3480156104b657600080fd5b5061025a600081565b3480156104cb57600080fd5b506102436104da36600461178f565b610bb1565b6102436104ed3660046117b9565b610c1d565b3480156104fe57600080fd5b50600c54610218906001600160a01b031681565b34801561051e57600080fd5b506101eb61052d36600461155b565b610c58565b34801561053e57600080fd5b5061025a7f9f2df0fed2c77648de5860a4cc508cd0818c85b8b8a1ab4ceeef8d981c8956a681565b34801561057257600080fd5b506102436105813660046115f2565b610d28565b34801561059257600080fd5b506101c16105a1366004611835565b6001600160a01b03918216600090815260076020908152604080832093909416825291909152205460ff1690565b60006105da82610d4d565b92915050565b6060600280546105ef9061185f565b80601f016020809104026020016040519081016040528092919081815260200182805461061b9061185f565b80156106685780601f1061063d57610100808354040283529160200191610668565b820191906000526020600020905b81548152906001019060200180831161064b57829003601f168201915b5050505050905090565b600061067d82610d82565b610691576106916333d1c03960e21b610dc7565b506000908152600660205260409020546001600160a01b031690565b6106b982826001610dd1565b5050565b60006106c882610e74565b6001600160a01b0394851694909150811684146106ee576106ee62a1148160e81b610dc7565b60008281526006602052604090208054338082146001600160a01b038816909114176107325761071e86336105a1565b61073257610732632ce44b5f60e11b610dc7565b61073f8686866001610f0a565b801561074a57600082555b6001600160a01b038681166000908152600560205260408082208054600019019055918716808252919020805460010190554260a01b17600160e11b17600085815260046020526040812091909155600160e11b841690036107dc576001840160008181526004602052604081205490036107da5760005481146107da5760008181526004602052604090208490555b505b6001600160a01b0385168481887fddf252ad1be2c89b69c2b068fc378daa952ba7f163c4a11628f55a4df523b3ef600080a48060000361082657610826633a954ecd60e21b610dc7565b50505050505050565b60008281526009602052604090206001015461084a81610fd7565b6108548383610fe4565b50505050565b6001600160a01b03811633146108835760405163334bd91960e11b815260040160405180910390fd5b61088d8282611078565b505050565b61088d83838360405180602001604052806000815250610c1d565b7f7804d923f43a17d325d77e781528e0793b2edd9890ab45fc64efd7b4b427744c6108d781610fd7565b600a6108e383826118e0565b507ff9c7803e94e0d3c02900d8a90893a6d5e90dd04d32a4cfe825520f82bf9f32f6826040516109139190611548565b60405180910390a15050565b60006105da82610e74565b60006001600160a01b03821661094a5761094a6323d3ad8160e21b610dc7565b506001600160a01b031660009081526005602052604090205467ffffffffffffffff1690565b60007f9f2df0fed2c77648de5860a4cc508cd0818c85b8b8a1ab4ceeef8d981c8956a661099c81610fd7565b600c546040516351355cfb60e01b815260048101899052602481018a90526000916001600160a01b0316906351355cfb90604401602060405180830381865afa1580156109ed573d6000803e3d6000fd5b505050506040513d601f19601f82011682018060405250810190610a11919061199f565b90506000610a1e60005490565b9050610a2b8c60016110e5565b60408051610100810182528c815260208082018d81528284018d8152606084018d815260ff8089166080870190815260a087018f815260c088018f81528e151560e08a0190815260008c8152600d909952978a90209851895595516001890155935160028801559151600387015590516004860180549190921660ff19918216179091559051600585015590516006840155905160078301805491151591909216179055905182916001600160a01b038f16917f57265e891bedb656a4faa6c1763dbd5ee2b397b7e99594dabbd8c54484ad827091610b609181548152600182015460208201526002820154604082015260038201546060820152600482015460ff9081166080830152600583015460a0830152600683015460c0830152600790920154909116151560e08201526101000190565b60405180910390a39b9a5050505050505050505050565b60009182526009602090815260408084206001600160a01b0393909316845291905290205460ff1690565b6060600380546105ef9061185f565b3360008181526007602090815260408083206001600160a01b03871680855290835292819020805460ff191686151590811790915590519081529192917f17307eab39ab6107e8899845ad3d59bd9653f200f220920489ca2b5937696c31910160405180910390a35050565b610c288484846106bd565b6001600160a01b0383163b1561085457610c44848484846110ff565b610854576108546368d2bf6b60e11b610dc7565b6060610c6382610d82565b610ccc5760405162461bcd60e51b815260206004820152602f60248201527f4552433732314d657461646174613a2055524920717565727920666f72206e6f60448201526e3732bc34b9ba32b73a103a37b5b2b760891b60648201526084015b60405180910390fd5b6000610cd66111e2565b90506000815111610cf65760405180602001604052806000815250610d21565b80610d00846111f1565b604051602001610d119291906119c2565b6040516020818303038152906040525b9392505050565b600082815260096020526040902060010154610d4381610fd7565b6108548383611078565b60006001600160e01b03198216637965db0b60e01b14806105da57506301ffc9a760e01b6001600160e01b03198316146105da565b60008054821015610dc25760005b5060008281526004602052604081205490819003610db857610db183611a17565b9250610d90565b600160e01b161590505b919050565b8060005260046000fd5b6000610ddc8361091f565b9050818015610df45750336001600160a01b03821614155b15610e1757610e0381336105a1565b610e1757610e176367d9dca160e11b610dc7565b60008381526006602052604080822080546001600160a01b0319166001600160a01b0388811691821790925591518693918516917f8c5be1e5ebec7d5bd14f71427d1e84f3dd0314c0f7b2291e5b200ac8c7c3b92591a450505050565b60008181526004602052604090205480600003610ee7576000548210610ea457610ea4636f96cda160e11b610dc7565b5b50600019016000818152600460205260409020548015610ea557600160e01b8116600003610ed257919050565b610ee2636f96cda160e11b610dc7565b610ea5565b600160e01b8116600003610efa57919050565b610dc2636f96cda160e11b610dc7565b6001600160a01b03841615801590610f2a57506001600160a01b03831615155b15610fd25760005b81811015610fd0576000600d81610f498487611a2e565b815260208101919091526040016000206004015460ff1690506002811015610fc75760405162461bcd60e51b815260206004820152602b60248201527f536f756c2d626f756e643a206f6e6c7920476f6c642f506c6174696e756d207460448201526a72616e7366657261626c6560a81b6064820152608401610cc3565b50600101610f32565b505b610854565b610fe18133611284565b50565b6000610ff08383610b77565b6110705760008381526009602090815260408083206001600160a01b03861684529091529020805460ff191660011790556110283390565b6001600160a01b0316826001600160a01b0316847f2f8788117e7eff1d82e926ec794901d17c78024a50270940304540a733656f0d60405160405180910390a45060016105da565b5060006105da565b60006110848383610b77565b156110705760008381526009602090815260408083206001600160a01b0386168085529252808320805460ff1916905551339286917ff6391f5c32d9c69d2a47ea670b442974b53935d1edc7fd64eb21e047a839171b9190a45060016105da565b6106b98282604051806020016040528060008152506112bd565b604051630a85bd0160e11b81526000906001600160a01b0385169063150b7a0290611134903390899088908890600401611a41565b6020604051808303816000875af192505050801561116f575060408051601f3d908101601f1916820190925261116c91810190611a7e565b60015b6111c4573d80801561119d576040519150601f19603f3d011682016040523d82523d6000602084013e6111a2565b606091505b5080516000036111bc576111bc6368d2bf6b60e11b610dc7565b805181602001fd5b6001600160e01b031916630a85bd0160e11b1490505b949350505050565b6060600a80546105ef9061185f565b606060006111fe83611321565b600101905060008167ffffffffffffffff81111561121e5761121e61161e565b6040519080825280601f01601f191660200182016040528015611248576020820181803683370190505b5090508181016020015b600019016f181899199a1a9b1b9c1cb0b131b232b360811b600a86061a8153600a850494508461125257509392505050565b61128e8282610b77565b6106b95760405163e2517d3f60e01b81526001600160a01b038216600482015260248101839052604401610cc3565b6112c783836113f9565b6001600160a01b0383163b1561088d576000548281035b6112f160008683806001019450866110ff565b611305576113056368d2bf6b60e11b610dc7565b8181106112de57816000541461131a57600080fd5b5050505050565b60008072184f03e93ff9f4daa797ed6e38ed64bf6a1f0160401b83106113605772184f03e93ff9f4daa797ed6e38ed64bf6a1f0160401b830492506040015b6d04ee2d6d415b85acef8100000000831061138c576d04ee2d6d415b85acef8100000000830492506020015b662386f26fc1000083106113aa57662386f26fc10000830492506010015b6305f5e10083106113c2576305f5e100830492506008015b61271083106113d657612710830492506004015b606483106113e8576064830492506002015b600a83106105da5760010192915050565b60008054908290036114155761141563b562e8dd60e01b610dc7565b6114226000848385610f0a565b60008181526004602090815260408083206001600160a01b0387164260a01b6001881460e11b1781179091558084526005909252822080546801000000000000000186020190559081900361148057611480622e076360e81b610dc7565b818301825b808360007fddf252ad1be2c89b69c2b068fc378daa952ba7f163c4a11628f55a4df523b3ef600080a4818160010191508103611485575060005550505050565b6001600160e01b031981168114610fe157600080fd5b6000602082840312156114ed57600080fd5b8135610d21816114c5565b60005b838110156115135781810151838201526020016114fb565b50506000910152565b600081518084526115348160208601602086016114f8565b601f01601f19169290920160200192915050565b602081526000610d21602083018461151c565b60006020828403121561156d57600080fd5b5035919050565b80356001600160a01b0381168114610dc257600080fd5b6000806040838503121561159e57600080fd5b6115a783611574565b946020939093013593505050565b6000806000606084860312156115ca57600080fd5b6115d384611574565b92506115e160208501611574565b929592945050506040919091013590565b6000806040838503121561160557600080fd5b8235915061161560208401611574565b90509250929050565b634e487b7160e01b600052604160045260246000fd5b60008067ffffffffffffffff84111561164f5761164f61161e565b50604051601f19601f85018116603f0116810181811067ffffffffffffffff8211171561167e5761167e61161e565b60405283815290508082840185101561169657600080fd5b83836020830137600060208583010152509392505050565b6000602082840312156116c057600080fd5b813567ffffffffffffffff8111156116d757600080fd5b8201601f810184136116e857600080fd5b6111da84823560208401611634565b60006020828403121561170957600080fd5b610d2182611574565b80358015158114610dc257600080fd5b600080600080600080600080610100898b03121561173f57600080fd5b61174889611574565b97506020890135965060408901359550606089013594506080890135935060a0890135925060c0890135915061178060e08a01611712565b90509295985092959890939650565b600080604083850312156117a257600080fd5b6117ab83611574565b915061161560208401611712565b600080600080608085870312156117cf57600080fd5b6117d885611574565b93506117e660208601611574565b925060408501359150606085013567ffffffffffffffff81111561180957600080fd5b8501601f8101871361181a57600080fd5b61182987823560208401611634565b91505092959194509250565b6000806040838503121561184857600080fd5b61185183611574565b915061161560208401611574565b600181811c9082168061187357607f821691505b60208210810361189357634e487b7160e01b600052602260045260246000fd5b50919050565b601f82111561088d57806000526020600020601f840160051c810160208510156118c05750805b601f840160051c820191505b8181101561131a57600081556001016118cc565b815167ffffffffffffffff8111156118fa576118fa61161e565b61190e81611908845461185f565b84611899565b6020601f821160018114611942576000831561192a5750848201515b600019600385901b1c1916600184901b17845561131a565b600084815260208120601f198516915b828110156119725787850151825560209485019460019092019101611952565b50848210156119905786840151600019600387901b60f8161c191681555b50505050600190811b01905550565b6000602082840312156119b157600080fd5b815160ff81168114610d2157600080fd5b600083516119d48184602088016114f8565b8351908301906119e88183602088016114f8565b64173539b7b760d91b9101908152600501949350505050565b634e487b7160e01b600052601160045260246000fd5b600081611a2657611a26611a01565b506000190190565b808201808211156105da576105da611a01565b6001600160a01b0385811682528416602082015260408101839052608060608201819052600090611a749083018461151c565b9695505050505050565b600060208284031215611a9057600080fd5b8151610d21816114c556fea264697066735822122084a2a5e5de9bf735cf8251f156e4ecd625966f6e4ae3336d56338d061f245fdf64736f6c634300081c0033","opcodes":"PUSH1 0x80 PUSH1 0x40 MSTORE CALLVALUE DUP1 ISZERO PUSH2 0x10 JUMPI PUSH1 0x0 DUP1 REVERT JUMPDEST POP PUSH1 0x40 MLOAD PUSH2 0x1E67 CODESIZE SUB DUP1 PUSH2 0x1E67 DUP4 CODECOPY DUP2 ADD PUSH1 0x40 DUP2 SWAP1 MSTORE PUSH2 0x2F SWAP2 PUSH2 0x1F7 JUMP JUMPDEST PUSH1 0x40 MLOAD DUP1 PUSH1 0x40 ADD PUSH1 0x40 MSTORE DUP1 PUSH1 0xC DUP2 MSTORE PUSH1 0x20 ADD PUSH12 0x504144204E46542028763229 PUSH1 0xA0 SHL DUP2 MSTORE POP PUSH1 0x40 MLOAD DUP1 PUSH1 0x40 ADD PUSH1 0x40 MSTORE DUP1 PUSH1 0x8 DUP2 MSTORE PUSH1 0x20 ADD PUSH8 0x2820A227232A3B19 PUSH1 0xC1 SHL DUP2 MSTORE POP DUP2 PUSH1 0x2 SWAP1 DUP2 PUSH2 0x84 SWAP2 SWAP1 PUSH2 0x2C9 JUMP JUMPDEST POP PUSH1 0x3 PUSH2 0x91 DUP3 DUP3 PUSH2 0x2C9 JUMP JUMPDEST POP POP PUSH1 0x0 DUP1 DUP1 SSTORE PUSH2 0xA3 SWAP2 POP CALLER PUSH2 0x12B JUMP JUMPDEST POP PUSH2 0xCE PUSH32 0x7804D923F43A17D325D77E781528E0793B2EDD9890AB45FC64EFD7B4B427744C CALLER PUSH2 0x12B JUMP JUMPDEST POP PUSH2 0xF9 PUSH32 0x9F2DF0FED2C77648DE5860A4CC508CD0818C85B8B8A1AB4CEEEF8D981C8956A6 CALLER PUSH2 0x12B JUMP JUMPDEST POP PUSH1 0xB DUP1 SLOAD PUSH1 0x1 PUSH1 0x1 PUSH1 0xA0 SHL SUB SWAP4 DUP5 AND PUSH1 0x1 PUSH1 0x1 PUSH1 0xA0 SHL SUB NOT SWAP2 DUP3 AND OR SWAP1 SWAP2 SSTORE PUSH1 0xC DUP1 SLOAD SWAP3 SWAP1 SWAP4 AND SWAP2 AND OR SWAP1 SSTORE PUSH2 0x387 JUMP JUMPDEST PUSH1 0x0 DUP3 DUP2 MSTORE PUSH1 0x9 PUSH1 0x20 SWAP1 DUP2 MSTORE PUSH1 0x40 DUP1 DUP4 KECCAK256 PUSH1 0x1 PUSH1 0x1 PUSH1 0xA0 SHL SUB DUP6 AND DUP5 MSTORE SWAP1 SWAP2 MSTORE DUP2 KECCAK256 SLOAD PUSH1 0xFF AND PUSH2 0x1D1 JUMPI PUSH1 0x0 DUP4 DUP2 MSTORE PUSH1 0x9 PUSH1 0x20 SWAP1 DUP2 MSTORE PUSH1 0x40 DUP1 DUP4 KECCAK256 PUSH1 0x1 PUSH1 0x1 PUSH1 0xA0 SHL SUB DUP7 AND DUP5 MSTORE SWAP1 SWAP2 MSTORE SWAP1 KECCAK256 DUP1 SLOAD PUSH1 0xFF NOT AND PUSH1 0x1 OR SWAP1 SSTORE PUSH2 0x189 CALLER SWAP1 JUMP JUMPDEST PUSH1 0x1 PUSH1 0x1 PUSH1 0xA0 SHL SUB AND DUP3 PUSH1 0x1 PUSH1 0x1 PUSH1 0xA0 SHL SUB AND DUP5 PUSH32 0x2F8788117E7EFF1D82E926EC794901D17C78024A50270940304540A733656F0D PUSH1 0x40 MLOAD PUSH1 0x40 MLOAD DUP1 SWAP2 SUB SWAP1 LOG4 POP PUSH1 0x1 PUSH2 0x1D5 JUMP JUMPDEST POP PUSH1 0x0 JUMPDEST SWAP3 SWAP2 POP POP JUMP JUMPDEST DUP1 MLOAD PUSH1 0x1 PUSH1 0x1 PUSH1 0xA0 SHL SUB DUP2 AND DUP2 EQ PUSH2 0x1F2 JUMPI PUSH1 0x0 DUP1 REVERT JUMPDEST SWAP2 SWAP1 POP JUMP JUMPDEST PUSH1 0x0 DUP1 PUSH1 0x40 DUP4 DUP6 SUB SLT ISZERO PUSH2 0x20A JUMPI PUSH1 0x0 DUP1 REVERT JUMPDEST PUSH2 0x213 DUP4 PUSH2 0x1DB JUMP JUMPDEST SWAP2 POP PUSH2 0x221 PUSH1 0x20 DUP5 ADD PUSH2 0x1DB JUMP JUMPDEST SWAP1 POP SWAP3 POP SWAP3 SWAP1 POP JUMP JUMPDEST PUSH4 0x4E487B71 PUSH1 0xE0 SHL PUSH1 0x0 MSTORE PUSH1 0x41 PUSH1 0x4 MSTORE PUSH1 0x24 PUSH1 0x0 REVERT JUMPDEST PUSH1 0x1 DUP2 DUP2 SHR SWAP1 DUP3 AND DUP1 PUSH2 0x254 JUMPI PUSH1 0x7F DUP3 AND SWAP2 POP JUMPDEST PUSH1 0x20 DUP3 LT DUP2 SUB PUSH2 0x274 JUMPI PUSH4 0x4E487B71 PUSH1 0xE0 SHL PUSH1 0x0 MSTORE PUSH1 0x22 PUSH1 0x4 MSTORE PUSH1 0x24 PUSH1 0x0 REVERT JUMPDEST POP SWAP2 SWAP1 POP JUMP JUMPDEST PUSH1 0x1F DUP3 GT ISZERO PUSH2 0x2C4 JUMPI DUP1 PUSH1 0x0 MSTORE PUSH1 0x20 PUSH1 0x0 KECCAK256 PUSH1 0x1F DUP5 ADD PUSH1 0x5 SHR DUP2 ADD PUSH1 0x20 DUP6 LT ISZERO PUSH2 0x2A1 JUMPI POP DUP1 JUMPDEST PUSH1 0x1F DUP5 ADD PUSH1 0x5 SHR DUP3 ADD SWAP2 POP JUMPDEST DUP2 DUP2 LT ISZERO PUSH2 0x2C1 JUMPI PUSH1 0x0 DUP2 SSTORE PUSH1 0x1 ADD PUSH2 0x2AD JUMP JUMPDEST POP POP JUMPDEST POP POP POP JUMP JUMPDEST DUP2 MLOAD PUSH1 0x1 PUSH1 0x1 PUSH1 0x40 SHL SUB DUP2 GT ISZERO PUSH2 0x2E2 JUMPI PUSH2 0x2E2 PUSH2 0x22A JUMP JUMPDEST PUSH2 0x2F6 DUP2 PUSH2 0x2F0 DUP5 SLOAD PUSH2 0x240 JUMP JUMPDEST DUP5 PUSH2 0x27A JUMP JUMPDEST PUSH1 0x20 PUSH1 0x1F DUP3 GT PUSH1 0x1 DUP2 EQ PUSH2 0x32A JUMPI PUSH1 0x0 DUP4 ISZERO PUSH2 0x312 JUMPI POP DUP5 DUP3 ADD MLOAD JUMPDEST PUSH1 0x0 NOT PUSH1 0x3 DUP6 SWAP1 SHL SHR NOT AND PUSH1 0x1 DUP5 SWAP1 SHL OR DUP5 SSTORE PUSH2 0x2C1 JUMP JUMPDEST PUSH1 0x0 DUP5 DUP2 MSTORE PUSH1 0x20 DUP2 KECCAK256 PUSH1 0x1F NOT DUP6 AND SWAP2 JUMPDEST DUP3 DUP2 LT ISZERO PUSH2 0x35A JUMPI DUP8 DUP6 ADD MLOAD DUP3 SSTORE PUSH1 0x20 SWAP5 DUP6 ADD SWAP5 PUSH1 0x1 SWAP1 SWAP3 ADD SWAP2 ADD PUSH2 0x33A JUMP JUMPDEST POP DUP5 DUP3 LT ISZERO PUSH2 0x378 JUMPI DUP7 DUP5 ADD MLOAD PUSH1 0x0 NOT PUSH1 0x3 DUP8 SWAP1 SHL PUSH1 0xF8 AND SHR NOT AND DUP2 SSTORE JUMPDEST POP POP POP POP PUSH1 0x1 SWAP1 DUP2 SHL ADD SWAP1 SSTORE POP JUMP JUMPDEST PUSH2 0x1AD1 DUP1 PUSH2 0x396 PUSH1 0x0 CODECOPY PUSH1 0x0 RETURN INVALID PUSH1 0x80 PUSH1 0x40 MSTORE PUSH1 0x4 CALLDATASIZE LT PUSH2 0x19C JUMPI PUSH1 0x0 CALLDATALOAD PUSH1 0xE0 SHR DUP1 PUSH4 0x70A08231 GT PUSH2 0xEC JUMPI DUP1 PUSH4 0xA22CB465 GT PUSH2 0x8A JUMPI DUP1 PUSH4 0xC87B56DD GT PUSH2 0x64 JUMPI DUP1 PUSH4 0xC87B56DD EQ PUSH2 0x512 JUMPI DUP1 PUSH4 0xD5391393 EQ PUSH2 0x532 JUMPI DUP1 PUSH4 0xD547741F EQ PUSH2 0x566 JUMPI DUP1 PUSH4 0xE985E9C5 EQ PUSH2 0x586 JUMPI PUSH1 0x0 DUP1 REVERT JUMPDEST DUP1 PUSH4 0xA22CB465 EQ PUSH2 0x4BF JUMPI DUP1 PUSH4 0xB88D4FDE EQ PUSH2 0x4DF JUMPI DUP1 PUSH4 0xBE0F2B88 EQ PUSH2 0x4F2 JUMPI PUSH1 0x0 DUP1 REVERT JUMPDEST DUP1 PUSH4 0x7F345710 GT PUSH2 0xC6 JUMPI DUP1 PUSH4 0x7F345710 EQ PUSH2 0x441 JUMPI DUP1 PUSH4 0x91D14854 EQ PUSH2 0x475 JUMPI DUP1 PUSH4 0x95D89B41 EQ PUSH2 0x495 JUMPI DUP1 PUSH4 0xA217FDDF EQ PUSH2 0x4AA JUMPI PUSH1 0x0 DUP1 REVERT JUMPDEST DUP1 PUSH4 0x70A08231 EQ PUSH2 0x3E1 JUMPI DUP1 PUSH4 0x7542FF95 EQ PUSH2 0x401 JUMPI DUP1 PUSH4 0x78EEBC68 EQ PUSH2 0x421 JUMPI PUSH1 0x0 DUP1 REVERT JUMPDEST DUP1 PUSH4 0x248A9CA3 GT PUSH2 0x159 JUMPI DUP1 PUSH4 0x42842E0E GT PUSH2 0x133 JUMPI DUP1 PUSH4 0x42842E0E EQ PUSH2 0x2EB JUMPI DUP1 PUSH4 0x49541015 EQ PUSH2 0x2FE JUMPI DUP1 PUSH4 0x55F804B3 EQ PUSH2 0x3A1 JUMPI DUP1 PUSH4 0x6352211E EQ PUSH2 0x3C1 JUMPI PUSH1 0x0 DUP1 REVERT JUMPDEST DUP1 PUSH4 0x248A9CA3 EQ PUSH2 0x27B JUMPI DUP1 PUSH4 0x2F2FF15D EQ PUSH2 0x2AB JUMPI DUP1 PUSH4 0x36568ABE EQ PUSH2 0x2CB JUMPI PUSH1 0x0 DUP1 REVERT JUMPDEST DUP1 PUSH4 0x1FFC9A7 EQ PUSH2 0x1A1 JUMPI DUP1 PUSH4 0x6FDDE03 EQ PUSH2 0x1D6 JUMPI DUP1 PUSH4 0x81812FC EQ PUSH2 0x1F8 JUMPI DUP1 PUSH4 0x95EA7B3 EQ PUSH2 0x230 JUMPI DUP1 PUSH4 0x18160DDD EQ PUSH2 0x245 JUMPI DUP1 PUSH4 0x23B872DD EQ PUSH2 0x268 JUMPI JUMPDEST PUSH1 0x0 DUP1 REVERT JUMPDEST CALLVALUE DUP1 ISZERO PUSH2 0x1AD JUMPI PUSH1 0x0 DUP1 REVERT JUMPDEST POP PUSH2 0x1C1 PUSH2 0x1BC CALLDATASIZE PUSH1 0x4 PUSH2 0x14DB JUMP JUMPDEST PUSH2 0x5CF JUMP JUMPDEST PUSH1 0x40 MLOAD SWAP1 ISZERO ISZERO DUP2 MSTORE PUSH1 0x20 ADD JUMPDEST PUSH1 0x40 MLOAD DUP1 SWAP2 SUB SWAP1 RETURN JUMPDEST CALLVALUE DUP1 ISZERO PUSH2 0x1E2 JUMPI PUSH1 0x0 DUP1 REVERT JUMPDEST POP PUSH2 0x1EB PUSH2 0x5E0 JUMP JUMPDEST PUSH1 0x40 MLOAD PUSH2 0x1CD SWAP2 SWAP1 PUSH2 0x1548 JUMP JUMPDEST CALLVALUE DUP1 ISZERO PUSH2 0x204 JUMPI PUSH1 0x0 DUP1 REVERT JUMPDEST POP PUSH2 0x218 PUSH2 0x213 CALLDATASIZE PUSH1 0x4 PUSH2 0x155B JUMP JUMPDEST PUSH2 0x672 JUMP JUMPDEST PUSH1 0x40 MLOAD PUSH1 0x1 PUSH1 0x1 PUSH1 0xA0 SHL SUB SWAP1 SWAP2 AND DUP2 MSTORE PUSH1 0x20 ADD PUSH2 0x1CD JUMP JUMPDEST PUSH2 0x243 PUSH2 0x23E CALLDATASIZE PUSH1 0x4 PUSH2 0x158B JUMP JUMPDEST PUSH2 0x6AD JUMP JUMPDEST STOP JUMPDEST CALLVALUE DUP1 ISZERO PUSH2 0x251 JUMPI PUSH1 0x0 DUP1 REVERT JUMPDEST POP PUSH1 0x1 SLOAD PUSH1 0x0 SLOAD SUB JUMPDEST PUSH1 0x40 MLOAD SWAP1 DUP2 MSTORE PUSH1 0x20 ADD PUSH2 0x1CD JUMP JUMPDEST PUSH2 0x243 PUSH2 0x276 CALLDATASIZE PUSH1 0x4 PUSH2 0x15B5 JUMP JUMPDEST PUSH2 0x6BD JUMP JUMPDEST CALLVALUE DUP1 ISZERO PUSH2 0x287 JUMPI PUSH1 0x0 DUP1 REVERT JUMPDEST POP PUSH2 0x25A PUSH2 0x296 CALLDATASIZE PUSH1 0x4 PUSH2 0x155B JUMP JUMPDEST PUSH1 0x0 SWAP1 DUP2 MSTORE PUSH1 0x9 PUSH1 0x20 MSTORE PUSH1 0x40 SWAP1 KECCAK256 PUSH1 0x1 ADD SLOAD SWAP1 JUMP JUMPDEST CALLVALUE DUP1 ISZERO PUSH2 0x2B7 JUMPI PUSH1 0x0 DUP1 REVERT JUMPDEST POP PUSH2 0x243 PUSH2 0x2C6 CALLDATASIZE PUSH1 0x4 PUSH2 0x15F2 JUMP JUMPDEST PUSH2 0x82F JUMP JUMPDEST CALLVALUE DUP1 ISZERO PUSH2 0x2D7 JUMPI PUSH1 0x0 DUP1 REVERT JUMPDEST POP PUSH2 0x243 PUSH2 0x2E6 CALLDATASIZE PUSH1 0x4 PUSH2 0x15F2 JUMP JUMPDEST PUSH2 0x85A JUMP JUMPDEST PUSH2 0x243 PUSH2 0x2F9 CALLDATASIZE PUSH1 0x4 PUSH2 0x15B5 JUMP JUMPDEST PUSH2 0x892 JUMP JUMPDEST CALLVALUE DUP1 ISZERO PUSH2 0x30A JUMPI PUSH1 0x0 DUP1 REVERT JUMPDEST POP PUSH2 0x361 PUSH2 0x319 CALLDATASIZE PUSH1 0x4 PUSH2 0x155B JUMP JUMPDEST PUSH1 0xD PUSH1 0x20 MSTORE PUSH1 0x0 SWAP1 DUP2 MSTORE PUSH1 0x40 SWAP1 KECCAK256 DUP1 SLOAD PUSH1 0x1 DUP3 ADD SLOAD PUSH1 0x2 DUP4 ADD SLOAD PUSH1 0x3 DUP5 ADD SLOAD PUSH1 0x4 DUP6 ADD SLOAD PUSH1 0x5 DUP7 ADD SLOAD PUSH1 0x6 DUP8 ADD SLOAD PUSH1 0x7 SWAP1 SWAP8 ADD SLOAD SWAP6 SWAP7 SWAP5 SWAP6 SWAP4 SWAP5 SWAP3 SWAP4 PUSH1 0xFF SWAP3 DUP4 AND SWAP4 SWAP2 SWAP3 AND DUP9 JUMP JUMPDEST PUSH1 0x40 DUP1 MLOAD SWAP9 DUP10 MSTORE PUSH1 0x20 DUP10 ADD SWAP8 SWAP1 SWAP8 MSTORE SWAP6 DUP8 ADD SWAP5 SWAP1 SWAP5 MSTORE PUSH1 0x60 DUP7 ADD SWAP3 SWAP1 SWAP3 MSTORE PUSH1 0xFF AND PUSH1 0x80 DUP6 ADD MSTORE PUSH1 0xA0 DUP5 ADD MSTORE PUSH1 0xC0 DUP4 ADD MSTORE ISZERO ISZERO PUSH1 0xE0 DUP3 ADD MSTORE PUSH2 0x100 ADD PUSH2 0x1CD JUMP JUMPDEST CALLVALUE DUP1 ISZERO PUSH2 0x3AD JUMPI PUSH1 0x0 DUP1 REVERT JUMPDEST POP PUSH2 0x243 PUSH2 0x3BC CALLDATASIZE PUSH1 0x4 PUSH2 0x16AE JUMP JUMPDEST PUSH2 0x8AD JUMP JUMPDEST CALLVALUE DUP1 ISZERO PUSH2 0x3CD JUMPI PUSH1 0x0 DUP1 REVERT JUMPDEST POP PUSH2 0x218 PUSH2 0x3DC CALLDATASIZE PUSH1 0x4 PUSH2 0x155B JUMP JUMPDEST PUSH2 0x91F JUMP JUMPDEST CALLVALUE DUP1 ISZERO PUSH2 0x3ED JUMPI PUSH1 0x0 DUP1 REVERT JUMPDEST POP PUSH2 0x25A PUSH2 0x3FC CALLDATASIZE PUSH1 0x4 PUSH2 0x16F7 JUMP JUMPDEST PUSH2 0x92A JUMP JUMPDEST CALLVALUE DUP1 ISZERO PUSH2 0x40D JUMPI PUSH1 0x0 DUP1 REVERT JUMPDEST POP PUSH1 0xB SLOAD PUSH2 0x218 SWAP1 PUSH1 0x1 PUSH1 0x1 PUSH1 0xA0 SHL SUB AND DUP2 JUMP JUMPDEST CALLVALUE DUP1 ISZERO PUSH2 0x42D JUMPI PUSH1 0x0 DUP1 REVERT JUMPDEST POP PUSH2 0x25A PUSH2 0x43C CALLDATASIZE PUSH1 0x4 PUSH2 0x1722 JUMP JUMPDEST PUSH2 0x970 JUMP JUMPDEST CALLVALUE DUP1 ISZERO PUSH2 0x44D JUMPI PUSH1 0x0 DUP1 REVERT JUMPDEST POP PUSH2 0x25A PUSH32 0x7804D923F43A17D325D77E781528E0793B2EDD9890AB45FC64EFD7B4B427744C DUP2 JUMP JUMPDEST CALLVALUE DUP1 ISZERO PUSH2 0x481 JUMPI PUSH1 0x0 DUP1 REVERT JUMPDEST POP PUSH2 0x1C1 PUSH2 0x490 CALLDATASIZE PUSH1 0x4 PUSH2 0x15F2 JUMP JUMPDEST PUSH2 0xB77 JUMP JUMPDEST CALLVALUE DUP1 ISZERO PUSH2 0x4A1 JUMPI PUSH1 0x0 DUP1 REVERT JUMPDEST POP PUSH2 0x1EB PUSH2 0xBA2 JUMP JUMPDEST CALLVALUE DUP1 ISZERO PUSH2 0x4B6 JUMPI PUSH1 0x0 DUP1 REVERT JUMPDEST POP PUSH2 0x25A PUSH1 0x0 DUP2 JUMP JUMPDEST CALLVALUE DUP1 ISZERO PUSH2 0x4CB JUMPI PUSH1 0x0 DUP1 REVERT JUMPDEST POP PUSH2 0x243 PUSH2 0x4DA CALLDATASIZE PUSH1 0x4 PUSH2 0x178F JUMP JUMPDEST PUSH2 0xBB1 JUMP JUMPDEST PUSH2 0x243 PUSH2 0x4ED CALLDATASIZE PUSH1 0x4 PUSH2 0x17B9 JUMP JUMPDEST PUSH2 0xC1D JUMP JUMPDEST CALLVALUE DUP1 ISZERO PUSH2 0x4FE JUMPI PUSH1 0x0 DUP1 REVERT JUMPDEST POP PUSH1 0xC SLOAD PUSH2 0x218 SWAP1 PUSH1 0x1 PUSH1 0x1 PUSH1 0xA0 SHL SUB AND DUP2 JUMP JUMPDEST CALLVALUE DUP1 ISZERO PUSH2 0x51E JUMPI PUSH1 0x0 DUP1 REVERT JUMPDEST POP PUSH2 0x1EB PUSH2 0x52D CALLDATASIZE PUSH1 0x4 PUSH2 0x155B JUMP JUMPDEST PUSH2 0xC58 JUMP JUMPDEST CALLVALUE DUP1 ISZERO PUSH2 0x53E JUMPI PUSH1 0x0 DUP1 REVERT JUMPDEST POP PUSH2 0x25A PUSH32 0x9F2DF0FED2C77648DE5860A4CC508CD0818C85B8B8A1AB4CEEEF8D981C8956A6 DUP2 JUMP JUMPDEST CALLVALUE DUP1 ISZERO PUSH2 0x572 JUMPI PUSH1 0x0 DUP1 REVERT JUMPDEST POP PUSH2 0x243 PUSH2 0x581 CALLDATASIZE PUSH1 0x4 PUSH2 0x15F2 JUMP JUMPDEST PUSH2 0xD28 JUMP JUMPDEST CALLVALUE DUP1 ISZERO PUSH2 0x592 JUMPI PUSH1 0x0 DUP1 REVERT JUMPDEST POP PUSH2 0x1C1 PUSH2 0x5A1 CALLDATASIZE PUSH1 0x4 PUSH2 0x1835 JUMP JUMPDEST PUSH1 0x1 PUSH1 0x1 PUSH1 0xA0 SHL SUB SWAP2 DUP3 AND PUSH1 0x0 SWAP1 DUP2 MSTORE PUSH1 0x7 PUSH1 0x20 SWAP1 DUP2 MSTORE PUSH1 0x40 DUP1 DUP4 KECCAK256 SWAP4 SWAP1 SWAP5 AND DUP3 MSTORE SWAP2 SWAP1 SWAP2 MSTORE KECCAK256 SLOAD PUSH1 0xFF AND SWAP1 JUMP JUMPDEST PUSH1 0x0 PUSH2 0x5DA DUP3 PUSH2 0xD4D JUMP JUMPDEST SWAP3 SWAP2 POP POP JUMP JUMPDEST PUSH1 0x60 PUSH1 0x2 DUP1 SLOAD PUSH2 0x5EF SWAP1 PUSH2 0x185F JUMP JUMPDEST DUP1 PUSH1 0x1F ADD PUSH1 0x20 DUP1 SWAP2 DIV MUL PUSH1 0x20 ADD PUSH1 0x40 MLOAD SWAP1 DUP2 ADD PUSH1 0x40 MSTORE DUP1 SWAP3 SWAP2 SWAP1 DUP2 DUP2 MSTORE PUSH1 0x20 ADD DUP3 DUP1 SLOAD PUSH2 0x61B SWAP1 PUSH2 0x185F JUMP JUMPDEST DUP1 ISZERO PUSH2 0x668 JUMPI DUP1 PUSH1 0x1F LT PUSH2 0x63D JUMPI PUSH2 0x100 DUP1 DUP4 SLOAD DIV MUL DUP4 MSTORE SWAP2 PUSH1 0x20 ADD SWAP2 PUSH2 0x668 JUMP JUMPDEST DUP3 ADD SWAP2 SWAP1 PUSH1 0x0 MSTORE PUSH1 0x20 PUSH1 0x0 KECCAK256 SWAP1 JUMPDEST DUP2 SLOAD DUP2 MSTORE SWAP1 PUSH1 0x1 ADD SWAP1 PUSH1 0x20 ADD DUP1 DUP4 GT PUSH2 0x64B JUMPI DUP3 SWAP1 SUB PUSH1 0x1F AND DUP3 ADD SWAP2 JUMPDEST POP POP POP POP POP SWAP1 POP SWAP1 JUMP JUMPDEST PUSH1 0x0 PUSH2 0x67D DUP3 PUSH2 0xD82 JUMP JUMPDEST PUSH2 0x691 JUMPI PUSH2 0x691 PUSH4 0x33D1C039 PUSH1 0xE2 SHL PUSH2 0xDC7 JUMP JUMPDEST POP PUSH1 0x0 SWAP1 DUP2 MSTORE PUSH1 0x6 PUSH1 0x20 MSTORE PUSH1 0x40 SWAP1 KECCAK256 SLOAD PUSH1 0x1 PUSH1 0x1 PUSH1 0xA0 SHL SUB AND SWAP1 JUMP JUMPDEST PUSH2 0x6B9 DUP3 DUP3 PUSH1 0x1 PUSH2 0xDD1 JUMP JUMPDEST POP POP JUMP JUMPDEST PUSH1 0x0 PUSH2 0x6C8 DUP3 PUSH2 0xE74 JUMP JUMPDEST PUSH1 0x1 PUSH1 0x1 PUSH1 0xA0 SHL SUB SWAP5 DUP6 AND SWAP5 SWAP1 SWAP2 POP DUP2 AND DUP5 EQ PUSH2 0x6EE JUMPI PUSH2 0x6EE PUSH3 0xA11481 PUSH1 0xE8 SHL PUSH2 0xDC7 JUMP JUMPDEST PUSH1 0x0 DUP3 DUP2 MSTORE PUSH1 0x6 PUSH1 0x20 MSTORE PUSH1 0x40 SWAP1 KECCAK256 DUP1 SLOAD CALLER DUP1 DUP3 EQ PUSH1 0x1 PUSH1 0x1 PUSH1 0xA0 SHL SUB DUP9 AND SWAP1 SWAP2 EQ OR PUSH2 0x732 JUMPI PUSH2 0x71E DUP7 CALLER PUSH2 0x5A1 JUMP JUMPDEST PUSH2 0x732 JUMPI PUSH2 0x732 PUSH4 0x2CE44B5F PUSH1 0xE1 SHL PUSH2 0xDC7 JUMP JUMPDEST PUSH2 0x73F DUP7 DUP7 DUP7 PUSH1 0x1 PUSH2 0xF0A JUMP JUMPDEST DUP1 ISZERO PUSH2 0x74A JUMPI PUSH1 0x0 DUP3 SSTORE JUMPDEST PUSH1 0x1 PUSH1 0x1 PUSH1 0xA0 SHL SUB DUP7 DUP2 AND PUSH1 0x0 SWAP1 DUP2 MSTORE PUSH1 0x5 PUSH1 0x20 MSTORE PUSH1 0x40 DUP1 DUP3 KECCAK256 DUP1 SLOAD PUSH1 0x0 NOT ADD SWAP1 SSTORE SWAP2 DUP8 AND DUP1 DUP3 MSTORE SWAP2 SWAP1 KECCAK256 DUP1 SLOAD PUSH1 0x1 ADD SWAP1 SSTORE TIMESTAMP PUSH1 0xA0 SHL OR PUSH1 0x1 PUSH1 0xE1 SHL OR PUSH1 0x0 DUP6 DUP2 MSTORE PUSH1 0x4 PUSH1 0x20 MSTORE PUSH1 0x40 DUP2 KECCAK256 SWAP2 SWAP1 SWAP2 SSTORE PUSH1 0x1 PUSH1 0xE1 SHL DUP5 AND SWAP1 SUB PUSH2 0x7DC JUMPI PUSH1 0x1 DUP5 ADD PUSH1 0x0 DUP2 DUP2 MSTORE PUSH1 0x4 PUSH1 0x20 MSTORE PUSH1 0x40 DUP2 KECCAK256 SLOAD SWAP1 SUB PUSH2 0x7DA JUMPI PUSH1 0x0 SLOAD DUP2 EQ PUSH2 0x7DA JUMPI PUSH1 0x0 DUP2 DUP2 MSTORE PUSH1 0x4 PUSH1 0x20 MSTORE PUSH1 0x40 SWAP1 KECCAK256 DUP5 SWAP1 SSTORE JUMPDEST POP JUMPDEST PUSH1 0x1 PUSH1 0x1 PUSH1 0xA0 SHL SUB DUP6 AND DUP5 DUP2 DUP9 PUSH32 0xDDF252AD1BE2C89B69C2B068FC378DAA952BA7F163C4A11628F55A4DF523B3EF PUSH1 0x0 DUP1 LOG4 DUP1 PUSH1 0x0 SUB PUSH2 0x826 JUMPI PUSH2 0x826 PUSH4 0x3A954ECD PUSH1 0xE2 SHL PUSH2 0xDC7 JUMP JUMPDEST POP POP POP POP POP POP POP JUMP JUMPDEST PUSH1 0x0 DUP3 DUP2 MSTORE PUSH1 0x9 PUSH1 0x20 MSTORE PUSH1 0x40 SWAP1 KECCAK256 PUSH1 0x1 ADD SLOAD PUSH2 0x84A DUP2 PUSH2 0xFD7 JUMP JUMPDEST PUSH2 0x854 DUP4 DUP4 PUSH2 0xFE4 JUMP JUMPDEST POP POP POP POP JUMP JUMPDEST PUSH1 0x1 PUSH1 0x1 PUSH1 0xA0 SHL SUB DUP2 AND CALLER EQ PUSH2 0x883 JUMPI PUSH1 0x40 MLOAD PUSH4 0x334BD919 PUSH1 0xE1 SHL DUP2 MSTORE PUSH1 0x4 ADD PUSH1 0x40 MLOAD DUP1 SWAP2 SUB SWAP1 REVERT JUMPDEST PUSH2 0x88D DUP3 DUP3 PUSH2 0x1078 JUMP JUMPDEST POP POP POP JUMP JUMPDEST PUSH2 0x88D DUP4 DUP4 DUP4 PUSH1 0x40 MLOAD DUP1 PUSH1 0x20 ADD PUSH1 0x40 MSTORE DUP1 PUSH1 0x0 DUP2 MSTORE POP PUSH2 0xC1D JUMP JUMPDEST PUSH32 0x7804D923F43A17D325D77E781528E0793B2EDD9890AB45FC64EFD7B4B427744C PUSH2 0x8D7 DUP2 PUSH2 0xFD7 JUMP JUMPDEST PUSH1 0xA PUSH2 0x8E3 DUP4 DUP3 PUSH2 0x18E0 JUMP JUMPDEST POP PUSH32 0xF9C7803E94E0D3C02900D8A90893A6D5E90DD04D32A4CFE825520F82BF9F32F6 DUP3 PUSH1 0x40 MLOAD PUSH2 0x913 SWAP2 SWAP1 PUSH2 0x1548 JUMP JUMPDEST PUSH1 0x40 MLOAD DUP1 SWAP2 SUB SWAP1 LOG1 POP POP JUMP JUMPDEST PUSH1 0x0 PUSH2 0x5DA DUP3 PUSH2 0xE74 JUMP JUMPDEST PUSH1 0x0 PUSH1 0x1 PUSH1 0x1 PUSH1 0xA0 SHL SUB DUP3 AND PUSH2 0x94A JUMPI PUSH2 0x94A PUSH4 0x23D3AD81 PUSH1 0xE2 SHL PUSH2 0xDC7 JUMP JUMPDEST POP PUSH1 0x1 PUSH1 0x1 PUSH1 0xA0 SHL SUB AND PUSH1 0x0 SWAP1 DUP2 MSTORE PUSH1 0x5 PUSH1 0x20 MSTORE PUSH1 0x40 SWAP1 KECCAK256 SLOAD PUSH8 0xFFFFFFFFFFFFFFFF AND SWAP1 JUMP JUMPDEST PUSH1 0x0 PUSH32 0x9F2DF0FED2C77648DE5860A4CC508CD0818C85B8B8A1AB4CEEEF8D981C8956A6 PUSH2 0x99C DUP2 PUSH2 0xFD7 JUMP JUMPDEST PUSH1 0xC SLOAD PUSH1 0x40 MLOAD PUSH4 0x51355CFB PUSH1 0xE0 SHL DUP2 MSTORE PUSH1 0x4 DUP2 ADD DUP10 SWAP1 MSTORE PUSH1 0x24 DUP2 ADD DUP11 SWAP1 MSTORE PUSH1 0x0 SWAP2 PUSH1 0x1 PUSH1 0x1 PUSH1 0xA0 SHL SUB AND SWAP1 PUSH4 0x51355CFB SWAP1 PUSH1 0x44 ADD PUSH1 0x20 PUSH1 0x40 MLOAD DUP1 DUP4 SUB DUP2 DUP7 GAS STATICCALL ISZERO DUP1 ISZERO PUSH2 0x9ED JUMPI RETURNDATASIZE PUSH1 0x0 DUP1 RETURNDATACOPY RETURNDATASIZE PUSH1 0x0 REVERT JUMPDEST POP POP POP POP PUSH1 0x40 MLOAD RETURNDATASIZE PUSH1 0x1F NOT PUSH1 0x1F DUP3 ADD AND DUP3 ADD DUP1 PUSH1 0x40 MSTORE POP DUP2 ADD SWAP1 PUSH2 0xA11 SWAP2 SWAP1 PUSH2 0x199F JUMP JUMPDEST SWAP1 POP PUSH1 0x0 PUSH2 0xA1E PUSH1 0x0 SLOAD SWAP1 JUMP JUMPDEST SWAP1 POP PUSH2 0xA2B DUP13 PUSH1 0x1 PUSH2 0x10E5 JUMP JUMPDEST PUSH1 0x40 DUP1 MLOAD PUSH2 0x100 DUP2 ADD DUP3 MSTORE DUP13 DUP2 MSTORE PUSH1 0x20 DUP1 DUP3 ADD DUP14 DUP2 MSTORE DUP3 DUP5 ADD DUP14 DUP2 MSTORE PUSH1 0x60 DUP5 ADD DUP14 DUP2 MSTORE PUSH1 0xFF DUP1 DUP10 AND PUSH1 0x80 DUP8 ADD SWAP1 DUP2 MSTORE PUSH1 0xA0 DUP8 ADD DUP16 DUP2 MSTORE PUSH1 0xC0 DUP9 ADD DUP16 DUP2 MSTORE DUP15 ISZERO ISZERO PUSH1 0xE0 DUP11 ADD SWAP1 DUP2 MSTORE PUSH1 0x0 DUP13 DUP2 MSTORE PUSH1 0xD SWAP1 SWAP10 MSTORE SWAP8 DUP11 SWAP1 KECCAK256 SWAP9 MLOAD DUP10 SSTORE SWAP6 MLOAD PUSH1 0x1 DUP10 ADD SSTORE SWAP4 MLOAD PUSH1 0x2 DUP9 ADD SSTORE SWAP2 MLOAD PUSH1 0x3 DUP8 ADD SSTORE SWAP1 MLOAD PUSH1 0x4 DUP7 ADD DUP1 SLOAD SWAP2 SWAP1 SWAP3 AND PUSH1 0xFF NOT SWAP2 DUP3 AND OR SWAP1 SWAP2 SSTORE SWAP1 MLOAD PUSH1 0x5 DUP6 ADD SSTORE SWAP1 MLOAD PUSH1 0x6 DUP5 ADD SSTORE SWAP1 MLOAD PUSH1 0x7 DUP4 ADD DUP1 SLOAD SWAP2 ISZERO ISZERO SWAP2 SWAP1 SWAP3 AND OR SWAP1 SSTORE SWAP1 MLOAD DUP3 SWAP2 PUSH1 0x1 PUSH1 0x1 PUSH1 0xA0 SHL SUB DUP16 AND SWAP2 PUSH32 0x57265E891BEDB656A4FAA6C1763DBD5EE2B397B7E99594DABBD8C54484AD8270 SWAP2 PUSH2 0xB60 SWAP2 DUP2 SLOAD DUP2 MSTORE PUSH1 0x1 DUP3 ADD SLOAD PUSH1 0x20 DUP3 ADD MSTORE PUSH1 0x2 DUP3 ADD SLOAD PUSH1 0x40 DUP3 ADD MSTORE PUSH1 0x3 DUP3 ADD SLOAD PUSH1 0x60 DUP3 ADD MSTORE PUSH1 0x4 DUP3 ADD SLOAD PUSH1 0xFF SWAP1 DUP2 AND PUSH1 0x80 DUP4 ADD MSTORE PUSH1 0x5 DUP4 ADD SLOAD PUSH1 0xA0 DUP4 ADD MSTORE PUSH1 0x6 DUP4 ADD SLOAD PUSH1 0xC0 DUP4 ADD MSTORE PUSH1 0x7 SWAP1 SWAP3 ADD SLOAD SWAP1 SWAP2 AND ISZERO ISZERO PUSH1 0xE0 DUP3 ADD MSTORE PUSH2 0x100 ADD SWAP1 JUMP JUMPDEST PUSH1 0x40 MLOAD DUP1 SWAP2 SUB SWAP1 LOG3 SWAP12 SWAP11 POP POP POP POP POP POP POP POP POP POP POP JUMP JUMPDEST PUSH1 0x0 SWAP2 DUP3 MSTORE PUSH1 0x9 PUSH1 0x20 SWAP1 DUP2 MSTORE PUSH1 0x40 DUP1 DUP5 KECCAK256 PUSH1 0x1 PUSH1 0x1 PUSH1 0xA0 SHL SUB SWAP4 SWAP1 SWAP4 AND DUP5 MSTORE SWAP2 SWAP1 MSTORE SWAP1 KECCAK256 SLOAD PUSH1 0xFF AND SWAP1 JUMP JUMPDEST PUSH1 0x60 PUSH1 0x3 DUP1 SLOAD PUSH2 0x5EF SWAP1 PUSH2 0x185F JUMP JUMPDEST CALLER PUSH1 0x0 DUP2 DUP2 MSTORE PUSH1 0x7 PUSH1 0x20 SWAP1 DUP2 MSTORE PUSH1 0x40 DUP1 DUP4 KECCAK256 PUSH1 0x1 PUSH1 0x1 PUSH1 0xA0 SHL SUB DUP8 AND DUP1 DUP6 MSTORE SWAP1 DUP4 MSTORE SWAP3 DUP2 SWAP1 KECCAK256 DUP1 SLOAD PUSH1 0xFF NOT AND DUP7 ISZERO ISZERO SWAP1 DUP2 OR SWAP1 SWAP2 SSTORE SWAP1 MLOAD SWAP1 DUP2 MSTORE SWAP2 SWAP3 SWAP2 PUSH32 0x17307EAB39AB6107E8899845AD3D59BD9653F200F220920489CA2B5937696C31 SWAP2 ADD PUSH1 0x40 MLOAD DUP1 SWAP2 SUB SWAP1 LOG3 POP POP JUMP JUMPDEST PUSH2 0xC28 DUP5 DUP5 DUP5 PUSH2 0x6BD JUMP JUMPDEST PUSH1 0x1 PUSH1 0x1 PUSH1 0xA0 SHL SUB DUP4 AND EXTCODESIZE ISZERO PUSH2 0x854 JUMPI PUSH2 0xC44 DUP5 DUP5 DUP5 DUP5 PUSH2 0x10FF JUMP JUMPDEST PUSH2 0x854 JUMPI PUSH2 0x854 PUSH4 0x68D2BF6B PUSH1 0xE1 SHL PUSH2 0xDC7 JUMP JUMPDEST PUSH1 0x60 PUSH2 0xC63 DUP3 PUSH2 0xD82 JUMP JUMPDEST PUSH2 0xCCC JUMPI PUSH1 0x40 MLOAD PUSH3 0x461BCD PUSH1 0xE5 SHL DUP2 MSTORE PUSH1 0x20 PUSH1 0x4 DUP3 ADD MSTORE PUSH1 0x2F PUSH1 0x24 DUP3 ADD MSTORE PUSH32 0x4552433732314D657461646174613A2055524920717565727920666F72206E6F PUSH1 0x44 DUP3 ADD MSTORE PUSH15 0x3732BC34B9BA32B73A103A37B5B2B7 PUSH1 0x89 SHL PUSH1 0x64 DUP3 ADD MSTORE PUSH1 0x84 ADD JUMPDEST PUSH1 0x40 MLOAD DUP1 SWAP2 SUB SWAP1 REVERT JUMPDEST PUSH1 0x0 PUSH2 0xCD6 PUSH2 0x11E2 JUMP JUMPDEST SWAP1 POP PUSH1 0x0 DUP2 MLOAD GT PUSH2 0xCF6 JUMPI PUSH1 0x40 MLOAD DUP1 PUSH1 0x20 ADD PUSH1 0x40 MSTORE DUP1 PUSH1 0x0 DUP2 MSTORE POP PUSH2 0xD21 JUMP JUMPDEST DUP1 PUSH2 0xD00 DUP5 PUSH2 0x11F1 JUMP JUMPDEST PUSH1 0x40 MLOAD PUSH1 0x20 ADD PUSH2 0xD11 SWAP3 SWAP2 SWAP1 PUSH2 0x19C2 JUMP JUMPDEST PUSH1 0x40 MLOAD PUSH1 0x20 DUP2 DUP4 SUB SUB DUP2 MSTORE SWAP1 PUSH1 0x40 MSTORE JUMPDEST SWAP4 SWAP3 POP POP POP JUMP JUMPDEST PUSH1 0x0 DUP3 DUP2 MSTORE PUSH1 0x9 PUSH1 0x20 MSTORE PUSH1 0x40 SWAP1 KECCAK256 PUSH1 0x1 ADD SLOAD PUSH2 0xD43 DUP2 PUSH2 0xFD7 JUMP JUMPDEST PUSH2 0x854 DUP4 DUP4 PUSH2 0x1078 JUMP JUMPDEST PUSH1 0x0 PUSH1 0x1 PUSH1 0x1 PUSH1 0xE0 SHL SUB NOT DUP3 AND PUSH4 0x7965DB0B PUSH1 0xE0 SHL EQ DUP1 PUSH2 0x5DA JUMPI POP PUSH4 0x1FFC9A7 PUSH1 0xE0 SHL PUSH1 0x1 PUSH1 0x1 PUSH1 0xE0 SHL SUB NOT DUP4 AND EQ PUSH2 0x5DA JUMP JUMPDEST PUSH1 0x0 DUP1 SLOAD DUP3 LT ISZERO PUSH2 0xDC2 JUMPI PUSH1 0x0 JUMPDEST POP PUSH1 0x0 DUP3 DUP2 MSTORE PUSH1 0x4 PUSH1 0x20 MSTORE PUSH1 0x40 DUP2 KECCAK256 SLOAD SWAP1 DUP2 SWAP1 SUB PUSH2 0xDB8 JUMPI PUSH2 0xDB1 DUP4 PUSH2 0x1A17 JUMP JUMPDEST SWAP3 POP PUSH2 0xD90 JUMP JUMPDEST PUSH1 0x1 PUSH1 0xE0 SHL AND ISZERO SWAP1 POP JUMPDEST SWAP2 SWAP1 POP JUMP JUMPDEST DUP1 PUSH1 0x0 MSTORE PUSH1 0x4 PUSH1 0x0 REVERT JUMPDEST PUSH1 0x0 PUSH2 0xDDC DUP4 PUSH2 0x91F JUMP JUMPDEST SWAP1 POP DUP2 DUP1 ISZERO PUSH2 0xDF4 JUMPI POP CALLER PUSH1 0x1 PUSH1 0x1 PUSH1 0xA0 SHL SUB DUP3 AND EQ ISZERO JUMPDEST ISZERO PUSH2 0xE17 JUMPI PUSH2 0xE03 DUP2 CALLER PUSH2 0x5A1 JUMP JUMPDEST PUSH2 0xE17 JUMPI PUSH2 0xE17 PUSH4 0x67D9DCA1 PUSH1 0xE1 SHL PUSH2 0xDC7 JUMP JUMPDEST PUSH1 0x0 DUP4 DUP2 MSTORE PUSH1 0x6 PUSH1 0x20 MSTORE PUSH1 0x40 DUP1 DUP3 KECCAK256 DUP1 SLOAD PUSH1 0x1 PUSH1 0x1 PUSH1 0xA0 SHL SUB NOT AND PUSH1 0x1 PUSH1 0x1 PUSH1 0xA0 SHL SUB DUP9 DUP2 AND SWAP2 DUP3 OR SWAP1 SWAP3 SSTORE SWAP2 MLOAD DUP7 SWAP4 SWAP2 DUP6 AND SWAP2 PUSH32 0x8C5BE1E5EBEC7D5BD14F71427D1E84F3DD0314C0F7B2291E5B200AC8C7C3B925 SWAP2 LOG4 POP POP POP POP JUMP JUMPDEST PUSH1 0x0 DUP2 DUP2 MSTORE PUSH1 0x4 PUSH1 0x20 MSTORE PUSH1 0x40 SWAP1 KECCAK256 SLOAD DUP1 PUSH1 0x0 SUB PUSH2 0xEE7 JUMPI PUSH1 0x0 SLOAD DUP3 LT PUSH2 0xEA4 JUMPI PUSH2 0xEA4 PUSH4 0x6F96CDA1 PUSH1 0xE1 SHL PUSH2 0xDC7 JUMP JUMPDEST JUMPDEST POP PUSH1 0x0 NOT ADD PUSH1 0x0 DUP2 DUP2 MSTORE PUSH1 0x4 PUSH1 0x20 MSTORE PUSH1 0x40 SWAP1 KECCAK256 SLOAD DUP1 ISZERO PUSH2 0xEA5 JUMPI PUSH1 0x1 PUSH1 0xE0 SHL DUP2 AND PUSH1 0x0 SUB PUSH2 0xED2 JUMPI SWAP2 SWAP1 POP JUMP JUMPDEST PUSH2 0xEE2 PUSH4 0x6F96CDA1 PUSH1 0xE1 SHL PUSH2 0xDC7 JUMP JUMPDEST PUSH2 0xEA5 JUMP JUMPDEST PUSH1 0x1 PUSH1 0xE0 SHL DUP2 AND PUSH1 0x0 SUB PUSH2 0xEFA JUMPI SWAP2 SWAP1 POP JUMP JUMPDEST PUSH2 0xDC2 PUSH4 0x6F96CDA1 PUSH1 0xE1 SHL PUSH2 0xDC7 JUMP JUMPDEST PUSH1 0x1 PUSH1 0x1 PUSH1 0xA0 SHL SUB DUP5 AND ISZERO DUP1 ISZERO SWAP1 PUSH2 0xF2A JUMPI POP PUSH1 0x1 PUSH1 0x1 PUSH1 0xA0 SHL SUB DUP4 AND ISZERO ISZERO JUMPDEST ISZERO PUSH2 0xFD2 JUMPI PUSH1 0x0 JUMPDEST DUP2 DUP2 LT ISZERO PUSH2 0xFD0 JUMPI PUSH1 0x0 PUSH1 0xD DUP2 PUSH2 0xF49 DUP5 DUP8 PUSH2 0x1A2E JUMP JUMPDEST DUP2 MSTORE PUSH1 0x20 DUP2 ADD SWAP2 SWAP1 SWAP2 MSTORE PUSH1 0x40 ADD PUSH1 0x0 KECCAK256 PUSH1 0x4 ADD SLOAD PUSH1 0xFF AND SWAP1 POP PUSH1 0x2 DUP2 LT ISZERO PUSH2 0xFC7 JUMPI PUSH1 0x40 MLOAD PUSH3 0x461BCD PUSH1 0xE5 SHL DUP2 MSTORE PUSH1 0x20 PUSH1 0x4 DUP3 ADD MSTORE PUSH1 0x2B PUSH1 0x24 DUP3 ADD MSTORE PUSH32 0x536F756C2D626F756E643A206F6E6C7920476F6C642F506C6174696E756D2074 PUSH1 0x44 DUP3 ADD MSTORE PUSH11 0x72616E7366657261626C65 PUSH1 0xA8 SHL PUSH1 0x64 DUP3 ADD MSTORE PUSH1 0x84 ADD PUSH2 0xCC3 JUMP JUMPDEST POP PUSH1 0x1 ADD PUSH2 0xF32 JUMP JUMPDEST POP JUMPDEST PUSH2 0x854 JUMP JUMPDEST PUSH2 0xFE1 DUP2 CALLER PUSH2 0x1284 JUMP JUMPDEST POP JUMP JUMPDEST PUSH1 0x0 PUSH2 0xFF0 DUP4 DUP4 PUSH2 0xB77 JUMP JUMPDEST PUSH2 0x1070 JUMPI PUSH1 0x0 DUP4 DUP2 MSTORE PUSH1 0x9 PUSH1 0x20 SWAP1 DUP2 MSTORE PUSH1 0x40 DUP1 DUP4 KECCAK256 PUSH1 0x1 PUSH1 0x1 PUSH1 0xA0 SHL SUB DUP7 AND DUP5 MSTORE SWAP1 SWAP2 MSTORE SWAP1 KECCAK256 DUP1 SLOAD PUSH1 0xFF NOT AND PUSH1 0x1 OR SWAP1 SSTORE PUSH2 0x1028 CALLER SWAP1 JUMP JUMPDEST PUSH1 0x1 PUSH1 0x1 PUSH1 0xA0 SHL SUB AND DUP3 PUSH1 0x1 PUSH1 0x1 PUSH1 0xA0 SHL SUB AND DUP5 PUSH32 0x2F8788117E7EFF1D82E926EC794901D17C78024A50270940304540A733656F0D PUSH1 0x40 MLOAD PUSH1 0x40 MLOAD DUP1 SWAP2 SUB SWAP1 LOG4 POP PUSH1 0x1 PUSH2 0x5DA JUMP JUMPDEST POP PUSH1 0x0 PUSH2 0x5DA JUMP JUMPDEST PUSH1 0x0 PUSH2 0x1084 DUP4 DUP4 PUSH2 0xB77 JUMP JUMPDEST ISZERO PUSH2 0x1070 JUMPI PUSH1 0x0 DUP4 DUP2 MSTORE PUSH1 0x9 PUSH1 0x20 SWAP1 DUP2 MSTORE PUSH1 0x40 DUP1 DUP4 KECCAK256 PUSH1 0x1 PUSH1 0x1 PUSH1 0xA0 SHL SUB DUP7 AND DUP1 DUP6 MSTORE SWAP3 MSTORE DUP1 DUP4 KECCAK256 DUP1 SLOAD PUSH1 0xFF NOT AND SWAP1 SSTORE MLOAD CALLER SWAP3 DUP7 SWAP2 PUSH32 0xF6391F5C32D9C69D2A47EA670B442974B53935D1EDC7FD64EB21E047A839171B SWAP2 SWAP1 LOG4 POP PUSH1 0x1 PUSH2 0x5DA JUMP JUMPDEST PUSH2 0x6B9 DUP3 DUP3 PUSH1 0x40 MLOAD DUP1 PUSH1 0x20 ADD PUSH1 0x40 MSTORE DUP1 PUSH1 0x0 DUP2 MSTORE POP PUSH2 0x12BD JUMP JUMPDEST PUSH1 0x40 MLOAD PUSH4 0xA85BD01 PUSH1 0xE1 SHL DUP2 MSTORE PUSH1 0x0 SWAP1 PUSH1 0x1 PUSH1 0x1 PUSH1 0xA0 SHL SUB DUP6 AND SWAP1 PUSH4 0x150B7A02 SWAP1 PUSH2 0x1134 SWAP1 CALLER SWAP1 DUP10 SWAP1 DUP9 SWAP1 DUP9 SWAP1 PUSH1 0x4 ADD PUSH2 0x1A41 JUMP JUMPDEST PUSH1 0x20 PUSH1 0x40 MLOAD DUP1 DUP4 SUB DUP2 PUSH1 0x0 DUP8 GAS CALL SWAP3 POP POP POP DUP1 ISZERO PUSH2 0x116F JUMPI POP PUSH1 0x40 DUP1 MLOAD PUSH1 0x1F RETURNDATASIZE SWAP1 DUP2 ADD PUSH1 0x1F NOT AND DUP3 ADD SWAP1 SWAP3 MSTORE PUSH2 0x116C SWAP2 DUP2 ADD SWAP1 PUSH2 0x1A7E JUMP JUMPDEST PUSH1 0x1 JUMPDEST PUSH2 0x11C4 JUMPI RETURNDATASIZE DUP1 DUP1 ISZERO PUSH2 0x119D JUMPI PUSH1 0x40 MLOAD SWAP2 POP PUSH1 0x1F NOT PUSH1 0x3F RETURNDATASIZE ADD AND DUP3 ADD PUSH1 0x40 MSTORE RETURNDATASIZE DUP3 MSTORE RETURNDATASIZE PUSH1 0x0 PUSH1 0x20 DUP5 ADD RETURNDATACOPY PUSH2 0x11A2 JUMP JUMPDEST PUSH1 0x60 SWAP2 POP JUMPDEST POP DUP1 MLOAD PUSH1 0x0 SUB PUSH2 0x11BC JUMPI PUSH2 0x11BC PUSH4 0x68D2BF6B PUSH1 0xE1 SHL PUSH2 0xDC7 JUMP JUMPDEST DUP1 MLOAD DUP2 PUSH1 0x20 ADD REVERT JUMPDEST PUSH1 0x1 PUSH1 0x1 PUSH1 0xE0 SHL SUB NOT AND PUSH4 0xA85BD01 PUSH1 0xE1 SHL EQ SWAP1 POP JUMPDEST SWAP5 SWAP4 POP POP POP POP JUMP JUMPDEST PUSH1 0x60 PUSH1 0xA DUP1 SLOAD PUSH2 0x5EF SWAP1 PUSH2 0x185F JUMP JUMPDEST PUSH1 0x60 PUSH1 0x0 PUSH2 0x11FE DUP4 PUSH2 0x1321 JUMP JUMPDEST PUSH1 0x1 ADD SWAP1 POP PUSH1 0x0 DUP2 PUSH8 0xFFFFFFFFFFFFFFFF DUP2 GT ISZERO PUSH2 0x121E JUMPI PUSH2 0x121E PUSH2 0x161E JUMP JUMPDEST PUSH1 0x40 MLOAD SWAP1 DUP1 DUP3 MSTORE DUP1 PUSH1 0x1F ADD PUSH1 0x1F NOT AND PUSH1 0x20 ADD DUP3 ADD PUSH1 0x40 MSTORE DUP1 ISZERO PUSH2 0x1248 JUMPI PUSH1 0x20 DUP3 ADD DUP2 DUP1 CALLDATASIZE DUP4 CALLDATACOPY ADD SWAP1 POP JUMPDEST POP SWAP1 POP DUP2 DUP2 ADD PUSH1 0x20 ADD JUMPDEST PUSH1 0x0 NOT ADD PUSH16 0x181899199A1A9B1B9C1CB0B131B232B3 PUSH1 0x81 SHL PUSH1 0xA DUP7 MOD BYTE DUP2 MSTORE8 PUSH1 0xA DUP6 DIV SWAP5 POP DUP5 PUSH2 0x1252 JUMPI POP SWAP4 SWAP3 POP POP POP JUMP JUMPDEST PUSH2 0x128E DUP3 DUP3 PUSH2 0xB77 JUMP JUMPDEST PUSH2 0x6B9 JUMPI PUSH1 0x40 MLOAD PUSH4 0xE2517D3F PUSH1 0xE0 SHL DUP2 MSTORE PUSH1 0x1 PUSH1 0x1 PUSH1 0xA0 SHL SUB DUP3 AND PUSH1 0x4 DUP3 ADD MSTORE PUSH1 0x24 DUP2 ADD DUP4 SWAP1 MSTORE PUSH1 0x44 ADD PUSH2 0xCC3 JUMP JUMPDEST PUSH2 0x12C7 DUP4 DUP4 PUSH2 0x13F9 JUMP JUMPDEST PUSH1 0x1 PUSH1 0x1 PUSH1 0xA0 SHL SUB DUP4 AND EXTCODESIZE ISZERO PUSH2 0x88D JUMPI PUSH1 0x0 SLOAD DUP3 DUP2 SUB JUMPDEST PUSH2 0x12F1 PUSH1 0x0 DUP7 DUP4 DUP1 PUSH1 0x1 ADD SWAP5 POP DUP7 PUSH2 0x10FF JUMP JUMPDEST PUSH2 0x1305 JUMPI PUSH2 0x1305 PUSH4 0x68D2BF6B PUSH1 0xE1 SHL PUSH2 0xDC7 JUMP JUMPDEST DUP2 DUP2 LT PUSH2 0x12DE JUMPI DUP2 PUSH1 0x0 SLOAD EQ PUSH2 0x131A JUMPI PUSH1 0x0 DUP1 REVERT JUMPDEST POP POP POP POP POP JUMP JUMPDEST PUSH1 0x0 DUP1 PUSH19 0x184F03E93FF9F4DAA797ED6E38ED64BF6A1F01 PUSH1 0x40 SHL DUP4 LT PUSH2 0x1360 JUMPI PUSH19 0x184F03E93FF9F4DAA797ED6E38ED64BF6A1F01 PUSH1 0x40 SHL DUP4 DIV SWAP3 POP PUSH1 0x40 ADD JUMPDEST PUSH14 0x4EE2D6D415B85ACEF8100000000 DUP4 LT PUSH2 0x138C JUMPI PUSH14 0x4EE2D6D415B85ACEF8100000000 DUP4 DIV SWAP3 POP PUSH1 0x20 ADD JUMPDEST PUSH7 0x2386F26FC10000 DUP4 LT PUSH2 0x13AA JUMPI PUSH7 0x2386F26FC10000 DUP4 DIV SWAP3 POP PUSH1 0x10 ADD JUMPDEST PUSH4 0x5F5E100 DUP4 LT PUSH2 0x13C2 JUMPI PUSH4 0x5F5E100 DUP4 DIV SWAP3 POP PUSH1 0x8 ADD JUMPDEST PUSH2 0x2710 DUP4 LT PUSH2 0x13D6 JUMPI PUSH2 0x2710 DUP4 DIV SWAP3 POP PUSH1 0x4 ADD JUMPDEST PUSH1 0x64 DUP4 LT PUSH2 0x13E8 JUMPI PUSH1 0x64 DUP4 DIV SWAP3 POP PUSH1 0x2 ADD JUMPDEST PUSH1 0xA DUP4 LT PUSH2 0x5DA JUMPI PUSH1 0x1 ADD SWAP3 SWAP2 POP POP JUMP JUMPDEST PUSH1 0x0 DUP1 SLOAD SWAP1 DUP3 SWAP1 SUB PUSH2 0x1415 JUMPI PUSH2 0x1415 PUSH4 0xB562E8DD PUSH1 0xE0 SHL PUSH2 0xDC7 JUMP JUMPDEST PUSH2 0x1422 PUSH1 0x0 DUP5 DUP4 DUP6 PUSH2 0xF0A JUMP JUMPDEST PUSH1 0x0 DUP2 DUP2 MSTORE PUSH1 0x4 PUSH1 0x20 SWAP1 DUP2 MSTORE PUSH1 0x40 DUP1 DUP4 KECCAK256 PUSH1 0x1 PUSH1 0x1 PUSH1 0xA0 SHL SUB DUP8 AND TIMESTAMP PUSH1 0xA0 SHL PUSH1 0x1 DUP9 EQ PUSH1 0xE1 SHL OR DUP2 OR SWAP1 SWAP2 SSTORE DUP1 DUP5 MSTORE PUSH1 0x5 SWAP1 SWAP3 MSTORE DUP3 KECCAK256 DUP1 SLOAD PUSH9 0x10000000000000001 DUP7 MUL ADD SWAP1 SSTORE SWAP1 DUP2 SWAP1 SUB PUSH2 0x1480 JUMPI PUSH2 0x1480 PUSH3 0x2E0763 PUSH1 0xE8 SHL PUSH2 0xDC7 JUMP JUMPDEST DUP2 DUP4 ADD DUP3 JUMPDEST DUP1 DUP4 PUSH1 0x0 PUSH32 0xDDF252AD1BE2C89B69C2B068FC378DAA952BA7F163C4A11628F55A4DF523B3EF PUSH1 0x0 DUP1 LOG4 DUP2 DUP2 PUSH1 0x1 ADD SWAP2 POP DUP2 SUB PUSH2 0x1485 JUMPI POP PUSH1 0x0 SSTORE POP POP POP POP JUMP JUMPDEST PUSH1 0x1 PUSH1 0x1 PUSH1 0xE0 SHL SUB NOT DUP2 AND DUP2 EQ PUSH2 0xFE1 JUMPI PUSH1 0x0 DUP1 REVERT JUMPDEST PUSH1 0x0 PUSH1 0x20 DUP3 DUP5 SUB SLT ISZERO PUSH2 0x14ED JUMPI PUSH1 0x0 DUP1 REVERT JUMPDEST DUP2 CALLDATALOAD PUSH2 0xD21 DUP2 PUSH2 0x14C5 JUMP JUMPDEST PUSH1 0x0 JUMPDEST DUP4 DUP2 LT ISZERO PUSH2 0x1513 JUMPI DUP2 DUP2 ADD MLOAD DUP4 DUP3 ADD MSTORE PUSH1 0x20 ADD PUSH2 0x14FB JUMP JUMPDEST POP POP PUSH1 0x0 SWAP2 ADD MSTORE JUMP JUMPDEST PUSH1 0x0 DUP2 MLOAD DUP1 DUP5 MSTORE PUSH2 0x1534 DUP2 PUSH1 0x20 DUP7 ADD PUSH1 0x20 DUP7 ADD PUSH2 0x14F8 JUMP JUMPDEST PUSH1 0x1F ADD PUSH1 0x1F NOT AND SWAP3 SWAP1 SWAP3 ADD PUSH1 0x20 ADD SWAP3 SWAP2 POP POP JUMP JUMPDEST PUSH1 0x20 DUP2 MSTORE PUSH1 0x0 PUSH2 0xD21 PUSH1 0x20 DUP4 ADD DUP5 PUSH2 0x151C JUMP JUMPDEST PUSH1 0x0 PUSH1 0x20 DUP3 DUP5 SUB SLT ISZERO PUSH2 0x156D JUMPI PUSH1 0x0 DUP1 REVERT JUMPDEST POP CALLDATALOAD SWAP2 SWAP1 POP JUMP JUMPDEST DUP1 CALLDATALOAD PUSH1 0x1 PUSH1 0x1 PUSH1 0xA0 SHL SUB DUP2 AND DUP2 EQ PUSH2 0xDC2 JUMPI PUSH1 0x0 DUP1 REVERT JUMPDEST PUSH1 0x0 DUP1 PUSH1 0x40 DUP4 DUP6 SUB SLT ISZERO PUSH2 0x159E JUMPI PUSH1 0x0 DUP1 REVERT JUMPDEST PUSH2 0x15A7 DUP4 PUSH2 0x1574 JUMP JUMPDEST SWAP5 PUSH1 0x20 SWAP4 SWAP1 SWAP4 ADD CALLDATALOAD SWAP4 POP POP POP JUMP JUMPDEST PUSH1 0x0 DUP1 PUSH1 0x0 PUSH1 0x60 DUP5 DUP7 SUB SLT ISZERO PUSH2 0x15CA JUMPI PUSH1 0x0 DUP1 REVERT JUMPDEST PUSH2 0x15D3 DUP5 PUSH2 0x1574 JUMP JUMPDEST SWAP3 POP PUSH2 0x15E1 PUSH1 0x20 DUP6 ADD PUSH2 0x1574 JUMP JUMPDEST SWAP3 SWAP6 SWAP3 SWAP5 POP POP POP PUSH1 0x40 SWAP2 SWAP1 SWAP2 ADD CALLDATALOAD SWAP1 JUMP JUMPDEST PUSH1 0x0 DUP1 PUSH1 0x40 DUP4 DUP6 SUB SLT ISZERO PUSH2 0x1605 JUMPI PUSH1 0x0 DUP1 REVERT JUMPDEST DUP3 CALLDATALOAD SWAP2 POP PUSH2 0x1615 PUSH1 0x20 DUP5 ADD PUSH2 0x1574 JUMP JUMPDEST SWAP1 POP SWAP3 POP SWAP3 SWAP1 POP JUMP JUMPDEST PUSH4 0x4E487B71 PUSH1 0xE0 SHL PUSH1 0x0 MSTORE PUSH1 0x41 PUSH1 0x4 MSTORE PUSH1 0x24 PUSH1 0x0 REVERT JUMPDEST PUSH1 0x0 DUP1 PUSH8 0xFFFFFFFFFFFFFFFF DUP5 GT ISZERO PUSH2 0x164F JUMPI PUSH2 0x164F PUSH2 0x161E JUMP JUMPDEST POP PUSH1 0x40 MLOAD PUSH1 0x1F NOT PUSH1 0x1F DUP6 ADD DUP2 AND PUSH1 0x3F ADD AND DUP2 ADD DUP2 DUP2 LT PUSH8 0xFFFFFFFFFFFFFFFF DUP3 GT OR ISZERO PUSH2 0x167E JUMPI PUSH2 0x167E PUSH2 0x161E JUMP JUMPDEST PUSH1 0x40 MSTORE DUP4 DUP2 MSTORE SWAP1 POP DUP1 DUP3 DUP5 ADD DUP6 LT ISZERO PUSH2 0x1696 JUMPI PUSH1 0x0 DUP1 REVERT JUMPDEST DUP4 DUP4 PUSH1 0x20 DUP4 ADD CALLDATACOPY PUSH1 0x0 PUSH1 0x20 DUP6 DUP4 ADD ADD MSTORE POP SWAP4 SWAP3 POP POP POP JUMP JUMPDEST PUSH1 0x0 PUSH1 0x20 DUP3 DUP5 SUB SLT ISZERO PUSH2 0x16C0 JUMPI PUSH1 0x0 DUP1 REVERT JUMPDEST DUP2 CALLDATALOAD PUSH8 0xFFFFFFFFFFFFFFFF DUP2 GT ISZERO PUSH2 0x16D7 JUMPI PUSH1 0x0 DUP1 REVERT JUMPDEST DUP3 ADD PUSH1 0x1F DUP2 ADD DUP5 SGT PUSH2 0x16E8 JUMPI PUSH1 0x0 DUP1 REVERT JUMPDEST PUSH2 0x11DA DUP5 DUP3 CALLDATALOAD PUSH1 0x20 DUP5 ADD PUSH2 0x1634 JUMP JUMPDEST PUSH1 0x0 PUSH1 0x20 DUP3 DUP5 SUB SLT ISZERO PUSH2 0x1709 JUMPI PUSH1 0x0 DUP1 REVERT JUMPDEST PUSH2 0xD21 DUP3 PUSH2 0x1574 JUMP JUMPDEST DUP1 CALLDATALOAD DUP1 ISZERO ISZERO DUP2 EQ PUSH2 0xDC2 JUMPI PUSH1 0x0 DUP1 REVERT JUMPDEST PUSH1 0x0 DUP1 PUSH1 0x0 DUP1 PUSH1 0x0 DUP1 PUSH1 0x0 DUP1 PUSH2 0x100 DUP10 DUP12 SUB SLT ISZERO PUSH2 0x173F JUMPI PUSH1 0x0 DUP1 REVERT JUMPDEST PUSH2 0x1748 DUP10 PUSH2 0x1574 JUMP JUMPDEST SWAP8 POP PUSH1 0x20 DUP10 ADD CALLDATALOAD SWAP7 POP PUSH1 0x40 DUP10 ADD CALLDATALOAD SWAP6 POP PUSH1 0x60 DUP10 ADD CALLDATALOAD SWAP5 POP PUSH1 0x80 DUP10 ADD CALLDATALOAD SWAP4 POP PUSH1 0xA0 DUP10 ADD CALLDATALOAD SWAP3 POP PUSH1 0xC0 DUP10 ADD CALLDATALOAD SWAP2 POP PUSH2 0x1780 PUSH1 0xE0 DUP11 ADD PUSH2 0x1712 JUMP JUMPDEST SWAP1 POP SWAP3 SWAP6 SWAP9 POP SWAP3 SWAP6 SWAP9 SWAP1 SWAP4 SWAP7 POP JUMP JUMPDEST PUSH1 0x0 DUP1 PUSH1 0x40 DUP4 DUP6 SUB SLT ISZERO PUSH2 0x17A2 JUMPI PUSH1 0x0 DUP1 REVERT JUMPDEST PUSH2 0x17AB DUP4 PUSH2 0x1574 JUMP JUMPDEST SWAP2 POP PUSH2 0x1615 PUSH1 0x20 DUP5 ADD PUSH2 0x1712 JUMP JUMPDEST PUSH1 0x0 DUP1 PUSH1 0x0 DUP1 PUSH1 0x80 DUP6 DUP8 SUB SLT ISZERO PUSH2 0x17CF JUMPI PUSH1 0x0 DUP1 REVERT JUMPDEST PUSH2 0x17D8 DUP6 PUSH2 0x1574 JUMP JUMPDEST SWAP4 POP PUSH2 0x17E6 PUSH1 0x20 DUP7 ADD PUSH2 0x1574 JUMP JUMPDEST SWAP3 POP PUSH1 0x40 DUP6 ADD CALLDATALOAD SWAP2 POP PUSH1 0x60 DUP6 ADD CALLDATALOAD PUSH8 0xFFFFFFFFFFFFFFFF DUP2 GT ISZERO PUSH2 0x1809 JUMPI PUSH1 0x0 DUP1 REVERT JUMPDEST DUP6 ADD PUSH1 0x1F DUP2 ADD DUP8 SGT PUSH2 0x181A JUMPI PUSH1 0x0 DUP1 REVERT JUMPDEST PUSH2 0x1829 DUP8 DUP3 CALLDATALOAD PUSH1 0x20 DUP5 ADD PUSH2 0x1634 JUMP JUMPDEST SWAP2 POP POP SWAP3 SWAP6 SWAP2 SWAP5 POP SWAP3 POP JUMP JUMPDEST PUSH1 0x0 DUP1 PUSH1 0x40 DUP4 DUP6 SUB SLT ISZERO PUSH2 0x1848 JUMPI PUSH1 0x0 DUP1 REVERT JUMPDEST PUSH2 0x1851 DUP4 PUSH2 0x1574 JUMP JUMPDEST SWAP2 POP PUSH2 0x1615 PUSH1 0x20 DUP5 ADD PUSH2 0x1574 JUMP JUMPDEST PUSH1 0x1 DUP2 DUP2 SHR SWAP1 DUP3 AND DUP1 PUSH2 0x1873 JUMPI PUSH1 0x7F DUP3 AND SWAP2 POP JUMPDEST PUSH1 0x20 DUP3 LT DUP2 SUB PUSH2 0x1893 JUMPI PUSH4 0x4E487B71 PUSH1 0xE0 SHL PUSH1 0x0 MSTORE PUSH1 0x22 PUSH1 0x4 MSTORE PUSH1 0x24 PUSH1 0x0 REVERT JUMPDEST POP SWAP2 SWAP1 POP JUMP JUMPDEST PUSH1 0x1F DUP3 GT ISZERO PUSH2 0x88D JUMPI DUP1 PUSH1 0x0 MSTORE PUSH1 0x20 PUSH1 0x0 KECCAK256 PUSH1 0x1F DUP5 ADD PUSH1 0x5 SHR DUP2 ADD PUSH1 0x20 DUP6 LT ISZERO PUSH2 0x18C0 JUMPI POP DUP1 JUMPDEST PUSH1 0x1F DUP5 ADD PUSH1 0x5 SHR DUP3 ADD SWAP2 POP JUMPDEST DUP2 DUP2 LT ISZERO PUSH2 0x131A JUMPI PUSH1 0x0 DUP2 SSTORE PUSH1 0x1 ADD PUSH2 0x18CC JUMP JUMPDEST DUP2 MLOAD PUSH8 0xFFFFFFFFFFFFFFFF DUP2 GT ISZERO PUSH2 0x18FA JUMPI PUSH2 0x18FA PUSH2 0x161E JUMP JUMPDEST PUSH2 0x190E DUP2 PUSH2 0x1908 DUP5 SLOAD PUSH2 0x185F JUMP JUMPDEST DUP5 PUSH2 0x1899 JUMP JUMPDEST PUSH1 0x20 PUSH1 0x1F DUP3 GT PUSH1 0x1 DUP2 EQ PUSH2 0x1942 JUMPI PUSH1 0x0 DUP4 ISZERO PUSH2 0x192A JUMPI POP DUP5 DUP3 ADD MLOAD JUMPDEST PUSH1 0x0 NOT PUSH1 0x3 DUP6 SWAP1 SHL SHR NOT AND PUSH1 0x1 DUP5 SWAP1 SHL OR DUP5 SSTORE PUSH2 0x131A JUMP JUMPDEST PUSH1 0x0 DUP5 DUP2 MSTORE PUSH1 0x20 DUP2 KECCAK256 PUSH1 0x1F NOT DUP6 AND SWAP2 JUMPDEST DUP3 DUP2 LT ISZERO PUSH2 0x1972 JUMPI DUP8 DUP6 ADD MLOAD DUP3 SSTORE PUSH1 0x20 SWAP5 DUP6 ADD SWAP5 PUSH1 0x1 SWAP1 SWAP3 ADD SWAP2 ADD PUSH2 0x1952 JUMP JUMPDEST POP DUP5 DUP3 LT ISZERO PUSH2 0x1990 JUMPI DUP7 DUP5 ADD MLOAD PUSH1 0x0 NOT PUSH1 0x3 DUP8 SWAP1 SHL PUSH1 0xF8 AND SHR NOT AND DUP2 SSTORE JUMPDEST POP POP POP POP PUSH1 0x1 SWAP1 DUP2 SHL ADD SWAP1 SSTORE POP JUMP JUMPDEST PUSH1 0x0 PUSH1 0x20 DUP3 DUP5 SUB SLT ISZERO PUSH2 0x19B1 JUMPI PUSH1 0x0 DUP1 REVERT JUMPDEST DUP2 MLOAD PUSH1 0xFF DUP2 AND DUP2 EQ PUSH2 0xD21 JUMPI PUSH1 0x0 DUP1 REVERT JUMPDEST PUSH1 0x0 DUP4 MLOAD PUSH2 0x19D4 DUP2 DUP5 PUSH1 0x20 DUP9 ADD PUSH2 0x14F8 JUMP JUMPDEST DUP4 MLOAD SWAP1 DUP4 ADD SWAP1 PUSH2 0x19E8 DUP2 DUP4 PUSH1 0x20 DUP9 ADD PUSH2 0x14F8 JUMP JUMPDEST PUSH5 0x173539B7B7 PUSH1 0xD9 SHL SWAP2 ADD SWAP1 DUP2 MSTORE PUSH1 0x5 ADD SWAP5 SWAP4 POP POP POP POP JUMP JUMPDEST PUSH4 0x4E487B71 PUSH1 0xE0 SHL PUSH1 0x0 MSTORE PUSH1 0x11 PUSH1 0x4 MSTORE PUSH1 0x24 PUSH1 0x0 REVERT JUMPDEST PUSH1 0x0 DUP2 PUSH2 0x1A26 JUMPI PUSH2 0x1A26 PUSH2 0x1A01 JUMP JUMPDEST POP PUSH1 0x0 NOT ADD SWAP1 JUMP JUMPDEST DUP1 DUP3 ADD DUP1 DUP3 GT ISZERO PUSH2 0x5DA JUMPI PUSH2 0x5DA PUSH2 0x1A01 JUMP JUMPDEST PUSH1 0x1 PUSH1 0x1 PUSH1 0xA0 SHL SUB DUP6 DUP2 AND DUP3 MSTORE DUP5 AND PUSH1 0x20 DUP3 ADD MSTORE PUSH1 0x40 DUP2 ADD DUP4 SWAP1 MSTORE PUSH1 0x80 PUSH1 0x60 DUP3 ADD DUP2 SWAP1 MSTORE PUSH1 0x0 SWAP1 PUSH2 0x1A74 SWAP1 DUP4 ADD DUP5 PUSH2 0x151C JUMP JUMPDEST SWAP7 SWAP6 POP POP POP POP POP POP JUMP JUMPDEST PUSH1 0x0 PUSH1 0x20 DUP3 DUP5 SUB SLT ISZERO PUSH2 0x1A90 JUMPI PUSH1 0x0 DUP1 REVERT JUMPDEST DUP2 MLOAD PUSH2 0xD21 DUP2 PUSH2 0x14C5 JUMP INVALID LOG2 PUSH5 0x6970667358 0x22 SLT KECCAK256 DUP5 LOG2 0xA5 0xE5 0xDE SWAP12 0xF7 CALLDATALOAD 0xCF DUP3 MLOAD CALL JUMP 0xE4 0xEC 0xD6 0x25 SWAP7 PUSH16 0x6E4AE3336D56338D061F245FDF64736F PUSH13 0x634300081C0033000000000000 "},"methodIdentifiers":{"DEFAULT_ADMIN_ROLE()":"a217fddf","MINTER_ROLE()":"d5391393","URI_SETTER_ROLE()":"7f345710","approve(address,uint256)":"095ea7b3","balanceOf(address)":"70a08231","getApproved(uint256)":"081812fc","getRoleAdmin(bytes32)":"248a9ca3","grantRole(bytes32,address)":"2f2ff15d","hasRole(bytes32,address)":"91d14854","isApprovedForAll(address,address)":"e985e9c5","mintNFT(address,uint256,uint256,uint256,uint256,uint256,uint256,bool)":"78eebc68","name()":"06fdde03","nftMetadata(uint256)":"49541015","ownerOf(uint256)":"6352211e","renounceRole(bytes32,address)":"36568abe","revokeRole(bytes32,address)":"d547741f","safeTransferFrom(address,address,uint256)":"42842e0e","safeTransferFrom(address,address,uint256,bytes)":"b88d4fde","setApprovalForAll(address,bool)":"a22cb465","setBaseURI(string)":"55f804b3","stakeManager()":"7542ff95","supportsInterface(bytes4)":"01ffc9a7","symbol()":"95d89b41","tierCalculator()":"be0f2b88","tokenURI(uint256)":"c87b56dd","totalSupply()":"18160ddd","transferFrom(address,address,uint256)":"23b872dd"}}}}}