{"contracts/MultiStakeManager.sol":{"MultiStakeManager":{"abi":[{"inputs":[{"internalType":"address","name":"_stakingToken","type":"address"}],"stateMutability":"nonpayable","type":"constructor"},{"inputs":[],"name":"AccessControlBadConfirmation","type":"error"},{"inputs":[{"internalType":"address","name":"account","type":"address"},{"internalType":"bytes32","name":"neededRole","type":"bytes32"}],"name":"AccessControlUnauthorizedAccount","type":"error"},{"inputs":[],"name":"ReentrancyGuardReentrantCall","type":"error"},{"anonymous":false,"inputs":[{"indexed":true,"internalType":"uint256","name":"positionId","type":"uint256"},{"indexed":true,"internalType":"address","name":"owner","type":"address"},{"indexed":false,"internalType":"uint256","name":"amount","type":"uint256"}],"name":"EmergencyWithdrawn","type":"event"},{"anonymous":false,"inputs":[{"indexed":true,"internalType":"uint256","name":"positionId","type":"uint256"},{"indexed":true,"internalType":"address","name":"owner","type":"address"},{"indexed":false,"internalType":"uint256","name":"amount","type":"uint256"},{"indexed":false,"internalType":"uint256","name":"reward","type":"uint256"}],"name":"PositionClosed","type":"event"},{"anonymous":false,"inputs":[{"indexed":true,"internalType":"uint256","name":"positionId","type":"uint256"},{"indexed":true,"internalType":"address","name":"owner","type":"address"},{"indexed":false,"internalType":"uint256","name":"amount","type":"uint256"},{"indexed":false,"internalType":"uint256","name":"duration","type":"uint256"}],"name":"PositionCreated","type":"event"},{"anonymous":false,"inputs":[{"indexed":true,"internalType":"bytes32","name":"role","type":"bytes32"},{"indexed":true,"internalType":"bytes32","name":"previousAdminRole","type":"bytes32"},{"indexed":true,"internalType":"bytes32","name":"newAdminRole","type":"bytes32"}],"name":"RoleAdminChanged","type":"event"},{"anonymous":false,"inputs":[{"indexed":true,"internalType":"bytes32","name":"role","type":"bytes32"},{"indexed":true,"internalType":"address","name":"account","type":"address"},{"indexed":true,"internalType":"address","name":"sender","type":"address"}],"name":"RoleGranted","type":"event"},{"anonymous":false,"inputs":[{"indexed":true,"internalType":"bytes32","name":"role","type":"bytes32"},{"indexed":true,"internalType":"address","name":"account","type":"address"},{"indexed":true,"internalType":"address","name":"sender","type":"address"}],"name":"RoleRevoked","type":"event"},{"inputs":[],"name":"ADMIN_ROLE","outputs":[{"internalType":"bytes32","name":"","type":"bytes32"}],"stateMutability":"view","type":"function"},{"inputs":[],"name":"DEFAULT_ADMIN_ROLE","outputs":[{"internalType":"bytes32","name":"","type":"bytes32"}],"stateMutability":"view","type":"function"},{"inputs":[],"name":"MAX_POSITIONS_PER_WALLET","outputs":[{"internalType":"uint256","name":"","type":"uint256"}],"stateMutability":"view","type":"function"},{"inputs":[],"name":"MAX_STAKE_DURATION","outputs":[{"internalType":"uint256","name":"","type":"uint256"}],"stateMutability":"view","type":"function"},{"inputs":[],"name":"MIN_STAKE_DURATION","outputs":[{"internalType":"uint256","name":"","type":"uint256"}],"stateMutability":"view","type":"function"},{"inputs":[],"name":"REWARD_INTERVAL","outputs":[{"internalType":"uint256","name":"","type":"uint256"}],"stateMutability":"view","type":"function"},{"inputs":[{"internalType":"uint256","name":"positionId","type":"uint256"}],"name":"calculateRewards","outputs":[{"internalType":"uint256","name":"","type":"uint256"}],"stateMutability":"view","type":"function"},{"inputs":[{"internalType":"uint256","name":"positionId","type":"uint256"}],"name":"closePosition","outputs":[],"stateMutability":"nonpayable","type":"function"},{"inputs":[{"internalType":"uint256","name":"amount","type":"uint256"},{"internalType":"uint256","name":"duration","type":"uint256"}],"name":"createPosition","outputs":[],"stateMutability":"nonpayable","type":"function"},{"inputs":[{"internalType":"uint256","name":"positionId","type":"uint256"}],"name":"emergencyWithdraw","outputs":[],"stateMutability":"nonpayable","type":"function"},{"inputs":[{"internalType":"bytes32","name":"role","type":"bytes32"}],"name":"getRoleAdmin","outputs":[{"internalType":"bytes32","name":"","type":"bytes32"}],"stateMutability":"view","type":"function"},{"inputs":[{"internalType":"address","name":"user","type":"address"}],"name":"getUserPositions","outputs":[{"internalType":"uint256[]","name":"","type":"uint256[]"}],"stateMutability":"view","type":"function"},{"inputs":[{"internalType":"bytes32","name":"role","type":"bytes32"},{"internalType":"address","name":"account","type":"address"}],"name":"grantRole","outputs":[],"stateMutability":"nonpayable","type":"function"},{"inputs":[{"internalType":"bytes32","name":"role","type":"bytes32"},{"internalType":"address","name":"account","type":"address"}],"name":"hasRole","outputs":[{"internalType":"bool","name":"","type":"bool"}],"stateMutability":"view","type":"function"},{"inputs":[{"internalType":"uint256","name":"","type":"uint256"}],"name":"positionIndexInUserArray","outputs":[{"internalType":"uint256","name":"","type":"uint256"}],"stateMutability":"view","type":"function"},{"inputs":[{"internalType":"uint256","name":"","type":"uint256"}],"name":"positions","outputs":[{"internalType":"uint128","name":"amount","type":"uint128"},{"internalType":"uint64","name":"startTime","type":"uint64"},{"internalType":"uint32","name":"duration","type":"uint32"},{"internalType":"uint32","name":"nextMintAt","type":"uint32"},{"internalType":"uint8","name":"tier","type":"uint8"},{"internalType":"uint8","name":"monthIndex","type":"uint8"},{"internalType":"bool","name":"isActive","type":"bool"},{"internalType":"address","name":"owner","type":"address"}],"stateMutability":"view","type":"function"},{"inputs":[{"internalType":"bytes32","name":"role","type":"bytes32"},{"internalType":"address","name":"callerConfirmation","type":"address"}],"name":"renounceRole","outputs":[],"stateMutability":"nonpayable","type":"function"},{"inputs":[{"internalType":"bytes32","name":"role","type":"bytes32"},{"internalType":"address","name":"account","type":"address"}],"name":"revokeRole","outputs":[],"stateMutability":"nonpayable","type":"function"},{"inputs":[],"name":"stakingToken","outputs":[{"internalType":"contract IERC20","name":"","type":"address"}],"stateMutability":"view","type":"function"},{"inputs":[{"internalType":"bytes4","name":"interfaceId","type":"bytes4"}],"name":"supportsInterface","outputs":[{"internalType":"bool","name":"","type":"bool"}],"stateMutability":"view","type":"function"},{"inputs":[{"internalType":"address","name":"","type":"address"},{"internalType":"uint256","name":"","type":"uint256"}],"name":"userPositions","outputs":[{"internalType":"uint256","name":"","type":"uint256"}],"stateMutability":"view","type":"function"}],"evm":{"bytecode":{"linkReferences":{},"object":"60a0604052600160025534801561001557600080fd5b5060405161162d38038061162d83398101604081905261003491610177565b600180556001600160a01b0381166100815760405162461bcd60e51b815260206004820152600c60248201526b5a65726f206164647265737360a01b604482015260640160405180910390fd5b6001600160a01b0381166080526100996000336100cb565b506100c47fa49807205ce4d355092ef5a8a18f56e8913cf4a201fbe287825b095693c21775336100cb565b50506101a7565b6000828152602081815260408083206001600160a01b038516845290915281205460ff1661016d576000838152602081815260408083206001600160a01b03861684529091529020805460ff191660011790556101253390565b6001600160a01b0316826001600160a01b0316847f2f8788117e7eff1d82e926ec794901d17c78024a50270940304540a733656f0d60405160405180910390a4506001610171565b5060005b92915050565b60006020828403121561018957600080fd5b81516001600160a01b03811681146101a057600080fd5b9392505050565b6080516114566101d76000396000818161021a015281816106210152818161089b0152610d3601526114566000f3fe608060405234801561001057600080fd5b50600436106101375760003560e01c806375b238fc116100b8578063aa902b4d1161007c578063aa902b4d14610394578063d1aaef051461039f578063d3ea4350146103b2578063d547741f146103c5578063e0c570ba146103d8578063e89636d9146103e257600080fd5b806375b238fc1461025457806391d148541461027b57806399fbab881461028e578063a126d60114610379578063a217fddf1461038c57600080fd5b806336568abe116100ff57806336568abe146101d25780635312ea8e146101e55780635dbdda69146101f85780635e1b4d991461020257806372f702f31461021557600080fd5b806301ffc9a71461013c57806303d50b1f14610164578063248a9ca31461017a5780632a6bc2dd1461019d5780632f2ff15d146101bd575b600080fd5b61014f61014a366004611156565b610402565b60405190151581526020015b60405180910390f35b61016c600a81565b60405190815260200161015b565b61016c610188366004611180565b60009081526020819052604090206001015490565b6101b06101ab3660046111b5565b610439565b60405161015b91906111d0565b6101d06101cb366004611213565b6104a5565b005b6101d06101e0366004611213565b6104d0565b6101d06101f3366004611180565b610508565b61016c62278d0081565b61016c61021036600461123f565b6106f7565b61023c7f000000000000000000000000000000000000000000000000000000000000000081565b6040516001600160a01b03909116815260200161015b565b61016c7fa49807205ce4d355092ef5a8a18f56e8913cf4a201fbe287825b095693c2177581565b61014f610289366004611213565b610728565b61031161029c366004611180565b600360205260009081526040902080546001909101546001600160801b0382169167ffffffffffffffff600160801b8204169163ffffffff600160c01b8304811692600160e01b9004169060ff80821691610100810482169162010000820416906001600160a01b0363010000009091041688565b604080516001600160801b03909916895267ffffffffffffffff909716602089015263ffffffff9586169688019690965293909216606086015260ff90811660808601521660a0840152151560c08301526001600160a01b031660e08201526101000161015b565b6101d0610387366004611180565b610751565b61016c600081565b61016c6312cc030081565b6101d06103ad366004611269565b61099f565b61016c6103c0366004611180565b610e14565b6101d06103d3366004611213565b610ea6565b61016c62ed4e0081565b61016c6103f0366004611180565b60056020526000908152604090205481565b60006001600160e01b03198216637965db0b60e01b148061043357506301ffc9a760e01b6001600160e01b03198316145b92915050565b6001600160a01b03811660009081526004602090815260409182902080548351818402810184019094528084526060939283018282801561049957602002820191906000526020600020905b815481526020019060010190808311610485575b50505050509050919050565b6000828152602081905260409020600101546104c081610ecb565b6104ca8383610ed5565b50505050565b6001600160a01b03811633146104f95760405163334bd91960e11b815260040160405180910390fd5b6105038282610f67565b505050565b610510610fd2565b6000818152600360205260409020600181015462010000900460ff166105515760405162461bcd60e51b81526004016105489061128b565b60405180910390fd5b6001810154630100000090046001600160a01b031633146105a95760405162461bcd60e51b81526020600482015260126024820152712737ba103837b9b4ba34b7b71037bbb732b960711b6044820152606401610548565b3332146105e35760405162461bcd60e51b81526020600482015260086024820152674f6e6c7920454f4160c01b6044820152606401610548565b805460018201805462ff0000191690556001600160801b031661060583610ffc565b60405163a9059cbb60e01b8152336004820152602481018290527f00000000000000000000000000000000000000000000000000000000000000006001600160a01b03169063a9059cbb906044016020604051808303816000875af1158015610672573d6000803e3d6000fd5b505050506040513d601f19601f8201168201806040525081019061069691906112b8565b6106b25760405162461bcd60e51b8152600401610548906112da565b604051818152339084907fafe87099d21cd68765ccb431a535ca7a632ac9f66e04e99c9574fb5ddfdefca79060200160405180910390a350506106f460018055565b50565b6004602052816000526040600020818154811061071357600080fd5b90600052602060002001600091509150505481565b6000918252602082815260408084206001600160a01b0393909316845291905290205460ff1690565b610759610fd2565b6000818152600360205260409020600181015462010000900460ff166107915760405162461bcd60e51b81526004016105489061128b565b6001810154630100000090046001600160a01b031633146107e95760405162461bcd60e51b81526020600482015260126024820152712737ba103837b9b4ba34b7b71037bbb732b960711b6044820152606401610548565b805461081390600160c01b810463ffffffff1690600160801b900467ffffffffffffffff16611319565b67ffffffffffffffff164210156108625760405162461bcd60e51b8152602060048201526013602482015272506f736974696f6e206e6f74206d617475726560681b6044820152606401610548565b80546001600160801b0316600061087884610e14565b60018401805462ff000019169055905061089184610ffc565b6001600160a01b037f00000000000000000000000000000000000000000000000000000000000000001663a9059cbb336108cb8486611339565b6040516001600160e01b031960e085901b1681526001600160a01b03909216600483015260248201526044016020604051808303816000875af1158015610916573d6000803e3d6000fd5b505050506040513d601f19601f8201168201806040525081019061093a91906112b8565b6109565760405162461bcd60e51b8152600401610548906112da565b6040805183815260208101839052339186917f3120c845c5d2c39308641201562a412527c1e7aff294f09c0c936f1c60a1b067910160405180910390a35050506106f460018055565b6109a7610fd2565b600082116109e55760405162461bcd60e51b815260206004820152600b60248201526a16995c9bc8185b5bdd5b9d60aa1b6044820152606401610548565b62ed4e00811015610a2d5760405162461bcd60e51b8152602060048201526012602482015271111d5c985d1a5bdb881d1bdbc81cda1bdc9d60721b6044820152606401610548565b6312cc0300811115610a755760405162461bcd60e51b81526020600482015260116024820152704475726174696f6e20746f6f206c6f6e6760781b6044820152606401610548565b33600090815260046020526040902054600a11610ac95760405162461bcd60e51b8152602060048201526012602482015271546f6f206d616e7920706f736974696f6e7360701b6044820152606401610548565b6001600160801b03821115610b135760405162461bcd60e51b815260206004820152601060248201526f416d6f756e7420746f6f206c6172676560801b6044820152606401610548565b6002805460009182610b248361134c565b9091555090504260006304b258008410610b4057506003610b6a565b6302d124808410610b5357506002610b6a565b6301e133808410610b6657506001610b6a565b5060005b604051806101000160405280866001600160801b031681526020018367ffffffffffffffff1681526020018563ffffffff168152602001610bb56001856110f290919063ffffffff16565b63ffffffff908116825260ff80851660208085019190915260006040808601829052600160608088018290523360809889018190528c8552600386528385208a5181548c8901518d880151958e01518c16600160e01b026001600160e01b0396909c16600160c01b02959095166001600160c01b0367ffffffffffffffff909616600160801b026001600160c01b03199092166001600160801b039093169290921717939093169290921797909717815596880151968101805460a08a015160c08b015160e0909b01516001600160a01b03166301000000026301000000600160b81b03199b151562010000029b909b1662010000600160b81b03199189166101000261ffff199093169a9098169990991717979097169490941796909617909455828452600481529383208054808301825581855294842090940187905591529054610d029190611365565b6000848152600560205260409081902091909155516323b872dd60e01b8152336004820152306024820152604481018690527f00000000000000000000000000000000000000000000000000000000000000006001600160a01b0316906323b872dd906064016020604051808303816000875af1158015610d87573d6000803e3d6000fd5b505050506040513d601f19601f82011682018060405250810190610dab91906112b8565b610dc75760405162461bcd60e51b8152600401610548906112da565b6040805186815260208101869052339185917ffb617c13a5b4b052ee893903dca019ab1611dfef1b20f7acb7a5bfe008c10260910160405180910390a3505050610e1060018055565b5050565b6000818152600360205260408120600181015462010000900460ff16610e4c5760405162461bcd60e51b81526004016105489061128b565b60018101548154600091606491610e6f9160ff16906001600160801b0316611378565b610e7991906113a1565b60018301546001600160801b03919091169150610e9e90610100900460ff16826113dd565b949350505050565b600082815260208190526040902060010154610ec181610ecb565b6104ca8383610f67565b6106f4813361111d565b6000610ee18383610728565b610f5f576000838152602081815260408083206001600160a01b03861684529091529020805460ff19166001179055610f173390565b6001600160a01b0316826001600160a01b0316847f2f8788117e7eff1d82e926ec794901d17c78024a50270940304540a733656f0d60405160405180910390a4506001610433565b506000610433565b6000610f738383610728565b15610f5f576000838152602081815260408083206001600160a01b0386168085529252808320805460ff1916905551339286917ff6391f5c32d9c69d2a47ea670b442974b53935d1edc7fd64eb21e047a839171b9190a4506001610433565b600260015403610ff557604051633ee5aeb560e01b815260040160405180910390fd5b6002600155565b6000818152600360209081526040808320600180820154630100000090046001600160a01b0316855260048452828520868652600590945291909320548254909161104691611365565b81146110af578154600090839061105f90600190611365565b8154811061106f5761106f6113f4565b906000526020600020015490508083838154811061108f5761108f6113f4565b600091825260208083209091019290925591825260059052604090208190555b818054806110bf576110bf61140a565b60019003818190600052602060002001600090559055600560008581526020019081526020016000206000905550505050565b600061110262015180601e6113dd565b61110c90836113dd565b6111169084611339565b9392505050565b6111278282610728565b610e105760405163e2517d3f60e01b81526001600160a01b038216600482015260248101839052604401610548565b60006020828403121561116857600080fd5b81356001600160e01b03198116811461111657600080fd5b60006020828403121561119257600080fd5b5035919050565b80356001600160a01b03811681146111b057600080fd5b919050565b6000602082840312156111c757600080fd5b61111682611199565b602080825282518282018190526000918401906040840190835b818110156112085783518352602093840193909201916001016111ea565b509095945050505050565b6000806040838503121561122657600080fd5b8235915061123660208401611199565b90509250929050565b6000806040838503121561125257600080fd5b61125b83611199565b946020939093013593505050565b6000806040838503121561127c57600080fd5b50508035926020909101359150565b602080825260139082015272506f736974696f6e206e6f742061637469766560681b604082015260600190565b6000602082840312156112ca57600080fd5b8151801515811461111657600080fd5b6020808252600f908201526e151c985b9cd9995c8819985a5b1959608a1b604082015260600190565b634e487b7160e01b600052601160045260246000fd5b67ffffffffffffffff818116838216019081111561043357610433611303565b8082018082111561043357610433611303565b60006001820161135e5761135e611303565b5060010190565b8181038181111561043357610433611303565b6001600160801b03818116838216029081169081811461139a5761139a611303565b5092915050565b60006001600160801b038316806113c857634e487b7160e01b600052601260045260246000fd5b806001600160801b0384160491505092915050565b808202811582820484141761043357610433611303565b634e487b7160e01b600052603260045260246000fd5b634e487b7160e01b600052603160045260246000fdfea2646970667358221220e77d7863e6dcb6d0e1ae57e2c8c2add23b305b1247fe8c3682cad7bd898956bf64736f6c634300081c0033","opcodes":"PUSH1 0xA0 PUSH1 0x40 MSTORE PUSH1 0x1 PUSH1 0x2 SSTORE CALLVALUE DUP1 ISZERO PUSH2 0x15 JUMPI PUSH1 0x0 DUP1 REVERT JUMPDEST POP PUSH1 0x40 MLOAD PUSH2 0x162D CODESIZE SUB DUP1 PUSH2 0x162D DUP4 CODECOPY DUP2 ADD PUSH1 0x40 DUP2 SWAP1 MSTORE PUSH2 0x34 SWAP2 PUSH2 0x177 JUMP JUMPDEST PUSH1 0x1 DUP1 SSTORE PUSH1 0x1 PUSH1 0x1 PUSH1 0xA0 SHL SUB DUP2 AND PUSH2 0x81 JUMPI PUSH1 0x40 MLOAD PUSH3 0x461BCD PUSH1 0xE5 SHL DUP2 MSTORE PUSH1 0x20 PUSH1 0x4 DUP3 ADD MSTORE PUSH1 0xC PUSH1 0x24 DUP3 ADD MSTORE PUSH12 0x5A65726F2061646472657373 PUSH1 0xA0 SHL PUSH1 0x44 DUP3 ADD MSTORE PUSH1 0x64 ADD PUSH1 0x40 MLOAD DUP1 SWAP2 SUB SWAP1 REVERT JUMPDEST PUSH1 0x1 PUSH1 0x1 PUSH1 0xA0 SHL SUB DUP2 AND PUSH1 0x80 MSTORE PUSH2 0x99 PUSH1 0x0 CALLER PUSH2 0xCB JUMP JUMPDEST POP PUSH2 0xC4 PUSH32 0xA49807205CE4D355092EF5A8A18F56E8913CF4A201FBE287825B095693C21775 CALLER PUSH2 0xCB JUMP JUMPDEST POP POP PUSH2 0x1A7 JUMP JUMPDEST PUSH1 0x0 DUP3 DUP2 MSTORE PUSH1 0x20 DUP2 DUP2 MSTORE PUSH1 0x40 DUP1 DUP4 KECCAK256 PUSH1 0x1 PUSH1 0x1 PUSH1 0xA0 SHL SUB DUP6 AND DUP5 MSTORE SWAP1 SWAP2 MSTORE DUP2 KECCAK256 SLOAD PUSH1 0xFF AND PUSH2 0x16D JUMPI PUSH1 0x0 DUP4 DUP2 MSTORE PUSH1 0x20 DUP2 DUP2 MSTORE PUSH1 0x40 DUP1 DUP4 KECCAK256 PUSH1 0x1 PUSH1 0x1 PUSH1 0xA0 SHL SUB DUP7 AND DUP5 MSTORE SWAP1 SWAP2 MSTORE SWAP1 KECCAK256 DUP1 SLOAD PUSH1 0xFF NOT AND PUSH1 0x1 OR SWAP1 SSTORE PUSH2 0x125 CALLER SWAP1 JUMP JUMPDEST PUSH1 0x1 PUSH1 0x1 PUSH1 0xA0 SHL SUB AND DUP3 PUSH1 0x1 PUSH1 0x1 PUSH1 0xA0 SHL SUB AND DUP5 PUSH32 0x2F8788117E7EFF1D82E926EC794901D17C78024A50270940304540A733656F0D PUSH1 0x40 MLOAD PUSH1 0x40 MLOAD DUP1 SWAP2 SUB SWAP1 LOG4 POP PUSH1 0x1 PUSH2 0x171 JUMP JUMPDEST POP PUSH1 0x0 JUMPDEST SWAP3 SWAP2 POP POP JUMP JUMPDEST PUSH1 0x0 PUSH1 0x20 DUP3 DUP5 SUB SLT ISZERO PUSH2 0x189 JUMPI PUSH1 0x0 DUP1 REVERT JUMPDEST DUP2 MLOAD PUSH1 0x1 PUSH1 0x1 PUSH1 0xA0 SHL SUB DUP2 AND DUP2 EQ PUSH2 0x1A0 JUMPI PUSH1 0x0 DUP1 REVERT JUMPDEST SWAP4 SWAP3 POP POP POP JUMP JUMPDEST PUSH1 0x80 MLOAD PUSH2 0x1456 PUSH2 0x1D7 PUSH1 0x0 CODECOPY PUSH1 0x0 DUP2 DUP2 PUSH2 0x21A ADD MSTORE DUP2 DUP2 PUSH2 0x621 ADD MSTORE DUP2 DUP2 PUSH2 0x89B ADD MSTORE PUSH2 0xD36 ADD MSTORE PUSH2 0x1456 PUSH1 0x0 RETURN INVALID PUSH1 0x80 PUSH1 0x40 MSTORE CALLVALUE DUP1 ISZERO PUSH2 0x10 JUMPI PUSH1 0x0 DUP1 REVERT JUMPDEST POP PUSH1 0x4 CALLDATASIZE LT PUSH2 0x137 JUMPI PUSH1 0x0 CALLDATALOAD PUSH1 0xE0 SHR DUP1 PUSH4 0x75B238FC GT PUSH2 0xB8 JUMPI DUP1 PUSH4 0xAA902B4D GT PUSH2 0x7C JUMPI DUP1 PUSH4 0xAA902B4D EQ PUSH2 0x394 JUMPI DUP1 PUSH4 0xD1AAEF05 EQ PUSH2 0x39F JUMPI DUP1 PUSH4 0xD3EA4350 EQ PUSH2 0x3B2 JUMPI DUP1 PUSH4 0xD547741F EQ PUSH2 0x3C5 JUMPI DUP1 PUSH4 0xE0C570BA EQ PUSH2 0x3D8 JUMPI DUP1 PUSH4 0xE89636D9 EQ PUSH2 0x3E2 JUMPI PUSH1 0x0 DUP1 REVERT JUMPDEST DUP1 PUSH4 0x75B238FC EQ PUSH2 0x254 JUMPI DUP1 PUSH4 0x91D14854 EQ PUSH2 0x27B JUMPI DUP1 PUSH4 0x99FBAB88 EQ PUSH2 0x28E JUMPI DUP1 PUSH4 0xA126D601 EQ PUSH2 0x379 JUMPI DUP1 PUSH4 0xA217FDDF EQ PUSH2 0x38C JUMPI PUSH1 0x0 DUP1 REVERT JUMPDEST DUP1 PUSH4 0x36568ABE GT PUSH2 0xFF JUMPI DUP1 PUSH4 0x36568ABE EQ PUSH2 0x1D2 JUMPI DUP1 PUSH4 0x5312EA8E EQ PUSH2 0x1E5 JUMPI DUP1 PUSH4 0x5DBDDA69 EQ PUSH2 0x1F8 JUMPI DUP1 PUSH4 0x5E1B4D99 EQ PUSH2 0x202 JUMPI DUP1 PUSH4 0x72F702F3 EQ PUSH2 0x215 JUMPI PUSH1 0x0 DUP1 REVERT JUMPDEST DUP1 PUSH4 0x1FFC9A7 EQ PUSH2 0x13C JUMPI DUP1 PUSH4 0x3D50B1F EQ PUSH2 0x164 JUMPI DUP1 PUSH4 0x248A9CA3 EQ PUSH2 0x17A JUMPI DUP1 PUSH4 0x2A6BC2DD EQ PUSH2 0x19D JUMPI DUP1 PUSH4 0x2F2FF15D EQ PUSH2 0x1BD JUMPI JUMPDEST PUSH1 0x0 DUP1 REVERT JUMPDEST PUSH2 0x14F PUSH2 0x14A CALLDATASIZE PUSH1 0x4 PUSH2 0x1156 JUMP JUMPDEST PUSH2 0x402 JUMP JUMPDEST PUSH1 0x40 MLOAD SWAP1 ISZERO ISZERO DUP2 MSTORE PUSH1 0x20 ADD JUMPDEST PUSH1 0x40 MLOAD DUP1 SWAP2 SUB SWAP1 RETURN JUMPDEST PUSH2 0x16C PUSH1 0xA DUP2 JUMP JUMPDEST PUSH1 0x40 MLOAD SWAP1 DUP2 MSTORE PUSH1 0x20 ADD PUSH2 0x15B JUMP JUMPDEST PUSH2 0x16C PUSH2 0x188 CALLDATASIZE PUSH1 0x4 PUSH2 0x1180 JUMP JUMPDEST PUSH1 0x0 SWAP1 DUP2 MSTORE PUSH1 0x20 DUP2 SWAP1 MSTORE PUSH1 0x40 SWAP1 KECCAK256 PUSH1 0x1 ADD SLOAD SWAP1 JUMP JUMPDEST PUSH2 0x1B0 PUSH2 0x1AB CALLDATASIZE PUSH1 0x4 PUSH2 0x11B5 JUMP JUMPDEST PUSH2 0x439 JUMP JUMPDEST PUSH1 0x40 MLOAD PUSH2 0x15B SWAP2 SWAP1 PUSH2 0x11D0 JUMP JUMPDEST PUSH2 0x1D0 PUSH2 0x1CB CALLDATASIZE PUSH1 0x4 PUSH2 0x1213 JUMP JUMPDEST PUSH2 0x4A5 JUMP JUMPDEST STOP JUMPDEST PUSH2 0x1D0 PUSH2 0x1E0 CALLDATASIZE PUSH1 0x4 PUSH2 0x1213 JUMP JUMPDEST PUSH2 0x4D0 JUMP JUMPDEST PUSH2 0x1D0 PUSH2 0x1F3 CALLDATASIZE PUSH1 0x4 PUSH2 0x1180 JUMP JUMPDEST PUSH2 0x508 JUMP JUMPDEST PUSH2 0x16C PUSH3 0x278D00 DUP2 JUMP JUMPDEST PUSH2 0x16C PUSH2 0x210 CALLDATASIZE PUSH1 0x4 PUSH2 0x123F JUMP JUMPDEST PUSH2 0x6F7 JUMP JUMPDEST PUSH2 0x23C PUSH32 0x0 DUP2 JUMP JUMPDEST PUSH1 0x40 MLOAD PUSH1 0x1 PUSH1 0x1 PUSH1 0xA0 SHL SUB SWAP1 SWAP2 AND DUP2 MSTORE PUSH1 0x20 ADD PUSH2 0x15B JUMP JUMPDEST PUSH2 0x16C PUSH32 0xA49807205CE4D355092EF5A8A18F56E8913CF4A201FBE287825B095693C21775 DUP2 JUMP JUMPDEST PUSH2 0x14F PUSH2 0x289 CALLDATASIZE PUSH1 0x4 PUSH2 0x1213 JUMP JUMPDEST PUSH2 0x728 JUMP JUMPDEST PUSH2 0x311 PUSH2 0x29C CALLDATASIZE PUSH1 0x4 PUSH2 0x1180 JUMP JUMPDEST PUSH1 0x3 PUSH1 0x20 MSTORE PUSH1 0x0 SWAP1 DUP2 MSTORE PUSH1 0x40 SWAP1 KECCAK256 DUP1 SLOAD PUSH1 0x1 SWAP1 SWAP2 ADD SLOAD PUSH1 0x1 PUSH1 0x1 PUSH1 0x80 SHL SUB DUP3 AND SWAP2 PUSH8 0xFFFFFFFFFFFFFFFF PUSH1 0x1 PUSH1 0x80 SHL DUP3 DIV AND SWAP2 PUSH4 0xFFFFFFFF PUSH1 0x1 PUSH1 0xC0 SHL DUP4 DIV DUP2 AND SWAP3 PUSH1 0x1 PUSH1 0xE0 SHL SWAP1 DIV AND SWAP1 PUSH1 0xFF DUP1 DUP3 AND SWAP2 PUSH2 0x100 DUP2 DIV DUP3 AND SWAP2 PUSH3 0x10000 DUP3 DIV AND SWAP1 PUSH1 0x1 PUSH1 0x1 PUSH1 0xA0 SHL SUB PUSH4 0x1000000 SWAP1 SWAP2 DIV AND DUP9 JUMP JUMPDEST PUSH1 0x40 DUP1 MLOAD PUSH1 0x1 PUSH1 0x1 PUSH1 0x80 SHL SUB SWAP1 SWAP10 AND DUP10 MSTORE PUSH8 0xFFFFFFFFFFFFFFFF SWAP1 SWAP8 AND PUSH1 0x20 DUP10 ADD MSTORE PUSH4 0xFFFFFFFF SWAP6 DUP7 AND SWAP7 DUP9 ADD SWAP7 SWAP1 SWAP7 MSTORE SWAP4 SWAP1 SWAP3 AND PUSH1 0x60 DUP7 ADD MSTORE PUSH1 0xFF SWAP1 DUP2 AND PUSH1 0x80 DUP7 ADD MSTORE AND PUSH1 0xA0 DUP5 ADD MSTORE ISZERO ISZERO PUSH1 0xC0 DUP4 ADD MSTORE PUSH1 0x1 PUSH1 0x1 PUSH1 0xA0 SHL SUB AND PUSH1 0xE0 DUP3 ADD MSTORE PUSH2 0x100 ADD PUSH2 0x15B JUMP JUMPDEST PUSH2 0x1D0 PUSH2 0x387 CALLDATASIZE PUSH1 0x4 PUSH2 0x1180 JUMP JUMPDEST PUSH2 0x751 JUMP JUMPDEST PUSH2 0x16C PUSH1 0x0 DUP2 JUMP JUMPDEST PUSH2 0x16C PUSH4 0x12CC0300 DUP2 JUMP JUMPDEST PUSH2 0x1D0 PUSH2 0x3AD CALLDATASIZE PUSH1 0x4 PUSH2 0x1269 JUMP JUMPDEST PUSH2 0x99F JUMP JUMPDEST PUSH2 0x16C PUSH2 0x3C0 CALLDATASIZE PUSH1 0x4 PUSH2 0x1180 JUMP JUMPDEST PUSH2 0xE14 JUMP JUMPDEST PUSH2 0x1D0 PUSH2 0x3D3 CALLDATASIZE PUSH1 0x4 PUSH2 0x1213 JUMP JUMPDEST PUSH2 0xEA6 JUMP JUMPDEST PUSH2 0x16C PUSH3 0xED4E00 DUP2 JUMP JUMPDEST PUSH2 0x16C PUSH2 0x3F0 CALLDATASIZE PUSH1 0x4 PUSH2 0x1180 JUMP JUMPDEST PUSH1 0x5 PUSH1 0x20 MSTORE PUSH1 0x0 SWAP1 DUP2 MSTORE PUSH1 0x40 SWAP1 KECCAK256 SLOAD DUP2 JUMP JUMPDEST PUSH1 0x0 PUSH1 0x1 PUSH1 0x1 PUSH1 0xE0 SHL SUB NOT DUP3 AND PUSH4 0x7965DB0B PUSH1 0xE0 SHL EQ DUP1 PUSH2 0x433 JUMPI POP PUSH4 0x1FFC9A7 PUSH1 0xE0 SHL PUSH1 0x1 PUSH1 0x1 PUSH1 0xE0 SHL SUB NOT DUP4 AND EQ JUMPDEST SWAP3 SWAP2 POP POP JUMP JUMPDEST PUSH1 0x1 PUSH1 0x1 PUSH1 0xA0 SHL SUB DUP2 AND PUSH1 0x0 SWAP1 DUP2 MSTORE PUSH1 0x4 PUSH1 0x20 SWAP1 DUP2 MSTORE PUSH1 0x40 SWAP2 DUP3 SWAP1 KECCAK256 DUP1 SLOAD DUP4 MLOAD DUP2 DUP5 MUL DUP2 ADD DUP5 ADD SWAP1 SWAP5 MSTORE DUP1 DUP5 MSTORE PUSH1 0x60 SWAP4 SWAP3 DUP4 ADD DUP3 DUP3 DUP1 ISZERO PUSH2 0x499 JUMPI PUSH1 0x20 MUL DUP3 ADD SWAP2 SWAP1 PUSH1 0x0 MSTORE PUSH1 0x20 PUSH1 0x0 KECCAK256 SWAP1 JUMPDEST DUP2 SLOAD DUP2 MSTORE PUSH1 0x20 ADD SWAP1 PUSH1 0x1 ADD SWAP1 DUP1 DUP4 GT PUSH2 0x485 JUMPI JUMPDEST POP POP POP POP POP SWAP1 POP SWAP2 SWAP1 POP JUMP JUMPDEST PUSH1 0x0 DUP3 DUP2 MSTORE PUSH1 0x20 DUP2 SWAP1 MSTORE PUSH1 0x40 SWAP1 KECCAK256 PUSH1 0x1 ADD SLOAD PUSH2 0x4C0 DUP2 PUSH2 0xECB JUMP JUMPDEST PUSH2 0x4CA DUP4 DUP4 PUSH2 0xED5 JUMP JUMPDEST POP POP POP POP JUMP JUMPDEST PUSH1 0x1 PUSH1 0x1 PUSH1 0xA0 SHL SUB DUP2 AND CALLER EQ PUSH2 0x4F9 JUMPI PUSH1 0x40 MLOAD PUSH4 0x334BD919 PUSH1 0xE1 SHL DUP2 MSTORE PUSH1 0x4 ADD PUSH1 0x40 MLOAD DUP1 SWAP2 SUB SWAP1 REVERT JUMPDEST PUSH2 0x503 DUP3 DUP3 PUSH2 0xF67 JUMP JUMPDEST POP POP POP JUMP JUMPDEST PUSH2 0x510 PUSH2 0xFD2 JUMP JUMPDEST PUSH1 0x0 DUP2 DUP2 MSTORE PUSH1 0x3 PUSH1 0x20 MSTORE PUSH1 0x40 SWAP1 KECCAK256 PUSH1 0x1 DUP2 ADD SLOAD PUSH3 0x10000 SWAP1 DIV PUSH1 0xFF AND PUSH2 0x551 JUMPI PUSH1 0x40 MLOAD PUSH3 0x461BCD PUSH1 0xE5 SHL DUP2 MSTORE PUSH1 0x4 ADD PUSH2 0x548 SWAP1 PUSH2 0x128B JUMP JUMPDEST PUSH1 0x40 MLOAD DUP1 SWAP2 SUB SWAP1 REVERT JUMPDEST PUSH1 0x1 DUP2 ADD SLOAD PUSH4 0x1000000 SWAP1 DIV PUSH1 0x1 PUSH1 0x1 PUSH1 0xA0 SHL SUB AND CALLER EQ PUSH2 0x5A9 JUMPI PUSH1 0x40 MLOAD PUSH3 0x461BCD PUSH1 0xE5 SHL DUP2 MSTORE PUSH1 0x20 PUSH1 0x4 DUP3 ADD MSTORE PUSH1 0x12 PUSH1 0x24 DUP3 ADD MSTORE PUSH18 0x2737BA103837B9B4BA34B7B71037BBB732B9 PUSH1 0x71 SHL PUSH1 0x44 DUP3 ADD MSTORE PUSH1 0x64 ADD PUSH2 0x548 JUMP JUMPDEST CALLER ORIGIN EQ PUSH2 0x5E3 JUMPI PUSH1 0x40 MLOAD PUSH3 0x461BCD PUSH1 0xE5 SHL DUP2 MSTORE PUSH1 0x20 PUSH1 0x4 DUP3 ADD MSTORE PUSH1 0x8 PUSH1 0x24 DUP3 ADD MSTORE PUSH8 0x4F6E6C7920454F41 PUSH1 0xC0 SHL PUSH1 0x44 DUP3 ADD MSTORE PUSH1 0x64 ADD PUSH2 0x548 JUMP JUMPDEST DUP1 SLOAD PUSH1 0x1 DUP3 ADD DUP1 SLOAD PUSH3 0xFF0000 NOT AND SWAP1 SSTORE PUSH1 0x1 PUSH1 0x1 PUSH1 0x80 SHL SUB AND PUSH2 0x605 DUP4 PUSH2 0xFFC JUMP JUMPDEST PUSH1 0x40 MLOAD PUSH4 0xA9059CBB PUSH1 0xE0 SHL DUP2 MSTORE CALLER PUSH1 0x4 DUP3 ADD MSTORE PUSH1 0x24 DUP2 ADD DUP3 SWAP1 MSTORE PUSH32 0x0 PUSH1 0x1 PUSH1 0x1 PUSH1 0xA0 SHL SUB AND SWAP1 PUSH4 0xA9059CBB SWAP1 PUSH1 0x44 ADD PUSH1 0x20 PUSH1 0x40 MLOAD DUP1 DUP4 SUB DUP2 PUSH1 0x0 DUP8 GAS CALL ISZERO DUP1 ISZERO PUSH2 0x672 JUMPI RETURNDATASIZE PUSH1 0x0 DUP1 RETURNDATACOPY RETURNDATASIZE PUSH1 0x0 REVERT JUMPDEST POP POP POP POP PUSH1 0x40 MLOAD RETURNDATASIZE PUSH1 0x1F NOT PUSH1 0x1F DUP3 ADD AND DUP3 ADD DUP1 PUSH1 0x40 MSTORE POP DUP2 ADD SWAP1 PUSH2 0x696 SWAP2 SWAP1 PUSH2 0x12B8 JUMP JUMPDEST PUSH2 0x6B2 JUMPI PUSH1 0x40 MLOAD PUSH3 0x461BCD PUSH1 0xE5 SHL DUP2 MSTORE PUSH1 0x4 ADD PUSH2 0x548 SWAP1 PUSH2 0x12DA JUMP JUMPDEST PUSH1 0x40 MLOAD DUP2 DUP2 MSTORE CALLER SWAP1 DUP5 SWAP1 PUSH32 0xAFE87099D21CD68765CCB431A535CA7A632AC9F66E04E99C9574FB5DDFDEFCA7 SWAP1 PUSH1 0x20 ADD PUSH1 0x40 MLOAD DUP1 SWAP2 SUB SWAP1 LOG3 POP POP PUSH2 0x6F4 PUSH1 0x1 DUP1 SSTORE JUMP JUMPDEST POP JUMP JUMPDEST PUSH1 0x4 PUSH1 0x20 MSTORE DUP2 PUSH1 0x0 MSTORE PUSH1 0x40 PUSH1 0x0 KECCAK256 DUP2 DUP2 SLOAD DUP2 LT PUSH2 0x713 JUMPI PUSH1 0x0 DUP1 REVERT JUMPDEST SWAP1 PUSH1 0x0 MSTORE PUSH1 0x20 PUSH1 0x0 KECCAK256 ADD PUSH1 0x0 SWAP2 POP SWAP2 POP POP SLOAD DUP2 JUMP JUMPDEST PUSH1 0x0 SWAP2 DUP3 MSTORE PUSH1 0x20 DUP3 DUP2 MSTORE PUSH1 0x40 DUP1 DUP5 KECCAK256 PUSH1 0x1 PUSH1 0x1 PUSH1 0xA0 SHL SUB SWAP4 SWAP1 SWAP4 AND DUP5 MSTORE SWAP2 SWAP1 MSTORE SWAP1 KECCAK256 SLOAD PUSH1 0xFF AND SWAP1 JUMP JUMPDEST PUSH2 0x759 PUSH2 0xFD2 JUMP JUMPDEST PUSH1 0x0 DUP2 DUP2 MSTORE PUSH1 0x3 PUSH1 0x20 MSTORE PUSH1 0x40 SWAP1 KECCAK256 PUSH1 0x1 DUP2 ADD SLOAD PUSH3 0x10000 SWAP1 DIV PUSH1 0xFF AND PUSH2 0x791 JUMPI PUSH1 0x40 MLOAD PUSH3 0x461BCD PUSH1 0xE5 SHL DUP2 MSTORE PUSH1 0x4 ADD PUSH2 0x548 SWAP1 PUSH2 0x128B JUMP JUMPDEST PUSH1 0x1 DUP2 ADD SLOAD PUSH4 0x1000000 SWAP1 DIV PUSH1 0x1 PUSH1 0x1 PUSH1 0xA0 SHL SUB AND CALLER EQ PUSH2 0x7E9 JUMPI PUSH1 0x40 MLOAD PUSH3 0x461BCD PUSH1 0xE5 SHL DUP2 MSTORE PUSH1 0x20 PUSH1 0x4 DUP3 ADD MSTORE PUSH1 0x12 PUSH1 0x24 DUP3 ADD MSTORE PUSH18 0x2737BA103837B9B4BA34B7B71037BBB732B9 PUSH1 0x71 SHL PUSH1 0x44 DUP3 ADD MSTORE PUSH1 0x64 ADD PUSH2 0x548 JUMP JUMPDEST DUP1 SLOAD PUSH2 0x813 SWAP1 PUSH1 0x1 PUSH1 0xC0 SHL DUP2 DIV PUSH4 0xFFFFFFFF AND SWAP1 PUSH1 0x1 PUSH1 0x80 SHL SWAP1 DIV PUSH8 0xFFFFFFFFFFFFFFFF AND PUSH2 0x1319 JUMP JUMPDEST PUSH8 0xFFFFFFFFFFFFFFFF AND TIMESTAMP LT ISZERO PUSH2 0x862 JUMPI PUSH1 0x40 MLOAD PUSH3 0x461BCD PUSH1 0xE5 SHL DUP2 MSTORE PUSH1 0x20 PUSH1 0x4 DUP3 ADD MSTORE PUSH1 0x13 PUSH1 0x24 DUP3 ADD MSTORE PUSH19 0x506F736974696F6E206E6F74206D6174757265 PUSH1 0x68 SHL PUSH1 0x44 DUP3 ADD MSTORE PUSH1 0x64 ADD PUSH2 0x548 JUMP JUMPDEST DUP1 SLOAD PUSH1 0x1 PUSH1 0x1 PUSH1 0x80 SHL SUB AND PUSH1 0x0 PUSH2 0x878 DUP5 PUSH2 0xE14 JUMP JUMPDEST PUSH1 0x1 DUP5 ADD DUP1 SLOAD PUSH3 0xFF0000 NOT AND SWAP1 SSTORE SWAP1 POP PUSH2 0x891 DUP5 PUSH2 0xFFC JUMP JUMPDEST PUSH1 0x1 PUSH1 0x1 PUSH1 0xA0 SHL SUB PUSH32 0x0 AND PUSH4 0xA9059CBB CALLER PUSH2 0x8CB DUP5 DUP7 PUSH2 0x1339 JUMP JUMPDEST PUSH1 0x40 MLOAD PUSH1 0x1 PUSH1 0x1 PUSH1 0xE0 SHL SUB NOT PUSH1 0xE0 DUP6 SWAP1 SHL AND DUP2 MSTORE PUSH1 0x1 PUSH1 0x1 PUSH1 0xA0 SHL SUB SWAP1 SWAP3 AND PUSH1 0x4 DUP4 ADD MSTORE PUSH1 0x24 DUP3 ADD MSTORE PUSH1 0x44 ADD PUSH1 0x20 PUSH1 0x40 MLOAD DUP1 DUP4 SUB DUP2 PUSH1 0x0 DUP8 GAS CALL ISZERO DUP1 ISZERO PUSH2 0x916 JUMPI RETURNDATASIZE PUSH1 0x0 DUP1 RETURNDATACOPY RETURNDATASIZE PUSH1 0x0 REVERT JUMPDEST POP POP POP POP PUSH1 0x40 MLOAD RETURNDATASIZE PUSH1 0x1F NOT PUSH1 0x1F DUP3 ADD AND DUP3 ADD DUP1 PUSH1 0x40 MSTORE POP DUP2 ADD SWAP1 PUSH2 0x93A SWAP2 SWAP1 PUSH2 0x12B8 JUMP JUMPDEST PUSH2 0x956 JUMPI PUSH1 0x40 MLOAD PUSH3 0x461BCD PUSH1 0xE5 SHL DUP2 MSTORE PUSH1 0x4 ADD PUSH2 0x548 SWAP1 PUSH2 0x12DA JUMP JUMPDEST PUSH1 0x40 DUP1 MLOAD DUP4 DUP2 MSTORE PUSH1 0x20 DUP2 ADD DUP4 SWAP1 MSTORE CALLER SWAP2 DUP7 SWAP2 PUSH32 0x3120C845C5D2C39308641201562A412527C1E7AFF294F09C0C936F1C60A1B067 SWAP2 ADD PUSH1 0x40 MLOAD DUP1 SWAP2 SUB SWAP1 LOG3 POP POP POP PUSH2 0x6F4 PUSH1 0x1 DUP1 SSTORE JUMP JUMPDEST PUSH2 0x9A7 PUSH2 0xFD2 JUMP JUMPDEST PUSH1 0x0 DUP3 GT PUSH2 0x9E5 JUMPI PUSH1 0x40 MLOAD PUSH3 0x461BCD PUSH1 0xE5 SHL DUP2 MSTORE PUSH1 0x20 PUSH1 0x4 DUP3 ADD MSTORE PUSH1 0xB PUSH1 0x24 DUP3 ADD MSTORE PUSH11 0x16995C9BC8185B5BDD5B9D PUSH1 0xAA SHL PUSH1 0x44 DUP3 ADD MSTORE PUSH1 0x64 ADD PUSH2 0x548 JUMP JUMPDEST PUSH3 0xED4E00 DUP2 LT ISZERO PUSH2 0xA2D JUMPI PUSH1 0x40 MLOAD PUSH3 0x461BCD PUSH1 0xE5 SHL DUP2 MSTORE PUSH1 0x20 PUSH1 0x4 DUP3 ADD MSTORE PUSH1 0x12 PUSH1 0x24 DUP3 ADD MSTORE PUSH18 0x111D5C985D1A5BDB881D1BDBC81CDA1BDC9D PUSH1 0x72 SHL PUSH1 0x44 DUP3 ADD MSTORE PUSH1 0x64 ADD PUSH2 0x548 JUMP JUMPDEST PUSH4 0x12CC0300 DUP2 GT ISZERO PUSH2 0xA75 JUMPI PUSH1 0x40 MLOAD PUSH3 0x461BCD PUSH1 0xE5 SHL DUP2 MSTORE PUSH1 0x20 PUSH1 0x4 DUP3 ADD MSTORE PUSH1 0x11 PUSH1 0x24 DUP3 ADD MSTORE PUSH17 0x4475726174696F6E20746F6F206C6F6E67 PUSH1 0x78 SHL PUSH1 0x44 DUP3 ADD MSTORE PUSH1 0x64 ADD PUSH2 0x548 JUMP JUMPDEST CALLER PUSH1 0x0 SWAP1 DUP2 MSTORE PUSH1 0x4 PUSH1 0x20 MSTORE PUSH1 0x40 SWAP1 KECCAK256 SLOAD PUSH1 0xA GT PUSH2 0xAC9 JUMPI PUSH1 0x40 MLOAD PUSH3 0x461BCD PUSH1 0xE5 SHL DUP2 MSTORE PUSH1 0x20 PUSH1 0x4 DUP3 ADD MSTORE PUSH1 0x12 PUSH1 0x24 DUP3 ADD MSTORE PUSH18 0x546F6F206D616E7920706F736974696F6E73 PUSH1 0x70 SHL PUSH1 0x44 DUP3 ADD MSTORE PUSH1 0x64 ADD PUSH2 0x548 JUMP JUMPDEST PUSH1 0x1 PUSH1 0x1 PUSH1 0x80 SHL SUB DUP3 GT ISZERO PUSH2 0xB13 JUMPI PUSH1 0x40 MLOAD PUSH3 0x461BCD PUSH1 0xE5 SHL DUP2 MSTORE PUSH1 0x20 PUSH1 0x4 DUP3 ADD MSTORE PUSH1 0x10 PUSH1 0x24 DUP3 ADD MSTORE PUSH16 0x416D6F756E7420746F6F206C61726765 PUSH1 0x80 SHL PUSH1 0x44 DUP3 ADD MSTORE PUSH1 0x64 ADD PUSH2 0x548 JUMP JUMPDEST PUSH1 0x2 DUP1 SLOAD PUSH1 0x0 SWAP2 DUP3 PUSH2 0xB24 DUP4 PUSH2 0x134C JUMP JUMPDEST SWAP1 SWAP2 SSTORE POP SWAP1 POP TIMESTAMP PUSH1 0x0 PUSH4 0x4B25800 DUP5 LT PUSH2 0xB40 JUMPI POP PUSH1 0x3 PUSH2 0xB6A JUMP JUMPDEST PUSH4 0x2D12480 DUP5 LT PUSH2 0xB53 JUMPI POP PUSH1 0x2 PUSH2 0xB6A JUMP JUMPDEST PUSH4 0x1E13380 DUP5 LT PUSH2 0xB66 JUMPI POP PUSH1 0x1 PUSH2 0xB6A JUMP JUMPDEST POP PUSH1 0x0 JUMPDEST PUSH1 0x40 MLOAD DUP1 PUSH2 0x100 ADD PUSH1 0x40 MSTORE DUP1 DUP7 PUSH1 0x1 PUSH1 0x1 PUSH1 0x80 SHL SUB AND DUP2 MSTORE PUSH1 0x20 ADD DUP4 PUSH8 0xFFFFFFFFFFFFFFFF AND DUP2 MSTORE PUSH1 0x20 ADD DUP6 PUSH4 0xFFFFFFFF AND DUP2 MSTORE PUSH1 0x20 ADD PUSH2 0xBB5 PUSH1 0x1 DUP6 PUSH2 0x10F2 SWAP1 SWAP2 SWAP1 PUSH4 0xFFFFFFFF AND JUMP JUMPDEST PUSH4 0xFFFFFFFF SWAP1 DUP2 AND DUP3 MSTORE PUSH1 0xFF DUP1 DUP6 AND PUSH1 0x20 DUP1 DUP6 ADD SWAP2 SWAP1 SWAP2 MSTORE PUSH1 0x0 PUSH1 0x40 DUP1 DUP7 ADD DUP3 SWAP1 MSTORE PUSH1 0x1 PUSH1 0x60 DUP1 DUP9 ADD DUP3 SWAP1 MSTORE CALLER PUSH1 0x80 SWAP9 DUP10 ADD DUP2 SWAP1 MSTORE DUP13 DUP6 MSTORE PUSH1 0x3 DUP7 MSTORE DUP4 DUP6 KECCAK256 DUP11 MLOAD DUP2 SLOAD DUP13 DUP10 ADD MLOAD DUP14 DUP9 ADD MLOAD SWAP6 DUP15 ADD MLOAD DUP13 AND PUSH1 0x1 PUSH1 0xE0 SHL MUL PUSH1 0x1 PUSH1 0x1 PUSH1 0xE0 SHL SUB SWAP7 SWAP1 SWAP13 AND PUSH1 0x1 PUSH1 0xC0 SHL MUL SWAP6 SWAP1 SWAP6 AND PUSH1 0x1 PUSH1 0x1 PUSH1 0xC0 SHL SUB PUSH8 0xFFFFFFFFFFFFFFFF SWAP1 SWAP7 AND PUSH1 0x1 PUSH1 0x80 SHL MUL PUSH1 0x1 PUSH1 0x1 PUSH1 0xC0 SHL SUB NOT SWAP1 SWAP3 AND PUSH1 0x1 PUSH1 0x1 PUSH1 0x80 SHL SUB SWAP1 SWAP4 AND SWAP3 SWAP1 SWAP3 OR OR SWAP4 SWAP1 SWAP4 AND SWAP3 SWAP1 SWAP3 OR SWAP8 SWAP1 SWAP8 OR DUP2 SSTORE SWAP7 DUP9 ADD MLOAD SWAP7 DUP2 ADD DUP1 SLOAD PUSH1 0xA0 DUP11 ADD MLOAD PUSH1 0xC0 DUP12 ADD MLOAD PUSH1 0xE0 SWAP1 SWAP12 ADD MLOAD PUSH1 0x1 PUSH1 0x1 PUSH1 0xA0 SHL SUB AND PUSH4 0x1000000 MUL PUSH4 0x1000000 PUSH1 0x1 PUSH1 0xB8 SHL SUB NOT SWAP12 ISZERO ISZERO PUSH3 0x10000 MUL SWAP12 SWAP1 SWAP12 AND PUSH3 0x10000 PUSH1 0x1 PUSH1 0xB8 SHL SUB NOT SWAP2 DUP10 AND PUSH2 0x100 MUL PUSH2 0xFFFF NOT SWAP1 SWAP4 AND SWAP11 SWAP1 SWAP9 AND SWAP10 SWAP1 SWAP10 OR OR SWAP8 SWAP1 SWAP8 AND SWAP5 SWAP1 SWAP5 OR SWAP7 SWAP1 SWAP7 OR SWAP1 SWAP5 SSTORE DUP3 DUP5 MSTORE PUSH1 0x4 DUP2 MSTORE SWAP4 DUP4 KECCAK256 DUP1 SLOAD DUP1 DUP4 ADD DUP3 SSTORE DUP2 DUP6 MSTORE SWAP5 DUP5 KECCAK256 SWAP1 SWAP5 ADD DUP8 SWAP1 SSTORE SWAP2 MSTORE SWAP1 SLOAD PUSH2 0xD02 SWAP2 SWAP1 PUSH2 0x1365 JUMP JUMPDEST PUSH1 0x0 DUP5 DUP2 MSTORE PUSH1 0x5 PUSH1 0x20 MSTORE PUSH1 0x40 SWAP1 DUP2 SWAP1 KECCAK256 SWAP2 SWAP1 SWAP2 SSTORE MLOAD PUSH4 0x23B872DD PUSH1 0xE0 SHL DUP2 MSTORE CALLER PUSH1 0x4 DUP3 ADD MSTORE ADDRESS PUSH1 0x24 DUP3 ADD MSTORE PUSH1 0x44 DUP2 ADD DUP7 SWAP1 MSTORE PUSH32 0x0 PUSH1 0x1 PUSH1 0x1 PUSH1 0xA0 SHL SUB AND SWAP1 PUSH4 0x23B872DD SWAP1 PUSH1 0x64 ADD PUSH1 0x20 PUSH1 0x40 MLOAD DUP1 DUP4 SUB DUP2 PUSH1 0x0 DUP8 GAS CALL ISZERO DUP1 ISZERO PUSH2 0xD87 JUMPI RETURNDATASIZE PUSH1 0x0 DUP1 RETURNDATACOPY RETURNDATASIZE PUSH1 0x0 REVERT JUMPDEST POP POP POP POP PUSH1 0x40 MLOAD RETURNDATASIZE PUSH1 0x1F NOT PUSH1 0x1F DUP3 ADD AND DUP3 ADD DUP1 PUSH1 0x40 MSTORE POP DUP2 ADD SWAP1 PUSH2 0xDAB SWAP2 SWAP1 PUSH2 0x12B8 JUMP JUMPDEST PUSH2 0xDC7 JUMPI PUSH1 0x40 MLOAD PUSH3 0x461BCD PUSH1 0xE5 SHL DUP2 MSTORE PUSH1 0x4 ADD PUSH2 0x548 SWAP1 PUSH2 0x12DA JUMP JUMPDEST PUSH1 0x40 DUP1 MLOAD DUP7 DUP2 MSTORE PUSH1 0x20 DUP2 ADD DUP7 SWAP1 MSTORE CALLER SWAP2 DUP6 SWAP2 PUSH32 0xFB617C13A5B4B052EE893903DCA019AB1611DFEF1B20F7ACB7A5BFE008C10260 SWAP2 ADD PUSH1 0x40 MLOAD DUP1 SWAP2 SUB SWAP1 LOG3 POP POP POP PUSH2 0xE10 PUSH1 0x1 DUP1 SSTORE JUMP JUMPDEST POP POP JUMP JUMPDEST PUSH1 0x0 DUP2 DUP2 MSTORE PUSH1 0x3 PUSH1 0x20 MSTORE PUSH1 0x40 DUP2 KECCAK256 PUSH1 0x1 DUP2 ADD SLOAD PUSH3 0x10000 SWAP1 DIV PUSH1 0xFF AND PUSH2 0xE4C JUMPI PUSH1 0x40 MLOAD PUSH3 0x461BCD PUSH1 0xE5 SHL DUP2 MSTORE PUSH1 0x4 ADD PUSH2 0x548 SWAP1 PUSH2 0x128B JUMP JUMPDEST PUSH1 0x1 DUP2 ADD SLOAD DUP2 SLOAD PUSH1 0x0 SWAP2 PUSH1 0x64 SWAP2 PUSH2 0xE6F SWAP2 PUSH1 0xFF AND SWAP1 PUSH1 0x1 PUSH1 0x1 PUSH1 0x80 SHL SUB AND PUSH2 0x1378 JUMP JUMPDEST PUSH2 0xE79 SWAP2 SWAP1 PUSH2 0x13A1 JUMP JUMPDEST PUSH1 0x1 DUP4 ADD SLOAD PUSH1 0x1 PUSH1 0x1 PUSH1 0x80 SHL SUB SWAP2 SWAP1 SWAP2 AND SWAP2 POP PUSH2 0xE9E SWAP1 PUSH2 0x100 SWAP1 DIV PUSH1 0xFF AND DUP3 PUSH2 0x13DD JUMP JUMPDEST SWAP5 SWAP4 POP POP POP POP JUMP JUMPDEST PUSH1 0x0 DUP3 DUP2 MSTORE PUSH1 0x20 DUP2 SWAP1 MSTORE PUSH1 0x40 SWAP1 KECCAK256 PUSH1 0x1 ADD SLOAD PUSH2 0xEC1 DUP2 PUSH2 0xECB JUMP JUMPDEST PUSH2 0x4CA DUP4 DUP4 PUSH2 0xF67 JUMP JUMPDEST PUSH2 0x6F4 DUP2 CALLER PUSH2 0x111D JUMP JUMPDEST PUSH1 0x0 PUSH2 0xEE1 DUP4 DUP4 PUSH2 0x728 JUMP JUMPDEST PUSH2 0xF5F JUMPI PUSH1 0x0 DUP4 DUP2 MSTORE PUSH1 0x20 DUP2 DUP2 MSTORE PUSH1 0x40 DUP1 DUP4 KECCAK256 PUSH1 0x1 PUSH1 0x1 PUSH1 0xA0 SHL SUB DUP7 AND DUP5 MSTORE SWAP1 SWAP2 MSTORE SWAP1 KECCAK256 DUP1 SLOAD PUSH1 0xFF NOT AND PUSH1 0x1 OR SWAP1 SSTORE PUSH2 0xF17 CALLER SWAP1 JUMP JUMPDEST PUSH1 0x1 PUSH1 0x1 PUSH1 0xA0 SHL SUB AND DUP3 PUSH1 0x1 PUSH1 0x1 PUSH1 0xA0 SHL SUB AND DUP5 PUSH32 0x2F8788117E7EFF1D82E926EC794901D17C78024A50270940304540A733656F0D PUSH1 0x40 MLOAD PUSH1 0x40 MLOAD DUP1 SWAP2 SUB SWAP1 LOG4 POP PUSH1 0x1 PUSH2 0x433 JUMP JUMPDEST POP PUSH1 0x0 PUSH2 0x433 JUMP JUMPDEST PUSH1 0x0 PUSH2 0xF73 DUP4 DUP4 PUSH2 0x728 JUMP JUMPDEST ISZERO PUSH2 0xF5F JUMPI PUSH1 0x0 DUP4 DUP2 MSTORE PUSH1 0x20 DUP2 DUP2 MSTORE PUSH1 0x40 DUP1 DUP4 KECCAK256 PUSH1 0x1 PUSH1 0x1 PUSH1 0xA0 SHL SUB DUP7 AND DUP1 DUP6 MSTORE SWAP3 MSTORE DUP1 DUP4 KECCAK256 DUP1 SLOAD PUSH1 0xFF NOT AND SWAP1 SSTORE MLOAD CALLER SWAP3 DUP7 SWAP2 PUSH32 0xF6391F5C32D9C69D2A47EA670B442974B53935D1EDC7FD64EB21E047A839171B SWAP2 SWAP1 LOG4 POP PUSH1 0x1 PUSH2 0x433 JUMP JUMPDEST PUSH1 0x2 PUSH1 0x1 SLOAD SUB PUSH2 0xFF5 JUMPI PUSH1 0x40 MLOAD PUSH4 0x3EE5AEB5 PUSH1 0xE0 SHL DUP2 MSTORE PUSH1 0x4 ADD PUSH1 0x40 MLOAD DUP1 SWAP2 SUB SWAP1 REVERT JUMPDEST PUSH1 0x2 PUSH1 0x1 SSTORE JUMP JUMPDEST PUSH1 0x0 DUP2 DUP2 MSTORE PUSH1 0x3 PUSH1 0x20 SWAP1 DUP2 MSTORE PUSH1 0x40 DUP1 DUP4 KECCAK256 PUSH1 0x1 DUP1 DUP3 ADD SLOAD PUSH4 0x1000000 SWAP1 DIV PUSH1 0x1 PUSH1 0x1 PUSH1 0xA0 SHL SUB AND DUP6 MSTORE PUSH1 0x4 DUP5 MSTORE DUP3 DUP6 KECCAK256 DUP7 DUP7 MSTORE PUSH1 0x5 SWAP1 SWAP5 MSTORE SWAP2 SWAP1 SWAP4 KECCAK256 SLOAD DUP3 SLOAD SWAP1 SWAP2 PUSH2 0x1046 SWAP2 PUSH2 0x1365 JUMP JUMPDEST DUP2 EQ PUSH2 0x10AF JUMPI DUP2 SLOAD PUSH1 0x0 SWAP1 DUP4 SWAP1 PUSH2 0x105F SWAP1 PUSH1 0x1 SWAP1 PUSH2 0x1365 JUMP JUMPDEST DUP2 SLOAD DUP2 LT PUSH2 0x106F JUMPI PUSH2 0x106F PUSH2 0x13F4 JUMP JUMPDEST SWAP1 PUSH1 0x0 MSTORE PUSH1 0x20 PUSH1 0x0 KECCAK256 ADD SLOAD SWAP1 POP DUP1 DUP4 DUP4 DUP2 SLOAD DUP2 LT PUSH2 0x108F JUMPI PUSH2 0x108F PUSH2 0x13F4 JUMP JUMPDEST PUSH1 0x0 SWAP2 DUP3 MSTORE PUSH1 0x20 DUP1 DUP4 KECCAK256 SWAP1 SWAP2 ADD SWAP3 SWAP1 SWAP3 SSTORE SWAP2 DUP3 MSTORE PUSH1 0x5 SWAP1 MSTORE PUSH1 0x40 SWAP1 KECCAK256 DUP2 SWAP1 SSTORE JUMPDEST DUP2 DUP1 SLOAD DUP1 PUSH2 0x10BF JUMPI PUSH2 0x10BF PUSH2 0x140A JUMP JUMPDEST PUSH1 0x1 SWAP1 SUB DUP2 DUP2 SWAP1 PUSH1 0x0 MSTORE PUSH1 0x20 PUSH1 0x0 KECCAK256 ADD PUSH1 0x0 SWAP1 SSTORE SWAP1 SSTORE PUSH1 0x5 PUSH1 0x0 DUP6 DUP2 MSTORE PUSH1 0x20 ADD SWAP1 DUP2 MSTORE PUSH1 0x20 ADD PUSH1 0x0 KECCAK256 PUSH1 0x0 SWAP1 SSTORE POP POP POP POP JUMP JUMPDEST PUSH1 0x0 PUSH2 0x1102 PUSH3 0x15180 PUSH1 0x1E PUSH2 0x13DD JUMP JUMPDEST PUSH2 0x110C SWAP1 DUP4 PUSH2 0x13DD JUMP JUMPDEST PUSH2 0x1116 SWAP1 DUP5 PUSH2 0x1339 JUMP JUMPDEST SWAP4 SWAP3 POP POP POP JUMP JUMPDEST PUSH2 0x1127 DUP3 DUP3 PUSH2 0x728 JUMP JUMPDEST PUSH2 0xE10 JUMPI PUSH1 0x40 MLOAD PUSH4 0xE2517D3F PUSH1 0xE0 SHL DUP2 MSTORE PUSH1 0x1 PUSH1 0x1 PUSH1 0xA0 SHL SUB DUP3 AND PUSH1 0x4 DUP3 ADD MSTORE PUSH1 0x24 DUP2 ADD DUP4 SWAP1 MSTORE PUSH1 0x44 ADD PUSH2 0x548 JUMP JUMPDEST PUSH1 0x0 PUSH1 0x20 DUP3 DUP5 SUB SLT ISZERO PUSH2 0x1168 JUMPI PUSH1 0x0 DUP1 REVERT JUMPDEST DUP2 CALLDATALOAD PUSH1 0x1 PUSH1 0x1 PUSH1 0xE0 SHL SUB NOT DUP2 AND DUP2 EQ PUSH2 0x1116 JUMPI PUSH1 0x0 DUP1 REVERT JUMPDEST PUSH1 0x0 PUSH1 0x20 DUP3 DUP5 SUB SLT ISZERO PUSH2 0x1192 JUMPI PUSH1 0x0 DUP1 REVERT JUMPDEST POP CALLDATALOAD SWAP2 SWAP1 POP JUMP JUMPDEST DUP1 CALLDATALOAD PUSH1 0x1 PUSH1 0x1 PUSH1 0xA0 SHL SUB DUP2 AND DUP2 EQ PUSH2 0x11B0 JUMPI PUSH1 0x0 DUP1 REVERT JUMPDEST SWAP2 SWAP1 POP JUMP JUMPDEST PUSH1 0x0 PUSH1 0x20 DUP3 DUP5 SUB SLT ISZERO PUSH2 0x11C7 JUMPI PUSH1 0x0 DUP1 REVERT JUMPDEST PUSH2 0x1116 DUP3 PUSH2 0x1199 JUMP JUMPDEST PUSH1 0x20 DUP1 DUP3 MSTORE DUP3 MLOAD DUP3 DUP3 ADD DUP2 SWAP1 MSTORE PUSH1 0x0 SWAP2 DUP5 ADD SWAP1 PUSH1 0x40 DUP5 ADD SWAP1 DUP4 JUMPDEST DUP2 DUP2 LT ISZERO PUSH2 0x1208 JUMPI DUP4 MLOAD DUP4 MSTORE PUSH1 0x20 SWAP4 DUP5 ADD SWAP4 SWAP1 SWAP3 ADD SWAP2 PUSH1 0x1 ADD PUSH2 0x11EA JUMP JUMPDEST POP SWAP1 SWAP6 SWAP5 POP POP POP POP POP JUMP JUMPDEST PUSH1 0x0 DUP1 PUSH1 0x40 DUP4 DUP6 SUB SLT ISZERO PUSH2 0x1226 JUMPI PUSH1 0x0 DUP1 REVERT JUMPDEST DUP3 CALLDATALOAD SWAP2 POP PUSH2 0x1236 PUSH1 0x20 DUP5 ADD PUSH2 0x1199 JUMP JUMPDEST SWAP1 POP SWAP3 POP SWAP3 SWAP1 POP JUMP JUMPDEST PUSH1 0x0 DUP1 PUSH1 0x40 DUP4 DUP6 SUB SLT ISZERO PUSH2 0x1252 JUMPI PUSH1 0x0 DUP1 REVERT JUMPDEST PUSH2 0x125B DUP4 PUSH2 0x1199 JUMP JUMPDEST SWAP5 PUSH1 0x20 SWAP4 SWAP1 SWAP4 ADD CALLDATALOAD SWAP4 POP POP POP JUMP JUMPDEST PUSH1 0x0 DUP1 PUSH1 0x40 DUP4 DUP6 SUB SLT ISZERO PUSH2 0x127C JUMPI PUSH1 0x0 DUP1 REVERT JUMPDEST POP POP DUP1 CALLDATALOAD SWAP3 PUSH1 0x20 SWAP1 SWAP2 ADD CALLDATALOAD SWAP2 POP JUMP JUMPDEST PUSH1 0x20 DUP1 DUP3 MSTORE PUSH1 0x13 SWAP1 DUP3 ADD MSTORE PUSH19 0x506F736974696F6E206E6F7420616374697665 PUSH1 0x68 SHL PUSH1 0x40 DUP3 ADD MSTORE PUSH1 0x60 ADD SWAP1 JUMP JUMPDEST PUSH1 0x0 PUSH1 0x20 DUP3 DUP5 SUB SLT ISZERO PUSH2 0x12CA JUMPI PUSH1 0x0 DUP1 REVERT JUMPDEST DUP2 MLOAD DUP1 ISZERO ISZERO DUP2 EQ PUSH2 0x1116 JUMPI PUSH1 0x0 DUP1 REVERT JUMPDEST PUSH1 0x20 DUP1 DUP3 MSTORE PUSH1 0xF SWAP1 DUP3 ADD MSTORE PUSH15 0x151C985B9CD9995C8819985A5B1959 PUSH1 0x8A SHL PUSH1 0x40 DUP3 ADD MSTORE PUSH1 0x60 ADD SWAP1 JUMP JUMPDEST PUSH4 0x4E487B71 PUSH1 0xE0 SHL PUSH1 0x0 MSTORE PUSH1 0x11 PUSH1 0x4 MSTORE PUSH1 0x24 PUSH1 0x0 REVERT JUMPDEST PUSH8 0xFFFFFFFFFFFFFFFF DUP2 DUP2 AND DUP4 DUP3 AND ADD SWAP1 DUP2 GT ISZERO PUSH2 0x433 JUMPI PUSH2 0x433 PUSH2 0x1303 JUMP JUMPDEST DUP1 DUP3 ADD DUP1 DUP3 GT ISZERO PUSH2 0x433 JUMPI PUSH2 0x433 PUSH2 0x1303 JUMP JUMPDEST PUSH1 0x0 PUSH1 0x1 DUP3 ADD PUSH2 0x135E JUMPI PUSH2 0x135E PUSH2 0x1303 JUMP JUMPDEST POP PUSH1 0x1 ADD SWAP1 JUMP JUMPDEST DUP2 DUP2 SUB DUP2 DUP2 GT ISZERO PUSH2 0x433 JUMPI PUSH2 0x433 PUSH2 0x1303 JUMP JUMPDEST PUSH1 0x1 PUSH1 0x1 PUSH1 0x80 SHL SUB DUP2 DUP2 AND DUP4 DUP3 AND MUL SWAP1 DUP2 AND SWAP1 DUP2 DUP2 EQ PUSH2 0x139A JUMPI PUSH2 0x139A PUSH2 0x1303 JUMP JUMPDEST POP SWAP3 SWAP2 POP POP JUMP JUMPDEST PUSH1 0x0 PUSH1 0x1 PUSH1 0x1 PUSH1 0x80 SHL SUB DUP4 AND DUP1 PUSH2 0x13C8 JUMPI PUSH4 0x4E487B71 PUSH1 0xE0 SHL PUSH1 0x0 MSTORE PUSH1 0x12 PUSH1 0x4 MSTORE PUSH1 0x24 PUSH1 0x0 REVERT JUMPDEST DUP1 PUSH1 0x1 PUSH1 0x1 PUSH1 0x80 SHL SUB DUP5 AND DIV SWAP2 POP POP SWAP3 SWAP2 POP POP JUMP JUMPDEST DUP1 DUP3 MUL DUP2 ISZERO DUP3 DUP3 DIV DUP5 EQ OR PUSH2 0x433 JUMPI PUSH2 0x433 PUSH2 0x1303 JUMP JUMPDEST PUSH4 0x4E487B71 PUSH1 0xE0 SHL PUSH1 0x0 MSTORE PUSH1 0x32 PUSH1 0x4 MSTORE PUSH1 0x24 PUSH1 0x0 REVERT JUMPDEST PUSH4 0x4E487B71 PUSH1 0xE0 SHL PUSH1 0x0 MSTORE PUSH1 0x31 PUSH1 0x4 MSTORE PUSH1 0x24 PUSH1 0x0 REVERT INVALID LOG2 PUSH5 0x6970667358 0x22 SLT KECCAK256 0xE7 PUSH30 0x7863E6DCB6D0E1AE57E2C8C2ADD23B305B1247FE8C3682CAD7BD898956BF PUSH5 0x736F6C6343 STOP ADDMOD SHR STOP CALLER "},"methodIdentifiers":{"ADMIN_ROLE()":"75b238fc","DEFAULT_ADMIN_ROLE()":"a217fddf","MAX_POSITIONS_PER_WALLET()":"03d50b1f","MAX_STAKE_DURATION()":"aa902b4d","MIN_STAKE_DURATION()":"e0c570ba","REWARD_INTERVAL()":"5dbdda69","calculateRewards(uint256)":"d3ea4350","closePosition(uint256)":"a126d601","createPosition(uint256,uint256)":"d1aaef05","emergencyWithdraw(uint256)":"5312ea8e","getRoleAdmin(bytes32)":"248a9ca3","getUserPositions(address)":"2a6bc2dd","grantRole(bytes32,address)":"2f2ff15d","hasRole(bytes32,address)":"91d14854","positionIndexInUserArray(uint256)":"e89636d9","positions(uint256)":"99fbab88","renounceRole(bytes32,address)":"36568abe","revokeRole(bytes32,address)":"d547741f","stakingToken()":"72f702f3","supportsInterface(bytes4)":"01ffc9a7","userPositions(address,uint256)":"5e1b4d99"}}}}}