{"contracts/TierCalculator.sol":{"TierCalculator":{"abi":[{"inputs":[{"internalType":"uint256","name":"months","type":"uint256"},{"internalType":"uint256","name":"amount","type":"uint256"}],"name":"getTier","outputs":[{"internalType":"uint8","name":"","type":"uint8"}],"stateMutability":"pure","type":"function"}],"evm":{"bytecode":{"linkReferences":{},"object":"6080604052348015600f57600080fd5b506102878061001f6000396000f3fe608060405234801561001057600080fd5b506004361061002b5760003560e01c806351355cfb14610030575b600080fd5b61004361003e3660046101cd565b610059565b60405160ff909116815260200160405180910390f35b6000826003148061006a5750826006145b806100755750826009145b80610080575082600c145b6100c25760405162461bcd60e51b815260206004820152600e60248201526d496e76616c6964206d6f6e74687360901b60448201526064015b60405180910390fd5b683635c9adc5dea0000082101561010d5760405162461bcd60e51b815260206004820152600f60248201526e4d696e203130303020746f6b656e7360881b60448201526064016100b9565b60006104b061012485670de0b6b3a7640000610205565b61012f90603c610205565b610139919061021c565b905060006a04695ec5b7258ee4500000610154856028610205565b61015e919061021c565b9050600061016c828461023e565b90506703782dace9d90000811161018957600093505050506101c7565b6706f05b59d3b2000081116101a457600193505050506101c7565b670a688906bd8b000081116101bf57600293505050506101c7565b600393505050505b92915050565b600080604083850312156101e057600080fd5b50508035926020909101359150565b634e487b7160e01b600052601160045260246000fd5b80820281158282048414176101c7576101c76101ef565b60008261023957634e487b7160e01b600052601260045260246000fd5b500490565b808201808211156101c7576101c76101ef56fea264697066735822122013637c8026a7f00220a909d39ff0e7fe5683fb4fde781187556cf97bd522873064736f6c634300081c0033","opcodes":"PUSH1 0x80 PUSH1 0x40 MSTORE CALLVALUE DUP1 ISZERO PUSH1 0xF JUMPI PUSH1 0x0 DUP1 REVERT JUMPDEST POP PUSH2 0x287 DUP1 PUSH2 0x1F PUSH1 0x0 CODECOPY PUSH1 0x0 RETURN INVALID PUSH1 0x80 PUSH1 0x40 MSTORE CALLVALUE DUP1 ISZERO PUSH2 0x10 JUMPI PUSH1 0x0 DUP1 REVERT JUMPDEST POP PUSH1 0x4 CALLDATASIZE LT PUSH2 0x2B JUMPI PUSH1 0x0 CALLDATALOAD PUSH1 0xE0 SHR DUP1 PUSH4 0x51355CFB EQ PUSH2 0x30 JUMPI JUMPDEST PUSH1 0x0 DUP1 REVERT JUMPDEST PUSH2 0x43 PUSH2 0x3E CALLDATASIZE PUSH1 0x4 PUSH2 0x1CD JUMP JUMPDEST PUSH2 0x59 JUMP JUMPDEST PUSH1 0x40 MLOAD PUSH1 0xFF SWAP1 SWAP2 AND DUP2 MSTORE PUSH1 0x20 ADD PUSH1 0x40 MLOAD DUP1 SWAP2 SUB SWAP1 RETURN JUMPDEST PUSH1 0x0 DUP3 PUSH1 0x3 EQ DUP1 PUSH2 0x6A JUMPI POP DUP3 PUSH1 0x6 EQ JUMPDEST DUP1 PUSH2 0x75 JUMPI POP DUP3 PUSH1 0x9 EQ JUMPDEST DUP1 PUSH2 0x80 JUMPI POP DUP3 PUSH1 0xC EQ JUMPDEST PUSH2 0xC2 JUMPI PUSH1 0x40 MLOAD PUSH3 0x461BCD PUSH1 0xE5 SHL DUP2 MSTORE PUSH1 0x20 PUSH1 0x4 DUP3 ADD MSTORE PUSH1 0xE PUSH1 0x24 DUP3 ADD MSTORE PUSH14 0x496E76616C6964206D6F6E746873 PUSH1 0x90 SHL PUSH1 0x44 DUP3 ADD MSTORE PUSH1 0x64 ADD JUMPDEST PUSH1 0x40 MLOAD DUP1 SWAP2 SUB SWAP1 REVERT JUMPDEST PUSH9 0x3635C9ADC5DEA00000 DUP3 LT ISZERO PUSH2 0x10D JUMPI PUSH1 0x40 MLOAD PUSH3 0x461BCD PUSH1 0xE5 SHL DUP2 MSTORE PUSH1 0x20 PUSH1 0x4 DUP3 ADD MSTORE PUSH1 0xF PUSH1 0x24 DUP3 ADD MSTORE PUSH15 0x4D696E203130303020746F6B656E73 PUSH1 0x88 SHL PUSH1 0x44 DUP3 ADD MSTORE PUSH1 0x64 ADD PUSH2 0xB9 JUMP JUMPDEST PUSH1 0x0 PUSH2 0x4B0 PUSH2 0x124 DUP6 PUSH8 0xDE0B6B3A7640000 PUSH2 0x205 JUMP JUMPDEST PUSH2 0x12F SWAP1 PUSH1 0x3C PUSH2 0x205 JUMP JUMPDEST PUSH2 0x139 SWAP2 SWAP1 PUSH2 0x21C JUMP JUMPDEST SWAP1 POP PUSH1 0x0 PUSH11 0x4695EC5B7258EE4500000 PUSH2 0x154 DUP6 PUSH1 0x28 PUSH2 0x205 JUMP JUMPDEST PUSH2 0x15E SWAP2 SWAP1 PUSH2 0x21C JUMP JUMPDEST SWAP1 POP PUSH1 0x0 PUSH2 0x16C DUP3 DUP5 PUSH2 0x23E JUMP JUMPDEST SWAP1 POP PUSH8 0x3782DACE9D90000 DUP2 GT PUSH2 0x189 JUMPI PUSH1 0x0 SWAP4 POP POP POP POP PUSH2 0x1C7 JUMP JUMPDEST PUSH8 0x6F05B59D3B20000 DUP2 GT PUSH2 0x1A4 JUMPI PUSH1 0x1 SWAP4 POP POP POP POP PUSH2 0x1C7 JUMP JUMPDEST PUSH8 0xA688906BD8B0000 DUP2 GT PUSH2 0x1BF JUMPI PUSH1 0x2 SWAP4 POP POP POP POP PUSH2 0x1C7 JUMP JUMPDEST PUSH1 0x3 SWAP4 POP POP POP POP JUMPDEST SWAP3 SWAP2 POP POP JUMP JUMPDEST PUSH1 0x0 DUP1 PUSH1 0x40 DUP4 DUP6 SUB SLT ISZERO PUSH2 0x1E0 JUMPI PUSH1 0x0 DUP1 REVERT JUMPDEST POP POP DUP1 CALLDATALOAD SWAP3 PUSH1 0x20 SWAP1 SWAP2 ADD CALLDATALOAD SWAP2 POP JUMP JUMPDEST PUSH4 0x4E487B71 PUSH1 0xE0 SHL PUSH1 0x0 MSTORE PUSH1 0x11 PUSH1 0x4 MSTORE PUSH1 0x24 PUSH1 0x0 REVERT JUMPDEST DUP1 DUP3 MUL DUP2 ISZERO DUP3 DUP3 DIV DUP5 EQ OR PUSH2 0x1C7 JUMPI PUSH2 0x1C7 PUSH2 0x1EF JUMP JUMPDEST PUSH1 0x0 DUP3 PUSH2 0x239 JUMPI PUSH4 0x4E487B71 PUSH1 0xE0 SHL PUSH1 0x0 MSTORE PUSH1 0x12 PUSH1 0x4 MSTORE PUSH1 0x24 PUSH1 0x0 REVERT JUMPDEST POP DIV SWAP1 JUMP JUMPDEST DUP1 DUP3 ADD DUP1 DUP3 GT ISZERO PUSH2 0x1C7 JUMPI PUSH2 0x1C7 PUSH2 0x1EF JUMP INVALID LOG2 PUSH5 0x6970667358 0x22 SLT KECCAK256 SGT PUSH4 0x7C8026A7 CREATE MUL KECCAK256 0xA9 MULMOD 0xD3 SWAP16 CREATE 0xE7 INVALID JUMP DUP4 0xFB 0x4F 0xDE PUSH25 0x1187556CF97BD522873064736F6C634300081C003300000000 "},"methodIdentifiers":{"getTier(uint256,uint256)":"51355cfb"}}}}}