{
  "_format": "hh-sol-artifact-1",
  "contractName": "TierCalculator",
  "sourceName": "contracts/TierCalculator.sol",
  "abi": [
    {
      "inputs": [
        {
          "internalType": "uint256",
          "name": "months",
          "type": "uint256"
        },
        {
          "internalType": "uint256",
          "name": "amount",
          "type": "uint256"
        }
      ],
      "name": "getTier",
      "outputs": [
        {
          "internalType": "uint8",
          "name": "",
          "type": "uint8"
        }
      ],
      "stateMutability": "pure",
      "type": "function"
    }
  ],
  "bytecode": "0x6080604052348015600f57600080fd5b506102878061001f6000396000f3fe608060405234801561001057600080fd5b506004361061002b5760003560e01c806351355cfb14610030575b600080fd5b61004361003e3660046101cd565b610059565b60405160ff909116815260200160405180910390f35b6000826003148061006a5750826006145b806100755750826009145b80610080575082600c145b6100c25760405162461bcd60e51b815260206004820152600e60248201526d496e76616c6964206d6f6e74687360901b60448201526064015b60405180910390fd5b683635c9adc5dea0000082101561010d5760405162461bcd60e51b815260206004820152600f60248201526e4d696e203130303020746f6b656e7360881b60448201526064016100b9565b60006104b061012485670de0b6b3a7640000610205565b61012f90603c610205565b610139919061021c565b905060006a04695ec5b7258ee4500000610154856028610205565b61015e919061021c565b9050600061016c828461023e565b90506703782dace9d90000811161018957600093505050506101c7565b6706f05b59d3b2000081116101a457600193505050506101c7565b670a688906bd8b000081116101bf57600293505050506101c7565b600393505050505b92915050565b600080604083850312156101e057600080fd5b50508035926020909101359150565b634e487b7160e01b600052601160045260246000fd5b80820281158282048414176101c7576101c76101ef565b60008261023957634e487b7160e01b600052601260045260246000fd5b500490565b808201808211156101c7576101c76101ef56fea264697066735822122013637c8026a7f00220a909d39ff0e7fe5683fb4fde781187556cf97bd522873064736f6c634300081c0033",
  "linkReferences": {},
  "deployedLinkReferences": {}
}