{
  "_format": "hh-sol-artifact-1",
  "contractName": "TierCalculator",
  "sourceName": "contracts/TierCalculator.sol",
  "abi": [
    {
      "inputs": [
        {
          "internalType": "uint256",
          "name": "duration",
          "type": "uint256"
        }
      ],
      "name": "getTier",
      "outputs": [
        {
          "internalType": "uint8",
          "name": "",
          "type": "uint8"
        }
      ],
      "stateMutability": "pure",
      "type": "function"
    }
  ],
  "bytecode": "0x6080604052348015600f57600080fd5b506101258061001f6000396000f3fe6080604052348015600f57600080fd5b506004361060285760003560e01c80634f062c5a14602d575b600080fd5b603c603836600460d7565b6052565b60405160ff909116815260200160405180910390f35b60006304b25800821060675760035b92915050565b6302d12480821060775760026061565b6301e13380821060875760016061565b62ed4e00821060965760006061565b60405162461bcd60e51b8152602060048201526012602482015271111d5c985d1a5bdb881d1bdbc81cda1bdc9d60721b604482015260640160405180910390fd5b60006020828403121560e857600080fd5b503591905056fea2646970667358221220afd793c82649fe019b527bcc068b6218a727bc8cb6a431a9b141c12b038eb9ce64736f6c634300081c0033",
  "linkReferences": {},
  "deployedLinkReferences": {}
}