{
  "_format": "hh-sol-artifact-1",
  "contractName": "PADNFTFactory",
  "sourceName": "contracts/PADNFTFactory.sol",
  "abi": [
    {
      "inputs": [
        {
          "internalType": "address",
          "name": "_stakeManager",
          "type": "address"
        },
        {
          "internalType": "address",
          "name": "_tierCalculator",
          "type": "address"
        }
      ],
      "stateMutability": "nonpayable",
      "type": "constructor"
    },
    {
      "inputs": [],
      "name": "AccessControlBadConfirmation",
      "type": "error"
    },
    {
      "inputs": [
        {
          "internalType": "address",
          "name": "account",
          "type": "address"
        },
        {
          "internalType": "bytes32",
          "name": "neededRole",
          "type": "bytes32"
        }
      ],
      "name": "AccessControlUnauthorizedAccount",
      "type": "error"
    },
    {
      "inputs": [],
      "name": "ApprovalCallerNotOwnerNorApproved",
      "type": "error"
    },
    {
      "inputs": [],
      "name": "ApprovalQueryForNonexistentToken",
      "type": "error"
    },
    {
      "inputs": [],
      "name": "BalanceQueryForZeroAddress",
      "type": "error"
    },
    {
      "inputs": [],
      "name": "MintERC2309QuantityExceedsLimit",
      "type": "error"
    },
    {
      "inputs": [],
      "name": "MintToZeroAddress",
      "type": "error"
    },
    {
      "inputs": [],
      "name": "MintZeroQuantity",
      "type": "error"
    },
    {
      "inputs": [],
      "name": "NotCompatibleWithSpotMints",
      "type": "error"
    },
    {
      "inputs": [],
      "name": "OwnerQueryForNonexistentToken",
      "type": "error"
    },
    {
      "inputs": [],
      "name": "OwnershipNotInitializedForExtraData",
      "type": "error"
    },
    {
      "inputs": [],
      "name": "SequentialMintExceedsLimit",
      "type": "error"
    },
    {
      "inputs": [],
      "name": "SequentialUpToTooSmall",
      "type": "error"
    },
    {
      "inputs": [],
      "name": "SpotMintTokenIdTooSmall",
      "type": "error"
    },
    {
      "inputs": [],
      "name": "TokenAlreadyExists",
      "type": "error"
    },
    {
      "inputs": [],
      "name": "TransferCallerNotOwnerNorApproved",
      "type": "error"
    },
    {
      "inputs": [],
      "name": "TransferFromIncorrectOwner",
      "type": "error"
    },
    {
      "inputs": [],
      "name": "TransferToNonERC721ReceiverImplementer",
      "type": "error"
    },
    {
      "inputs": [],
      "name": "TransferToZeroAddress",
      "type": "error"
    },
    {
      "inputs": [],
      "name": "URIQueryForNonexistentToken",
      "type": "error"
    },
    {
      "anonymous": false,
      "inputs": [
        {
          "indexed": true,
          "internalType": "address",
          "name": "owner",
          "type": "address"
        },
        {
          "indexed": true,
          "internalType": "address",
          "name": "approved",
          "type": "address"
        },
        {
          "indexed": true,
          "internalType": "uint256",
          "name": "tokenId",
          "type": "uint256"
        }
      ],
      "name": "Approval",
      "type": "event"
    },
    {
      "anonymous": false,
      "inputs": [
        {
          "indexed": true,
          "internalType": "address",
          "name": "owner",
          "type": "address"
        },
        {
          "indexed": true,
          "internalType": "address",
          "name": "operator",
          "type": "address"
        },
        {
          "indexed": false,
          "internalType": "bool",
          "name": "approved",
          "type": "bool"
        }
      ],
      "name": "ApprovalForAll",
      "type": "event"
    },
    {
      "anonymous": false,
      "inputs": [
        {
          "indexed": false,
          "internalType": "string",
          "name": "newBaseURI",
          "type": "string"
        }
      ],
      "name": "BaseURISet",
      "type": "event"
    },
    {
      "anonymous": false,
      "inputs": [
        {
          "indexed": true,
          "internalType": "uint256",
          "name": "fromTokenId",
          "type": "uint256"
        },
        {
          "indexed": false,
          "internalType": "uint256",
          "name": "toTokenId",
          "type": "uint256"
        },
        {
          "indexed": true,
          "internalType": "address",
          "name": "from",
          "type": "address"
        },
        {
          "indexed": true,
          "internalType": "address",
          "name": "to",
          "type": "address"
        }
      ],
      "name": "ConsecutiveTransfer",
      "type": "event"
    },
    {
      "anonymous": false,
      "inputs": [
        {
          "indexed": true,
          "internalType": "address",
          "name": "to",
          "type": "address"
        },
        {
          "indexed": true,
          "internalType": "uint256",
          "name": "tokenId",
          "type": "uint256"
        },
        {
          "components": [
            {
              "internalType": "uint256",
              "name": "positionId",
              "type": "uint256"
            },
            {
              "internalType": "uint256",
              "name": "amountStaked",
              "type": "uint256"
            },
            {
              "internalType": "uint256",
              "name": "lockDurationHours",
              "type": "uint256"
            },
            {
              "internalType": "uint256",
              "name": "startTimestamp",
              "type": "uint256"
            },
            {
              "internalType": "uint8",
              "name": "tierLevel",
              "type": "uint8"
            },
            {
              "internalType": "uint256",
              "name": "hourIndex",
              "type": "uint256"
            },
            {
              "internalType": "uint256",
              "name": "nextMintOn",
              "type": "uint256"
            },
            {
              "internalType": "bool",
              "name": "isInitialStakingNFT",
              "type": "bool"
            }
          ],
          "indexed": false,
          "internalType": "struct PADNFTFactory.NFTMetadata",
          "name": "meta",
          "type": "tuple"
        }
      ],
      "name": "NFTMinted",
      "type": "event"
    },
    {
      "anonymous": false,
      "inputs": [
        {
          "indexed": true,
          "internalType": "bytes32",
          "name": "role",
          "type": "bytes32"
        },
        {
          "indexed": true,
          "internalType": "bytes32",
          "name": "previousAdminRole",
          "type": "bytes32"
        },
        {
          "indexed": true,
          "internalType": "bytes32",
          "name": "newAdminRole",
          "type": "bytes32"
        }
      ],
      "name": "RoleAdminChanged",
      "type": "event"
    },
    {
      "anonymous": false,
      "inputs": [
        {
          "indexed": true,
          "internalType": "bytes32",
          "name": "role",
          "type": "bytes32"
        },
        {
          "indexed": true,
          "internalType": "address",
          "name": "account",
          "type": "address"
        },
        {
          "indexed": true,
          "internalType": "address",
          "name": "sender",
          "type": "address"
        }
      ],
      "name": "RoleGranted",
      "type": "event"
    },
    {
      "anonymous": false,
      "inputs": [
        {
          "indexed": true,
          "internalType": "bytes32",
          "name": "role",
          "type": "bytes32"
        },
        {
          "indexed": true,
          "internalType": "address",
          "name": "account",
          "type": "address"
        },
        {
          "indexed": true,
          "internalType": "address",
          "name": "sender",
          "type": "address"
        }
      ],
      "name": "RoleRevoked",
      "type": "event"
    },
    {
      "anonymous": false,
      "inputs": [
        {
          "indexed": true,
          "internalType": "address",
          "name": "from",
          "type": "address"
        },
        {
          "indexed": true,
          "internalType": "address",
          "name": "to",
          "type": "address"
        },
        {
          "indexed": true,
          "internalType": "uint256",
          "name": "tokenId",
          "type": "uint256"
        }
      ],
      "name": "Transfer",
      "type": "event"
    },
    {
      "inputs": [],
      "name": "DEFAULT_ADMIN_ROLE",
      "outputs": [
        {
          "internalType": "bytes32",
          "name": "",
          "type": "bytes32"
        }
      ],
      "stateMutability": "view",
      "type": "function"
    },
    {
      "inputs": [],
      "name": "MINTER_ROLE",
      "outputs": [
        {
          "internalType": "bytes32",
          "name": "",
          "type": "bytes32"
        }
      ],
      "stateMutability": "view",
      "type": "function"
    },
    {
      "inputs": [],
      "name": "URI_SETTER_ROLE",
      "outputs": [
        {
          "internalType": "bytes32",
          "name": "",
          "type": "bytes32"
        }
      ],
      "stateMutability": "view",
      "type": "function"
    },
    {
      "inputs": [
        {
          "internalType": "address",
          "name": "to",
          "type": "address"
        },
        {
          "internalType": "uint256",
          "name": "tokenId",
          "type": "uint256"
        }
      ],
      "name": "approve",
      "outputs": [],
      "stateMutability": "payable",
      "type": "function"
    },
    {
      "inputs": [
        {
          "internalType": "address",
          "name": "owner",
          "type": "address"
        }
      ],
      "name": "balanceOf",
      "outputs": [
        {
          "internalType": "uint256",
          "name": "",
          "type": "uint256"
        }
      ],
      "stateMutability": "view",
      "type": "function"
    },
    {
      "inputs": [
        {
          "internalType": "uint256",
          "name": "tokenId",
          "type": "uint256"
        }
      ],
      "name": "getApproved",
      "outputs": [
        {
          "internalType": "address",
          "name": "",
          "type": "address"
        }
      ],
      "stateMutability": "view",
      "type": "function"
    },
    {
      "inputs": [
        {
          "internalType": "bytes32",
          "name": "role",
          "type": "bytes32"
        }
      ],
      "name": "getRoleAdmin",
      "outputs": [
        {
          "internalType": "bytes32",
          "name": "",
          "type": "bytes32"
        }
      ],
      "stateMutability": "view",
      "type": "function"
    },
    {
      "inputs": [
        {
          "internalType": "bytes32",
          "name": "role",
          "type": "bytes32"
        },
        {
          "internalType": "address",
          "name": "account",
          "type": "address"
        }
      ],
      "name": "grantRole",
      "outputs": [],
      "stateMutability": "nonpayable",
      "type": "function"
    },
    {
      "inputs": [
        {
          "internalType": "bytes32",
          "name": "role",
          "type": "bytes32"
        },
        {
          "internalType": "address",
          "name": "account",
          "type": "address"
        }
      ],
      "name": "hasRole",
      "outputs": [
        {
          "internalType": "bool",
          "name": "",
          "type": "bool"
        }
      ],
      "stateMutability": "view",
      "type": "function"
    },
    {
      "inputs": [
        {
          "internalType": "address",
          "name": "owner",
          "type": "address"
        },
        {
          "internalType": "address",
          "name": "operator",
          "type": "address"
        }
      ],
      "name": "isApprovedForAll",
      "outputs": [
        {
          "internalType": "bool",
          "name": "",
          "type": "bool"
        }
      ],
      "stateMutability": "view",
      "type": "function"
    },
    {
      "inputs": [
        {
          "internalType": "address",
          "name": "to",
          "type": "address"
        },
        {
          "internalType": "uint256",
          "name": "positionId",
          "type": "uint256"
        },
        {
          "internalType": "uint256",
          "name": "amountStaked",
          "type": "uint256"
        },
        {
          "internalType": "uint256",
          "name": "lockDurationMonths",
          "type": "uint256"
        },
        {
          "internalType": "uint256",
          "name": "startTimestamp",
          "type": "uint256"
        },
        {
          "internalType": "uint256",
          "name": "monthIndex",
          "type": "uint256"
        },
        {
          "internalType": "uint256",
          "name": "nextMintOn",
          "type": "uint256"
        },
        {
          "internalType": "bool",
          "name": "isInitialStakingNFT",
          "type": "bool"
        }
      ],
      "name": "mintNFT",
      "outputs": [
        {
          "internalType": "uint256",
          "name": "",
          "type": "uint256"
        }
      ],
      "stateMutability": "nonpayable",
      "type": "function"
    },
    {
      "inputs": [],
      "name": "name",
      "outputs": [
        {
          "internalType": "string",
          "name": "",
          "type": "string"
        }
      ],
      "stateMutability": "view",
      "type": "function"
    },
    {
      "inputs": [
        {
          "internalType": "uint256",
          "name": "",
          "type": "uint256"
        }
      ],
      "name": "nftMetadata",
      "outputs": [
        {
          "internalType": "uint256",
          "name": "positionId",
          "type": "uint256"
        },
        {
          "internalType": "uint256",
          "name": "amountStaked",
          "type": "uint256"
        },
        {
          "internalType": "uint256",
          "name": "lockDurationHours",
          "type": "uint256"
        },
        {
          "internalType": "uint256",
          "name": "startTimestamp",
          "type": "uint256"
        },
        {
          "internalType": "uint8",
          "name": "tierLevel",
          "type": "uint8"
        },
        {
          "internalType": "uint256",
          "name": "hourIndex",
          "type": "uint256"
        },
        {
          "internalType": "uint256",
          "name": "nextMintOn",
          "type": "uint256"
        },
        {
          "internalType": "bool",
          "name": "isInitialStakingNFT",
          "type": "bool"
        }
      ],
      "stateMutability": "view",
      "type": "function"
    },
    {
      "inputs": [
        {
          "internalType": "uint256",
          "name": "tokenId",
          "type": "uint256"
        }
      ],
      "name": "ownerOf",
      "outputs": [
        {
          "internalType": "address",
          "name": "",
          "type": "address"
        }
      ],
      "stateMutability": "view",
      "type": "function"
    },
    {
      "inputs": [
        {
          "internalType": "bytes32",
          "name": "role",
          "type": "bytes32"
        },
        {
          "internalType": "address",
          "name": "callerConfirmation",
          "type": "address"
        }
      ],
      "name": "renounceRole",
      "outputs": [],
      "stateMutability": "nonpayable",
      "type": "function"
    },
    {
      "inputs": [
        {
          "internalType": "bytes32",
          "name": "role",
          "type": "bytes32"
        },
        {
          "internalType": "address",
          "name": "account",
          "type": "address"
        }
      ],
      "name": "revokeRole",
      "outputs": [],
      "stateMutability": "nonpayable",
      "type": "function"
    },
    {
      "inputs": [
        {
          "internalType": "address",
          "name": "from",
          "type": "address"
        },
        {
          "internalType": "address",
          "name": "to",
          "type": "address"
        },
        {
          "internalType": "uint256",
          "name": "tokenId",
          "type": "uint256"
        }
      ],
      "name": "safeTransferFrom",
      "outputs": [],
      "stateMutability": "payable",
      "type": "function"
    },
    {
      "inputs": [
        {
          "internalType": "address",
          "name": "from",
          "type": "address"
        },
        {
          "internalType": "address",
          "name": "to",
          "type": "address"
        },
        {
          "internalType": "uint256",
          "name": "tokenId",
          "type": "uint256"
        },
        {
          "internalType": "bytes",
          "name": "_data",
          "type": "bytes"
        }
      ],
      "name": "safeTransferFrom",
      "outputs": [],
      "stateMutability": "payable",
      "type": "function"
    },
    {
      "inputs": [
        {
          "internalType": "address",
          "name": "operator",
          "type": "address"
        },
        {
          "internalType": "bool",
          "name": "approved",
          "type": "bool"
        }
      ],
      "name": "setApprovalForAll",
      "outputs": [],
      "stateMutability": "nonpayable",
      "type": "function"
    },
    {
      "inputs": [
        {
          "internalType": "string",
          "name": "newBaseURI",
          "type": "string"
        }
      ],
      "name": "setBaseURI",
      "outputs": [],
      "stateMutability": "nonpayable",
      "type": "function"
    },
    {
      "inputs": [],
      "name": "stakeManager",
      "outputs": [
        {
          "internalType": "address",
          "name": "",
          "type": "address"
        }
      ],
      "stateMutability": "view",
      "type": "function"
    },
    {
      "inputs": [
        {
          "internalType": "bytes4",
          "name": "interfaceId",
          "type": "bytes4"
        }
      ],
      "name": "supportsInterface",
      "outputs": [
        {
          "internalType": "bool",
          "name": "",
          "type": "bool"
        }
      ],
      "stateMutability": "view",
      "type": "function"
    },
    {
      "inputs": [],
      "name": "symbol",
      "outputs": [
        {
          "internalType": "string",
          "name": "",
          "type": "string"
        }
      ],
      "stateMutability": "view",
      "type": "function"
    },
    {
      "inputs": [],
      "name": "tierCalculator",
      "outputs": [
        {
          "internalType": "address",
          "name": "",
          "type": "address"
        }
      ],
      "stateMutability": "view",
      "type": "function"
    },
    {
      "inputs": [
        {
          "internalType": "uint256",
          "name": "tokenId",
          "type": "uint256"
        }
      ],
      "name": "tokenURI",
      "outputs": [
        {
          "internalType": "string",
          "name": "",
          "type": "string"
        }
      ],
      "stateMutability": "view",
      "type": "function"
    },
    {
      "inputs": [],
      "name": "totalSupply",
      "outputs": [
        {
          "internalType": "uint256",
          "name": "result",
          "type": "uint256"
        }
      ],
      "stateMutability": "view",
      "type": "function"
    },
    {
      "inputs": [
        {
          "internalType": "address",
          "name": "from",
          "type": "address"
        },
        {
          "internalType": "address",
          "name": "to",
          "type": "address"
        },
        {
          "internalType": "uint256",
          "name": "tokenId",
          "type": "uint256"
        }
      ],
      "name": "transferFrom",
      "outputs": [],
      "stateMutability": "payable",
      "type": "function"
    }
  ],
  "bytecode": "0x608060405234801561001057600080fd5b50604051611e67380380611e6783398101604081905261002f916101f7565b6040518060400160405280600c81526020016b504144204e4654202876322960a01b815250604051806040016040528060088152602001672820a227232a3b1960c11b815250816002908161008491906102c9565b50600361009182826102c9565b505060008080556100a391503361012b565b506100ce7f7804d923f43a17d325d77e781528e0793b2edd9890ab45fc64efd7b4b427744c3361012b565b506100f97f9f2df0fed2c77648de5860a4cc508cd0818c85b8b8a1ab4ceeef8d981c8956a63361012b565b50600b80546001600160a01b039384166001600160a01b031991821617909155600c8054929093169116179055610387565b60008281526009602090815260408083206001600160a01b038516845290915281205460ff166101d15760008381526009602090815260408083206001600160a01b03861684529091529020805460ff191660011790556101893390565b6001600160a01b0316826001600160a01b0316847f2f8788117e7eff1d82e926ec794901d17c78024a50270940304540a733656f0d60405160405180910390a45060016101d5565b5060005b92915050565b80516001600160a01b03811681146101f257600080fd5b919050565b6000806040838503121561020a57600080fd5b610213836101db565b9150610221602084016101db565b90509250929050565b634e487b7160e01b600052604160045260246000fd5b600181811c9082168061025457607f821691505b60208210810361027457634e487b7160e01b600052602260045260246000fd5b50919050565b601f8211156102c457806000526020600020601f840160051c810160208510156102a15750805b601f840160051c820191505b818110156102c157600081556001016102ad565b50505b505050565b81516001600160401b038111156102e2576102e261022a565b6102f6816102f08454610240565b8461027a565b6020601f82116001811461032a57600083156103125750848201515b600019600385901b1c1916600184901b1784556102c1565b600084815260208120601f198516915b8281101561035a578785015182556020948501946001909201910161033a565b50848210156103785786840151600019600387901b60f8161c191681555b50505050600190811b01905550565b611ad1806103966000396000f3fe60806040526004361061019c5760003560e01c806370a08231116100ec578063a22cb4651161008a578063c87b56dd11610064578063c87b56dd14610512578063d539139314610532578063d547741f14610566578063e985e9c51461058657600080fd5b8063a22cb465146104bf578063b88d4fde146104df578063be0f2b88146104f257600080fd5b80637f345710116100c65780637f3457101461044157806391d148541461047557806395d89b4114610495578063a217fddf146104aa57600080fd5b806370a08231146103e15780637542ff951461040157806378eebc681461042157600080fd5b8063248a9ca31161015957806342842e0e1161013357806342842e0e146102eb57806349541015146102fe57806355f804b3146103a15780636352211e146103c157600080fd5b8063248a9ca31461027b5780632f2ff15d146102ab57806336568abe146102cb57600080fd5b806301ffc9a7146101a157806306fdde03146101d6578063081812fc146101f8578063095ea7b31461023057806318160ddd1461024557806323b872dd14610268575b600080fd5b3480156101ad57600080fd5b506101c16101bc3660046114db565b6105cf565b60405190151581526020015b60405180910390f35b3480156101e257600080fd5b506101eb6105e0565b6040516101cd9190611548565b34801561020457600080fd5b5061021861021336600461155b565b610672565b6040516001600160a01b0390911681526020016101cd565b61024361023e36600461158b565b6106ad565b005b34801561025157600080fd5b50600154600054035b6040519081526020016101cd565b6102436102763660046115b5565b6106bd565b34801561028757600080fd5b5061025a61029636600461155b565b60009081526009602052604090206001015490565b3480156102b757600080fd5b506102436102c63660046115f2565b61082f565b3480156102d757600080fd5b506102436102e63660046115f2565b61085a565b6102436102f93660046115b5565b610892565b34801561030a57600080fd5b5061036161031936600461155b565b600d6020526000908152604090208054600182015460028301546003840154600485015460058601546006870154600790970154959694959394929360ff9283169391921688565b60408051988952602089019790975295870194909452606086019290925260ff16608085015260a084015260c0830152151560e0820152610100016101cd565b3480156103ad57600080fd5b506102436103bc3660046116ae565b6108ad565b3480156103cd57600080fd5b506102186103dc36600461155b565b61091f565b3480156103ed57600080fd5b5061025a6103fc3660046116f7565b61092a565b34801561040d57600080fd5b50600b54610218906001600160a01b031681565b34801561042d57600080fd5b5061025a61043c366004611722565b610970565b34801561044d57600080fd5b5061025a7f7804d923f43a17d325d77e781528e0793b2edd9890ab45fc64efd7b4b427744c81565b34801561048157600080fd5b506101c16104903660046115f2565b610b77565b3480156104a157600080fd5b506101eb610ba2565b3480156104b657600080fd5b5061025a600081565b3480156104cb57600080fd5b506102436104da36600461178f565b610bb1565b6102436104ed3660046117b9565b610c1d565b3480156104fe57600080fd5b50600c54610218906001600160a01b031681565b34801561051e57600080fd5b506101eb61052d36600461155b565b610c58565b34801561053e57600080fd5b5061025a7f9f2df0fed2c77648de5860a4cc508cd0818c85b8b8a1ab4ceeef8d981c8956a681565b34801561057257600080fd5b506102436105813660046115f2565b610d28565b34801561059257600080fd5b506101c16105a1366004611835565b6001600160a01b03918216600090815260076020908152604080832093909416825291909152205460ff1690565b60006105da82610d4d565b92915050565b6060600280546105ef9061185f565b80601f016020809104026020016040519081016040528092919081815260200182805461061b9061185f565b80156106685780601f1061063d57610100808354040283529160200191610668565b820191906000526020600020905b81548152906001019060200180831161064b57829003601f168201915b5050505050905090565b600061067d82610d82565b610691576106916333d1c03960e21b610dc7565b506000908152600660205260409020546001600160a01b031690565b6106b982826001610dd1565b5050565b60006106c882610e74565b6001600160a01b0394851694909150811684146106ee576106ee62a1148160e81b610dc7565b60008281526006602052604090208054338082146001600160a01b038816909114176107325761071e86336105a1565b61073257610732632ce44b5f60e11b610dc7565b61073f8686866001610f0a565b801561074a57600082555b6001600160a01b038681166000908152600560205260408082208054600019019055918716808252919020805460010190554260a01b17600160e11b17600085815260046020526040812091909155600160e11b841690036107dc576001840160008181526004602052604081205490036107da5760005481146107da5760008181526004602052604090208490555b505b6001600160a01b0385168481887fddf252ad1be2c89b69c2b068fc378daa952ba7f163c4a11628f55a4df523b3ef600080a48060000361082657610826633a954ecd60e21b610dc7565b50505050505050565b60008281526009602052604090206001015461084a81610fd7565b6108548383610fe4565b50505050565b6001600160a01b03811633146108835760405163334bd91960e11b815260040160405180910390fd5b61088d8282611078565b505050565b61088d83838360405180602001604052806000815250610c1d565b7f7804d923f43a17d325d77e781528e0793b2edd9890ab45fc64efd7b4b427744c6108d781610fd7565b600a6108e383826118e0565b507ff9c7803e94e0d3c02900d8a90893a6d5e90dd04d32a4cfe825520f82bf9f32f6826040516109139190611548565b60405180910390a15050565b60006105da82610e74565b60006001600160a01b03821661094a5761094a6323d3ad8160e21b610dc7565b506001600160a01b031660009081526005602052604090205467ffffffffffffffff1690565b60007f9f2df0fed2c77648de5860a4cc508cd0818c85b8b8a1ab4ceeef8d981c8956a661099c81610fd7565b600c546040516351355cfb60e01b815260048101899052602481018a90526000916001600160a01b0316906351355cfb90604401602060405180830381865afa1580156109ed573d6000803e3d6000fd5b505050506040513d601f19601f82011682018060405250810190610a11919061199f565b90506000610a1e60005490565b9050610a2b8c60016110e5565b60408051610100810182528c815260208082018d81528284018d8152606084018d815260ff8089166080870190815260a087018f815260c088018f81528e151560e08a0190815260008c8152600d909952978a90209851895595516001890155935160028801559151600387015590516004860180549190921660ff19918216179091559051600585015590516006840155905160078301805491151591909216179055905182916001600160a01b038f16917f57265e891bedb656a4faa6c1763dbd5ee2b397b7e99594dabbd8c54484ad827091610b609181548152600182015460208201526002820154604082015260038201546060820152600482015460ff9081166080830152600583015460a0830152600683015460c0830152600790920154909116151560e08201526101000190565b60405180910390a39b9a5050505050505050505050565b60009182526009602090815260408084206001600160a01b0393909316845291905290205460ff1690565b6060600380546105ef9061185f565b3360008181526007602090815260408083206001600160a01b03871680855290835292819020805460ff191686151590811790915590519081529192917f17307eab39ab6107e8899845ad3d59bd9653f200f220920489ca2b5937696c31910160405180910390a35050565b610c288484846106bd565b6001600160a01b0383163b1561085457610c44848484846110ff565b610854576108546368d2bf6b60e11b610dc7565b6060610c6382610d82565b610ccc5760405162461bcd60e51b815260206004820152602f60248201527f4552433732314d657461646174613a2055524920717565727920666f72206e6f60448201526e3732bc34b9ba32b73a103a37b5b2b760891b60648201526084015b60405180910390fd5b6000610cd66111e2565b90506000815111610cf65760405180602001604052806000815250610d21565b80610d00846111f1565b604051602001610d119291906119c2565b6040516020818303038152906040525b9392505050565b600082815260096020526040902060010154610d4381610fd7565b6108548383611078565b60006001600160e01b03198216637965db0b60e01b14806105da57506301ffc9a760e01b6001600160e01b03198316146105da565b60008054821015610dc25760005b5060008281526004602052604081205490819003610db857610db183611a17565b9250610d90565b600160e01b161590505b919050565b8060005260046000fd5b6000610ddc8361091f565b9050818015610df45750336001600160a01b03821614155b15610e1757610e0381336105a1565b610e1757610e176367d9dca160e11b610dc7565b60008381526006602052604080822080546001600160a01b0319166001600160a01b0388811691821790925591518693918516917f8c5be1e5ebec7d5bd14f71427d1e84f3dd0314c0f7b2291e5b200ac8c7c3b92591a450505050565b60008181526004602052604090205480600003610ee7576000548210610ea457610ea4636f96cda160e11b610dc7565b5b50600019016000818152600460205260409020548015610ea557600160e01b8116600003610ed257919050565b610ee2636f96cda160e11b610dc7565b610ea5565b600160e01b8116600003610efa57919050565b610dc2636f96cda160e11b610dc7565b6001600160a01b03841615801590610f2a57506001600160a01b03831615155b15610fd25760005b81811015610fd0576000600d81610f498487611a2e565b815260208101919091526040016000206004015460ff1690506002811015610fc75760405162461bcd60e51b815260206004820152602b60248201527f536f756c2d626f756e643a206f6e6c7920476f6c642f506c6174696e756d207460448201526a72616e7366657261626c6560a81b6064820152608401610cc3565b50600101610f32565b505b610854565b610fe18133611284565b50565b6000610ff08383610b77565b6110705760008381526009602090815260408083206001600160a01b03861684529091529020805460ff191660011790556110283390565b6001600160a01b0316826001600160a01b0316847f2f8788117e7eff1d82e926ec794901d17c78024a50270940304540a733656f0d60405160405180910390a45060016105da565b5060006105da565b60006110848383610b77565b156110705760008381526009602090815260408083206001600160a01b0386168085529252808320805460ff1916905551339286917ff6391f5c32d9c69d2a47ea670b442974b53935d1edc7fd64eb21e047a839171b9190a45060016105da565b6106b98282604051806020016040528060008152506112bd565b604051630a85bd0160e11b81526000906001600160a01b0385169063150b7a0290611134903390899088908890600401611a41565b6020604051808303816000875af192505050801561116f575060408051601f3d908101601f1916820190925261116c91810190611a7e565b60015b6111c4573d80801561119d576040519150601f19603f3d011682016040523d82523d6000602084013e6111a2565b606091505b5080516000036111bc576111bc6368d2bf6b60e11b610dc7565b805181602001fd5b6001600160e01b031916630a85bd0160e11b1490505b949350505050565b6060600a80546105ef9061185f565b606060006111fe83611321565b600101905060008167ffffffffffffffff81111561121e5761121e61161e565b6040519080825280601f01601f191660200182016040528015611248576020820181803683370190505b5090508181016020015b600019016f181899199a1a9b1b9c1cb0b131b232b360811b600a86061a8153600a850494508461125257509392505050565b61128e8282610b77565b6106b95760405163e2517d3f60e01b81526001600160a01b038216600482015260248101839052604401610cc3565b6112c783836113f9565b6001600160a01b0383163b1561088d576000548281035b6112f160008683806001019450866110ff565b611305576113056368d2bf6b60e11b610dc7565b8181106112de57816000541461131a57600080fd5b5050505050565b60008072184f03e93ff9f4daa797ed6e38ed64bf6a1f0160401b83106113605772184f03e93ff9f4daa797ed6e38ed64bf6a1f0160401b830492506040015b6d04ee2d6d415b85acef8100000000831061138c576d04ee2d6d415b85acef8100000000830492506020015b662386f26fc1000083106113aa57662386f26fc10000830492506010015b6305f5e10083106113c2576305f5e100830492506008015b61271083106113d657612710830492506004015b606483106113e8576064830492506002015b600a83106105da5760010192915050565b60008054908290036114155761141563b562e8dd60e01b610dc7565b6114226000848385610f0a565b60008181526004602090815260408083206001600160a01b0387164260a01b6001881460e11b1781179091558084526005909252822080546801000000000000000186020190559081900361148057611480622e076360e81b610dc7565b818301825b808360007fddf252ad1be2c89b69c2b068fc378daa952ba7f163c4a11628f55a4df523b3ef600080a4818160010191508103611485575060005550505050565b6001600160e01b031981168114610fe157600080fd5b6000602082840312156114ed57600080fd5b8135610d21816114c5565b60005b838110156115135781810151838201526020016114fb565b50506000910152565b600081518084526115348160208601602086016114f8565b601f01601f19169290920160200192915050565b602081526000610d21602083018461151c565b60006020828403121561156d57600080fd5b5035919050565b80356001600160a01b0381168114610dc257600080fd5b6000806040838503121561159e57600080fd5b6115a783611574565b946020939093013593505050565b6000806000606084860312156115ca57600080fd5b6115d384611574565b92506115e160208501611574565b929592945050506040919091013590565b6000806040838503121561160557600080fd5b8235915061161560208401611574565b90509250929050565b634e487b7160e01b600052604160045260246000fd5b60008067ffffffffffffffff84111561164f5761164f61161e565b50604051601f19601f85018116603f0116810181811067ffffffffffffffff8211171561167e5761167e61161e565b60405283815290508082840185101561169657600080fd5b83836020830137600060208583010152509392505050565b6000602082840312156116c057600080fd5b813567ffffffffffffffff8111156116d757600080fd5b8201601f810184136116e857600080fd5b6111da84823560208401611634565b60006020828403121561170957600080fd5b610d2182611574565b80358015158114610dc257600080fd5b600080600080600080600080610100898b03121561173f57600080fd5b61174889611574565b97506020890135965060408901359550606089013594506080890135935060a0890135925060c0890135915061178060e08a01611712565b90509295985092959890939650565b600080604083850312156117a257600080fd5b6117ab83611574565b915061161560208401611712565b600080600080608085870312156117cf57600080fd5b6117d885611574565b93506117e660208601611574565b925060408501359150606085013567ffffffffffffffff81111561180957600080fd5b8501601f8101871361181a57600080fd5b61182987823560208401611634565b91505092959194509250565b6000806040838503121561184857600080fd5b61185183611574565b915061161560208401611574565b600181811c9082168061187357607f821691505b60208210810361189357634e487b7160e01b600052602260045260246000fd5b50919050565b601f82111561088d57806000526020600020601f840160051c810160208510156118c05750805b601f840160051c820191505b8181101561131a57600081556001016118cc565b815167ffffffffffffffff8111156118fa576118fa61161e565b61190e81611908845461185f565b84611899565b6020601f821160018114611942576000831561192a5750848201515b600019600385901b1c1916600184901b17845561131a565b600084815260208120601f198516915b828110156119725787850151825560209485019460019092019101611952565b50848210156119905786840151600019600387901b60f8161c191681555b50505050600190811b01905550565b6000602082840312156119b157600080fd5b815160ff81168114610d2157600080fd5b600083516119d48184602088016114f8565b8351908301906119e88183602088016114f8565b64173539b7b760d91b9101908152600501949350505050565b634e487b7160e01b600052601160045260246000fd5b600081611a2657611a26611a01565b506000190190565b808201808211156105da576105da611a01565b6001600160a01b0385811682528416602082015260408101839052608060608201819052600090611a749083018461151c565b9695505050505050565b600060208284031215611a9057600080fd5b8151610d21816114c556fea264697066735822122084a2a5e5de9bf735cf8251f156e4ecd625966f6e4ae3336d56338d061f245fdf64736f6c634300081c0033",
  "linkReferences": {},
  "deployedLinkReferences": {}
}