{
  "_format": "hh-sol-artifact-1",
  "contractName": "MultiStakeManager",
  "sourceName": "contracts/MultiStakeManager.sol",
  "abi": [
    {
      "inputs": [
        {
          "internalType": "address",
          "name": "_stakingToken",
          "type": "address"
        },
        {
          "internalType": "address",
          "name": "_tierCalculator",
          "type": "address"
        }
      ],
      "stateMutability": "nonpayable",
      "type": "constructor"
    },
    {
      "inputs": [],
      "name": "AccessControlBadConfirmation",
      "type": "error"
    },
    {
      "inputs": [
        {
          "internalType": "address",
          "name": "account",
          "type": "address"
        },
        {
          "internalType": "bytes32",
          "name": "neededRole",
          "type": "bytes32"
        }
      ],
      "name": "AccessControlUnauthorizedAccount",
      "type": "error"
    },
    {
      "inputs": [],
      "name": "ReentrancyGuardReentrantCall",
      "type": "error"
    },
    {
      "anonymous": false,
      "inputs": [
        {
          "indexed": false,
          "internalType": "string",
          "name": "message",
          "type": "string"
        },
        {
          "indexed": false,
          "internalType": "uint256",
          "name": "value",
          "type": "uint256"
        }
      ],
      "name": "DebugLog",
      "type": "event"
    },
    {
      "anonymous": false,
      "inputs": [
        {
          "indexed": true,
          "internalType": "uint256",
          "name": "positionId",
          "type": "uint256"
        },
        {
          "indexed": true,
          "internalType": "address",
          "name": "owner",
          "type": "address"
        },
        {
          "indexed": false,
          "internalType": "uint256",
          "name": "amount",
          "type": "uint256"
        }
      ],
      "name": "EmergencyWithdrawn",
      "type": "event"
    },
    {
      "anonymous": false,
      "inputs": [
        {
          "indexed": true,
          "internalType": "address",
          "name": "newNFTFactory",
          "type": "address"
        }
      ],
      "name": "NFTFactorySet",
      "type": "event"
    },
    {
      "anonymous": false,
      "inputs": [
        {
          "indexed": true,
          "internalType": "uint256",
          "name": "positionId",
          "type": "uint256"
        },
        {
          "indexed": true,
          "internalType": "address",
          "name": "owner",
          "type": "address"
        },
        {
          "indexed": true,
          "internalType": "uint256",
          "name": "monthIndex",
          "type": "uint256"
        }
      ],
      "name": "NextNFTMinted",
      "type": "event"
    },
    {
      "anonymous": false,
      "inputs": [
        {
          "indexed": true,
          "internalType": "uint256",
          "name": "positionId",
          "type": "uint256"
        },
        {
          "indexed": true,
          "internalType": "address",
          "name": "owner",
          "type": "address"
        },
        {
          "indexed": false,
          "internalType": "uint256",
          "name": "amount",
          "type": "uint256"
        },
        {
          "indexed": false,
          "internalType": "uint256",
          "name": "reward",
          "type": "uint256"
        }
      ],
      "name": "PositionClosed",
      "type": "event"
    },
    {
      "anonymous": false,
      "inputs": [
        {
          "indexed": true,
          "internalType": "uint256",
          "name": "positionId",
          "type": "uint256"
        },
        {
          "indexed": true,
          "internalType": "address",
          "name": "owner",
          "type": "address"
        },
        {
          "indexed": false,
          "internalType": "uint256",
          "name": "amount",
          "type": "uint256"
        },
        {
          "indexed": false,
          "internalType": "uint256",
          "name": "duration",
          "type": "uint256"
        }
      ],
      "name": "PositionCreated",
      "type": "event"
    },
    {
      "anonymous": false,
      "inputs": [
        {
          "indexed": true,
          "internalType": "bytes32",
          "name": "role",
          "type": "bytes32"
        },
        {
          "indexed": true,
          "internalType": "bytes32",
          "name": "previousAdminRole",
          "type": "bytes32"
        },
        {
          "indexed": true,
          "internalType": "bytes32",
          "name": "newAdminRole",
          "type": "bytes32"
        }
      ],
      "name": "RoleAdminChanged",
      "type": "event"
    },
    {
      "anonymous": false,
      "inputs": [
        {
          "indexed": true,
          "internalType": "bytes32",
          "name": "role",
          "type": "bytes32"
        },
        {
          "indexed": true,
          "internalType": "address",
          "name": "account",
          "type": "address"
        },
        {
          "indexed": true,
          "internalType": "address",
          "name": "sender",
          "type": "address"
        }
      ],
      "name": "RoleGranted",
      "type": "event"
    },
    {
      "anonymous": false,
      "inputs": [
        {
          "indexed": true,
          "internalType": "bytes32",
          "name": "role",
          "type": "bytes32"
        },
        {
          "indexed": true,
          "internalType": "address",
          "name": "account",
          "type": "address"
        },
        {
          "indexed": true,
          "internalType": "address",
          "name": "sender",
          "type": "address"
        }
      ],
      "name": "RoleRevoked",
      "type": "event"
    },
    {
      "inputs": [],
      "name": "ADMIN_ROLE",
      "outputs": [
        {
          "internalType": "bytes32",
          "name": "",
          "type": "bytes32"
        }
      ],
      "stateMutability": "view",
      "type": "function"
    },
    {
      "inputs": [],
      "name": "DEFAULT_ADMIN_ROLE",
      "outputs": [
        {
          "internalType": "bytes32",
          "name": "",
          "type": "bytes32"
        }
      ],
      "stateMutability": "view",
      "type": "function"
    },
    {
      "inputs": [],
      "name": "MAX_POSITIONS_PER_WALLET",
      "outputs": [
        {
          "internalType": "uint256",
          "name": "",
          "type": "uint256"
        }
      ],
      "stateMutability": "view",
      "type": "function"
    },
    {
      "inputs": [],
      "name": "MAX_STAKE_MONTHS",
      "outputs": [
        {
          "internalType": "uint256",
          "name": "",
          "type": "uint256"
        }
      ],
      "stateMutability": "view",
      "type": "function"
    },
    {
      "inputs": [],
      "name": "MIN_STAKE_MONTHS",
      "outputs": [
        {
          "internalType": "uint256",
          "name": "",
          "type": "uint256"
        }
      ],
      "stateMutability": "view",
      "type": "function"
    },
    {
      "inputs": [],
      "name": "REWARD_INTERVAL",
      "outputs": [
        {
          "internalType": "uint256",
          "name": "",
          "type": "uint256"
        }
      ],
      "stateMutability": "view",
      "type": "function"
    },
    {
      "inputs": [
        {
          "internalType": "uint256",
          "name": "positionId",
          "type": "uint256"
        }
      ],
      "name": "calculateRewards",
      "outputs": [
        {
          "internalType": "uint256",
          "name": "",
          "type": "uint256"
        }
      ],
      "stateMutability": "view",
      "type": "function"
    },
    {
      "inputs": [
        {
          "internalType": "uint256",
          "name": "positionId",
          "type": "uint256"
        }
      ],
      "name": "closePosition",
      "outputs": [],
      "stateMutability": "nonpayable",
      "type": "function"
    },
    {
      "inputs": [
        {
          "internalType": "uint256",
          "name": "amount",
          "type": "uint256"
        },
        {
          "internalType": "uint256",
          "name": "months",
          "type": "uint256"
        }
      ],
      "name": "createPosition",
      "outputs": [],
      "stateMutability": "nonpayable",
      "type": "function"
    },
    {
      "inputs": [
        {
          "internalType": "uint256",
          "name": "positionId",
          "type": "uint256"
        }
      ],
      "name": "emergencyWithdraw",
      "outputs": [],
      "stateMutability": "nonpayable",
      "type": "function"
    },
    {
      "inputs": [
        {
          "internalType": "bytes32",
          "name": "role",
          "type": "bytes32"
        }
      ],
      "name": "getRoleAdmin",
      "outputs": [
        {
          "internalType": "bytes32",
          "name": "",
          "type": "bytes32"
        }
      ],
      "stateMutability": "view",
      "type": "function"
    },
    {
      "inputs": [
        {
          "internalType": "address",
          "name": "user",
          "type": "address"
        }
      ],
      "name": "getUserPositions",
      "outputs": [
        {
          "internalType": "uint256[]",
          "name": "",
          "type": "uint256[]"
        }
      ],
      "stateMutability": "view",
      "type": "function"
    },
    {
      "inputs": [
        {
          "internalType": "bytes32",
          "name": "role",
          "type": "bytes32"
        },
        {
          "internalType": "address",
          "name": "account",
          "type": "address"
        }
      ],
      "name": "grantRole",
      "outputs": [],
      "stateMutability": "nonpayable",
      "type": "function"
    },
    {
      "inputs": [
        {
          "internalType": "bytes32",
          "name": "role",
          "type": "bytes32"
        },
        {
          "internalType": "address",
          "name": "account",
          "type": "address"
        }
      ],
      "name": "hasRole",
      "outputs": [
        {
          "internalType": "bool",
          "name": "",
          "type": "bool"
        }
      ],
      "stateMutability": "view",
      "type": "function"
    },
    {
      "inputs": [
        {
          "internalType": "uint256",
          "name": "positionId",
          "type": "uint256"
        }
      ],
      "name": "mintNextNFT",
      "outputs": [],
      "stateMutability": "nonpayable",
      "type": "function"
    },
    {
      "inputs": [],
      "name": "nftFactory",
      "outputs": [
        {
          "internalType": "address",
          "name": "",
          "type": "address"
        }
      ],
      "stateMutability": "view",
      "type": "function"
    },
    {
      "inputs": [
        {
          "internalType": "uint256",
          "name": "",
          "type": "uint256"
        }
      ],
      "name": "positionIndexInUserArray",
      "outputs": [
        {
          "internalType": "uint256",
          "name": "",
          "type": "uint256"
        }
      ],
      "stateMutability": "view",
      "type": "function"
    },
    {
      "inputs": [
        {
          "internalType": "uint256",
          "name": "",
          "type": "uint256"
        }
      ],
      "name": "positions",
      "outputs": [
        {
          "internalType": "uint128",
          "name": "amount",
          "type": "uint128"
        },
        {
          "internalType": "uint64",
          "name": "startTime",
          "type": "uint64"
        },
        {
          "internalType": "uint32",
          "name": "duration",
          "type": "uint32"
        },
        {
          "internalType": "uint32",
          "name": "nextMintAt",
          "type": "uint32"
        },
        {
          "internalType": "uint8",
          "name": "tier",
          "type": "uint8"
        },
        {
          "internalType": "uint8",
          "name": "monthIndex",
          "type": "uint8"
        },
        {
          "internalType": "bool",
          "name": "isActive",
          "type": "bool"
        },
        {
          "internalType": "address",
          "name": "owner",
          "type": "address"
        }
      ],
      "stateMutability": "view",
      "type": "function"
    },
    {
      "inputs": [
        {
          "internalType": "bytes32",
          "name": "role",
          "type": "bytes32"
        },
        {
          "internalType": "address",
          "name": "callerConfirmation",
          "type": "address"
        }
      ],
      "name": "renounceRole",
      "outputs": [],
      "stateMutability": "nonpayable",
      "type": "function"
    },
    {
      "inputs": [
        {
          "internalType": "bytes32",
          "name": "role",
          "type": "bytes32"
        },
        {
          "internalType": "address",
          "name": "account",
          "type": "address"
        }
      ],
      "name": "revokeRole",
      "outputs": [],
      "stateMutability": "nonpayable",
      "type": "function"
    },
    {
      "inputs": [
        {
          "internalType": "address",
          "name": "_nftFactory",
          "type": "address"
        }
      ],
      "name": "setNFTFactory",
      "outputs": [],
      "stateMutability": "nonpayable",
      "type": "function"
    },
    {
      "inputs": [],
      "name": "stakingToken",
      "outputs": [
        {
          "internalType": "contract IERC20",
          "name": "",
          "type": "address"
        }
      ],
      "stateMutability": "view",
      "type": "function"
    },
    {
      "inputs": [
        {
          "internalType": "bytes4",
          "name": "interfaceId",
          "type": "bytes4"
        }
      ],
      "name": "supportsInterface",
      "outputs": [
        {
          "internalType": "bool",
          "name": "",
          "type": "bool"
        }
      ],
      "stateMutability": "view",
      "type": "function"
    },
    {
      "inputs": [],
      "name": "tierCalculator",
      "outputs": [
        {
          "internalType": "address",
          "name": "",
          "type": "address"
        }
      ],
      "stateMutability": "view",
      "type": "function"
    },
    {
      "inputs": [
        {
          "internalType": "address",
          "name": "",
          "type": "address"
        },
        {
          "internalType": "uint256",
          "name": "",
          "type": "uint256"
        }
      ],
      "name": "userPositions",
      "outputs": [
        {
          "internalType": "uint256",
          "name": "",
          "type": "uint256"
        }
      ],
      "stateMutability": "view",
      "type": "function"
    }
  ],
  "bytecode": "0x60a0604052600160025534801561001557600080fd5b5060405161226b38038061226b83398101604081905261003491610203565b600180556001600160a01b0382166100825760405162461bcd60e51b815260206004820152600c60248201526b5a65726f206164647265737360a01b60448201526064015b60405180910390fd5b6001600160a01b0381166100d85760405162461bcd60e51b815260206004820152601360248201527f5a65726f207469657243616c63756c61746f72000000000000000000000000006044820152606401610079565b6001600160a01b03828116608052600780546001600160a01b03191691831691909117905561010860003361013b565b506101337fa49807205ce4d355092ef5a8a18f56e8913cf4a201fbe287825b095693c217753361013b565b505050610236565b6000828152602081815260408083206001600160a01b038516845290915281205460ff166101dd576000838152602081815260408083206001600160a01b03861684529091529020805460ff191660011790556101953390565b6001600160a01b0316826001600160a01b0316847f2f8788117e7eff1d82e926ec794901d17c78024a50270940304540a733656f0d60405160405180910390a45060016101e1565b5060005b92915050565b80516001600160a01b03811681146101fe57600080fd5b919050565b6000806040838503121561021657600080fd5b61021f836101e7565b915061022d602084016101e7565b90509250929050565b608051611fe96102826000396000818161025e0152818161067f015281816108d401528181610c5901528181610d2c01528181610dee01528181610e4d015261133d0152611fe96000f3fe608060405234801561001057600080fd5b50600436106101735760003560e01c806391d14854116100de578063cb2d93ce11610097578063d547741f11610071578063d547741f1461042c578063d63843cd1461043f578063e89636d914610452578063f883462c1461047257600080fd5b8063cb2d93ce146103f3578063d1aaef0514610406578063d3ea43501461041957600080fd5b806391d14854146102bf57806399fbab88146102d2578063a126d601146103bd578063a217fddf146103d0578063be0f2b88146103d8578063c719f322146103eb57600080fd5b806336568abe1161013057806336568abe146102165780635312ea8e146102295780635dbdda691461023c5780635e1b4d991461024657806372f702f31461025957806375b238fc1461029857600080fd5b806301ffc9a71461017857806303d50b1f146101a0578063189b914a146101b6578063248a9ca3146101be5780632a6bc2dd146101e15780632f2ff15d14610201575b600080fd5b61018b610186366004611bd2565b610485565b60405190151581526020015b60405180910390f35b6101a8600a81565b604051908152602001610197565b6101a8600c81565b6101a86101cc366004611c03565b60009081526020819052604090206001015490565b6101f46101ef366004611c38565b6104bc565b6040516101979190611c53565b61021461020f366004611c96565b610528565b005b610214610224366004611c96565b610553565b610214610237366004611c03565b61058b565b6101a862278d0081565b6101a8610254366004611cc2565b610755565b6102807f000000000000000000000000000000000000000000000000000000000000000081565b6040516001600160a01b039091168152602001610197565b6101a87fa49807205ce4d355092ef5a8a18f56e8913cf4a201fbe287825b095693c2177581565b61018b6102cd366004611c96565b610786565b6103556102e0366004611c03565b600360205260009081526040902080546001909101546001600160801b0382169167ffffffffffffffff600160801b8204169163ffffffff600160c01b8304811692600160e01b9004169060ff80821691610100810482169162010000820416906001600160a01b0363010000009091041688565b604080516001600160801b03909916895267ffffffffffffffff909716602089015263ffffffff9586169688019690965293909216606086015260ff90811660808601521660a0840152151560c08301526001600160a01b031660e082015261010001610197565b6102146103cb366004611c03565b6107af565b6101a8600081565b600754610280906001600160a01b031681565b6101a8600381565b610214610401366004611c38565b6109d8565b610214610414366004611cec565b610a92565b6101a8610427366004611c03565b6114ed565b61021461043a366004611c96565b61157f565b600654610280906001600160a01b031681565b6101a8610460366004611c03565b60056020526000908152604090205481565b610214610480366004611c03565b6115a4565b60006001600160e01b03198216637965db0b60e01b14806104b657506301ffc9a760e01b6001600160e01b03198316145b92915050565b6001600160a01b03811660009081526004602090815260409182902080548351818402810184019094528084526060939283018282801561051c57602002820191906000526020600020905b815481526020019060010190808311610508575b50505050509050919050565b60008281526020819052604090206001015461054381611972565b61054d838361197c565b50505050565b6001600160a01b038116331461057c5760405163334bd91960e11b815260040160405180910390fd5b6105868282611a0e565b505050565b610593611a79565b6000818152600360205260409020600181015462010000900460ff166105d45760405162461bcd60e51b81526004016105cb90611d0e565b60405180910390fd5b6001810154630100000090046001600160a01b031633146106075760405162461bcd60e51b81526004016105cb90611d3b565b3332146106415760405162461bcd60e51b81526020600482015260086024820152674f6e6c7920454f4160c01b60448201526064016105cb565b805460018201805462ff0000191690556001600160801b031661066383611aa3565b60405163a9059cbb60e01b8152336004820152602481018290527f00000000000000000000000000000000000000000000000000000000000000006001600160a01b03169063a9059cbb906044016020604051808303816000875af11580156106d0573d6000803e3d6000fd5b505050506040513d601f19601f820116820180604052508101906106f49190611d67565b6107105760405162461bcd60e51b81526004016105cb90611d89565b604051818152339084907fafe87099d21cd68765ccb431a535ca7a632ac9f66e04e99c9574fb5ddfdefca79060200160405180910390a3505061075260018055565b50565b6004602052816000526040600020818154811061077157600080fd5b90600052602060002001600091509150505481565b6000918252602082815260408084206001600160a01b0393909316845291905290205460ff1690565b6107b7611a79565b6000818152600360205260409020600181015462010000900460ff166107ef5760405162461bcd60e51b81526004016105cb90611d0e565b6001810154630100000090046001600160a01b031633146108225760405162461bcd60e51b81526004016105cb90611d3b565b805461084c90600160c01b810463ffffffff1690600160801b900467ffffffffffffffff16611dc8565b67ffffffffffffffff1642101561089b5760405162461bcd60e51b8152602060048201526013602482015272506f736974696f6e206e6f74206d617475726560681b60448201526064016105cb565b80546001600160801b031660006108b1846114ed565b60018401805462ff00001916905590506108ca84611aa3565b6001600160a01b037f00000000000000000000000000000000000000000000000000000000000000001663a9059cbb336109048486611de8565b6040516001600160e01b031960e085901b1681526001600160a01b03909216600483015260248201526044016020604051808303816000875af115801561094f573d6000803e3d6000fd5b505050506040513d601f19601f820116820180604052508101906109739190611d67565b61098f5760405162461bcd60e51b81526004016105cb90611d89565b6040805183815260208101839052339186917f3120c845c5d2c39308641201562a412527c1e7aff294f09c0c936f1c60a1b067910160405180910390a350505061075260018055565b7fa49807205ce4d355092ef5a8a18f56e8913cf4a201fbe287825b095693c21775610a0281611972565b6001600160a01b038216610a475760405162461bcd60e51b815260206004820152600c60248201526b5a65726f206164647265737360a01b60448201526064016105cb565b600680546001600160a01b0319166001600160a01b0384169081179091556040517f0b2a4659dd447011d8135e07f985a6153b6446f82b0d167e0f804c5fde175e2f90600090a25050565b610a9a611a79565b604080518181526014818301527329aa20a92a1031b932b0ba32a837b9b4ba34b7b760611b60608201526020810184905290517ff6ff2ad7fc16bda2a7d32462729431bce3ebe9b75cc7c9b35a0adfbf7e7bb9e69181900360800190a1683635c9adc5dea00000821015610b425760405162461bcd60e51b815260206004820152600f60248201526e4d696e203130303020746f6b656e7360881b60448201526064016105cb565b8060031480610b515750806006145b80610b5c5750806009145b80610b67575080600c145b610ba45760405162461bcd60e51b815260206004820152600e60248201526d496e76616c6964206d6f6e74687360901b60448201526064016105cb565b33600090815260046020526040902054600a11610bf85760405162461bcd60e51b8152602060048201526012602482015271546f6f206d616e7920706f736974696f6e7360701b60448201526064016105cb565b6001600160801b03821115610c425760405162461bcd60e51b815260206004820152601060248201526f416d6f756e7420746f6f206c6172676560801b60448201526064016105cb565b6040516370a0823160e01b815233600482015282907f00000000000000000000000000000000000000000000000000000000000000006001600160a01b0316906370a0823190602401602060405180830381865afa158015610ca8573d6000803e3d6000fd5b505050506040513d601f19601f82011682018060405250810190610ccc9190611dfb565b1015610d0f5760405162461bcd60e51b81526020600482015260126024820152714e6f7420656e6f7567682062616c616e636560701b60448201526064016105cb565b604051636eb1769f60e11b815233600482015230602482015282907f00000000000000000000000000000000000000000000000000000000000000006001600160a01b03169063dd62ed3e90604401602060405180830381865afa158015610d7b573d6000803e3d6000fd5b505050506040513d601f19601f82011682018060405250810190610d9f9190611dfb565b1015610de45760405162461bcd60e51b81526020600482015260146024820152734e6f7420656e6f75676820616c6c6f77616e636560601b60448201526064016105cb565b6001600160a01b037f0000000000000000000000000000000000000000000000000000000000000000163b15610f255760408051600481526024810182526020810180516001600160e01b0316635c975abb60e01b179052905160009182916001600160a01b037f00000000000000000000000000000000000000000000000000000000000000001691610e7791611e14565b600060405180830381855afa9150503d8060008114610eb2576040519150601f19603f3d011682016040523d82523d6000602084013e610eb7565b606091505b5091509150818015610eca575080516020145b15610f225780806020019051810190610ee39190611d67565b15610f225760405162461bcd60e51b815260206004820152600f60248201526e151bdad95b881a5cc81c185d5cd959608a1b60448201526064016105cb565b50505b604080518181526019818301527f50617373656420616c6c207265717569726520636865636b730000000000000060608201526020810184905290517ff6ff2ad7fc16bda2a7d32462729431bce3ebe9b75cc7c9b35a0adfbf7e7bb9e69181900360800190a16002805460009182610f9c83611e43565b909155509050426000610fb28462278d00611e5c565b600754604051602481018790526044810188905291925060009182916001600160a01b03169060640160408051601f198184030181529181526020820180516001600160e01b03166351355cfb60e01b179052516110109190611e14565b600060405180830381855afa9150503d806000811461104b576040519150601f19603f3d011682016040523d82523d6000602084013e611050565b606091505b5091509150816110a25760405162461bcd60e51b815260206004820152601a60248201527f5469657243616c63756c61746f722063616c6c206661696c656400000000000060448201526064016105cb565b6000818060200190518101906110b89190611e73565b9050600062278d0090506040518061010001604052808a6001600160801b031681526020018767ffffffffffffffff1681526020018663ffffffff16815260200182886111059190611de8565b63ffffffff1681526020018360ff168152602001600060ff168152602001600115158152602001336001600160a01b03168152506003600089815260200190815260200160002060008201518160000160006101000a8154816001600160801b0302191690836001600160801b0316021790555060208201518160000160106101000a81548167ffffffffffffffff021916908367ffffffffffffffff16021790555060408201518160000160186101000a81548163ffffffff021916908363ffffffff160217905550606082015181600001601c6101000a81548163ffffffff021916908363ffffffff16021790555060808201518160010160006101000a81548160ff021916908360ff16021790555060a08201518160010160016101000a81548160ff021916908360ff16021790555060c08201518160010160026101000a81548160ff02191690831515021790555060e08201518160010160036101000a8154816001600160a01b0302191690836001600160a01b0316021790555090505060046000336001600160a01b03166001600160a01b03168152602001908152602001600020879080600181540180825580915050600190039060005260206000200160009091909190915055600160046000336001600160a01b03166001600160a01b03168152602001908152602001600020805490506113099190611e96565b6000888152600560205260409081902091909155516323b872dd60e01b8152336004820152306024820152604481018a90527f00000000000000000000000000000000000000000000000000000000000000006001600160a01b0316906323b872dd906064016020604051808303816000875af115801561138e573d6000803e3d6000fd5b505050506040513d601f19601f820116820180604052508101906113b29190611d67565b6113ce5760405162461bcd60e51b81526004016105cb90611d89565b604080518a815260208101879052339189917ffb617c13a5b4b052ee893903dca019ab1611dfef1b20f7acb7a5bfe008c10260910160405180910390a36006546001600160a01b0316156114d9576006546001600160a01b03166378eebc6833898c8c8b600061143e8983611de8565b6040516001600160e01b031960e08a901b1681526001600160a01b039097166004880152602487019590955260448601939093526064850191909152608484015260a483015260c4820152600160e4820152610104016020604051808303816000875af11580156114b3573d6000803e3d6000fd5b505050506040513d601f19601f820116820180604052508101906114d79190611dfb565b505b505050505050506114e960018055565b5050565b6000818152600360205260408120600181015462010000900460ff166115255760405162461bcd60e51b81526004016105cb90611d0e565b600181015481546000916064916115489160ff16906001600160801b0316611ea9565b6115529190611ee8565b60018301546001600160801b0391909116915061157790610100900460ff1682611e5c565b949350505050565b60008281526020819052604090206001015461159a81611972565b61054d8383611a0e565b6000818152600360205260409020600181015462010000900460ff166115dc5760405162461bcd60e51b81526004016105cb90611d0e565b6001810154630100000090046001600160a01b0316331461160f5760405162461bcd60e51b81526004016105cb90611d3b565b8054600160e01b900463ffffffff164210156116665760405162461bcd60e51b8152602060048201526016602482015275151bdbc819585c9b1e48199bdc881b995e1d0813919560521b60448201526064016105cb565b80546116839062278d0090600160c01b900463ffffffff16611f16565b6001820154610100900460ff16106116cf5760405162461bcd60e51b815260206004820152600f60248201526e105b1b081391951cc81b5a5b9d1959608a1b60448201526064016105cb565b80546000906116ef9062278d0090600160e01b900463ffffffff16611e96565b6116f99042611e96565b905062278d0081101561174e5760405162461bcd60e51b815260206004820152601760248201527f4d75737420776169742066756c6c20696e74657276616c00000000000000000060448201526064016105cb565b6006546001600160a01b0316156118ad57600654600183015483546001600160a01b03928316926378eebc689263010000009004169086906001600160801b038116906117ac9062278d0090600160c01b900463ffffffff16611f2a565b87546001808a0154600160801b90920467ffffffffffffffff16916117da9161010090910460ff1690611f52565b89546117f79062278d0090600160e01b900463ffffffff16611de8565b6040516001600160e01b031960e08a901b1681526001600160a01b03909716600488015260248701959095526001600160801b03909316604486015263ffffffff91909116606485015267ffffffffffffffff16608484015260ff1660a483015260c4820152600060e4820152610104016020604051808303816000875af1158015611887573d6000803e3d6000fd5b505050506040513d601f19601f820116820180604052508101906118ab9190611dfb565b505b6001828101805482906118c9908290610100900460ff16611f52565b92506101000a81548160ff021916908360ff16021790555062278d0082600001601c8282829054906101000a900463ffffffff166119079190611f6b565b825461010092830a63ffffffff81810219909216929091160217909155600184015460405191810460ff169250630100000090046001600160a01b03169085907ff72bdd8cd5566bad60f33626067a6d7d9321e1c35394475613a19d8c0852c96390600090a4505050565b6107528133611b99565b60006119888383610786565b611a06576000838152602081815260408083206001600160a01b03861684529091529020805460ff191660011790556119be3390565b6001600160a01b0316826001600160a01b0316847f2f8788117e7eff1d82e926ec794901d17c78024a50270940304540a733656f0d60405160405180910390a45060016104b6565b5060006104b6565b6000611a1a8383610786565b15611a06576000838152602081815260408083206001600160a01b0386168085529252808320805460ff1916905551339286917ff6391f5c32d9c69d2a47ea670b442974b53935d1edc7fd64eb21e047a839171b9190a45060016104b6565b600260015403611a9c57604051633ee5aeb560e01b815260040160405180910390fd5b6002600155565b6000818152600360209081526040808320600180820154630100000090046001600160a01b03168552600484528285208686526005909452919093205482549091611aed91611e96565b8114611b565781546000908390611b0690600190611e96565b81548110611b1657611b16611f87565b9060005260206000200154905080838381548110611b3657611b36611f87565b600091825260208083209091019290925591825260059052604090208190555b81805480611b6657611b66611f9d565b60019003818190600052602060002001600090559055600560008581526020019081526020016000206000905550505050565b611ba38282610786565b6114e95760405163e2517d3f60e01b81526001600160a01b0382166004820152602481018390526044016105cb565b600060208284031215611be457600080fd5b81356001600160e01b031981168114611bfc57600080fd5b9392505050565b600060208284031215611c1557600080fd5b5035919050565b80356001600160a01b0381168114611c3357600080fd5b919050565b600060208284031215611c4a57600080fd5b611bfc82611c1c565b602080825282518282018190526000918401906040840190835b81811015611c8b578351835260209384019390920191600101611c6d565b509095945050505050565b60008060408385031215611ca957600080fd5b82359150611cb960208401611c1c565b90509250929050565b60008060408385031215611cd557600080fd5b611cde83611c1c565b946020939093013593505050565b60008060408385031215611cff57600080fd5b50508035926020909101359150565b602080825260139082015272506f736974696f6e206e6f742061637469766560681b604082015260600190565b6020808252601290820152712737ba103837b9b4ba34b7b71037bbb732b960711b604082015260600190565b600060208284031215611d7957600080fd5b81518015158114611bfc57600080fd5b6020808252600f908201526e151c985b9cd9995c8819985a5b1959608a1b604082015260600190565b634e487b7160e01b600052601160045260246000fd5b67ffffffffffffffff81811683821601908111156104b6576104b6611db2565b808201808211156104b6576104b6611db2565b600060208284031215611e0d57600080fd5b5051919050565b6000825160005b81811015611e355760208186018101518583015201611e1b565b506000920191825250919050565b600060018201611e5557611e55611db2565b5060010190565b80820281158282048414176104b6576104b6611db2565b600060208284031215611e8557600080fd5b815160ff81168114611bfc57600080fd5b818103818111156104b6576104b6611db2565b6001600160801b038181168382160290811690818114611ecb57611ecb611db2565b5092915050565b634e487b7160e01b600052601260045260246000fd5b60006001600160801b03831680611f0157611f01611ed2565b806001600160801b0384160491505092915050565b600082611f2557611f25611ed2565b500490565b600063ffffffff831680611f4057611f40611ed2565b8063ffffffff84160491505092915050565b60ff81811683821601908111156104b6576104b6611db2565b63ffffffff81811683821601908111156104b6576104b6611db2565b634e487b7160e01b600052603260045260246000fd5b634e487b7160e01b600052603160045260246000fdfea2646970667358221220f59c0ab902b5aed48077479ff200bdd6688e18e0a2972f9d139dd2039403237a64736f6c634300081c0033",
  "linkReferences": {},
  "deployedLinkReferences": {}
}