{
  "_format": "hh-sol-artifact-1",
  "contractName": "MultiStakeManager",
  "sourceName": "contracts/MultiStakeManager.sol",
  "abi": [
    {
      "inputs": [
        {
          "internalType": "address",
          "name": "_stakingToken",
          "type": "address"
        }
      ],
      "stateMutability": "nonpayable",
      "type": "constructor"
    },
    {
      "inputs": [],
      "name": "AccessControlBadConfirmation",
      "type": "error"
    },
    {
      "inputs": [
        {
          "internalType": "address",
          "name": "account",
          "type": "address"
        },
        {
          "internalType": "bytes32",
          "name": "neededRole",
          "type": "bytes32"
        }
      ],
      "name": "AccessControlUnauthorizedAccount",
      "type": "error"
    },
    {
      "inputs": [],
      "name": "ReentrancyGuardReentrantCall",
      "type": "error"
    },
    {
      "anonymous": false,
      "inputs": [
        {
          "indexed": true,
          "internalType": "uint256",
          "name": "positionId",
          "type": "uint256"
        },
        {
          "indexed": true,
          "internalType": "address",
          "name": "owner",
          "type": "address"
        },
        {
          "indexed": false,
          "internalType": "uint256",
          "name": "amount",
          "type": "uint256"
        }
      ],
      "name": "EmergencyWithdrawn",
      "type": "event"
    },
    {
      "anonymous": false,
      "inputs": [
        {
          "indexed": true,
          "internalType": "address",
          "name": "newNFTFactory",
          "type": "address"
        }
      ],
      "name": "NFTFactorySet",
      "type": "event"
    },
    {
      "anonymous": false,
      "inputs": [
        {
          "indexed": true,
          "internalType": "uint256",
          "name": "positionId",
          "type": "uint256"
        },
        {
          "indexed": true,
          "internalType": "address",
          "name": "owner",
          "type": "address"
        },
        {
          "indexed": false,
          "internalType": "uint256",
          "name": "amount",
          "type": "uint256"
        },
        {
          "indexed": false,
          "internalType": "uint256",
          "name": "reward",
          "type": "uint256"
        }
      ],
      "name": "PositionClosed",
      "type": "event"
    },
    {
      "anonymous": false,
      "inputs": [
        {
          "indexed": true,
          "internalType": "uint256",
          "name": "positionId",
          "type": "uint256"
        },
        {
          "indexed": true,
          "internalType": "address",
          "name": "owner",
          "type": "address"
        },
        {
          "indexed": false,
          "internalType": "uint256",
          "name": "amount",
          "type": "uint256"
        },
        {
          "indexed": false,
          "internalType": "uint256",
          "name": "duration",
          "type": "uint256"
        }
      ],
      "name": "PositionCreated",
      "type": "event"
    },
    {
      "anonymous": false,
      "inputs": [
        {
          "indexed": true,
          "internalType": "bytes32",
          "name": "role",
          "type": "bytes32"
        },
        {
          "indexed": true,
          "internalType": "bytes32",
          "name": "previousAdminRole",
          "type": "bytes32"
        },
        {
          "indexed": true,
          "internalType": "bytes32",
          "name": "newAdminRole",
          "type": "bytes32"
        }
      ],
      "name": "RoleAdminChanged",
      "type": "event"
    },
    {
      "anonymous": false,
      "inputs": [
        {
          "indexed": true,
          "internalType": "bytes32",
          "name": "role",
          "type": "bytes32"
        },
        {
          "indexed": true,
          "internalType": "address",
          "name": "account",
          "type": "address"
        },
        {
          "indexed": true,
          "internalType": "address",
          "name": "sender",
          "type": "address"
        }
      ],
      "name": "RoleGranted",
      "type": "event"
    },
    {
      "anonymous": false,
      "inputs": [
        {
          "indexed": true,
          "internalType": "bytes32",
          "name": "role",
          "type": "bytes32"
        },
        {
          "indexed": true,
          "internalType": "address",
          "name": "account",
          "type": "address"
        },
        {
          "indexed": true,
          "internalType": "address",
          "name": "sender",
          "type": "address"
        }
      ],
      "name": "RoleRevoked",
      "type": "event"
    },
    {
      "inputs": [],
      "name": "ADMIN_ROLE",
      "outputs": [
        {
          "internalType": "bytes32",
          "name": "",
          "type": "bytes32"
        }
      ],
      "stateMutability": "view",
      "type": "function"
    },
    {
      "inputs": [],
      "name": "DEFAULT_ADMIN_ROLE",
      "outputs": [
        {
          "internalType": "bytes32",
          "name": "",
          "type": "bytes32"
        }
      ],
      "stateMutability": "view",
      "type": "function"
    },
    {
      "inputs": [],
      "name": "MAX_POSITIONS_PER_WALLET",
      "outputs": [
        {
          "internalType": "uint256",
          "name": "",
          "type": "uint256"
        }
      ],
      "stateMutability": "view",
      "type": "function"
    },
    {
      "inputs": [],
      "name": "MAX_STAKE_DURATION",
      "outputs": [
        {
          "internalType": "uint256",
          "name": "",
          "type": "uint256"
        }
      ],
      "stateMutability": "view",
      "type": "function"
    },
    {
      "inputs": [],
      "name": "MIN_STAKE_DURATION",
      "outputs": [
        {
          "internalType": "uint256",
          "name": "",
          "type": "uint256"
        }
      ],
      "stateMutability": "view",
      "type": "function"
    },
    {
      "inputs": [],
      "name": "REWARD_INTERVAL",
      "outputs": [
        {
          "internalType": "uint256",
          "name": "",
          "type": "uint256"
        }
      ],
      "stateMutability": "view",
      "type": "function"
    },
    {
      "inputs": [
        {
          "internalType": "uint256",
          "name": "positionId",
          "type": "uint256"
        }
      ],
      "name": "calculateRewards",
      "outputs": [
        {
          "internalType": "uint256",
          "name": "",
          "type": "uint256"
        }
      ],
      "stateMutability": "view",
      "type": "function"
    },
    {
      "inputs": [
        {
          "internalType": "uint256",
          "name": "positionId",
          "type": "uint256"
        }
      ],
      "name": "closePosition",
      "outputs": [],
      "stateMutability": "nonpayable",
      "type": "function"
    },
    {
      "inputs": [
        {
          "internalType": "uint256",
          "name": "amount",
          "type": "uint256"
        },
        {
          "internalType": "uint256",
          "name": "duration",
          "type": "uint256"
        }
      ],
      "name": "createPosition",
      "outputs": [],
      "stateMutability": "nonpayable",
      "type": "function"
    },
    {
      "inputs": [
        {
          "internalType": "uint256",
          "name": "positionId",
          "type": "uint256"
        }
      ],
      "name": "emergencyWithdraw",
      "outputs": [],
      "stateMutability": "nonpayable",
      "type": "function"
    },
    {
      "inputs": [
        {
          "internalType": "bytes32",
          "name": "role",
          "type": "bytes32"
        }
      ],
      "name": "getRoleAdmin",
      "outputs": [
        {
          "internalType": "bytes32",
          "name": "",
          "type": "bytes32"
        }
      ],
      "stateMutability": "view",
      "type": "function"
    },
    {
      "inputs": [
        {
          "internalType": "address",
          "name": "user",
          "type": "address"
        }
      ],
      "name": "getUserPositions",
      "outputs": [
        {
          "internalType": "uint256[]",
          "name": "",
          "type": "uint256[]"
        }
      ],
      "stateMutability": "view",
      "type": "function"
    },
    {
      "inputs": [
        {
          "internalType": "bytes32",
          "name": "role",
          "type": "bytes32"
        },
        {
          "internalType": "address",
          "name": "account",
          "type": "address"
        }
      ],
      "name": "grantRole",
      "outputs": [],
      "stateMutability": "nonpayable",
      "type": "function"
    },
    {
      "inputs": [
        {
          "internalType": "bytes32",
          "name": "role",
          "type": "bytes32"
        },
        {
          "internalType": "address",
          "name": "account",
          "type": "address"
        }
      ],
      "name": "hasRole",
      "outputs": [
        {
          "internalType": "bool",
          "name": "",
          "type": "bool"
        }
      ],
      "stateMutability": "view",
      "type": "function"
    },
    {
      "inputs": [
        {
          "internalType": "uint256",
          "name": "positionId",
          "type": "uint256"
        }
      ],
      "name": "mintNextNFT",
      "outputs": [],
      "stateMutability": "nonpayable",
      "type": "function"
    },
    {
      "inputs": [],
      "name": "nftFactory",
      "outputs": [
        {
          "internalType": "address",
          "name": "",
          "type": "address"
        }
      ],
      "stateMutability": "view",
      "type": "function"
    },
    {
      "inputs": [
        {
          "internalType": "uint256",
          "name": "",
          "type": "uint256"
        }
      ],
      "name": "positionIndexInUserArray",
      "outputs": [
        {
          "internalType": "uint256",
          "name": "",
          "type": "uint256"
        }
      ],
      "stateMutability": "view",
      "type": "function"
    },
    {
      "inputs": [
        {
          "internalType": "uint256",
          "name": "",
          "type": "uint256"
        }
      ],
      "name": "positions",
      "outputs": [
        {
          "internalType": "uint128",
          "name": "amount",
          "type": "uint128"
        },
        {
          "internalType": "uint64",
          "name": "startTime",
          "type": "uint64"
        },
        {
          "internalType": "uint32",
          "name": "duration",
          "type": "uint32"
        },
        {
          "internalType": "uint32",
          "name": "nextMintAt",
          "type": "uint32"
        },
        {
          "internalType": "uint8",
          "name": "tier",
          "type": "uint8"
        },
        {
          "internalType": "uint8",
          "name": "monthIndex",
          "type": "uint8"
        },
        {
          "internalType": "bool",
          "name": "isActive",
          "type": "bool"
        },
        {
          "internalType": "address",
          "name": "owner",
          "type": "address"
        }
      ],
      "stateMutability": "view",
      "type": "function"
    },
    {
      "inputs": [
        {
          "internalType": "bytes32",
          "name": "role",
          "type": "bytes32"
        },
        {
          "internalType": "address",
          "name": "callerConfirmation",
          "type": "address"
        }
      ],
      "name": "renounceRole",
      "outputs": [],
      "stateMutability": "nonpayable",
      "type": "function"
    },
    {
      "inputs": [
        {
          "internalType": "bytes32",
          "name": "role",
          "type": "bytes32"
        },
        {
          "internalType": "address",
          "name": "account",
          "type": "address"
        }
      ],
      "name": "revokeRole",
      "outputs": [],
      "stateMutability": "nonpayable",
      "type": "function"
    },
    {
      "inputs": [
        {
          "internalType": "address",
          "name": "_nftFactory",
          "type": "address"
        }
      ],
      "name": "setNFTFactory",
      "outputs": [],
      "stateMutability": "nonpayable",
      "type": "function"
    },
    {
      "inputs": [],
      "name": "stakingToken",
      "outputs": [
        {
          "internalType": "contract IERC20",
          "name": "",
          "type": "address"
        }
      ],
      "stateMutability": "view",
      "type": "function"
    },
    {
      "inputs": [
        {
          "internalType": "bytes4",
          "name": "interfaceId",
          "type": "bytes4"
        }
      ],
      "name": "supportsInterface",
      "outputs": [
        {
          "internalType": "bool",
          "name": "",
          "type": "bool"
        }
      ],
      "stateMutability": "view",
      "type": "function"
    },
    {
      "inputs": [
        {
          "internalType": "address",
          "name": "",
          "type": "address"
        },
        {
          "internalType": "uint256",
          "name": "",
          "type": "uint256"
        }
      ],
      "name": "userPositions",
      "outputs": [
        {
          "internalType": "uint256",
          "name": "",
          "type": "uint256"
        }
      ],
      "stateMutability": "view",
      "type": "function"
    }
  ],
  "bytecode": "0x60a0604052600160025534801561001557600080fd5b50604051611b4b380380611b4b83398101604081905261003491610177565b600180556001600160a01b0381166100815760405162461bcd60e51b815260206004820152600c60248201526b5a65726f206164647265737360a01b604482015260640160405180910390fd5b6001600160a01b0381166080526100996000336100cb565b506100c47fa49807205ce4d355092ef5a8a18f56e8913cf4a201fbe287825b095693c21775336100cb565b50506101a7565b6000828152602081815260408083206001600160a01b038516845290915281205460ff1661016d576000838152602081815260408083206001600160a01b03861684529091529020805460ff191660011790556101253390565b6001600160a01b0316826001600160a01b0316847f2f8788117e7eff1d82e926ec794901d17c78024a50270940304540a733656f0d60405160405180910390a4506001610171565b5060005b92915050565b60006020828403121561018957600080fd5b81516001600160a01b03811681146101a057600080fd5b9392505050565b6080516119746101d76000396000818161023a01528181610677015281816108f10152610e4c01526119746000f3fe608060405234801561001057600080fd5b50600436106101585760003560e01c806399fbab88116100c3578063d3ea43501161007c578063d3ea4350146103e3578063d547741f146103f6578063d63843cd14610409578063e0c570ba1461041c578063e89636d914610425578063f883462c1461044557600080fd5b806399fbab88146102ae578063a126d60114610399578063a217fddf146103ac578063aa902b4d146103b4578063cb2d93ce146103bd578063d1aaef05146103d057600080fd5b80635312ea8e116101155780635312ea8e146102065780635dbdda69146102195780635e1b4d991461022257806372f702f31461023557806375b238fc1461027457806391d148541461029b57600080fd5b806301ffc9a71461015d57806303d50b1f14610185578063248a9ca31461019b5780632a6bc2dd146101be5780632f2ff15d146101de57806336568abe146101f3575b600080fd5b61017061016b3660046115db565b610458565b60405190151581526020015b60405180910390f35b61018d600a81565b60405190815260200161017c565b61018d6101a936600461160c565b60009081526020819052604090206001015490565b6101d16101cc366004611641565b61048f565b60405161017c919061165c565b6101f16101ec36600461169f565b6104fb565b005b6101f161020136600461169f565b610526565b6101f161021436600461160c565b61055e565b61018d61070881565b61018d6102303660046116cb565b61074d565b61025c7f000000000000000000000000000000000000000000000000000000000000000081565b6040516001600160a01b03909116815260200161017c565b61018d7fa49807205ce4d355092ef5a8a18f56e8913cf4a201fbe287825b095693c2177581565b6101706102a936600461169f565b61077e565b6103316102bc36600461160c565b600360205260009081526040902080546001909101546001600160801b0382169167ffffffffffffffff600160801b8204169163ffffffff600160c01b8304811692600160e01b9004169060ff80821691610100810482169162010000820416906001600160a01b0363010000009091041688565b604080516001600160801b03909916895267ffffffffffffffff909716602089015263ffffffff9586169688019690965293909216606086015260ff90811660808601521660a0840152151560c08301526001600160a01b031660e08201526101000161017c565b6101f16103a736600461160c565b6107a7565b61018d600081565b61018d618ca081565b6101f16103cb366004611641565b6109f5565b6101f16103de3660046116f5565b610aaf565b61018d6103f136600461160c565b610ffd565b6101f161040436600461169f565b61108f565b60065461025c906001600160a01b031681565b61018d610e1081565b61018d61043336600461160c565b60056020526000908152604090205481565b6101f161045336600461160c565b6110b4565b60006001600160e01b03198216637965db0b60e01b148061048957506301ffc9a760e01b6001600160e01b03198316145b92915050565b6001600160a01b0381166000908152600460209081526040918290208054835181840281018401909452808452606093928301828280156104ef57602002820191906000526020600020905b8154815260200190600101908083116104db575b50505050509050919050565b6000828152602081905260409020600101546105168161137b565b6105208383611385565b50505050565b6001600160a01b038116331461054f5760405163334bd91960e11b815260040160405180910390fd5b6105598282611417565b505050565b610566611482565b6000818152600360205260409020600181015462010000900460ff166105a75760405162461bcd60e51b815260040161059e90611717565b60405180910390fd5b6001810154630100000090046001600160a01b031633146105ff5760405162461bcd60e51b81526020600482015260126024820152712737ba103837b9b4ba34b7b71037bbb732b960711b604482015260640161059e565b3332146106395760405162461bcd60e51b81526020600482015260086024820152674f6e6c7920454f4160c01b604482015260640161059e565b805460018201805462ff0000191690556001600160801b031661065b836114ac565b60405163a9059cbb60e01b8152336004820152602481018290527f00000000000000000000000000000000000000000000000000000000000000006001600160a01b03169063a9059cbb906044016020604051808303816000875af11580156106c8573d6000803e3d6000fd5b505050506040513d601f19601f820116820180604052508101906106ec9190611744565b6107085760405162461bcd60e51b815260040161059e90611766565b604051818152339084907fafe87099d21cd68765ccb431a535ca7a632ac9f66e04e99c9574fb5ddfdefca79060200160405180910390a3505061074a60018055565b50565b6004602052816000526040600020818154811061076957600080fd5b90600052602060002001600091509150505481565b6000918252602082815260408084206001600160a01b0393909316845291905290205460ff1690565b6107af611482565b6000818152600360205260409020600181015462010000900460ff166107e75760405162461bcd60e51b815260040161059e90611717565b6001810154630100000090046001600160a01b0316331461083f5760405162461bcd60e51b81526020600482015260126024820152712737ba103837b9b4ba34b7b71037bbb732b960711b604482015260640161059e565b805461086990600160c01b810463ffffffff1690600160801b900467ffffffffffffffff166117a5565b67ffffffffffffffff164210156108b85760405162461bcd60e51b8152602060048201526013602482015272506f736974696f6e206e6f74206d617475726560681b604482015260640161059e565b80546001600160801b031660006108ce84610ffd565b60018401805462ff00001916905590506108e7846114ac565b6001600160a01b037f00000000000000000000000000000000000000000000000000000000000000001663a9059cbb3361092184866117c5565b6040516001600160e01b031960e085901b1681526001600160a01b03909216600483015260248201526044016020604051808303816000875af115801561096c573d6000803e3d6000fd5b505050506040513d601f19601f820116820180604052508101906109909190611744565b6109ac5760405162461bcd60e51b815260040161059e90611766565b6040805183815260208101839052339186917f3120c845c5d2c39308641201562a412527c1e7aff294f09c0c936f1c60a1b067910160405180910390a350505061074a60018055565b7fa49807205ce4d355092ef5a8a18f56e8913cf4a201fbe287825b095693c21775610a1f8161137b565b6001600160a01b038216610a645760405162461bcd60e51b815260206004820152600c60248201526b5a65726f206164647265737360a01b604482015260640161059e565b600680546001600160a01b0319166001600160a01b0384169081179091556040517f0b2a4659dd447011d8135e07f985a6153b6446f82b0d167e0f804c5fde175e2f90600090a25050565b610ab7611482565b60008211610af55760405162461bcd60e51b815260206004820152600b60248201526a16995c9bc8185b5bdd5b9d60aa1b604482015260640161059e565b610e10811015610b3c5760405162461bcd60e51b8152602060048201526012602482015271111d5c985d1a5bdb881d1bdbc81cda1bdc9d60721b604482015260640161059e565b618ca0811115610b825760405162461bcd60e51b81526020600482015260116024820152704475726174696f6e20746f6f206c6f6e6760781b604482015260640161059e565b33600090815260046020526040902054600a11610bd65760405162461bcd60e51b8152602060048201526012602482015271546f6f206d616e7920706f736974696f6e7360701b604482015260640161059e565b6001600160801b03821115610c205760405162461bcd60e51b815260206004820152601060248201526f416d6f756e7420746f6f206c6172676560801b604482015260640161059e565b6002805460009182610c31836117d8565b909155509050426000617e908410610c4b57506003610c71565b6162708410610c5c57506002610c71565b6138408410610c6d57506001610c71565b5060005b6000610c7f61070886611807565b905060006107089050604051806101000160405280886001600160801b031681526020018567ffffffffffffffff1681526020018763ffffffff1681526020018286610ccb91906117c5565b63ffffffff908116825260ff80871660208085019190915260006040808601829052600160608088018290523360809889018190528e8552600386528385208a5181548c8901518d880151958e01518c16600160e01b026001600160e01b0396909c16600160c01b02959095166001600160c01b0367ffffffffffffffff909616600160801b026001600160c01b03199092166001600160801b039093169290921717939093169290921797909717815596880151968101805460a08a015160c08b015160e0909b01516001600160a01b03166301000000026301000000600160b81b03199b151562010000029b909b1662010000600160b81b03199189166101000261ffff199093169a9098169990991717979097169490941796909617909455828452600481529383208054808301825581855294842090940189905591529054610e18919061181b565b6000868152600560205260409081902091909155516323b872dd60e01b8152336004820152306024820152604481018890527f00000000000000000000000000000000000000000000000000000000000000006001600160a01b0316906323b872dd906064016020604051808303816000875af1158015610e9d573d6000803e3d6000fd5b505050506040513d601f19601f82011682018060405250810190610ec19190611744565b610edd5760405162461bcd60e51b815260040161059e90611766565b6040805188815260208101889052339187917ffb617c13a5b4b052ee893903dca019ab1611dfef1b20f7acb7a5bfe008c10260910160405180910390a36006546001600160a01b031615610feb576006546001600160a01b031663f4fb815933878a610f4b610e108c611807565b896000610f5889836117c5565b6040516001600160e01b031960e08a901b1681526001600160a01b039097166004880152602487019590955260448601939093526064850191909152608484015260a483015260c482015260e4016020604051808303816000875af1158015610fc5573d6000803e3d6000fd5b505050506040513d601f19601f82011682018060405250810190610fe9919061182e565b505b5050505050610ff960018055565b5050565b6000818152600360205260408120600181015462010000900460ff166110355760405162461bcd60e51b815260040161059e90611717565b600181015481546000916064916110589160ff16906001600160801b0316611847565b6110629190611870565b60018301546001600160801b0391909116915061108790610100900460ff168261189e565b949350505050565b6000828152602081905260409020600101546110aa8161137b565b6105208383611417565b6000818152600360205260409020600181015462010000900460ff166110ec5760405162461bcd60e51b815260040161059e90611717565b8054600160e01b900463ffffffff164210156111435760405162461bcd60e51b8152602060048201526016602482015275151bdbc819585c9b1e48199bdc881b995e1d0813919560521b604482015260640161059e565b805461115f9061070890600160c01b900463ffffffff16611807565b6001820154610100900460ff16106111ab5760405162461bcd60e51b815260206004820152600f60248201526e105b1b081391951cc81b5a5b9d1959608a1b604482015260640161059e565b6006546001600160a01b03161561130057600654600182015482546001600160a01b039283169263f4fb81599263010000009004169085906001600160801b0381169061120890610e1090600160c01b900463ffffffff166118b5565b8654600180890154600160801b90920467ffffffffffffffff16916112369161010090910460ff16906118dd565b88546112529061070890600160e01b900463ffffffff166117c5565b6040516001600160e01b031960e08a901b1681526001600160a01b03909716600488015260248701959095526001600160801b03909316604486015263ffffffff91909116606485015267ffffffffffffffff16608484015260ff1660a483015260c482015260e4016020604051808303816000875af11580156112da573d6000803e3d6000fd5b505050506040513d601f19601f820116820180604052508101906112fe919061182e565b505b60018181018054829061131c908290610100900460ff166118dd565b92506101000a81548160ff021916908360ff16021790555061070881600001601c8282829054906101000a900463ffffffff1661135991906118f6565b92506101000a81548163ffffffff021916908363ffffffff1602179055505050565b61074a81336115a2565b6000611391838361077e565b61140f576000838152602081815260408083206001600160a01b03861684529091529020805460ff191660011790556113c73390565b6001600160a01b0316826001600160a01b0316847f2f8788117e7eff1d82e926ec794901d17c78024a50270940304540a733656f0d60405160405180910390a4506001610489565b506000610489565b6000611423838361077e565b1561140f576000838152602081815260408083206001600160a01b0386168085529252808320805460ff1916905551339286917ff6391f5c32d9c69d2a47ea670b442974b53935d1edc7fd64eb21e047a839171b9190a4506001610489565b6002600154036114a557604051633ee5aeb560e01b815260040160405180910390fd5b6002600155565b6000818152600360209081526040808320600180820154630100000090046001600160a01b031685526004845282852086865260059094529190932054825490916114f69161181b565b811461155f578154600090839061150f9060019061181b565b8154811061151f5761151f611912565b906000526020600020015490508083838154811061153f5761153f611912565b600091825260208083209091019290925591825260059052604090208190555b8180548061156f5761156f611928565b60019003818190600052602060002001600090559055600560008581526020019081526020016000206000905550505050565b6115ac828261077e565b610ff95760405163e2517d3f60e01b81526001600160a01b03821660048201526024810183905260440161059e565b6000602082840312156115ed57600080fd5b81356001600160e01b03198116811461160557600080fd5b9392505050565b60006020828403121561161e57600080fd5b5035919050565b80356001600160a01b038116811461163c57600080fd5b919050565b60006020828403121561165357600080fd5b61160582611625565b602080825282518282018190526000918401906040840190835b81811015611694578351835260209384019390920191600101611676565b509095945050505050565b600080604083850312156116b257600080fd5b823591506116c260208401611625565b90509250929050565b600080604083850312156116de57600080fd5b6116e783611625565b946020939093013593505050565b6000806040838503121561170857600080fd5b50508035926020909101359150565b602080825260139082015272506f736974696f6e206e6f742061637469766560681b604082015260600190565b60006020828403121561175657600080fd5b8151801515811461160557600080fd5b6020808252600f908201526e151c985b9cd9995c8819985a5b1959608a1b604082015260600190565b634e487b7160e01b600052601160045260246000fd5b67ffffffffffffffff81811683821601908111156104895761048961178f565b808201808211156104895761048961178f565b6000600182016117ea576117ea61178f565b5060010190565b634e487b7160e01b600052601260045260246000fd5b600082611816576118166117f1565b500490565b818103818111156104895761048961178f565b60006020828403121561184057600080fd5b5051919050565b6001600160801b0381811683821602908116908181146118695761186961178f565b5092915050565b60006001600160801b03831680611889576118896117f1565b806001600160801b0384160491505092915050565b80820281158282048414176104895761048961178f565b600063ffffffff8316806118cb576118cb6117f1565b8063ffffffff84160491505092915050565b60ff81811683821601908111156104895761048961178f565b63ffffffff81811683821601908111156104895761048961178f565b634e487b7160e01b600052603260045260246000fd5b634e487b7160e01b600052603160045260246000fdfea2646970667358221220817de45f99c3e16a589f462bc1c4f8d37be4549ca14a7065dccd7b76b49cc31064736f6c634300081c0033",
  "linkReferences": {},
  "deployedLinkReferences": {}
}