{
  "_format": "hh-sol-artifact-1",
  "contractName": "MultiStakeManager",
  "sourceName": "contracts/MultiStakeManager.sol",
  "abi": [
    {
      "inputs": [
        {
          "internalType": "address",
          "name": "_stakingToken",
          "type": "address"
        },
        {
          "internalType": "address",
          "name": "_tierCalculator",
          "type": "address"
        }
      ],
      "stateMutability": "nonpayable",
      "type": "constructor"
    },
    {
      "inputs": [],
      "name": "AccessControlBadConfirmation",
      "type": "error"
    },
    {
      "inputs": [
        {
          "internalType": "address",
          "name": "account",
          "type": "address"
        },
        {
          "internalType": "bytes32",
          "name": "neededRole",
          "type": "bytes32"
        }
      ],
      "name": "AccessControlUnauthorizedAccount",
      "type": "error"
    },
    {
      "inputs": [],
      "name": "ReentrancyGuardReentrantCall",
      "type": "error"
    },
    {
      "anonymous": false,
      "inputs": [
        {
          "indexed": false,
          "internalType": "string",
          "name": "message",
          "type": "string"
        },
        {
          "indexed": false,
          "internalType": "uint256",
          "name": "value",
          "type": "uint256"
        }
      ],
      "name": "DebugLog",
      "type": "event"
    },
    {
      "anonymous": false,
      "inputs": [
        {
          "indexed": true,
          "internalType": "uint256",
          "name": "positionId",
          "type": "uint256"
        },
        {
          "indexed": true,
          "internalType": "address",
          "name": "owner",
          "type": "address"
        },
        {
          "indexed": false,
          "internalType": "uint256",
          "name": "amount",
          "type": "uint256"
        }
      ],
      "name": "EmergencyWithdrawn",
      "type": "event"
    },
    {
      "anonymous": false,
      "inputs": [
        {
          "indexed": true,
          "internalType": "address",
          "name": "newNFTFactory",
          "type": "address"
        }
      ],
      "name": "NFTFactorySet",
      "type": "event"
    },
    {
      "anonymous": false,
      "inputs": [
        {
          "indexed": true,
          "internalType": "uint256",
          "name": "positionId",
          "type": "uint256"
        },
        {
          "indexed": true,
          "internalType": "address",
          "name": "owner",
          "type": "address"
        },
        {
          "indexed": false,
          "internalType": "uint256",
          "name": "amount",
          "type": "uint256"
        },
        {
          "indexed": false,
          "internalType": "uint256",
          "name": "reward",
          "type": "uint256"
        }
      ],
      "name": "PositionClosed",
      "type": "event"
    },
    {
      "anonymous": false,
      "inputs": [
        {
          "indexed": true,
          "internalType": "uint256",
          "name": "positionId",
          "type": "uint256"
        },
        {
          "indexed": true,
          "internalType": "address",
          "name": "owner",
          "type": "address"
        },
        {
          "indexed": false,
          "internalType": "uint256",
          "name": "amount",
          "type": "uint256"
        },
        {
          "indexed": false,
          "internalType": "uint256",
          "name": "duration",
          "type": "uint256"
        }
      ],
      "name": "PositionCreated",
      "type": "event"
    },
    {
      "anonymous": false,
      "inputs": [
        {
          "indexed": true,
          "internalType": "bytes32",
          "name": "role",
          "type": "bytes32"
        },
        {
          "indexed": true,
          "internalType": "bytes32",
          "name": "previousAdminRole",
          "type": "bytes32"
        },
        {
          "indexed": true,
          "internalType": "bytes32",
          "name": "newAdminRole",
          "type": "bytes32"
        }
      ],
      "name": "RoleAdminChanged",
      "type": "event"
    },
    {
      "anonymous": false,
      "inputs": [
        {
          "indexed": true,
          "internalType": "bytes32",
          "name": "role",
          "type": "bytes32"
        },
        {
          "indexed": true,
          "internalType": "address",
          "name": "account",
          "type": "address"
        },
        {
          "indexed": true,
          "internalType": "address",
          "name": "sender",
          "type": "address"
        }
      ],
      "name": "RoleGranted",
      "type": "event"
    },
    {
      "anonymous": false,
      "inputs": [
        {
          "indexed": true,
          "internalType": "bytes32",
          "name": "role",
          "type": "bytes32"
        },
        {
          "indexed": true,
          "internalType": "address",
          "name": "account",
          "type": "address"
        },
        {
          "indexed": true,
          "internalType": "address",
          "name": "sender",
          "type": "address"
        }
      ],
      "name": "RoleRevoked",
      "type": "event"
    },
    {
      "inputs": [],
      "name": "ADMIN_ROLE",
      "outputs": [
        {
          "internalType": "bytes32",
          "name": "",
          "type": "bytes32"
        }
      ],
      "stateMutability": "view",
      "type": "function"
    },
    {
      "inputs": [],
      "name": "DEFAULT_ADMIN_ROLE",
      "outputs": [
        {
          "internalType": "bytes32",
          "name": "",
          "type": "bytes32"
        }
      ],
      "stateMutability": "view",
      "type": "function"
    },
    {
      "inputs": [],
      "name": "MAX_POSITIONS_PER_WALLET",
      "outputs": [
        {
          "internalType": "uint256",
          "name": "",
          "type": "uint256"
        }
      ],
      "stateMutability": "view",
      "type": "function"
    },
    {
      "inputs": [],
      "name": "MAX_STAKE_MONTHS",
      "outputs": [
        {
          "internalType": "uint256",
          "name": "",
          "type": "uint256"
        }
      ],
      "stateMutability": "view",
      "type": "function"
    },
    {
      "inputs": [],
      "name": "MIN_STAKE_MONTHS",
      "outputs": [
        {
          "internalType": "uint256",
          "name": "",
          "type": "uint256"
        }
      ],
      "stateMutability": "view",
      "type": "function"
    },
    {
      "inputs": [],
      "name": "REWARD_INTERVAL",
      "outputs": [
        {
          "internalType": "uint256",
          "name": "",
          "type": "uint256"
        }
      ],
      "stateMutability": "view",
      "type": "function"
    },
    {
      "inputs": [
        {
          "internalType": "uint256",
          "name": "positionId",
          "type": "uint256"
        }
      ],
      "name": "calculateRewards",
      "outputs": [
        {
          "internalType": "uint256",
          "name": "",
          "type": "uint256"
        }
      ],
      "stateMutability": "view",
      "type": "function"
    },
    {
      "inputs": [
        {
          "internalType": "uint256",
          "name": "positionId",
          "type": "uint256"
        }
      ],
      "name": "closePosition",
      "outputs": [],
      "stateMutability": "nonpayable",
      "type": "function"
    },
    {
      "inputs": [
        {
          "internalType": "uint256",
          "name": "amount",
          "type": "uint256"
        },
        {
          "internalType": "uint256",
          "name": "months",
          "type": "uint256"
        }
      ],
      "name": "createPosition",
      "outputs": [],
      "stateMutability": "nonpayable",
      "type": "function"
    },
    {
      "inputs": [
        {
          "internalType": "uint256",
          "name": "positionId",
          "type": "uint256"
        }
      ],
      "name": "emergencyWithdraw",
      "outputs": [],
      "stateMutability": "nonpayable",
      "type": "function"
    },
    {
      "inputs": [
        {
          "internalType": "bytes32",
          "name": "role",
          "type": "bytes32"
        }
      ],
      "name": "getRoleAdmin",
      "outputs": [
        {
          "internalType": "bytes32",
          "name": "",
          "type": "bytes32"
        }
      ],
      "stateMutability": "view",
      "type": "function"
    },
    {
      "inputs": [
        {
          "internalType": "address",
          "name": "user",
          "type": "address"
        }
      ],
      "name": "getUserPositions",
      "outputs": [
        {
          "internalType": "uint256[]",
          "name": "",
          "type": "uint256[]"
        }
      ],
      "stateMutability": "view",
      "type": "function"
    },
    {
      "inputs": [
        {
          "internalType": "bytes32",
          "name": "role",
          "type": "bytes32"
        },
        {
          "internalType": "address",
          "name": "account",
          "type": "address"
        }
      ],
      "name": "grantRole",
      "outputs": [],
      "stateMutability": "nonpayable",
      "type": "function"
    },
    {
      "inputs": [
        {
          "internalType": "bytes32",
          "name": "role",
          "type": "bytes32"
        },
        {
          "internalType": "address",
          "name": "account",
          "type": "address"
        }
      ],
      "name": "hasRole",
      "outputs": [
        {
          "internalType": "bool",
          "name": "",
          "type": "bool"
        }
      ],
      "stateMutability": "view",
      "type": "function"
    },
    {
      "inputs": [
        {
          "internalType": "uint256",
          "name": "positionId",
          "type": "uint256"
        }
      ],
      "name": "mintNextNFT",
      "outputs": [],
      "stateMutability": "nonpayable",
      "type": "function"
    },
    {
      "inputs": [],
      "name": "nftFactory",
      "outputs": [
        {
          "internalType": "address",
          "name": "",
          "type": "address"
        }
      ],
      "stateMutability": "view",
      "type": "function"
    },
    {
      "inputs": [
        {
          "internalType": "uint256",
          "name": "",
          "type": "uint256"
        }
      ],
      "name": "positionIndexInUserArray",
      "outputs": [
        {
          "internalType": "uint256",
          "name": "",
          "type": "uint256"
        }
      ],
      "stateMutability": "view",
      "type": "function"
    },
    {
      "inputs": [
        {
          "internalType": "uint256",
          "name": "",
          "type": "uint256"
        }
      ],
      "name": "positions",
      "outputs": [
        {
          "internalType": "uint128",
          "name": "amount",
          "type": "uint128"
        },
        {
          "internalType": "uint64",
          "name": "startTime",
          "type": "uint64"
        },
        {
          "internalType": "uint32",
          "name": "duration",
          "type": "uint32"
        },
        {
          "internalType": "uint32",
          "name": "nextMintAt",
          "type": "uint32"
        },
        {
          "internalType": "uint8",
          "name": "tier",
          "type": "uint8"
        },
        {
          "internalType": "uint8",
          "name": "monthIndex",
          "type": "uint8"
        },
        {
          "internalType": "bool",
          "name": "isActive",
          "type": "bool"
        },
        {
          "internalType": "address",
          "name": "owner",
          "type": "address"
        }
      ],
      "stateMutability": "view",
      "type": "function"
    },
    {
      "inputs": [
        {
          "internalType": "bytes32",
          "name": "role",
          "type": "bytes32"
        },
        {
          "internalType": "address",
          "name": "callerConfirmation",
          "type": "address"
        }
      ],
      "name": "renounceRole",
      "outputs": [],
      "stateMutability": "nonpayable",
      "type": "function"
    },
    {
      "inputs": [
        {
          "internalType": "bytes32",
          "name": "role",
          "type": "bytes32"
        },
        {
          "internalType": "address",
          "name": "account",
          "type": "address"
        }
      ],
      "name": "revokeRole",
      "outputs": [],
      "stateMutability": "nonpayable",
      "type": "function"
    },
    {
      "inputs": [
        {
          "internalType": "address",
          "name": "_nftFactory",
          "type": "address"
        }
      ],
      "name": "setNFTFactory",
      "outputs": [],
      "stateMutability": "nonpayable",
      "type": "function"
    },
    {
      "inputs": [],
      "name": "stakingToken",
      "outputs": [
        {
          "internalType": "contract IERC20",
          "name": "",
          "type": "address"
        }
      ],
      "stateMutability": "view",
      "type": "function"
    },
    {
      "inputs": [
        {
          "internalType": "bytes4",
          "name": "interfaceId",
          "type": "bytes4"
        }
      ],
      "name": "supportsInterface",
      "outputs": [
        {
          "internalType": "bool",
          "name": "",
          "type": "bool"
        }
      ],
      "stateMutability": "view",
      "type": "function"
    },
    {
      "inputs": [],
      "name": "tierCalculator",
      "outputs": [
        {
          "internalType": "address",
          "name": "",
          "type": "address"
        }
      ],
      "stateMutability": "view",
      "type": "function"
    },
    {
      "inputs": [
        {
          "internalType": "address",
          "name": "",
          "type": "address"
        },
        {
          "internalType": "uint256",
          "name": "",
          "type": "uint256"
        }
      ],
      "name": "userPositions",
      "outputs": [
        {
          "internalType": "uint256",
          "name": "",
          "type": "uint256"
        }
      ],
      "stateMutability": "view",
      "type": "function"
    }
  ],
  "bytecode": "0x60a0604052600160025534801561001557600080fd5b5060405161217e38038061217e83398101604081905261003491610203565b600180556001600160a01b0382166100825760405162461bcd60e51b815260206004820152600c60248201526b5a65726f206164647265737360a01b60448201526064015b60405180910390fd5b6001600160a01b0381166100d85760405162461bcd60e51b815260206004820152601360248201527f5a65726f207469657243616c63756c61746f72000000000000000000000000006044820152606401610079565b6001600160a01b03828116608052600780546001600160a01b03191691831691909117905561010860003361013b565b506101337fa49807205ce4d355092ef5a8a18f56e8913cf4a201fbe287825b095693c217753361013b565b505050610236565b6000828152602081815260408083206001600160a01b038516845290915281205460ff166101dd576000838152602081815260408083206001600160a01b03861684529091529020805460ff191660011790556101953390565b6001600160a01b0316826001600160a01b0316847f2f8788117e7eff1d82e926ec794901d17c78024a50270940304540a733656f0d60405160405180910390a45060016101e1565b5060005b92915050565b80516001600160a01b03811681146101fe57600080fd5b919050565b6000806040838503121561021657600080fd5b61021f836101e7565b915061022d602084016101e7565b90509250929050565b608051611efc6102826000396000818161025e015281816106a40152818161091e01528181610ca301528181610d7601528181610e3801528181610e9701526113870152611efc6000f3fe608060405234801561001057600080fd5b50600436106101735760003560e01c806391d14854116100de578063cb2d93ce11610097578063d547741f11610071578063d547741f1461042c578063d63843cd1461043f578063e89636d914610452578063f883462c1461047257600080fd5b8063cb2d93ce146103f3578063d1aaef0514610406578063d3ea43501461041957600080fd5b806391d14854146102bf57806399fbab88146102d2578063a126d601146103bd578063a217fddf146103d0578063be0f2b88146103d8578063c719f322146103eb57600080fd5b806336568abe1161013057806336568abe146102165780635312ea8e146102295780635dbdda691461023c5780635e1b4d991461024657806372f702f31461025957806375b238fc1461029857600080fd5b806301ffc9a71461017857806303d50b1f146101a0578063189b914a146101b6578063248a9ca3146101be5780632a6bc2dd146101e15780632f2ff15d14610201575b600080fd5b61018b610186366004611b11565b610485565b60405190151581526020015b60405180910390f35b6101a8600a81565b604051908152602001610197565b6101a8600c81565b6101a86101cc366004611b42565b60009081526020819052604090206001015490565b6101f46101ef366004611b77565b6104bc565b6040516101979190611b92565b61021461020f366004611bd5565b610528565b005b610214610224366004611bd5565b610553565b610214610237366004611b42565b61058b565b6101a862278d0081565b6101a8610254366004611c01565b61077a565b6102807f000000000000000000000000000000000000000000000000000000000000000081565b6040516001600160a01b039091168152602001610197565b6101a87fa49807205ce4d355092ef5a8a18f56e8913cf4a201fbe287825b095693c2177581565b61018b6102cd366004611bd5565b6107ab565b6103556102e0366004611b42565b600360205260009081526040902080546001909101546001600160801b0382169167ffffffffffffffff600160801b8204169163ffffffff600160c01b8304811692600160e01b9004169060ff80821691610100810482169162010000820416906001600160a01b0363010000009091041688565b604080516001600160801b03909916895267ffffffffffffffff909716602089015263ffffffff9586169688019690965293909216606086015260ff90811660808601521660a0840152151560c08301526001600160a01b031660e082015261010001610197565b6102146103cb366004611b42565b6107d4565b6101a8600081565b600754610280906001600160a01b031681565b6101a8600381565b610214610401366004611b77565b610a22565b610214610414366004611c2b565b610adc565b6101a8610427366004611b42565b61152f565b61021461043a366004611bd5565b6115c1565b600654610280906001600160a01b031681565b6101a8610460366004611b42565b60056020526000908152604090205481565b610214610480366004611b42565b6115e6565b60006001600160e01b03198216637965db0b60e01b14806104b657506301ffc9a760e01b6001600160e01b03198316145b92915050565b6001600160a01b03811660009081526004602090815260409182902080548351818402810184019094528084526060939283018282801561051c57602002820191906000526020600020905b815481526020019060010190808311610508575b50505050509050919050565b600082815260208190526040902060010154610543816118b1565b61054d83836118bb565b50505050565b6001600160a01b038116331461057c5760405163334bd91960e11b815260040160405180910390fd5b610586828261194d565b505050565b6105936119b8565b6000818152600360205260409020600181015462010000900460ff166105d45760405162461bcd60e51b81526004016105cb90611c4d565b60405180910390fd5b6001810154630100000090046001600160a01b0316331461062c5760405162461bcd60e51b81526020600482015260126024820152712737ba103837b9b4ba34b7b71037bbb732b960711b60448201526064016105cb565b3332146106665760405162461bcd60e51b81526020600482015260086024820152674f6e6c7920454f4160c01b60448201526064016105cb565b805460018201805462ff0000191690556001600160801b0316610688836119e2565b60405163a9059cbb60e01b8152336004820152602481018290527f00000000000000000000000000000000000000000000000000000000000000006001600160a01b03169063a9059cbb906044016020604051808303816000875af11580156106f5573d6000803e3d6000fd5b505050506040513d601f19601f820116820180604052508101906107199190611c7a565b6107355760405162461bcd60e51b81526004016105cb90611c9c565b604051818152339084907fafe87099d21cd68765ccb431a535ca7a632ac9f66e04e99c9574fb5ddfdefca79060200160405180910390a3505061077760018055565b50565b6004602052816000526040600020818154811061079657600080fd5b90600052602060002001600091509150505481565b6000918252602082815260408084206001600160a01b0393909316845291905290205460ff1690565b6107dc6119b8565b6000818152600360205260409020600181015462010000900460ff166108145760405162461bcd60e51b81526004016105cb90611c4d565b6001810154630100000090046001600160a01b0316331461086c5760405162461bcd60e51b81526020600482015260126024820152712737ba103837b9b4ba34b7b71037bbb732b960711b60448201526064016105cb565b805461089690600160c01b810463ffffffff1690600160801b900467ffffffffffffffff16611cdb565b67ffffffffffffffff164210156108e55760405162461bcd60e51b8152602060048201526013602482015272506f736974696f6e206e6f74206d617475726560681b60448201526064016105cb565b80546001600160801b031660006108fb8461152f565b60018401805462ff0000191690559050610914846119e2565b6001600160a01b037f00000000000000000000000000000000000000000000000000000000000000001663a9059cbb3361094e8486611cfb565b6040516001600160e01b031960e085901b1681526001600160a01b03909216600483015260248201526044016020604051808303816000875af1158015610999573d6000803e3d6000fd5b505050506040513d601f19601f820116820180604052508101906109bd9190611c7a565b6109d95760405162461bcd60e51b81526004016105cb90611c9c565b6040805183815260208101839052339186917f3120c845c5d2c39308641201562a412527c1e7aff294f09c0c936f1c60a1b067910160405180910390a350505061077760018055565b7fa49807205ce4d355092ef5a8a18f56e8913cf4a201fbe287825b095693c21775610a4c816118b1565b6001600160a01b038216610a915760405162461bcd60e51b815260206004820152600c60248201526b5a65726f206164647265737360a01b60448201526064016105cb565b600680546001600160a01b0319166001600160a01b0384169081179091556040517f0b2a4659dd447011d8135e07f985a6153b6446f82b0d167e0f804c5fde175e2f90600090a25050565b610ae46119b8565b604080518181526014818301527329aa20a92a1031b932b0ba32a837b9b4ba34b7b760611b60608201526020810184905290517ff6ff2ad7fc16bda2a7d32462729431bce3ebe9b75cc7c9b35a0adfbf7e7bb9e69181900360800190a1683635c9adc5dea00000821015610b8c5760405162461bcd60e51b815260206004820152600f60248201526e4d696e203130303020746f6b656e7360881b60448201526064016105cb565b8060031480610b9b5750806006145b80610ba65750806009145b80610bb1575080600c145b610bee5760405162461bcd60e51b815260206004820152600e60248201526d496e76616c6964206d6f6e74687360901b60448201526064016105cb565b33600090815260046020526040902054600a11610c425760405162461bcd60e51b8152602060048201526012602482015271546f6f206d616e7920706f736974696f6e7360701b60448201526064016105cb565b6001600160801b03821115610c8c5760405162461bcd60e51b815260206004820152601060248201526f416d6f756e7420746f6f206c6172676560801b60448201526064016105cb565b6040516370a0823160e01b815233600482015282907f00000000000000000000000000000000000000000000000000000000000000006001600160a01b0316906370a0823190602401602060405180830381865afa158015610cf2573d6000803e3d6000fd5b505050506040513d601f19601f82011682018060405250810190610d169190611d0e565b1015610d595760405162461bcd60e51b81526020600482015260126024820152714e6f7420656e6f7567682062616c616e636560701b60448201526064016105cb565b604051636eb1769f60e11b815233600482015230602482015282907f00000000000000000000000000000000000000000000000000000000000000006001600160a01b03169063dd62ed3e90604401602060405180830381865afa158015610dc5573d6000803e3d6000fd5b505050506040513d601f19601f82011682018060405250810190610de99190611d0e565b1015610e2e5760405162461bcd60e51b81526020600482015260146024820152734e6f7420656e6f75676820616c6c6f77616e636560601b60448201526064016105cb565b6001600160a01b037f0000000000000000000000000000000000000000000000000000000000000000163b15610f6f5760408051600481526024810182526020810180516001600160e01b0316635c975abb60e01b179052905160009182916001600160a01b037f00000000000000000000000000000000000000000000000000000000000000001691610ec191611d27565b600060405180830381855afa9150503d8060008114610efc576040519150601f19603f3d011682016040523d82523d6000602084013e610f01565b606091505b5091509150818015610f14575080516020145b15610f6c5780806020019051810190610f2d9190611c7a565b15610f6c5760405162461bcd60e51b815260206004820152600f60248201526e151bdad95b881a5cc81c185d5cd959608a1b60448201526064016105cb565b50505b604080518181526019818301527f50617373656420616c6c207265717569726520636865636b730000000000000060608201526020810184905290517ff6ff2ad7fc16bda2a7d32462729431bce3ebe9b75cc7c9b35a0adfbf7e7bb9e69181900360800190a16002805460009182610fe683611d56565b909155509050426000610ffc8462278d00611d6f565b600754604051602481018790526044810188905291925060009182916001600160a01b03169060640160408051601f198184030181529181526020820180516001600160e01b03166351355cfb60e01b1790525161105a9190611d27565b600060405180830381855afa9150503d8060008114611095576040519150601f19603f3d011682016040523d82523d6000602084013e61109a565b606091505b5091509150816110ec5760405162461bcd60e51b815260206004820152601a60248201527f5469657243616c63756c61746f722063616c6c206661696c656400000000000060448201526064016105cb565b6000818060200190518101906111029190611d86565b9050600062278d0090506040518061010001604052808a6001600160801b031681526020018767ffffffffffffffff1681526020018663ffffffff168152602001828861114f9190611cfb565b63ffffffff1681526020018360ff168152602001600060ff168152602001600115158152602001336001600160a01b03168152506003600089815260200190815260200160002060008201518160000160006101000a8154816001600160801b0302191690836001600160801b0316021790555060208201518160000160106101000a81548167ffffffffffffffff021916908367ffffffffffffffff16021790555060408201518160000160186101000a81548163ffffffff021916908363ffffffff160217905550606082015181600001601c6101000a81548163ffffffff021916908363ffffffff16021790555060808201518160010160006101000a81548160ff021916908360ff16021790555060a08201518160010160016101000a81548160ff021916908360ff16021790555060c08201518160010160026101000a81548160ff02191690831515021790555060e08201518160010160036101000a8154816001600160a01b0302191690836001600160a01b0316021790555090505060046000336001600160a01b03166001600160a01b03168152602001908152602001600020879080600181540180825580915050600190039060005260206000200160009091909190915055600160046000336001600160a01b03166001600160a01b03168152602001908152602001600020805490506113539190611da9565b6000888152600560205260409081902091909155516323b872dd60e01b8152336004820152306024820152604481018a90527f00000000000000000000000000000000000000000000000000000000000000006001600160a01b0316906323b872dd906064016020604051808303816000875af11580156113d8573d6000803e3d6000fd5b505050506040513d601f19601f820116820180604052508101906113fc9190611c7a565b6114185760405162461bcd60e51b81526004016105cb90611c9c565b604080518a815260208101879052339189917ffb617c13a5b4b052ee893903dca019ab1611dfef1b20f7acb7a5bfe008c10260910160405180910390a36006546001600160a01b03161561151b576006546001600160a01b031663f4fb815933898c8c8b60006114888983611cfb565b6040516001600160e01b031960e08a901b1681526001600160a01b039097166004880152602487019590955260448601939093526064850191909152608484015260a483015260c482015260e4016020604051808303816000875af11580156114f5573d6000803e3d6000fd5b505050506040513d601f19601f820116820180604052508101906115199190611d0e565b505b5050505050505061152b60018055565b5050565b6000818152600360205260408120600181015462010000900460ff166115675760405162461bcd60e51b81526004016105cb90611c4d565b6001810154815460009160649161158a9160ff16906001600160801b0316611dbc565b6115949190611dfb565b60018301546001600160801b039190911691506115b990610100900460ff1682611d6f565b949350505050565b6000828152602081905260409020600101546115dc816118b1565b61054d838361194d565b6000818152600360205260409020600181015462010000900460ff1661161e5760405162461bcd60e51b81526004016105cb90611c4d565b8054600160e01b900463ffffffff164210156116755760405162461bcd60e51b8152602060048201526016602482015275151bdbc819585c9b1e48199bdc881b995e1d0813919560521b60448201526064016105cb565b80546116929062278d0090600160c01b900463ffffffff16611e29565b6001820154610100900460ff16106116de5760405162461bcd60e51b815260206004820152600f60248201526e105b1b081391951cc81b5a5b9d1959608a1b60448201526064016105cb565b6006546001600160a01b03161561183557600654600182015482546001600160a01b039283169263f4fb81599263010000009004169085906001600160801b0381169061173c9062278d0090600160c01b900463ffffffff16611e3d565b8654600180890154600160801b90920467ffffffffffffffff169161176a9161010090910460ff1690611e65565b88546117879062278d0090600160e01b900463ffffffff16611cfb565b6040516001600160e01b031960e08a901b1681526001600160a01b03909716600488015260248701959095526001600160801b03909316604486015263ffffffff91909116606485015267ffffffffffffffff16608484015260ff1660a483015260c482015260e4016020604051808303816000875af115801561180f573d6000803e3d6000fd5b505050506040513d601f19601f820116820180604052508101906118339190611d0e565b505b600181810180548290611851908290610100900460ff16611e65565b92506101000a81548160ff021916908360ff16021790555062278d0081600001601c8282829054906101000a900463ffffffff1661188f9190611e7e565b92506101000a81548163ffffffff021916908363ffffffff1602179055505050565b6107778133611ad8565b60006118c783836107ab565b611945576000838152602081815260408083206001600160a01b03861684529091529020805460ff191660011790556118fd3390565b6001600160a01b0316826001600160a01b0316847f2f8788117e7eff1d82e926ec794901d17c78024a50270940304540a733656f0d60405160405180910390a45060016104b6565b5060006104b6565b600061195983836107ab565b15611945576000838152602081815260408083206001600160a01b0386168085529252808320805460ff1916905551339286917ff6391f5c32d9c69d2a47ea670b442974b53935d1edc7fd64eb21e047a839171b9190a45060016104b6565b6002600154036119db57604051633ee5aeb560e01b815260040160405180910390fd5b6002600155565b6000818152600360209081526040808320600180820154630100000090046001600160a01b03168552600484528285208686526005909452919093205482549091611a2c91611da9565b8114611a955781546000908390611a4590600190611da9565b81548110611a5557611a55611e9a565b9060005260206000200154905080838381548110611a7557611a75611e9a565b600091825260208083209091019290925591825260059052604090208190555b81805480611aa557611aa5611eb0565b60019003818190600052602060002001600090559055600560008581526020019081526020016000206000905550505050565b611ae282826107ab565b61152b5760405163e2517d3f60e01b81526001600160a01b0382166004820152602481018390526044016105cb565b600060208284031215611b2357600080fd5b81356001600160e01b031981168114611b3b57600080fd5b9392505050565b600060208284031215611b5457600080fd5b5035919050565b80356001600160a01b0381168114611b7257600080fd5b919050565b600060208284031215611b8957600080fd5b611b3b82611b5b565b602080825282518282018190526000918401906040840190835b81811015611bca578351835260209384019390920191600101611bac565b509095945050505050565b60008060408385031215611be857600080fd5b82359150611bf860208401611b5b565b90509250929050565b60008060408385031215611c1457600080fd5b611c1d83611b5b565b946020939093013593505050565b60008060408385031215611c3e57600080fd5b50508035926020909101359150565b602080825260139082015272506f736974696f6e206e6f742061637469766560681b604082015260600190565b600060208284031215611c8c57600080fd5b81518015158114611b3b57600080fd5b6020808252600f908201526e151c985b9cd9995c8819985a5b1959608a1b604082015260600190565b634e487b7160e01b600052601160045260246000fd5b67ffffffffffffffff81811683821601908111156104b6576104b6611cc5565b808201808211156104b6576104b6611cc5565b600060208284031215611d2057600080fd5b5051919050565b6000825160005b81811015611d485760208186018101518583015201611d2e565b506000920191825250919050565b600060018201611d6857611d68611cc5565b5060010190565b80820281158282048414176104b6576104b6611cc5565b600060208284031215611d9857600080fd5b815160ff81168114611b3b57600080fd5b818103818111156104b6576104b6611cc5565b6001600160801b038181168382160290811690818114611dde57611dde611cc5565b5092915050565b634e487b7160e01b600052601260045260246000fd5b60006001600160801b03831680611e1457611e14611de5565b806001600160801b0384160491505092915050565b600082611e3857611e38611de5565b500490565b600063ffffffff831680611e5357611e53611de5565b8063ffffffff84160491505092915050565b60ff81811683821601908111156104b6576104b6611cc5565b63ffffffff81811683821601908111156104b6576104b6611cc5565b634e487b7160e01b600052603260045260246000fd5b634e487b7160e01b600052603160045260246000fdfea2646970667358221220f335c78d5f327dbacce39ea2d3a3eedb5198d654541998d5b7102a50ba58a8d564736f6c634300081c0033",
  "linkReferences": {},
  "deployedLinkReferences": {}
}