{
  "_format": "hh-sol-artifact-1",
  "contractName": "MultiStakeManager",
  "sourceName": "contracts/MultiStakeManager.sol",
  "abi": [
    {
      "inputs": [
        {
          "internalType": "address",
          "name": "_stakingToken",
          "type": "address"
        }
      ],
      "stateMutability": "nonpayable",
      "type": "constructor"
    },
    {
      "inputs": [],
      "name": "AccessControlBadConfirmation",
      "type": "error"
    },
    {
      "inputs": [
        {
          "internalType": "address",
          "name": "account",
          "type": "address"
        },
        {
          "internalType": "bytes32",
          "name": "neededRole",
          "type": "bytes32"
        }
      ],
      "name": "AccessControlUnauthorizedAccount",
      "type": "error"
    },
    {
      "inputs": [],
      "name": "ReentrancyGuardReentrantCall",
      "type": "error"
    },
    {
      "anonymous": false,
      "inputs": [
        {
          "indexed": true,
          "internalType": "uint256",
          "name": "positionId",
          "type": "uint256"
        },
        {
          "indexed": true,
          "internalType": "address",
          "name": "owner",
          "type": "address"
        },
        {
          "indexed": false,
          "internalType": "uint256",
          "name": "amount",
          "type": "uint256"
        }
      ],
      "name": "EmergencyWithdrawn",
      "type": "event"
    },
    {
      "anonymous": false,
      "inputs": [
        {
          "indexed": true,
          "internalType": "address",
          "name": "newNFTFactory",
          "type": "address"
        }
      ],
      "name": "NFTFactorySet",
      "type": "event"
    },
    {
      "anonymous": false,
      "inputs": [
        {
          "indexed": true,
          "internalType": "uint256",
          "name": "positionId",
          "type": "uint256"
        },
        {
          "indexed": true,
          "internalType": "address",
          "name": "owner",
          "type": "address"
        },
        {
          "indexed": false,
          "internalType": "uint256",
          "name": "amount",
          "type": "uint256"
        },
        {
          "indexed": false,
          "internalType": "uint256",
          "name": "reward",
          "type": "uint256"
        }
      ],
      "name": "PositionClosed",
      "type": "event"
    },
    {
      "anonymous": false,
      "inputs": [
        {
          "indexed": true,
          "internalType": "uint256",
          "name": "positionId",
          "type": "uint256"
        },
        {
          "indexed": true,
          "internalType": "address",
          "name": "owner",
          "type": "address"
        },
        {
          "indexed": false,
          "internalType": "uint256",
          "name": "amount",
          "type": "uint256"
        },
        {
          "indexed": false,
          "internalType": "uint256",
          "name": "duration",
          "type": "uint256"
        }
      ],
      "name": "PositionCreated",
      "type": "event"
    },
    {
      "anonymous": false,
      "inputs": [
        {
          "indexed": true,
          "internalType": "bytes32",
          "name": "role",
          "type": "bytes32"
        },
        {
          "indexed": true,
          "internalType": "bytes32",
          "name": "previousAdminRole",
          "type": "bytes32"
        },
        {
          "indexed": true,
          "internalType": "bytes32",
          "name": "newAdminRole",
          "type": "bytes32"
        }
      ],
      "name": "RoleAdminChanged",
      "type": "event"
    },
    {
      "anonymous": false,
      "inputs": [
        {
          "indexed": true,
          "internalType": "bytes32",
          "name": "role",
          "type": "bytes32"
        },
        {
          "indexed": true,
          "internalType": "address",
          "name": "account",
          "type": "address"
        },
        {
          "indexed": true,
          "internalType": "address",
          "name": "sender",
          "type": "address"
        }
      ],
      "name": "RoleGranted",
      "type": "event"
    },
    {
      "anonymous": false,
      "inputs": [
        {
          "indexed": true,
          "internalType": "bytes32",
          "name": "role",
          "type": "bytes32"
        },
        {
          "indexed": true,
          "internalType": "address",
          "name": "account",
          "type": "address"
        },
        {
          "indexed": true,
          "internalType": "address",
          "name": "sender",
          "type": "address"
        }
      ],
      "name": "RoleRevoked",
      "type": "event"
    },
    {
      "inputs": [],
      "name": "ADMIN_ROLE",
      "outputs": [
        {
          "internalType": "bytes32",
          "name": "",
          "type": "bytes32"
        }
      ],
      "stateMutability": "view",
      "type": "function"
    },
    {
      "inputs": [],
      "name": "DEFAULT_ADMIN_ROLE",
      "outputs": [
        {
          "internalType": "bytes32",
          "name": "",
          "type": "bytes32"
        }
      ],
      "stateMutability": "view",
      "type": "function"
    },
    {
      "inputs": [],
      "name": "MAX_POSITIONS_PER_WALLET",
      "outputs": [
        {
          "internalType": "uint256",
          "name": "",
          "type": "uint256"
        }
      ],
      "stateMutability": "view",
      "type": "function"
    },
    {
      "inputs": [],
      "name": "MAX_STAKE_DURATION",
      "outputs": [
        {
          "internalType": "uint256",
          "name": "",
          "type": "uint256"
        }
      ],
      "stateMutability": "view",
      "type": "function"
    },
    {
      "inputs": [],
      "name": "MIN_STAKE_DURATION",
      "outputs": [
        {
          "internalType": "uint256",
          "name": "",
          "type": "uint256"
        }
      ],
      "stateMutability": "view",
      "type": "function"
    },
    {
      "inputs": [],
      "name": "REWARD_INTERVAL",
      "outputs": [
        {
          "internalType": "uint256",
          "name": "",
          "type": "uint256"
        }
      ],
      "stateMutability": "view",
      "type": "function"
    },
    {
      "inputs": [
        {
          "internalType": "uint256",
          "name": "positionId",
          "type": "uint256"
        }
      ],
      "name": "calculateRewards",
      "outputs": [
        {
          "internalType": "uint256",
          "name": "",
          "type": "uint256"
        }
      ],
      "stateMutability": "view",
      "type": "function"
    },
    {
      "inputs": [
        {
          "internalType": "uint256",
          "name": "positionId",
          "type": "uint256"
        }
      ],
      "name": "closePosition",
      "outputs": [],
      "stateMutability": "nonpayable",
      "type": "function"
    },
    {
      "inputs": [
        {
          "internalType": "uint256",
          "name": "amount",
          "type": "uint256"
        },
        {
          "internalType": "uint256",
          "name": "duration",
          "type": "uint256"
        }
      ],
      "name": "createPosition",
      "outputs": [],
      "stateMutability": "nonpayable",
      "type": "function"
    },
    {
      "inputs": [
        {
          "internalType": "uint256",
          "name": "positionId",
          "type": "uint256"
        }
      ],
      "name": "emergencyWithdraw",
      "outputs": [],
      "stateMutability": "nonpayable",
      "type": "function"
    },
    {
      "inputs": [
        {
          "internalType": "uint256",
          "name": "duration",
          "type": "uint256"
        }
      ],
      "name": "getMintInterval",
      "outputs": [
        {
          "internalType": "uint256",
          "name": "",
          "type": "uint256"
        }
      ],
      "stateMutability": "pure",
      "type": "function"
    },
    {
      "inputs": [
        {
          "internalType": "uint256",
          "name": "duration",
          "type": "uint256"
        }
      ],
      "name": "getNumMints",
      "outputs": [
        {
          "internalType": "uint256",
          "name": "",
          "type": "uint256"
        }
      ],
      "stateMutability": "pure",
      "type": "function"
    },
    {
      "inputs": [
        {
          "internalType": "bytes32",
          "name": "role",
          "type": "bytes32"
        }
      ],
      "name": "getRoleAdmin",
      "outputs": [
        {
          "internalType": "bytes32",
          "name": "",
          "type": "bytes32"
        }
      ],
      "stateMutability": "view",
      "type": "function"
    },
    {
      "inputs": [
        {
          "internalType": "address",
          "name": "user",
          "type": "address"
        }
      ],
      "name": "getUserPositions",
      "outputs": [
        {
          "internalType": "uint256[]",
          "name": "",
          "type": "uint256[]"
        }
      ],
      "stateMutability": "view",
      "type": "function"
    },
    {
      "inputs": [
        {
          "internalType": "bytes32",
          "name": "role",
          "type": "bytes32"
        },
        {
          "internalType": "address",
          "name": "account",
          "type": "address"
        }
      ],
      "name": "grantRole",
      "outputs": [],
      "stateMutability": "nonpayable",
      "type": "function"
    },
    {
      "inputs": [
        {
          "internalType": "bytes32",
          "name": "role",
          "type": "bytes32"
        },
        {
          "internalType": "address",
          "name": "account",
          "type": "address"
        }
      ],
      "name": "hasRole",
      "outputs": [
        {
          "internalType": "bool",
          "name": "",
          "type": "bool"
        }
      ],
      "stateMutability": "view",
      "type": "function"
    },
    {
      "inputs": [
        {
          "internalType": "uint256",
          "name": "positionId",
          "type": "uint256"
        }
      ],
      "name": "mintNextNFT",
      "outputs": [],
      "stateMutability": "nonpayable",
      "type": "function"
    },
    {
      "inputs": [],
      "name": "nftFactory",
      "outputs": [
        {
          "internalType": "address",
          "name": "",
          "type": "address"
        }
      ],
      "stateMutability": "view",
      "type": "function"
    },
    {
      "inputs": [
        {
          "internalType": "uint256",
          "name": "",
          "type": "uint256"
        }
      ],
      "name": "positionIndexInUserArray",
      "outputs": [
        {
          "internalType": "uint256",
          "name": "",
          "type": "uint256"
        }
      ],
      "stateMutability": "view",
      "type": "function"
    },
    {
      "inputs": [
        {
          "internalType": "uint256",
          "name": "",
          "type": "uint256"
        }
      ],
      "name": "positions",
      "outputs": [
        {
          "internalType": "uint128",
          "name": "amount",
          "type": "uint128"
        },
        {
          "internalType": "uint64",
          "name": "startTime",
          "type": "uint64"
        },
        {
          "internalType": "uint32",
          "name": "duration",
          "type": "uint32"
        },
        {
          "internalType": "uint32",
          "name": "nextMintAt",
          "type": "uint32"
        },
        {
          "internalType": "uint8",
          "name": "tier",
          "type": "uint8"
        },
        {
          "internalType": "uint8",
          "name": "monthIndex",
          "type": "uint8"
        },
        {
          "internalType": "bool",
          "name": "isActive",
          "type": "bool"
        },
        {
          "internalType": "address",
          "name": "owner",
          "type": "address"
        }
      ],
      "stateMutability": "view",
      "type": "function"
    },
    {
      "inputs": [
        {
          "internalType": "bytes32",
          "name": "role",
          "type": "bytes32"
        },
        {
          "internalType": "address",
          "name": "callerConfirmation",
          "type": "address"
        }
      ],
      "name": "renounceRole",
      "outputs": [],
      "stateMutability": "nonpayable",
      "type": "function"
    },
    {
      "inputs": [
        {
          "internalType": "bytes32",
          "name": "role",
          "type": "bytes32"
        },
        {
          "internalType": "address",
          "name": "account",
          "type": "address"
        }
      ],
      "name": "revokeRole",
      "outputs": [],
      "stateMutability": "nonpayable",
      "type": "function"
    },
    {
      "inputs": [
        {
          "internalType": "address",
          "name": "_nftFactory",
          "type": "address"
        }
      ],
      "name": "setNFTFactory",
      "outputs": [],
      "stateMutability": "nonpayable",
      "type": "function"
    },
    {
      "inputs": [],
      "name": "stakingToken",
      "outputs": [
        {
          "internalType": "contract IERC20",
          "name": "",
          "type": "address"
        }
      ],
      "stateMutability": "view",
      "type": "function"
    },
    {
      "inputs": [
        {
          "internalType": "bytes4",
          "name": "interfaceId",
          "type": "bytes4"
        }
      ],
      "name": "supportsInterface",
      "outputs": [
        {
          "internalType": "bool",
          "name": "",
          "type": "bool"
        }
      ],
      "stateMutability": "view",
      "type": "function"
    },
    {
      "inputs": [
        {
          "internalType": "address",
          "name": "",
          "type": "address"
        },
        {
          "internalType": "uint256",
          "name": "",
          "type": "uint256"
        }
      ],
      "name": "userPositions",
      "outputs": [
        {
          "internalType": "uint256",
          "name": "",
          "type": "uint256"
        }
      ],
      "stateMutability": "view",
      "type": "function"
    }
  ],
  "bytecode": "0x60a0604052600160025534801561001557600080fd5b50604051611c8e380380611c8e83398101604081905261003491610177565b600180556001600160a01b0381166100815760405162461bcd60e51b815260206004820152600c60248201526b5a65726f206164647265737360a01b604482015260640160405180910390fd5b6001600160a01b0381166080526100996000336100cb565b506100c47fa49807205ce4d355092ef5a8a18f56e8913cf4a201fbe287825b095693c21775336100cb565b50506101a7565b6000828152602081815260408083206001600160a01b038516845290915281205460ff1661016d576000838152602081815260408083206001600160a01b03861684529091529020805460ff191660011790556101253390565b6001600160a01b0316826001600160a01b0316847f2f8788117e7eff1d82e926ec794901d17c78024a50270940304540a733656f0d60405160405180910390a4506001610171565b5060005b92915050565b60006020828403121561018957600080fd5b81516001600160a01b03811681146101a057600080fd5b9392505050565b608051611ab76101d76000396000818161029701528181610737015281816109cd0152610f340152611ab76000f3fe608060405234801561001057600080fd5b506004361061018e5760003560e01c806391d14854116100de578063d1aaef0511610097578063d63843cd11610071578063d63843cd14610468578063e0c570ba1461047b578063e89636d914610485578063f883462c146104a557600080fd5b8063d1aaef051461042f578063d3ea435014610442578063d547741f1461045557600080fd5b806391d14854146102f857806399fbab881461030b578063a126d601146103f6578063a217fddf14610409578063aa902b4d14610411578063cb2d93ce1461041c57600080fd5b8063410c5bed1161014b5780635e1b4d99116101255780635e1b4d991461026c5780636e17bfff1461027f57806372f702f31461029257806375b238fc146102d157600080fd5b8063410c5bed1461023c5780635312ea8e1461024f5780635dbdda691461026257600080fd5b806301ffc9a71461019357806303d50b1f146101bb578063248a9ca3146101d15780632a6bc2dd146101f45780632f2ff15d1461021457806336568abe14610229575b600080fd5b6101a66101a136600461174a565b6104b8565b60405190151581526020015b60405180910390f35b6101c3600a81565b6040519081526020016101b2565b6101c36101df366004611774565b60009081526020819052604090206001015490565b6102076102023660046117a9565b6104ef565b6040516101b291906117c4565b610227610222366004611807565b61055b565b005b610227610237366004611807565b610586565b6101c361024a366004611774565b6105be565b61022761025d366004611774565b610627565b6101c362278d0081565b6101c361027a366004611833565b61080d565b6101c361028d366004611774565b61083e565b6102b97f000000000000000000000000000000000000000000000000000000000000000081565b6040516001600160a01b0390911681526020016101b2565b6101c37fa49807205ce4d355092ef5a8a18f56e8913cf4a201fbe287825b095693c2177581565b6101a6610306366004611807565b61085a565b61038e610319366004611774565b600360205260009081526040902080546001909101546001600160801b0382169167ffffffffffffffff600160801b8204169163ffffffff600160c01b8304811692600160e01b9004169060ff80821691610100810482169162010000820416906001600160a01b0363010000009091041688565b604080516001600160801b03909916895267ffffffffffffffff909716602089015263ffffffff9586169688019690965293909216606086015260ff90811660808601521660a0840152151560c08301526001600160a01b031660e0820152610100016101b2565b610227610404366004611774565b610883565b6101c3600081565b6101c36312cc030081565b61022761042a3660046117a9565b610ad1565b61022761043d36600461185d565b610b8b565b6101c3610450366004611774565b6110da565b610227610463366004611807565b61116c565b6006546102b9906001600160a01b031681565b6101c362ed4e0081565b6101c3610493366004611774565b60056020526000908152604090205481565b6102276104b3366004611774565b611191565b60006001600160e01b03198216637965db0b60e01b14806104e957506301ffc9a760e01b6001600160e01b03198316145b92915050565b6001600160a01b03811660009081526004602090815260409182902080548351818402810184019094528084526060939283018282801561054f57602002820191906000526020600020905b81548152602001906001019080831161053b575b50505050509050919050565b600082815260208190526040902060010154610576816114ea565b61058083836114f4565b50505050565b6001600160a01b03811633146105af5760405163334bd91960e11b815260040160405180910390fd5b6105b98282611586565b505050565b6000806105ca8361083e565b9050600081116106165760405162461bcd60e51b8152602060048201526012602482015271111d5c985d1a5bdb881d1bdbc81cda1bdc9d60721b60448201526064015b60405180910390fd5b61062081846118ab565b9392505050565b61062f6115f1565b6000818152600360205260409020600181015462010000900460ff166106675760405162461bcd60e51b815260040161060d906118bf565b6001810154630100000090046001600160a01b031633146106bf5760405162461bcd60e51b81526020600482015260126024820152712737ba103837b9b4ba34b7b71037bbb732b960711b604482015260640161060d565b3332146106f95760405162461bcd60e51b81526020600482015260086024820152674f6e6c7920454f4160c01b604482015260640161060d565b805460018201805462ff0000191690556001600160801b031661071b8361161b565b60405163a9059cbb60e01b8152336004820152602481018290527f00000000000000000000000000000000000000000000000000000000000000006001600160a01b03169063a9059cbb906044016020604051808303816000875af1158015610788573d6000803e3d6000fd5b505050506040513d601f19601f820116820180604052508101906107ac91906118ec565b6107c85760405162461bcd60e51b815260040161060d9061190e565b604051818152339084907fafe87099d21cd68765ccb431a535ca7a632ac9f66e04e99c9574fb5ddfdefca79060200160405180910390a3505061080a60018055565b50565b6004602052816000526040600020818154811061082957600080fd5b90600052602060002001600091509150505481565b60006301e1338061085083600c611937565b6104e991906118ab565b6000918252602082815260408084206001600160a01b0393909316845291905290205460ff1690565b61088b6115f1565b6000818152600360205260409020600181015462010000900460ff166108c35760405162461bcd60e51b815260040161060d906118bf565b6001810154630100000090046001600160a01b0316331461091b5760405162461bcd60e51b81526020600482015260126024820152712737ba103837b9b4ba34b7b71037bbb732b960711b604482015260640161060d565b805461094590600160c01b810463ffffffff1690600160801b900467ffffffffffffffff1661194e565b67ffffffffffffffff164210156109945760405162461bcd60e51b8152602060048201526013602482015272506f736974696f6e206e6f74206d617475726560681b604482015260640161060d565b80546001600160801b031660006109aa846110da565b60018401805462ff00001916905590506109c38461161b565b6001600160a01b037f00000000000000000000000000000000000000000000000000000000000000001663a9059cbb336109fd848661196e565b6040516001600160e01b031960e085901b1681526001600160a01b03909216600483015260248201526044016020604051808303816000875af1158015610a48573d6000803e3d6000fd5b505050506040513d601f19601f82011682018060405250810190610a6c91906118ec565b610a885760405162461bcd60e51b815260040161060d9061190e565b6040805183815260208101839052339186917f3120c845c5d2c39308641201562a412527c1e7aff294f09c0c936f1c60a1b067910160405180910390a350505061080a60018055565b7fa49807205ce4d355092ef5a8a18f56e8913cf4a201fbe287825b095693c21775610afb816114ea565b6001600160a01b038216610b405760405162461bcd60e51b815260206004820152600c60248201526b5a65726f206164647265737360a01b604482015260640161060d565b600680546001600160a01b0319166001600160a01b0384169081179091556040517f0b2a4659dd447011d8135e07f985a6153b6446f82b0d167e0f804c5fde175e2f90600090a25050565b610b936115f1565b60008211610bd15760405162461bcd60e51b815260206004820152600b60248201526a16995c9bc8185b5bdd5b9d60aa1b604482015260640161060d565b62ed4e00811015610c195760405162461bcd60e51b8152602060048201526012602482015271111d5c985d1a5bdb881d1bdbc81cda1bdc9d60721b604482015260640161060d565b6312cc0300811115610c615760405162461bcd60e51b81526020600482015260116024820152704475726174696f6e20746f6f206c6f6e6760781b604482015260640161060d565b33600090815260046020526040902054600a11610cb55760405162461bcd60e51b8152602060048201526012602482015271546f6f206d616e7920706f736974696f6e7360701b604482015260640161060d565b6001600160801b03821115610cff5760405162461bcd60e51b815260206004820152601060248201526f416d6f756e7420746f6f206c6172676560801b604482015260640161060d565b6002805460009182610d1083611981565b9091555090504260006304b258008410610d2c57506003610d56565b6302d124808410610d3f57506002610d56565b6301e133808410610d5257506001610d56565b5060005b6000610d618561083e565b90506000610d6e866105be565b9050604051806101000160405280886001600160801b031681526020018567ffffffffffffffff1681526020018763ffffffff1681526020018286610db3919061196e565b63ffffffff908116825260ff80871660208085019190915260006040808601829052600160608088018290523360809889018190528e8552600386528385208a5181548c8901518d880151958e01518c16600160e01b026001600160e01b0396909c16600160c01b02959095166001600160c01b0367ffffffffffffffff909616600160801b026001600160c01b03199092166001600160801b039093169290921717939093169290921797909717815596880151968101805460a08a015160c08b015160e0909b01516001600160a01b03166301000000026301000000600160b81b03199b151562010000029b909b1662010000600160b81b03199189166101000261ffff199093169a9098169990991717979097169490941796909617909455828452600481529383208054808301825581855294842090940189905591529054610f00919061199a565b6000868152600560205260409081902091909155516323b872dd60e01b8152336004820152306024820152604481018890527f00000000000000000000000000000000000000000000000000000000000000006001600160a01b0316906323b872dd906064016020604051808303816000875af1158015610f85573d6000803e3d6000fd5b505050506040513d601f19601f82011682018060405250810190610fa991906118ec565b610fc55760405162461bcd60e51b815260040161060d9061190e565b6040805188815260208101889052339187917ffb617c13a5b4b052ee893903dca019ab1611dfef1b20f7acb7a5bfe008c10260910160405180910390a36006546001600160a01b0316156110c8576006546001600160a01b031663f4fb815933878a86896000611035898361196e565b6040516001600160e01b031960e08a901b1681526001600160a01b039097166004880152602487019590955260448601939093526064850191909152608484015260a483015260c482015260e4016020604051808303816000875af11580156110a2573d6000803e3d6000fd5b505050506040513d601f19601f820116820180604052508101906110c691906119ad565b505b50505050506110d660018055565b5050565b6000818152600360205260408120600181015462010000900460ff166111125760405162461bcd60e51b815260040161060d906118bf565b600181015481546000916064916111359160ff16906001600160801b03166119c6565b61113f91906119ef565b60018301546001600160801b0391909116915061116490610100900460ff1682611937565b949350505050565b600082815260208190526040902060010154611187816114ea565b6105808383611586565b6000818152600360205260409020600181015462010000900460ff166111c95760405162461bcd60e51b815260040161060d906118bf565b8054600160e01b900463ffffffff164210156112135760405162461bcd60e51b8152602060048201526009602482015268546f6f206561726c7960b81b604482015260640161060d565b6006546001600160a01b031633148061122b57503330145b6112685760405162461bcd60e51b815260206004820152600e60248201526d139bdd08185d5d1a1bdc9a5e995960921b604482015260640161060d565b805460009061128390600160c01b900463ffffffff1661083e565b82549091506000906112a190600160c01b900463ffffffff166105be565b905060008360010160019054906101000a900460ff1660016112c39190611a1d565b6112d09060ff1683611937565b84546112ed9190600160801b900467ffffffffffffffff1661196e565b845490915061131a90600160c01b810463ffffffff1690600160801b900467ffffffffffffffff1661194e565b67ffffffffffffffff168111156113665760405162461bcd60e51b815260206004820152601060248201526f141bdcda5d1a5bdb88195e1c1a5c995960821b604482015260640161060d565b60018481018054610100900460ff169161137f83611a36565b91906101000a81548160ff021916908360ff160217905550508360010160019054906101000a900460ff1660016113b69190611a1d565b6113c39060ff1683611937565b84546113e09190600160801b900467ffffffffffffffff1661196e565b845463ffffffff91909116600160e01b026001600160e01b039091161784556006546001600160a01b0316156114e3576006546001850154855460405163f4fb815960e01b8152630100000083046001600160a01b039081166004830152602482018a90526001600160801b038316604483015260648201889052600160801b830467ffffffffffffffff16608483015261010090930460ff1660a4820152600160e01b90910463ffffffff1660c482015291169063f4fb81599060e4016020604051808303816000875af11580156114bd573d6000803e3d6000fd5b505050506040513d601f19601f820116820180604052508101906114e191906119ad565b505b5050505050565b61080a8133611711565b6000611500838361085a565b61157e576000838152602081815260408083206001600160a01b03861684529091529020805460ff191660011790556115363390565b6001600160a01b0316826001600160a01b0316847f2f8788117e7eff1d82e926ec794901d17c78024a50270940304540a733656f0d60405160405180910390a45060016104e9565b5060006104e9565b6000611592838361085a565b1561157e576000838152602081815260408083206001600160a01b0386168085529252808320805460ff1916905551339286917ff6391f5c32d9c69d2a47ea670b442974b53935d1edc7fd64eb21e047a839171b9190a45060016104e9565b60026001540361161457604051633ee5aeb560e01b815260040160405180910390fd5b6002600155565b6000818152600360209081526040808320600180820154630100000090046001600160a01b031685526004845282852086865260059094529190932054825490916116659161199a565b81146116ce578154600090839061167e9060019061199a565b8154811061168e5761168e611a55565b90600052602060002001549050808383815481106116ae576116ae611a55565b600091825260208083209091019290925591825260059052604090208190555b818054806116de576116de611a6b565b60019003818190600052602060002001600090559055600560008581526020019081526020016000206000905550505050565b61171b828261085a565b6110d65760405163e2517d3f60e01b81526001600160a01b03821660048201526024810183905260440161060d565b60006020828403121561175c57600080fd5b81356001600160e01b03198116811461062057600080fd5b60006020828403121561178657600080fd5b5035919050565b80356001600160a01b03811681146117a457600080fd5b919050565b6000602082840312156117bb57600080fd5b6106208261178d565b602080825282518282018190526000918401906040840190835b818110156117fc5783518352602093840193909201916001016117de565b509095945050505050565b6000806040838503121561181a57600080fd5b8235915061182a6020840161178d565b90509250929050565b6000806040838503121561184657600080fd5b61184f8361178d565b946020939093013593505050565b6000806040838503121561187057600080fd5b50508035926020909101359150565b634e487b7160e01b600052601260045260246000fd5b634e487b7160e01b600052601160045260246000fd5b6000826118ba576118ba61187f565b500490565b602080825260139082015272506f736974696f6e206e6f742061637469766560681b604082015260600190565b6000602082840312156118fe57600080fd5b8151801515811461062057600080fd5b6020808252600f908201526e151c985b9cd9995c8819985a5b1959608a1b604082015260600190565b80820281158282048414176104e9576104e9611895565b67ffffffffffffffff81811683821601908111156104e9576104e9611895565b808201808211156104e9576104e9611895565b60006001820161199357611993611895565b5060010190565b818103818111156104e9576104e9611895565b6000602082840312156119bf57600080fd5b5051919050565b6001600160801b0381811683821602908116908181146119e8576119e8611895565b5092915050565b60006001600160801b03831680611a0857611a0861187f565b806001600160801b0384160491505092915050565b60ff81811683821601908111156104e9576104e9611895565b600060ff821660ff8103611a4c57611a4c611895565b60010192915050565b634e487b7160e01b600052603260045260246000fd5b634e487b7160e01b600052603160045260246000fdfea2646970667358221220207d1e96ad99129dbc0eab463c1eeb25167b83b8cec0e3ac008498f30b200d3864736f6c634300081c0033",
  "linkReferences": {},
  "deployedLinkReferences": {}
}