{
  "_format": "hh-sol-artifact-1",
  "contractName": "MultiStakeManager",
  "sourceName": "contracts/MultiStakeManager.sol",
  "abi": [
    {
      "inputs": [
        {
          "internalType": "address",
          "name": "_stakingToken",
          "type": "address"
        }
      ],
      "stateMutability": "nonpayable",
      "type": "constructor"
    },
    {
      "inputs": [],
      "name": "AccessControlBadConfirmation",
      "type": "error"
    },
    {
      "inputs": [
        {
          "internalType": "address",
          "name": "account",
          "type": "address"
        },
        {
          "internalType": "bytes32",
          "name": "neededRole",
          "type": "bytes32"
        }
      ],
      "name": "AccessControlUnauthorizedAccount",
      "type": "error"
    },
    {
      "inputs": [],
      "name": "ReentrancyGuardReentrantCall",
      "type": "error"
    },
    {
      "anonymous": false,
      "inputs": [
        {
          "indexed": true,
          "internalType": "uint256",
          "name": "positionId",
          "type": "uint256"
        },
        {
          "indexed": true,
          "internalType": "address",
          "name": "owner",
          "type": "address"
        },
        {
          "indexed": false,
          "internalType": "uint256",
          "name": "amount",
          "type": "uint256"
        }
      ],
      "name": "EmergencyWithdrawn",
      "type": "event"
    },
    {
      "anonymous": false,
      "inputs": [
        {
          "indexed": true,
          "internalType": "address",
          "name": "newNFTFactory",
          "type": "address"
        }
      ],
      "name": "NFTFactorySet",
      "type": "event"
    },
    {
      "anonymous": false,
      "inputs": [
        {
          "indexed": true,
          "internalType": "uint256",
          "name": "positionId",
          "type": "uint256"
        },
        {
          "indexed": true,
          "internalType": "address",
          "name": "owner",
          "type": "address"
        },
        {
          "indexed": false,
          "internalType": "uint256",
          "name": "amount",
          "type": "uint256"
        },
        {
          "indexed": false,
          "internalType": "uint256",
          "name": "reward",
          "type": "uint256"
        }
      ],
      "name": "PositionClosed",
      "type": "event"
    },
    {
      "anonymous": false,
      "inputs": [
        {
          "indexed": true,
          "internalType": "uint256",
          "name": "positionId",
          "type": "uint256"
        },
        {
          "indexed": true,
          "internalType": "address",
          "name": "owner",
          "type": "address"
        },
        {
          "indexed": false,
          "internalType": "uint256",
          "name": "amount",
          "type": "uint256"
        },
        {
          "indexed": false,
          "internalType": "uint256",
          "name": "duration",
          "type": "uint256"
        }
      ],
      "name": "PositionCreated",
      "type": "event"
    },
    {
      "anonymous": false,
      "inputs": [
        {
          "indexed": true,
          "internalType": "bytes32",
          "name": "role",
          "type": "bytes32"
        },
        {
          "indexed": true,
          "internalType": "bytes32",
          "name": "previousAdminRole",
          "type": "bytes32"
        },
        {
          "indexed": true,
          "internalType": "bytes32",
          "name": "newAdminRole",
          "type": "bytes32"
        }
      ],
      "name": "RoleAdminChanged",
      "type": "event"
    },
    {
      "anonymous": false,
      "inputs": [
        {
          "indexed": true,
          "internalType": "bytes32",
          "name": "role",
          "type": "bytes32"
        },
        {
          "indexed": true,
          "internalType": "address",
          "name": "account",
          "type": "address"
        },
        {
          "indexed": true,
          "internalType": "address",
          "name": "sender",
          "type": "address"
        }
      ],
      "name": "RoleGranted",
      "type": "event"
    },
    {
      "anonymous": false,
      "inputs": [
        {
          "indexed": true,
          "internalType": "bytes32",
          "name": "role",
          "type": "bytes32"
        },
        {
          "indexed": true,
          "internalType": "address",
          "name": "account",
          "type": "address"
        },
        {
          "indexed": true,
          "internalType": "address",
          "name": "sender",
          "type": "address"
        }
      ],
      "name": "RoleRevoked",
      "type": "event"
    },
    {
      "inputs": [],
      "name": "ADMIN_ROLE",
      "outputs": [
        {
          "internalType": "bytes32",
          "name": "",
          "type": "bytes32"
        }
      ],
      "stateMutability": "view",
      "type": "function"
    },
    {
      "inputs": [],
      "name": "DEFAULT_ADMIN_ROLE",
      "outputs": [
        {
          "internalType": "bytes32",
          "name": "",
          "type": "bytes32"
        }
      ],
      "stateMutability": "view",
      "type": "function"
    },
    {
      "inputs": [],
      "name": "MAX_POSITIONS_PER_WALLET",
      "outputs": [
        {
          "internalType": "uint256",
          "name": "",
          "type": "uint256"
        }
      ],
      "stateMutability": "view",
      "type": "function"
    },
    {
      "inputs": [],
      "name": "MAX_STAKE_DURATION",
      "outputs": [
        {
          "internalType": "uint256",
          "name": "",
          "type": "uint256"
        }
      ],
      "stateMutability": "view",
      "type": "function"
    },
    {
      "inputs": [],
      "name": "MIN_STAKE_DURATION",
      "outputs": [
        {
          "internalType": "uint256",
          "name": "",
          "type": "uint256"
        }
      ],
      "stateMutability": "view",
      "type": "function"
    },
    {
      "inputs": [],
      "name": "REWARD_INTERVAL",
      "outputs": [
        {
          "internalType": "uint256",
          "name": "",
          "type": "uint256"
        }
      ],
      "stateMutability": "view",
      "type": "function"
    },
    {
      "inputs": [
        {
          "internalType": "uint256",
          "name": "positionId",
          "type": "uint256"
        }
      ],
      "name": "calculateRewards",
      "outputs": [
        {
          "internalType": "uint256",
          "name": "",
          "type": "uint256"
        }
      ],
      "stateMutability": "view",
      "type": "function"
    },
    {
      "inputs": [
        {
          "internalType": "uint256",
          "name": "positionId",
          "type": "uint256"
        }
      ],
      "name": "closePosition",
      "outputs": [],
      "stateMutability": "nonpayable",
      "type": "function"
    },
    {
      "inputs": [
        {
          "internalType": "uint256",
          "name": "amount",
          "type": "uint256"
        },
        {
          "internalType": "uint256",
          "name": "duration",
          "type": "uint256"
        }
      ],
      "name": "createPosition",
      "outputs": [],
      "stateMutability": "nonpayable",
      "type": "function"
    },
    {
      "inputs": [
        {
          "internalType": "uint256",
          "name": "positionId",
          "type": "uint256"
        }
      ],
      "name": "emergencyWithdraw",
      "outputs": [],
      "stateMutability": "nonpayable",
      "type": "function"
    },
    {
      "inputs": [
        {
          "internalType": "bytes32",
          "name": "role",
          "type": "bytes32"
        }
      ],
      "name": "getRoleAdmin",
      "outputs": [
        {
          "internalType": "bytes32",
          "name": "",
          "type": "bytes32"
        }
      ],
      "stateMutability": "view",
      "type": "function"
    },
    {
      "inputs": [
        {
          "internalType": "address",
          "name": "user",
          "type": "address"
        }
      ],
      "name": "getUserPositions",
      "outputs": [
        {
          "internalType": "uint256[]",
          "name": "",
          "type": "uint256[]"
        }
      ],
      "stateMutability": "view",
      "type": "function"
    },
    {
      "inputs": [
        {
          "internalType": "bytes32",
          "name": "role",
          "type": "bytes32"
        },
        {
          "internalType": "address",
          "name": "account",
          "type": "address"
        }
      ],
      "name": "grantRole",
      "outputs": [],
      "stateMutability": "nonpayable",
      "type": "function"
    },
    {
      "inputs": [
        {
          "internalType": "bytes32",
          "name": "role",
          "type": "bytes32"
        },
        {
          "internalType": "address",
          "name": "account",
          "type": "address"
        }
      ],
      "name": "hasRole",
      "outputs": [
        {
          "internalType": "bool",
          "name": "",
          "type": "bool"
        }
      ],
      "stateMutability": "view",
      "type": "function"
    },
    {
      "inputs": [
        {
          "internalType": "uint256",
          "name": "positionId",
          "type": "uint256"
        }
      ],
      "name": "mintNextNFT",
      "outputs": [],
      "stateMutability": "nonpayable",
      "type": "function"
    },
    {
      "inputs": [],
      "name": "nftFactory",
      "outputs": [
        {
          "internalType": "address",
          "name": "",
          "type": "address"
        }
      ],
      "stateMutability": "view",
      "type": "function"
    },
    {
      "inputs": [
        {
          "internalType": "uint256",
          "name": "",
          "type": "uint256"
        }
      ],
      "name": "positionIndexInUserArray",
      "outputs": [
        {
          "internalType": "uint256",
          "name": "",
          "type": "uint256"
        }
      ],
      "stateMutability": "view",
      "type": "function"
    },
    {
      "inputs": [
        {
          "internalType": "uint256",
          "name": "",
          "type": "uint256"
        }
      ],
      "name": "positions",
      "outputs": [
        {
          "internalType": "uint128",
          "name": "amount",
          "type": "uint128"
        },
        {
          "internalType": "uint64",
          "name": "startTime",
          "type": "uint64"
        },
        {
          "internalType": "uint32",
          "name": "duration",
          "type": "uint32"
        },
        {
          "internalType": "uint32",
          "name": "nextMintAt",
          "type": "uint32"
        },
        {
          "internalType": "uint8",
          "name": "tier",
          "type": "uint8"
        },
        {
          "internalType": "uint8",
          "name": "monthIndex",
          "type": "uint8"
        },
        {
          "internalType": "bool",
          "name": "isActive",
          "type": "bool"
        },
        {
          "internalType": "address",
          "name": "owner",
          "type": "address"
        }
      ],
      "stateMutability": "view",
      "type": "function"
    },
    {
      "inputs": [
        {
          "internalType": "bytes32",
          "name": "role",
          "type": "bytes32"
        },
        {
          "internalType": "address",
          "name": "callerConfirmation",
          "type": "address"
        }
      ],
      "name": "renounceRole",
      "outputs": [],
      "stateMutability": "nonpayable",
      "type": "function"
    },
    {
      "inputs": [
        {
          "internalType": "bytes32",
          "name": "role",
          "type": "bytes32"
        },
        {
          "internalType": "address",
          "name": "account",
          "type": "address"
        }
      ],
      "name": "revokeRole",
      "outputs": [],
      "stateMutability": "nonpayable",
      "type": "function"
    },
    {
      "inputs": [
        {
          "internalType": "address",
          "name": "_nftFactory",
          "type": "address"
        }
      ],
      "name": "setNFTFactory",
      "outputs": [],
      "stateMutability": "nonpayable",
      "type": "function"
    },
    {
      "inputs": [],
      "name": "stakingToken",
      "outputs": [
        {
          "internalType": "contract IERC20",
          "name": "",
          "type": "address"
        }
      ],
      "stateMutability": "view",
      "type": "function"
    },
    {
      "inputs": [
        {
          "internalType": "bytes4",
          "name": "interfaceId",
          "type": "bytes4"
        }
      ],
      "name": "supportsInterface",
      "outputs": [
        {
          "internalType": "bool",
          "name": "",
          "type": "bool"
        }
      ],
      "stateMutability": "view",
      "type": "function"
    },
    {
      "inputs": [
        {
          "internalType": "address",
          "name": "",
          "type": "address"
        },
        {
          "internalType": "uint256",
          "name": "",
          "type": "uint256"
        }
      ],
      "name": "userPositions",
      "outputs": [
        {
          "internalType": "uint256",
          "name": "",
          "type": "uint256"
        }
      ],
      "stateMutability": "view",
      "type": "function"
    }
  ],
  "bytecode": "0x60a0604052600160025534801561001557600080fd5b50604051611ba8380380611ba883398101604081905261003491610177565b600180556001600160a01b0381166100815760405162461bcd60e51b815260206004820152600c60248201526b5a65726f206164647265737360a01b604482015260640160405180910390fd5b6001600160a01b0381166080526100996000336100cb565b506100c47fa49807205ce4d355092ef5a8a18f56e8913cf4a201fbe287825b095693c21775336100cb565b50506101a7565b6000828152602081815260408083206001600160a01b038516845290915281205460ff1661016d576000838152602081815260408083206001600160a01b03861684529091529020805460ff191660011790556101253390565b6001600160a01b0316826001600160a01b0316847f2f8788117e7eff1d82e926ec794901d17c78024a50270940304540a733656f0d60405160405180910390a4506001610171565b5060005b92915050565b60006020828403121561018957600080fd5b81516001600160a01b03811681146101a057600080fd5b9392505050565b6080516119d16101d76000396000818161023b0152818161067b015281816108f50152610e4a01526119d16000f3fe608060405234801561001057600080fd5b50600436106101585760003560e01c806399fbab88116100c3578063d3ea43501161007c578063d3ea4350146103e6578063d547741f146103f9578063d63843cd1461040c578063e0c570ba1461041f578063e89636d914610429578063f883462c1461044957600080fd5b806399fbab88146102af578063a126d6011461039a578063a217fddf146103ad578063aa902b4d146103b5578063cb2d93ce146103c0578063d1aaef05146103d357600080fd5b80635312ea8e116101155780635312ea8e146102065780635dbdda69146102195780635e1b4d991461022357806372f702f31461023657806375b238fc1461027557806391d148541461029c57600080fd5b806301ffc9a71461015d57806303d50b1f14610185578063248a9ca31461019b5780632a6bc2dd146101be5780632f2ff15d146101de57806336568abe146101f3575b600080fd5b61017061016b36600461163c565b61045c565b60405190151581526020015b60405180910390f35b61018d600a81565b60405190815260200161017c565b61018d6101a9366004611666565b60009081526020819052604090206001015490565b6101d16101cc36600461169b565b610493565b60405161017c91906116b6565b6101f16101ec3660046116f9565b6104ff565b005b6101f16102013660046116f9565b61052a565b6101f1610214366004611666565b610562565b61018d62278d0081565b61018d610231366004611725565b610751565b61025d7f000000000000000000000000000000000000000000000000000000000000000081565b6040516001600160a01b03909116815260200161017c565b61018d7fa49807205ce4d355092ef5a8a18f56e8913cf4a201fbe287825b095693c2177581565b6101706102aa3660046116f9565b610782565b6103326102bd366004611666565b600360205260009081526040902080546001909101546001600160801b0382169167ffffffffffffffff600160801b8204169163ffffffff600160c01b8304811692600160e01b9004169060ff80821691610100810482169162010000820416906001600160a01b0363010000009091041688565b604080516001600160801b03909916895267ffffffffffffffff909716602089015263ffffffff9586169688019690965293909216606086015260ff90811660808601521660a0840152151560c08301526001600160a01b031660e08201526101000161017c565b6101f16103a8366004611666565b6107ab565b61018d600081565b61018d6312cc030081565b6101f16103ce36600461169b565b6109f9565b6101f16103e136600461174f565b610ab3565b61018d6103f4366004611666565b610ffd565b6101f16104073660046116f9565b61108f565b60065461025d906001600160a01b031681565b61018d62ed4e0081565b61018d610437366004611666565b60056020526000908152604090205481565b6101f1610457366004611666565b6110b4565b60006001600160e01b03198216637965db0b60e01b148061048d57506301ffc9a760e01b6001600160e01b03198316145b92915050565b6001600160a01b0381166000908152600460209081526040918290208054835181840281018401909452808452606093928301828280156104f357602002820191906000526020600020905b8154815260200190600101908083116104df575b50505050509050919050565b60008281526020819052604090206001015461051a816113b1565b61052483836113bb565b50505050565b6001600160a01b03811633146105535760405163334bd91960e11b815260040160405180910390fd5b61055d828261144d565b505050565b61056a6114b8565b6000818152600360205260409020600181015462010000900460ff166105ab5760405162461bcd60e51b81526004016105a290611771565b60405180910390fd5b6001810154630100000090046001600160a01b031633146106035760405162461bcd60e51b81526020600482015260126024820152712737ba103837b9b4ba34b7b71037bbb732b960711b60448201526064016105a2565b33321461063d5760405162461bcd60e51b81526020600482015260086024820152674f6e6c7920454f4160c01b60448201526064016105a2565b805460018201805462ff0000191690556001600160801b031661065f836114e2565b60405163a9059cbb60e01b8152336004820152602481018290527f00000000000000000000000000000000000000000000000000000000000000006001600160a01b03169063a9059cbb906044016020604051808303816000875af11580156106cc573d6000803e3d6000fd5b505050506040513d601f19601f820116820180604052508101906106f0919061179e565b61070c5760405162461bcd60e51b81526004016105a2906117c0565b604051818152339084907fafe87099d21cd68765ccb431a535ca7a632ac9f66e04e99c9574fb5ddfdefca79060200160405180910390a3505061074e60018055565b50565b6004602052816000526040600020818154811061076d57600080fd5b90600052602060002001600091509150505481565b6000918252602082815260408084206001600160a01b0393909316845291905290205460ff1690565b6107b36114b8565b6000818152600360205260409020600181015462010000900460ff166107eb5760405162461bcd60e51b81526004016105a290611771565b6001810154630100000090046001600160a01b031633146108435760405162461bcd60e51b81526020600482015260126024820152712737ba103837b9b4ba34b7b71037bbb732b960711b60448201526064016105a2565b805461086d90600160c01b810463ffffffff1690600160801b900467ffffffffffffffff166117ff565b67ffffffffffffffff164210156108bc5760405162461bcd60e51b8152602060048201526013602482015272506f736974696f6e206e6f74206d617475726560681b60448201526064016105a2565b80546001600160801b031660006108d284610ffd565b60018401805462ff00001916905590506108eb846114e2565b6001600160a01b037f00000000000000000000000000000000000000000000000000000000000000001663a9059cbb33610925848661181f565b6040516001600160e01b031960e085901b1681526001600160a01b03909216600483015260248201526044016020604051808303816000875af1158015610970573d6000803e3d6000fd5b505050506040513d601f19601f82011682018060405250810190610994919061179e565b6109b05760405162461bcd60e51b81526004016105a2906117c0565b6040805183815260208101839052339186917f3120c845c5d2c39308641201562a412527c1e7aff294f09c0c936f1c60a1b067910160405180910390a350505061074e60018055565b7fa49807205ce4d355092ef5a8a18f56e8913cf4a201fbe287825b095693c21775610a23816113b1565b6001600160a01b038216610a685760405162461bcd60e51b815260206004820152600c60248201526b5a65726f206164647265737360a01b60448201526064016105a2565b600680546001600160a01b0319166001600160a01b0384169081179091556040517f0b2a4659dd447011d8135e07f985a6153b6446f82b0d167e0f804c5fde175e2f90600090a25050565b610abb6114b8565b60008211610af95760405162461bcd60e51b815260206004820152600b60248201526a16995c9bc8185b5bdd5b9d60aa1b60448201526064016105a2565b62ed4e00811015610b415760405162461bcd60e51b8152602060048201526012602482015271111d5c985d1a5bdb881d1bdbc81cda1bdc9d60721b60448201526064016105a2565b6312cc0300811115610b895760405162461bcd60e51b81526020600482015260116024820152704475726174696f6e20746f6f206c6f6e6760781b60448201526064016105a2565b33600090815260046020526040902054600a11610bdd5760405162461bcd60e51b8152602060048201526012602482015271546f6f206d616e7920706f736974696f6e7360701b60448201526064016105a2565b6001600160801b03821115610c275760405162461bcd60e51b815260206004820152601060248201526f416d6f756e7420746f6f206c6172676560801b60448201526064016105a2565b6002805460009182610c3883611832565b9091555090504260006304b258008410610c5457506003610c7e565b6302d124808410610c6757506002610c7e565b6301e133808410610c7a57506001610c7e565b5060005b604051806101000160405280866001600160801b031681526020018367ffffffffffffffff1681526020018563ffffffff168152602001610cc96001856115d890919063ffffffff16565b63ffffffff908116825260ff80851660208085019190915260006040808601829052600160608088018290523360809889018190528c8552600386528385208a5181548c8901518d880151958e01518c16600160e01b026001600160e01b0396909c16600160c01b02959095166001600160c01b0367ffffffffffffffff909616600160801b026001600160c01b03199092166001600160801b039093169290921717939093169290921797909717815596880151968101805460a08a015160c08b015160e0909b01516001600160a01b03166301000000026301000000600160b81b03199b151562010000029b909b1662010000600160b81b03199189166101000261ffff199093169a9098169990991717979097169490941796909617909455828452600481529383208054808301825581855294842090940187905591529054610e16919061184b565b6000848152600560205260409081902091909155516323b872dd60e01b8152336004820152306024820152604481018690527f00000000000000000000000000000000000000000000000000000000000000006001600160a01b0316906323b872dd906064016020604051808303816000875af1158015610e9b573d6000803e3d6000fd5b505050506040513d601f19601f82011682018060405250810190610ebf919061179e565b610edb5760405162461bcd60e51b81526004016105a2906117c0565b6040805186815260208101869052339185917ffb617c13a5b4b052ee893903dca019ab1611dfef1b20f7acb7a5bfe008c10260910160405180910390a36006546001600160a01b031615610fed576006546001600160a01b031663f4fb8159338588610f4a62278d008a611874565b876000610f5a8262278d0061181f565b6040516001600160e01b031960e08a901b1681526001600160a01b039097166004880152602487019590955260448601939093526064850191909152608484015260a483015260c482015260e4016020604051808303816000875af1158015610fc7573d6000803e3d6000fd5b505050506040513d601f19601f82011682018060405250810190610feb9190611888565b505b505050610ff960018055565b5050565b6000818152600360205260408120600181015462010000900460ff166110355760405162461bcd60e51b81526004016105a290611771565b600181015481546000916064916110589160ff16906001600160801b03166118a1565b61106291906118ca565b60018301546001600160801b0391909116915061108790610100900460ff16826118f8565b949350505050565b6000828152602081905260409020600101546110aa816113b1565b610524838361144d565b6000818152600360205260409020600181015462010000900460ff166110ec5760405162461bcd60e51b81526004016105a290611771565b8054600160e01b900463ffffffff164210156111365760405162461bcd60e51b8152602060048201526009602482015268546f6f206561726c7960b81b60448201526064016105a2565b6006546001600160a01b031633148061114e57503330145b61118b5760405162461bcd60e51b815260206004820152600e60248201526d139bdd08185d5d1a1bdc9a5e995960921b60448201526064016105a2565b60006111ca8260010160019054906101000a900460ff1660016111ae919061190f565b8354600160801b900467ffffffffffffffff169060ff166115d8565b82549091506111f790600160c01b810463ffffffff1690600160801b900467ffffffffffffffff166117ff565b67ffffffffffffffff168111156112435760405162461bcd60e51b815260206004820152601060248201526f141bdcda5d1a5bdb88195e1c1a5c995960821b60448201526064016105a2565b60018281018054610100900460ff169161125c83611928565b82546101009290920a60ff8181021990931691909216919091021790555081546001600160e01b0316600160e01b63ffffffff8316021782556006546001600160a01b03161561055d57600654600183015483546001600160a01b039283169263f4fb81599263010000009004169086906001600160801b038116906112f39062278d0090600160c01b900463ffffffff16611947565b8754600189015460405160e088901b6001600160e01b03191681526001600160a01b03909616600487015260248601949094526001600160801b03909216604485015263ffffffff166064840152600160801b900467ffffffffffffffff166084830152610100900460ff1660a482015260c4810184905260e4016020604051808303816000875af115801561138d573d6000803e3d6000fd5b505050506040513d601f19601f820116820180604052508101906105249190611888565b61074e8133611603565b60006113c78383610782565b611445576000838152602081815260408083206001600160a01b03861684529091529020805460ff191660011790556113fd3390565b6001600160a01b0316826001600160a01b0316847f2f8788117e7eff1d82e926ec794901d17c78024a50270940304540a733656f0d60405160405180910390a450600161048d565b50600061048d565b60006114598383610782565b15611445576000838152602081815260408083206001600160a01b0386168085529252808320805460ff1916905551339286917ff6391f5c32d9c69d2a47ea670b442974b53935d1edc7fd64eb21e047a839171b9190a450600161048d565b6002600154036114db57604051633ee5aeb560e01b815260040160405180910390fd5b6002600155565b6000818152600360209081526040808320600180820154630100000090046001600160a01b0316855260048452828520868652600590945291909320548254909161152c9161184b565b811461159557815460009083906115459060019061184b565b815481106115555761155561196f565b90600052602060002001549050808383815481106115755761157561196f565b600091825260208083209091019290925591825260059052604090208190555b818054806115a5576115a5611985565b60019003818190600052602060002001600090559055600560008581526020019081526020016000206000905550505050565b60006115e862015180601e6118f8565b6115f290836118f8565b6115fc908461181f565b9392505050565b61160d8282610782565b610ff95760405163e2517d3f60e01b81526001600160a01b0382166004820152602481018390526044016105a2565b60006020828403121561164e57600080fd5b81356001600160e01b0319811681146115fc57600080fd5b60006020828403121561167857600080fd5b5035919050565b80356001600160a01b038116811461169657600080fd5b919050565b6000602082840312156116ad57600080fd5b6115fc8261167f565b602080825282518282018190526000918401906040840190835b818110156116ee5783518352602093840193909201916001016116d0565b509095945050505050565b6000806040838503121561170c57600080fd5b8235915061171c6020840161167f565b90509250929050565b6000806040838503121561173857600080fd5b6117418361167f565b946020939093013593505050565b6000806040838503121561176257600080fd5b50508035926020909101359150565b602080825260139082015272506f736974696f6e206e6f742061637469766560681b604082015260600190565b6000602082840312156117b057600080fd5b815180151581146115fc57600080fd5b6020808252600f908201526e151c985b9cd9995c8819985a5b1959608a1b604082015260600190565b634e487b7160e01b600052601160045260246000fd5b67ffffffffffffffff818116838216019081111561048d5761048d6117e9565b8082018082111561048d5761048d6117e9565b600060018201611844576118446117e9565b5060010190565b8181038181111561048d5761048d6117e9565b634e487b7160e01b600052601260045260246000fd5b6000826118835761188361185e565b500490565b60006020828403121561189a57600080fd5b5051919050565b6001600160801b0381811683821602908116908181146118c3576118c36117e9565b5092915050565b60006001600160801b038316806118e3576118e361185e565b806001600160801b0384160491505092915050565b808202811582820484141761048d5761048d6117e9565b60ff818116838216019081111561048d5761048d6117e9565b600060ff821660ff810361193e5761193e6117e9565b60010192915050565b600063ffffffff83168061195d5761195d61185e565b8063ffffffff84160491505092915050565b634e487b7160e01b600052603260045260246000fd5b634e487b7160e01b600052603160045260246000fdfea2646970667358221220353c39967e5693c7a1b5493cfc82ebc697cc2f45cded3e7b4c406bd9330acced64736f6c634300081c0033",
  "linkReferences": {},
  "deployedLinkReferences": {}
}